:020000040800F2
:1000000000400020E9150008B5140008B9140008E4
:10001000BD140008C1140008C51400080000000049
:10002000000000000000000000000000C9140008EB
:10003000CD14000800000000D1140008D5140008F9
:100040003116000831160008311600083116000874
:100050003116000831160008311600083116000864
:100060003116000831160008311600083116000854
:100070003116000831160008311600083116000844
:100080003116000831160008311600083116000834
:100090003116000831160008311600083116000824
:1000A0000000000031160008311600083116000863
:1000B0003116000831160008311600083116000804
:1000C00031160008311600083116000831160008F4
:1000D00031160008311600083116000831160008E4
:1000E00031160008311600083116000831160008D4
:1000F00031160008000000000000000000000000B1
:1001000000000000000000000000000000000000EF
:1001100000000000000000000000000000000000DF
:1001200000000000000000000000000000000000CF
:0C01300000000000000000005FF808F173
:10013C0010B5054C237833B9044B13B10448AFF315
:10014C0000800123237010BD680000200000000017
:10015C00641F000808B5034B1BB103490348AFF3F8
:10016C00008008BD000000006C000020641F000827
:10017C0010B50446074A084B1068A3FB00308009F1
:10018C0000F07CF8214600224FF0FF3000F040F8E0
:10019C00002010BD00000020D34D621008B50320D4
:1001AC0000F024F80020FFF7E3FF01F005F9002030
:1001BC0008BD00BF024A136801331360704700BFCB
:1001CC0094000020014B1868704700BF9400002079
:1001DC0010B582B00190FFF7F5FF0446FFF7F2FF70
:1001EC00019B001B9842F9D302B010BD4FF6FF01E2
:1001FC00064A0002D36800F4E0600B4043F0BF6392
:10020C0043F400330343D360704700BF00ED00E0BC
:10021C00184B30B4DB68C3F30223C3F10705042D7C
:10022C0003F1040428BF0425062C19D94FF0FF3420
:10023C00033B9C4022EA04044FF0FF32AA4021EA1F
:10024C00020101FA03F2224312010028D2B20ADBA6
:10025C0000F1604000F5614080F8002330BC70472D
:10026C0000242346E8E7044B00F00F0003441A7601
:10027C0030BC704700ED00E0FCEC00E00138B0F160
:10028C00807F0DD230B4F02500220721054B064C9F
:10029C00586084F82350104630BC9A60196070473F
:1002AC000120704710E000E000ED00E0044A042853
:1002BC0013680CBF43F0040323F00403136070476E
:1002CC0010E000E0704700BF08B5FFF7FBFF08BD6A
:1002DC002DE9F04FD1F800E083B0BEF1000F00F033
:1002EC00828088460025DFF8A091012303FA05F2ED
:1002FC0012EA0E0673D00323D8F804106F0021F015
:10030C00100CBB40BCF1020F6FEA03036ED0D0F8A7
:10031C0000A001F0030403EA0A0ABC400CF1FF3C04
:10032C0044EA0A04BCF1010F046040F28180C46805
:10033C00D8F808202340BA401A43CF00C2604ED5EB
:10034C000F274C4C25F00303226A03F1804342F043
:10035C0001022262226A03F5803302F0010201924B
:10036C0005F00302019C92009C68974024EA070464
:10037C00414FB84211D007F58067B84270D03F4F5B
:10038C00B84268D03E4FB8426FD03E4FB8420CBF17
:10039C000427052707FA02F21443F2439C60D9F8AC
:1003AC000030CC0354BF13403343C9F80030D9F8A4
:1003BC0004308F0354BF13403343C9F80430D9F8C9
:1003CC000830CC0254BF13403343C9F80830D9F875
:1003DC000C30890254BF13403343C9F80C3001353B
:1003EC003EFA05F381D103B0BDE8F08F4FF00F0B4F
:1003FC004FEAD50A00EB8A0A05F0070CDAF8204020
:10040C004FEA8C0C0BFA0CFB24EA0B0BD8F81040BF
:10041C0004FA0CF444EA0B04CAF82040D0F800C0EB
:10042C0001F0030403EA0C0CBC4044EA0C04046025
:10043C00846804EA030CD8F80C40BC4044EA0C0471
:10044C008460D0F804C0C1F300142CEA0202AC4062
:10045C00144344606BE7022707FA02F214439CE74B
:10046C00012707FA02F2144397E7032707FA02F26F
:10047C00144392E70038024000000240000802409A
:10048C00000C0240001002400004014002B90904B3
:10049C00816170472DE9F043036885B0DE0704469F
:1004AC003BD5C3498A6802F00C02082A00F01C8173
:1004BC008A6802F00C020C2A00F012816368012B8E
:1004CC0000F01482002B00F09682052BB84B1A68B2
:1004DC0000F0AC8322F480321A601A6822F4802275
:1004EC001A60FFF76FFE4FF400380746B04E012537
:1004FC0005E0FFF767FEC01B642800F2788298FACB
:10050C00A8F3326898FAA8F3B3FA83F303F01F0345
:10051C0005FA03F31342ECD02368980743D5A4499A
:10052C008A6802F00C02042A00F0EA818A6802F060
:10053C000C020C2A00F0E081E2680125002A00F090
:10054C00AF8195FAA5F3B3FA83F303F1845303F562
:10055C008E139B001D60FFF735FE4FF00208074617
:10056C00934E05E0FFF72EFEC01B022800F23F82DF
:10057C0098FAA8F3326898FAA8F3B3FA83F303F065
:10058C001F0305FA03F31342ECD071684FF4F853D0
:10059C0093FAA3F3B3FA83F2236921F4F85193404D
:1005AC000B4373602368DA0655D41D0728D562699E
:1005BC00002A00F05181012292FAA2F1B1FA81F1E4
:1005CC007C4B16460B449B001A60FFF7FBFD4FF06B
:1005DC0002080746764D05E0FFF7F4FDC01B022824
:1005EC0000F2058298FAA8F36A6B98FAA8F3B3FAAA
:1005FC0083F303F01F0306FA03F31342ECD02368D2
:10060C00580740F1B5806A4B5A6AD10000F1178245
:10061C004FF001085A6A42F080525A625B6A03F04A
:10062C0080530193019B644B1A68D20540F1CE8133
:10063C00A368012B72D0002B00F02982052B5C4B98
:10064C005A6B00F0948222F480725A635A6B22F433
:10065C0080625A6367E0564DAB6813F00C0F00F0E4
:10066C00C480A2694FF48073002A00F0EB8193FAE6
:10067C00A3F3B3FA83F3012603F1845303F58E132A
:10068C009B001E60FFF79EFD4FF40078074605E0C7
:10069C00FFF798FDC01B022800F2A98198FAA8F375
:1006AC002A6898FAA8F3B3FA83F303F01F0306FA47
:1006BC0003F31342ECD06B68226A23F460431343B8
:1006CC006B6069684FF07F4393FAA3F3B3FA83F23C
:1006DC00E36921F07F4193400B436B60236864E72F
:1006EC008A68D5037FF5EAAE4FF4003292FAA2F194
:1006FC002F49086892FAA2F2B2FA82F2012102F0B2
:10070C001F0201FA02F202423FF407AF6268002AAC
:10071C007FF403AF012005B0BDE8F083244A536B8E
:10072C0043F480735363FFF74DFD4FF40079074694
:10073C001F4E012507E0FFF745FD41F28833C01B32
:10074C00984200F2548199FAA9F3726B99FAA9F3C1
:10075C00B3FA83F303F01F0305FA03F31342EAD051
:10076C00B8F1000F04D0124A536A23F0805353623D
:10077C00636AB3B30E4DAA6802F00C020C2AC9D0FE
:10078C00022B4FF0807300F0FA8193FAA3F3B3FAC3
:10079C0083F3002203F1845303F58E139B001A603C
:1007AC00FFF710FD2C4607464FF0007501260BE0B5
:1007BC0000380240A0C1911000700040FFF702FD0C
:1007CC00C01B022800F2138195FAA5F3226895FA52
:1007DC00A5F3B3FA83F303F01F0306FA03F31342F2
:1007EC00ECD1002005B0BDE8F0834FF4007393FA10
:1007FC00A3F2296893FAA3F3B3FA83F3012203F06B
:10080C001F0302FA03F30B4202D0A369002B81D021
:10081C00B44B226A596801F460418A4240F26E81FD
:10082C00996811F0F00F40F09180596ACF0040F1B7
:10083C001782AD4B196801F4C051B1F5C05F40F09F
:10084C008580B2F5404F40F08180A84901200B68AB
:10085C0043F004030B607AE0012595FAA5F1B1FA97
:10086C0081F1A34B4FF002080B449B001A60FFF779
:10087C00A9FC9C4E074605E0FFF7A4FCC01B022810
:10088C0000F2B58098FAA8F3726B98FAA8F3B3FA51
:10089C0083F303F01F0305FA03F31342ECD1AEE626
:1008AC0095FAA5F3B3FA83F303F1845303F58E138E
:1008BC009B001A60FFF786FC4FF002080746894E32
:1008CC0005E0FFF77FFCC01B022800F2908098FA2D
:1008DC00A8F3326898FAA8F3B3FA83F303F01F0372
:1008EC0005FA03F31342ECD123685CE67D4A1368E6
:1008FC0043F480331360F4E58A68D1033FF51CAEF2
:10090C00022292FAA2F17749086892FAA2F2B2FA9C
:10091C0082F2012102F01F0201FA02F2024203D01C
:10092C00E2688A427FF4F6AE6E4D4FF4F852686876
:10093C0092FAA2F2B2FA82F1226920F4F8508A40BB
:10094C0002436A60DA067FF530AE84E60020674920
:10095C000B6823F0010303430B600B6803F00103E6
:10096C0098427FF4D7AE5F484FF07F43416821F443
:10097C00604111434160456893FAA3F3B3FA83F1E4
:10098C00E36925F07F458B402B4343604FF4604077
:10099C0090FAA0F0534BB0FA80F09968F02595FAD4
:1009AC00A5F5B5FA85F54FF4004301F0F001E940E7
:1009BC00504DC240695C013203FA02F24E4BCA4000
:1009CC0000201A60FFF7D4FB2368EEE51A681D4679
:1009DC0042F480721A60FFF7F5FB06462B68DB05C4
:1009EC003FF526AEFFF7EEFB801B6428F6D90320FB
:1009FC0005B0BDE8F0833B4B4FF400381A681E4637
:100A0C0022F480321A601A68012522F480221A60BE
:100A1C00FFF7D8FB074604E0FFF7D4FBC01B6428A4
:100A2C00E5D898FAA8F3326898FAA8F3B3FA83F3E6
:100A3C0003F01F0305FA03F31342EDD16CE54FF0FD
:100A4C000008F0E593FAA3F3B3FA83F303F18453AC
:100A5C0003F58E139B001A60FFF7B4FB4FF400787C
:100A6C000746012604E0FFF7ADFBC01B0228BED8E9
:100A7C0098FAA8F32A6898FAA8F3B3FA83F303F068
:100A8C001F0306FA03F31342EDD123688DE5154BD2
:100A9C004FF400795A6B1E4622F480725A635A6BDB
:100AAC00012522F480625A63FFF78CFB074606E0AF
:100ABC00FFF788FB41F28833C01B984297D899FA0C
:100ACC00A9F3726B99FAA9F3B3FA83F303F01F033A
:100ADC0005FA03F31342EBD1B8F1000F3FF448AE23
:100AEC0041E600BF0038024000700040003C02406C
:100AFC00A0C19110881F00080000002058684FF01A
:100B0C007F4120F46040104358605D6891FAA1F178
:100B1C00B1FA81F0E16925F07F45814029435960A4
:100B2C00996811F0F00F14D1596ACE0040F186800B
:100B3C00544B196801F4C051B1F5C05F09D1B2F53D
:100B4C00404F06D1504901200B6843F004030B6061
:100B5C0000E000204C490B6823F0010303430B60B9
:100B6C000B6803F0010398427FF4D4AD0EE742F416
:100B7C0080625A635A6B42F480725A63D3E593FADB
:100B8C00A3F3B3FA83F3002203F1845303F58E131A
:100B9C009B001A60FFF716FB4FF000780746012602
:100BAC0005E0FFF70FFBC01B02283FF620AF98FAB9
:100BBC00A8F32A6898FAA8F3B3FA83F303F01F0397
:100BCC0006FA03F31342ECD1AA68D4E90A3122F4F1
:100BDC007D020B43216B13430B43AB604FF08073CF
:100BEC0093FAA3F3B3FA83F303F1845303F58E134F
:100BFC009B001E60FFF7E6FA4FF000740746234E89
:100C0C00012505E0FFF7DEFAC01B02283FF6EFAE28
:100C1C0094FAA4F3326894FAA4F3B3FA83F303F0CE
:100C2C001F0305FA03F31342ECD0DAE542F48022F9
:100C3C001A601A6842F480321A6052E4596A1148F8
:100C4C0041F080515962596A01F080510391039926
:100C5C000168586A01F4C05120F0805058626BE76B
:100C6C00596A084841F080515962596A01F0805123
:100C7C00029102990168586A01F4C05120F0805029
:100C8C005862DAE500700040003C02400038024037
:100C9C00894A136803F001038B420FD2012900F03B
:100CAC00AF80854A136823F001030B43136013686C
:100CBC0003F001038B4201D00120704703682DE93A
:100CCC00F0419A0706D57D4C8568A26822F0F002A7
:100CDC002A43A260DF0705460E4637D54368022B30
:100CEC0000F0E080032B00F0DA80012B76D04FF47B
:100CFC00007292FAA2F17149086892FAA2F2B2FA61
:100D0C0082F2012102F01F0201FA02F2024274D0B7
:100D1C006A4C41F28838A26822F003021343A360A4
:100D2C00FFF750FA6B680746022B7CD0032B00F0C0
:100D3C008580012B06D18CE0FFF744FAC01B40459F
:100D4C0000F2B380A36813F00C0FF5D15A4A136864
:100D5C0003F00103B34206D9136823F001031360B7
:100D6C001368D80749D42B685C0706D55349E86843
:100D7C008A6822F4E06202438A60190745D44F491D
:100D8C008B6803F00C02082A00F093800C2A66D0C2
:100D9C00042A00F08C804A684FF4604191FAA1F16A
:100DAC00B1FA81F14FF4004302F46042CA400132BF
:100DBC009340424AF021926891FAA1F1B1FA81F183
:100DCC003F4802F0F002CA40815C3E4ACB40002012
:100DDC001360FFF7CDF90020BDE8F081022292FAF2
:100DEC00A2F13649096892FAA2F2B2FA82F202F042
:100DFC001F0203FA02F20A428AD10120BDE8F081F7
:100E0C00136843F0040313604BE72C4A2969936879
:100E1C0023F4605343EAC1039360B0E7FFF7D2F9C0
:100E2C00C01B404541D8A36803F00C03082BF5D137
:100E3C008CE7FFF7C7F9C01B404536D8A36803F011
:100E4C000C030C2BF5D181E7FFF7BCF9C01B404517
:100E5C002BD8A36803F00C03042BF5D176E74FF4E1
:100E6C00701292FAA2F2B2FA82F203F47010164CDB
:100E7C0020FA02F2A05C4FF4400292FAA2F2B2FA0B
:100E8C0082F2896803F44003D340CA034CBF0F4A73
:100E9C000F4A013302FB00F2B2FBF3F389E74FF088
:100EAC00007226E74FF4003223E70320A6E7084B35
:100EBC007FE7064B7DE700BF003C02400038024054
:100ECC00881F0008000000207C1F000800366E01FF
:100EDC000024F400014B1868704700BF000000208C
:100EEC00084B4FF4E0629B6892FAA2F2B2FA82F2DB
:100EFC000548064903F4E063D340C35C0868D84056
:100F0C00704700BF00380240981F00080000002006
:100F1C00084B4FF460529B6892FAA2F2B2FA82F23A
:100F2C000548064903F46053D340C35C0868D840B5
:100F3C00704700BF00380240981F000800000020D6
:100F4C00002800F0F7802DE9F84390F8393004467A
:100F5C0003F0FF02002B00F0E8800222236884F8E3
:100F6C003920DA68E06822F40052DA601969A26864
:100F7C0021F44051014319612069D9686569024324
:100F8C00E06921F416412A4321F00C0102430A4383
:100F9C00DA605A69A16922F440720A43B0F5004F35
:100FAC005A61A34A6AD0934200F00481FFF798FF7C
:100FBC00636800EB800000EB80009B00B0FBF3F358
:100FCC009C4F4FF06408A7FB03235B091D01FFF73F
:100FDC0087FF666800EB800000EB8000B600B0FB7A
:100FEC00F6F6FFF77DFF626800EB8000930000EBE4
:100FFC008000B0FBF3F3A7FB03235B0908FB13632F
:10100C001B013233A7FB03235B0903F0F006FFF748
:10101C0067FF626800EB800000EB80009300B0FB80
:10102C00F3F9FFF75DFF626800EB8000930000EBC3
:10103C008000B0FBF3F3A7FB03235B0908FB1393BE
:10104C001B013233A7FB0323C3F34313334322683F
:10105C002B449360002101251369084623F4904327
:10106C001361536923F02A035361D36843F400538B
:10107C00D360E16384F83950BDE8F88393425BD0C8
:10108C00FFF72EFF636800EB800000EB80005B0035
:10109C00B0FBF3F3674F4FF06408A7FB03235B0926
:1010AC001E01FFF71DFF656800EB800000EB800060
:1010BC006D00B0FBF5F5FFF713FF626800EB8000E5
:1010CC00530000EB8000B0FBF3F3A7FB03235B0999
:1010DC0008FB1353DB003233A7FB03231B0903F478
:1010EC00F875FFF7FDFE626800EB800000EB8000F6
:1010FC005300B0FBF3F9FFF7F3FE626800EB8000DE
:10110C00530000EB8000B0FBF3F3A7FB03235B0958
:10111C0008FB1393DB003233A7FB0323C3F3421307
:10112C00334422682B44936094E780F8382000F015
:10113C0093F912E701207047FFF7EAFE636800EBB2
:10114C00800000EB80005B00B0FBF3F3394F4FF0F5
:10115C006408A7FB03235B091E01FFF7D9FE656832
:10116C0000EB800000EB80006D00B0FBF5F5FFF7A5
:10117C00CFFE626800EB8000530000EB8000B0FBF8
:10118C00F3F3A7FB03235B0908FB1353DB00323398
:10119C00A7FB03231B0903F4F875FFF7B9FE62687C
:1011AC0000EB8000530000EB8000B0FBF3F9FFF77D
:1011BC00AFFEA2E7FFF7ACFE636800EB800000EB2C
:1011CC0080009B00B0FBF3F31A4F4FF06408A7FBB1
:1011DC0003235B091D01FFF79BFE666800EB800093
:1011EC0000EB8000B600B0FBF6F6FFF791FE6268EC
:1011FC0000EB8000930000EB8000B0FBF3F3A7FB47
:10120C0003235B0908FB13631B013233A7FB032386
:10121C005B0903F0F006FFF77BFE626800EB8000D1
:10122C00930000EB8000B0FBF3F9FFF771FEFAE6D8
:10123C00003801401F85EB51F0B5022201244FF01C
:10124C00100C00274FF480264FF480051A4993B0F8
:10125C000B6805A823F4C05343F400630B6005929C
:10126C000E92CDE9084CCDE90F761195FFF712F9E6
:10127C0000B1FEE7034603220F2521466846CDE95F
:10128C0002330493CDE90052FFF702FD044600B18E
:10129C00FEE7FFF71FFE4FF47A73B0FBF3F0FEF797
:1012AC00EDFF0420FFF702F8224621464FF0FF30F5
:1012BC00FEF7AEFF13B0F0BD0070004070B588B003
:1012CC00FEF76CFFFFF7B8FF01221546344B4FF4C5
:1012DC008051D86940F02000D861DC69314804F0B5
:1012EC0020040094009CDC691443DC61DC6914402C
:1012FC000194019CDC6944F00204DC61DB6900248C
:10130C0003F002030293029BFFF7C0F82A46102158
:10131C002548FFF7BBF84FF4805303A92148CDE9CA
:10132C000335CDE90544FEF7D3FF102303A91E486E
:10133C00CDE9045403930694FEF7CAFF4FF4E13150
:10134C000C221A4B1A4D1846C3E902441C61C3E91E
:10135C000644C3E900515A61FFF7F2FD00B1FEE704
:10136C000446144800F0EEF90E4E0F4D4FF47A700F
:10137C00FEF72EFFE2434FF4805102F0010230469B
:10138C00FFF784F884F002020134E4B2C2F34002A5
:10139C0010212846FFF77AF8042C28BF0024E5E733
:1013AC000038024000000240000402409800002077
:1013BC0000380140A01F0008264B00B55A6A85B0C2
:1013CC0042F000425A625A6A032002F00042019233
:1013DC00019A1A6A42F001021A621A6A02F00102B8
:1013EC000292029A5A6A42F080525A625B6A03F085
:1013FC0080530393039BFEF7F9FE00226FF00B0062
:10140C001146FEF705FF00226FF00A001146FEF7A9
:10141C00FFFE00226FF009001146FEF7F9FE0022D4
:10142C006FF004001146FEF7F3FE00226FF003008C
:10143C001146FEF7EDFE00226FF001001146FEF79B
:10144C00E7FE00224FF0FF30114605B05DF804EBCB
:10145C00FEF7DEBE003802400268114B9A4200D003
:10146C0070474FF4C061F0B502270126032507240D
:10147C0003F580331A6A87B042F480421A621B6A01
:10148C00084803F480430191009301A9009BCDE926
:10149C000276CDE90454FEF71BFF07B0F0BD00BF88
:1014AC000038014000000240704700BFFEE700BF5B
:1014BC00FEE700BFFEE700BFFEE700BF704700BFBE
:1014CC00704700BF704700BF08B5FEF773FEBDE85C
:1014DC000840FEF7F9BE00BF70B5161E07DD0C46BE
:1014EC008D1900F071F804F8010BA542F9D13046C2
:1014FC0070BD00BF70B5161E07DD0C468D1914F8B3
:10150C00010B00F057F8AC42F9D1304670BD00BF6A
:10151C000C4A08B5136833B169461844884209D897
:10152C001060184608BD08490B46116069461844FE
:10153C008842F5D900F078F80C224FF0FF330260A6
:10154C00184608BD84000020E00000204FF0FF305A
:10155C00704700BF4FF4005300204B60704700BF32
:10156C00012070470020704730B400254FF0006414
:10157C000D4B0E4A19680E4841F480711960996838
:10158C000A409A601A6822F0885222F001121A60FE
:10159C001A6822F480221A609A6822F47D029A60FA
:1015AC00DD60846030BC7047003802400CC0FF889E
:1015BC0000ED00E0034A13685B06FCD5C0B2506036
:1015CC000020704700380140034A13689B06FCD585
:1015DC005068C0B2704700BF00380140002103E0E2
:1015EC000B4B5B58435004310A480B4B42189A4240
:1015FC00F6D30A4A02E0002342F8043B084B9A4215
:10160C00F9D3FFF7B1FF00F015F8FFF757FE70475D
:10161C004420000800000020680000206800002022
:10162C00DC000020FEE70000014B1868704700BF8B
:10163C000400002070B500250C4E0D4CA41BA4100A
:10164C00A54209D100F088FC00250A4E0A4CA41BC7
:10165C00A410A54205D170BD56F825309847013528
:10166C00EEE756F8253098470135F2E73C200008A4
:10167C003C2000083C20000840200008034602449F
:10168C00934200D1704703F8011BF9E770B50E4681
:10169C00054618B183690BB900F00CFAAB69AC685C
:1016AC0013B9284600F006FA234B9C4217D16C68FC
:1016BC00A3891B071DD52369DBB1013EA36816F86E
:1016CC00011F013BA360E9B9002B2EDA22460A2147
:1016DC00284600F03FF8013011D00A2011E0174BDA
:1016EC009C4201D1AC68E3E7154B9C4208BFEC6807
:1016FC00DEE72146284600F07FF80028DDD04FF0C9
:10170C00FF3070BD002B04DAA2699A4206DC0A296C
:10171C0004D023685A1C22601970CFE72246284651
:10172C0000F018F80130C9D1E9E70A2023685A1CE7
:10173C0022601870E5E700BFFC1F00081C200008A1
:10174C00DC1F0008024B01461868FFF79FBF00BF63
:10175C0004000020F8B50E461446054618B18369FE
:10176C000BB900F0A7F9214B9C422AD16C68A369F4
:10177C00A360A3891A072ED5236963B32369206854
:10178C00F6B2C01A63693746834204DC2146284608
:10179C0000F026F928BBA3680130013BA360236845
:1017AC005A1C22601E706369834204D0A389DB0734
:1017BC0019D50A2E17D12146284600F011F990B1FF
:1017CC000FE00B4B9C4201D1AC68D0E7094B9C421B
:1017DC0008BFEC68CBE72146284600F00DF800283E
:1017EC00CCD04FF0FF373846F8BD00BFFC1F0008C7
:1017FC001C200008DC1F0008324B70B51D68064623
:10180C000C4625B1AB6913B9284600F053F92E4BA1
:10181C009C420FD16C68B4F90C309AB215072CD4D9
:10182C00D00611D40922326043F04003A3814FF05B
:10183C00FF303EE0254B9C4201D1AC68EBE7244BDA
:10184C009C4208BFEC68E6E7510712D5616B41B1C9
:10185C0004F14403994202D0304600F019FA0023F7
:10186C006363A38923F02403A381002363602369AA
:10187C002360A38943F00803A38123694BB9A3898F
:10188C0003F42073B3F5007F03D02146304600F0FB
:10189C00BFF9A28912F001030CD00023A360636985
:1018AC005B42A361236953B9B4F90C3013F0800087
:1018BC00BAD170BD920758BF6369A360F2E70020EC
:1018CC00F7E700BF04000020FC1F00081C200008E4
:1018DC00DC1F00088A892DE9F041054610070C46EB
:1018EC0058D44B68002B05DC0B6C002B02DC002061
:1018FC00BDE8F081E66A002EF9D0002312F4805284
:10190C002F68216A2B6032D0606DA3895A0705D5E8
:10191C006368C01A636B0BB1236CC01A00230246B8
:10192C00E66A216A2846B047431CA38906D1296878
:10193C001D2948D8294ACA40D60744D500226260DE
:10194C002269D904226004D5421C01D12B6803B949
:10195C006065616B2F600029C9D004F14403994282
:10196C0002D0284600F094F900206063C0E7012300
:10197C002846B047411CC8D12B68002BC5D01D2B65
:10198C0001D0162B01D12F60B1E7A38943F040039E
:10199C00A381ADE70F69002FA9D0930718BF0023CF
:1019AC000E6808BF4B69A6EB07080F608B60B8F197
:1019BC00000F9CDD43463A46216A2846A66AB0478A
:1019CC00002806DCA38943F04003A3814FF0FF30CD
:1019DC008EE70744A8EB0008E9E700BF01004020B0
:1019EC0038B50B6905460C46DBB118B183690BB9E8
:1019FC0000F060F80C4B9C4209D16C68B4F90C30C7
:101A0C007BB121462846BDE83840FFF763BF074B42
:101A1C009C4201D1AC68F1E7054B9C4208BFEC68D5
:101A2C00ECE7002038BD00BFFC1F00081C2000089C
:101A3C00DC1F0008002310B50446C0E900338360A6
:101A4C0081814366C281C0E904338361194608224F
:101A5C005C30FFF713FE054B24626362044BA362F8
:101A6C00044BE362044B236310BD00BF091E000846
:101A7C002B1E0008631E0008871E0008014900F099
:101A8C0085B800BFED19000870B568254A1E55438E
:101A9C000E4605F1740100F047F9044640B10021EF
:101AAC00C0E900160C30A06005F16802FFF7E6FDF6
:101ABC00204670BD836910B5044633BBC0E91233B0
:101ACC000365124B124A1B688262984204BF0123C1
:101ADC00836100F01FF86060204600F01BF8A060E6
:101AEC00204600F017F80022E06004216068FFF740
:101AFC00A1FF01220921A068FFF79CFF02221221FD
:101B0C00E068FFF797FF0123A36110BDD81F000801
:101B1C00891A0008F8B51B4B07461E68B36913B940
:101B2C003046FFF7C7FF4836D6E90134013B03D5F1
:101B3C00336833B13668F7E7B4F90C506DB16834DB
:101B4C00F4E704213846FFF79FFF30600028F1D1FD
:101B5C000C2304463B602046F8BD0B4B6566C4E97C
:101B6C000055A560C4E90335C4E90555082229468A
:101B7C0004F15C00FFF782FDC4E90D55C4E9125570
:101B8C00E9E700BFD81F00080100FFFF2DE9F8436B
:101B9C0080468946002600F1480414B93046BDE859
:101BAC00F883D4E90175013F01D52468F5E7AB89C9
:101BBC00012B07D9B5F90E30013303D02946404625
:101BCC00C84706436835EEE770B50E46B1F90E10FE
:101BDC0096B0002914461D4607DA00232B60B38902
:101BEC001A0610D44FF480630EE06A4600F06CF9CC
:101BFC000028F2DB019A02F47042A2F500535A421B
:101C0C005A412A60EEE740230020236016B070BDD5
:101C1C008B8973B59D0706460C4607D504F147031F
:101C2C00236023610123636102B070BD01AB6A467E
:101C3C00FFF7CAFF00990546304600F075F848B921
:101C4C00B4F90C309A05EFD423F0030343F00203EC
:101C5C00A381E3E70D4BB362A389206043F08003BB
:101C6C00A381009B20616361019B5BB1B4F90E10F1
:101C7C00304600F03BF928B1A38923F0030343F06D
:101C8C000103A381A3891D43A581CDE7891A00080F
:101C9C0038B50546002943D051F8043C0C1F002BE5
:101CAC00B8BFE41800F044F91E4A1368104633B963
:101CBC00636014602846BDE8384000F03AB9A3428E
:101CCC000BD921686218934201BF1A685B685218DD
:101CDC00226063600460EDE713465A680AB1A242C1
:101CEC00FAD919685818A0420BD120680144581829
:101CFC0082421960DED110685268014419605A6042
:101D0C00D8E702D90C232B60D4E7206821188A422B
:101D1C0001BF116852680918216062605C60C9E7F4
:101D2C0038BD00BF8C00002070B5CD1C25F003051C
:101D3C0008350C2D38BF0C25002D064601DBA942B9
:101D4C0003D90C233360002070BD00F0F1F8214A58
:101D5C001468214691B9204C23681BB9304600F019
:101D6C003DF820602946304600F038F8431C24D159
:101D7C000C233046336000F0DCF8E4E70B685B1BA7
:101D8C0018D40B2B0FD90B60CC18CD50304600F06B
:101D9C00D0F804F10B00231D20F00700C31AD3D098
:101DAC005A42E250D0E74B688C4216BF6360136016
:101DBC000C46EBE70C464968CCE7C41C24F0030442
:101DCC00A04205D0211A304600F008F80130CFD0DF
:101DDC002560DBE78C0000209000002038B5002344
:101DEC00054C054608462360FFF792FB431C02D1C5
:101DFC00236803B12B6038BDD800002010B50C4609
:101E0C00B1F90E1000F096F80028ABBF636DA389F2
:101E1C001B1823F48053ACBF6365A38110BD2DE95F
:101E2C00F0411F468B890546DB050C46164605D549
:101E3C0002230022B1F90E1000F068F8A389324693
:101E4C0023F48053A381B4F90E103B462846BDE819
:101E5C00F04100F017B810B50C46B1F90E1000F0B7
:101E6C0055F8431CA38915BF606523F4805343F4D4
:101E7C008053A38118BFA38110BDB1F90E1000F0DF
:101E8C0013B8000038B50546084611460022054C2B
:101E9C0022601A46FFF72EFB431C02D1236803B1C4
:101EAC002B6038BDD800002038B50023054C054602
:101EBC0008462360FFF74AFB431C02D1236803B199
:101ECC002B6038BDD800002038B50023064C0546E1
:101EDC00084611462360FFF73DFB431C02D12368E3
:101EEC0003B12B6038BD00BFD800002038B50023EB
:101EFC00054C054608462360FFF732FB431C02D114
:101F0C00236803B12B6038BDD800002038B50546D6
:101F1C00084611460022054C22601A46FFF722FBA8
:101F2C00431C02D1236803B12B6038BDD8000020BC
:101F3C007047704738B50546084611460022054CD7
:101F4C0022601A46FFF7C8FA431C02D1236803B17A
:101F5C002B6038BDD8000020F8B500BFF8BC08BC19
:101F6C009E467047F8B500BFF8BC08BC9E4670474B
:101F7C00030406080C1018203000000000000000BC
:101F8C00000000000102030406070809000000001D
:101F9C00010203044D616B65207468652074776FD2
:101FAC00204C454473206F6E207468652052616B21
:101FBC0038313120747261636B657220626F6172AB
:101FCC006420626C696E6B0D00000000080000203C
:101FDC0000000000000000000000000000000000F5
:101FEC0000000000000000000000000000000000E5
:101FFC0000000000000000000000000000000000D5
:10200C0000000000000000000000000000000000C4
:10201C0000000000000000000000000000000000B4
:10202C0000000000000000000000000000000000A4
:04203C006101000836
:042040003D01000856
:1020440068FF1F000800002000000000FC1F0008BB
:102054001C200008DC1F0008000000000000000035
:10206400000000000000000000000000000000006C
:10207400000000000000000000000000000000005C
:10208400000000000000000000000000000000004C
:10209400000000000000000000000000000000003C
:0820A400000000000000000034
:04000005080015E9F1
:00000001FF
