:020000040800F2
:100000000080002085210008652000086720000886
:10001000692000086B2000086D2000080000000027
:100020000000000000000000000000006F20000839
:1000300071200008000000007320000875200008EF
:10004000CD210008CD210008CD210008CD210008D8
:10005000CD210008CD210008CD210008CD210008C8
:10006000CD210008CD210008CD210008CD210008B8
:10007000CD210008CD210008CD210008CD210008A8
:10008000CD210008CD210008CD210008CD21000898
:10009000CD210008CD210008CD210008CD21000888
:1000A00000000000CD210008CD210008CD2100086E
:1000B000CD210008CD210008CD210008CD21000868
:1000C000CD210008CD210008CD210008CD21000858
:1000D000CD210008CD210008CD210008CD21000848
:1000E000CD210008CD210008CD210008CD21000838
:1000F000CD2100080000000000000000000000000A
:1001000000000000000000000000000000000000EF
:1001100000000000000000000000000000000000DF
:1001200000000000000000000000000000000000CF
:0C01300000000000000000005FF808F173
:10013C0010B5054C237833B9044B13B10448AFF315
:10014C0000800123237010BDD401002000000000AA
:10015C002C35000808B5034B1BB103490348AFF31A
:10016C00008008BD00000000D80100202C350008DC
:10017C0010F8012B11F8013B012A28BF9A42F7D045
:10018C00D01A704710B50446074B1868074BA3FBF1
:10019C000030800900F07AF8002221464FF0FF3041
:1001AC0000F040F8002010BD00000020D34D62107C
:1001BC0008B5032000F024F80020FFF7E3FF01F05E
:1001CC00ABFE002008BD0000024A13680133136027
:1001DC00704700BF00020020014B1868704700BF39
:1001EC000002002010B582B00190FFF7F5FF044625
:1001FC00FFF7F2FF001B019B9842F9D302B010BD30
:10020C00074AD36823F4E0631B041B0C000200F4C0
:10021C00E060184340F0BF6040F40030D06070479D
:10022C0000ED00E030B4174BDB68C3F30223C3F1DD
:10023C000704042C28BF04241D1D062D18D9033BCC
:10024C004FF0FF3505FA04F421EA0401994005FA50
:10025C0003F322EA0303194300280BDB0901C9B29B
:10026C0000F1604000F5614080F8001330BC70472D
:10027C000023E5E700F00F000901C9B2024B195445
:10028C00F4E700BF00ED00E014ED00E00138B0F140
:10029C00807F0AD2064B5860064AF02182F8231060
:1002AC000020986007221A6070470120704700BF39
:1002BC0010E000E000ED00E0042805D0054A1368CA
:1002CC0023F0040313607047024A136843F00403DD
:1002DC001360704710E000E0704708B5FFF7FCFFB3
:1002EC0008BD0000F0B482B0002336E0042400E026
:1002FC000024B4403C4302355B4E46F825405B4C31
:10030C002568D44304EA05064F6817F4803F01D0F2
:10031C0042EA0506554D2E606D6804EA05064F68E5
:10032C0017F4003F01D042EA0506504D6E60AD68EF
:10033C0004EA05064F6817F4801F01D042EA05064F
:10034C004A4DAE60ED682C404E6816F4001F01D08B
:10035C0042EA0504454AD46001330A6832FA03F4D0
:10036C007FD001249C402240F6D04D68022D01D054
:10037C00122D10D1DE08083650F826C003F0070500
:10038C00AF000F25BD402CEA050C0D69BD4045EAB8
:10039C000C0540F8265006685F000325BD40ED4370
:1003AC0005EA060C4E6806F00306BE4046EA0C064B
:1003BC0006604E6806F1FF3CBCF1010F03D9112E0B
:1003CC0001D0122E10D1866805EA060CCE68BE400C
:1003DC0046EA0C068660466826EA04044E68C6F3B4
:1003EC0000169E4026434660C46825408C68BC407D
:1003FC002C43C4604C6814F0805FADD01C4C256A53
:10040C0045F001052562246A04F001040194019C65
:10041C009D08AE1C144C54F8267003F00304A6007F
:10042C000F24B44027EA0407124CA0423FF460AFFB
:10043C0004F58064A0420ED004F58064A0420CD078
:10044C0004F58064A0420AD004F58064A0423FF415
:10045C004DAF05244DE701244BE7022449E7032463
:10046C0047E702B0F0BC70470000014000040140B7
:10047C00003802400000024012B909048161704743
:10048C008161704782B0214B9B6813F0F00F2CD127
:10049C001E4B5B6A13F0805F08D01D4B1B6803F486
:1004AC00C053B3F5C05F14D000211FE0174A536A44
:1004BC0043F080535362536A03F080530193019BC2
:1004CC00134B1B6803F4C053516A21F080515162E5
:1004DC00E7E7B0F5404F01D0002107E00D4A136863
:1004EC0043F004031360012100E00021094A136862
:1004FC0023F001030B431360136803F001038B42D9
:10050C0002D0012002B070470020FBE70038024007
:10051C0000700040003C024070B582B00446036895
:10052C0013F0010F37D0754B9B6803F00C03082BAD
:10053C001AD0724B9B6803F00C030C2B0FD0636822
:10054C00012B66D0002B40F088806C4B1A6822F48B
:10055C0080321A601A6822F480221A605EE0674BBF
:10056C009B6813F4803FEAD04FF4003393FAA3F363
:10057C00624B19684FF4003393FAA3F3B3FA83F385
:10058C0003F01F03012202FA03F30B4203D063684A
:10059C00002B00F07883236813F0020F00F0BF806B
:1005AC00564B9B6803F00C03042B00F09080534BCC
:1005BC009B6803F00C030C2B00F08380E368002B8A
:1005CC0000F04B81012292FAA2F3B3FA83F303F108
:1005DC00845303F58E139B001A60FFF7FDFD05464F
:1005EC00022393FAA3F3454B1968022393FAA3F35E
:1005FC00B3FA83F303F01F03012202FA03F30B4255
:10060C0040F01B81FFF7E8FD401B0228E8D90320CE
:10061C0040E33A4A136843F480331360636893B33E
:10062C00FFF7DAFD05464FF4003393FAA3F3334B8F
:10063C0019684FF4003393FAA3F3B3FA83F303F07E
:10064C001F03012202FA03F30B42A4D1FFF7C4FDEE
:10065C00401B6428E7D903201CE3052B09D0274B4A
:10066C001A6822F480321A601A6822F480221A6006
:10067C00D4E7224B1A6842F480221A601A6842F4BA
:10068C0080321A60CAE7FFF7A7FD05464FF4003326
:10069C0093FAA3F3194B19684FF4003393FAA3F3AD
:1006AC00B3FA83F303F01F03012202FA03F30B42A4
:1006BC003FF471AFFFF790FD401B6428E6D903208F
:1006CC00E8E20E4B9B6813F4803F7FF477AF022374
:1006DC0093FAA3F3094B1968022393FAA3F3B3FA21
:1006EC0083F303F01F03012202FA03F30B4207D03A
:1006FC00E368934204D00120CCE200BF00380240F2
:10070C00C148436823F4F85321694FF4F85292FA24
:10071C00A2F2B2FA82F201FA02F2134343602368A6
:10072C0013F0100F5CD0B84B9B6813F00C0F40F01B
:10073C00D8804FF4007393FAA3F3B34B19684FF4BA
:10074C00007393FAA3F3B3FA83F303F01F030122AC
:10075C0002FA03F30B4203D0A369002B00F095823D
:10076C00206AA94B5B6803F46043984240F29D8079
:10077C00FFF788FE002840F08A82A3494B6823F4D7
:10078C006043226A13434B604B6823F07F43E0695C
:10079C004FF07F4292FAA2F2B2FA82F200FA02F21F
:1007AC0013434B60236A4FF4604292FAA2F2B2FAFE
:1007BC0082F2D3405A1C4FF400439340924A926801
:1007CC0002F0F002F02191FAA1F1B1FA81F1CA40E4
:1007DC008E498A5CD3408E4A13600020FFF7D2FC0E
:1007EC00236813F0080F00F017816369002B00F0E9
:1007FC00E680012191FAA1F2B2FA82F2854B134400
:10080C009B001960FFF7E8FC0546022393FAA3F25C
:10081C007D4A516B93FAA3F3B3FA83F303F01F03EE
:10082C00012202FA03F30B4240F0F680FFF7D4FCEE
:10083C00401B0228E9D903202CE27348436823F4B7
:10084C00F85321694FF4F85292FAA2F2B2FA82F2FA
:10085C0001FA02F21343436061E7012393FAA3F315
:10086C00B3FA83F303F1845303F58E139B00002238
:10087C001A60FFF7B1FC0546022393FAA3F3624B0F
:10088C001968022393FAA3F3B3FA83F303F01F035B
:10089C00012202FA03F30B423FF441AFFFF79CFC39
:1008AC00401B0228E8D90320F4E157494B6823F494
:1008BC006043184348604B6823F07F43E0694FF076
:1008CC007F4292FAA2F2B2FA82F200FA02F21343D7
:1008DC004B60206AFFF7D6FD00283FF463AF012080
:1008EC00D8E1A369002B3FD04FF4807393FAA3F3A4
:1008FC00B3FA83F303F1845303F58E139B000122A7
:10090C001A60FFF769FC05464FF4007393FAA3F3E2
:10091C003D4B19684FF4007393FAA3F3B3FA83F3C6
:10092C0003F01F03012202FA03F30B4206D1FFF777
:10093C0053FC401B0228E7D90320ABE132494B683A
:10094C0023F46043226A13434B604B6823F07F43CC
:10095C00E0694FF07F4292FAA2F2B2FA82F200FA08
:10096C0002F213434B603BE74FF4807393FAA3F30B
:10097C00B3FA83F303F1845303F58E139B00002227
:10098C001A60FFF729FC05464FF4007393FAA3F3A2
:10099C001D4B19684FF4007393FAA3F3B3FA83F366
:1009AC0003F01F03012202FA03F30B423FF418AFCA
:1009BC00FFF712FC401B0228E6D903206AE1012252
:1009CC0092FAA2F2B2FA82F2124B13449B0000226A
:1009DC001A60FFF701FC0546022393FAA3F20A4AB8
:1009EC00516B93FAA3F3B3FA83F303F01F030122C1
:1009FC0002FA03F30B420FD0FFF7EEFB401B022869
:100A0C00EAD9032046E100BF003802406C350008EB
:100A1C0000000020A0C19110236813F0040F00F017
:100A2C0092809E4B5B6A13F0805F1ED19B4B5A6A7F
:100A3C0042F080525A625B6A03F080530193019B2F
:100A4C000125974B1B6813F4807F10D0A368012BF2
:100A5C0021D0002B43D1914B5A6B22F480725A63F4
:100A6C005A6B22F480625A631AE00025E9E78C4A3B
:100A7C00136843F480731360FFF7AEFB0646884B94
:100A8C001B6813F4807FE1D1FFF7A6FB801B642861
:100A9C00F5D90320FEE0814A536B43F48073536312
:100AAC00A36893B3FFF798FB06464FF4007393FAD1
:100ABC00A3F27A4A516B93FAA3F3B3FA83F303F0DC
:100ACC001F03012202FA03F30B423BD1FFF784FB15
:100ADC00801B41F288339842E7D90320DAE0052BDA
:100AEC0009D06E4B5A6B22F480725A635A6B22F403
:100AFC0080625A63D4E7694B5A6B42F480625A6342
:100B0C005A6B42F480725A63CAE7FFF765FB0646DC
:100B1C004FF4007393FAA3F2604A516B93FAA3F368
:100B2C00B3FA83F303F01F03012202FA03F30B421F
:100B3C0008D0FFF751FB801B41F288339842E7D96C
:100B4C000320A7E0B5BB636A002B00F0A280534AD8
:100B5C00926802F00C020C2A00F09E80022B2FD01F
:100B6C004FF0807393FAA3F3B3FA83F303F1845336
:100B7C0003F58E139B0000221A60FFF72DFB044631
:100B8C004FF0007393FAA3F3444B19684FF00073C2
:100B9C0093FAA3F3B3FA83F303F01F03012202FACF
:100BAC0003F30B426DD0FFF717FB001B0228E7D9AC
:100BBC0003206FE0394A536A23F080535362C2E733
:100BCC004FF0807393FAA3F3B3FA83F303F18453D6
:100BDC0003F58E139B0000221A60FFF7FDFA054601
:100BEC004FF0007393FAA3F32C4B19684FF000737A
:100BFC0093FAA3F3B3FA83F303F01F03012202FA6F
:100C0C0003F30B4206D0FFF7E7FA401B0228E7D9A3
:100C1C0003203FE021498B6823F47D03A26AE06A3C
:100C2C000243206B024313438B604FF0807393FAA3
:100C3C00A3F3B3FA83F303F1845303F58E139B00F0
:100C4C0001221A60FFF7C8FA04464FF0007393FABA
:100C5C00A3F3124B19684FF0007393FAA3F3B3FA92
:100C6C0083F303F01F03012202FA03F30B4206D1B4
:100C7C00FFF7B2FA001B0228E7D903200AE0002094
:100C8C0008E0002006E0012004E0012002E0012041
:100C9C0000E0002002B070BD0120FBE700380240EC
:100CAC0000700040224B986800F00C02082A3CD0DF
:100CBC000C2A13D0042A0FD01D4B586800F4604046
:100CCC004FF4604393FAA3F3B3FA83F3D840431C75
:100CDC004FF40040984070471648704700F470116C
:100CEC004FF4701292FAA2F2B2FA82F221FA02F2E4
:100CFC0011498A5C00F440004FF4400393FAA3F3CB
:100D0C00B3FA83F3D8400130094B9B6813F4803F4E
:100D1C0005D00A4B03FB02F3B3FBF0F07047054B15
:100D2C0003FB02F3B3FBF0F070470448704700BFBD
:100D3C00003802400024F4006035000800366E01D3
:100D4C008D4B1B6803F001038B4214D201290CD08C
:100D5C00894A136823F001030B431360136803F0F3
:100D6C0001038B4207D001207047834A136843F07C
:100D7C0004031360ECE770B5036813F0020F06D0A0
:100D8C007E4A936823F0F0038468234393600C46F7
:100D9C000546036813F0010F00F0A3804368022B93
:100DAC0018D0032B48D0012B5BD04FF4007292FA71
:100DBC00A2F2724A10684FF4007292FAA2F2B2FADE
:100DCC0082F202F01F02012101FA02F2024215D155
:100DDC000120CDE04FF4003292FAA2F2674A10687B
:100DEC004FF4003292FAA2F2B2FA82F202F01F022F
:100DFC00012101FA02F2024200F0BB805F498A68CD
:100E0C0022F0030213438B60FFF7E6F906466B688A
:100E1C00022B39D0032B46D0012B53D0574B9B6858
:100E2C0013F00C0F5DD0FFF7D7F9801B41F288331C
:100E3C009842F3D903209BE04FF0007292FAA2F291
:100E4C004E4A10684FF0007292FAA2F2B2FA82F295
:100E5C0002F01F02012101FA02F20242CED101205E
:100E6C0086E0022292FAA2F2444A1068022292FA16
:100E7C00A2F2B2FA82F202F01F02012101FA02F28E
:100E8C000242BBD1012073E03C4B9B6803F00C0386
:100E9C00082B26D0FFF7A0F9801B41F2883398422B
:100EAC00F2D9032064E0354B9B6803F00C030C2B48
:100EBC0017D0FFF791F9801B41F288339842F2D991
:100ECC00032055E02D4B9B6803F00C03042B08D03A
:100EDC00FFF782F9801B41F288339842F2D9032044
:100EEC0046E0254B1B6803F00103A34214D9012CE7
:100EFC000CD0214A136823F00103234313601368B9
:100F0C0003F00103A34207D0012031E01A4A136811
:100F1C0043F004031360ECE72B6813F0040F06D0C6
:100F2C00164A936823F4E063E9680B4393602B68DB
:100F3C0013F0080F07D0114A936823F46053296902
:100F4C0043EAC1039360FFF7ADFE0C4B9B6803F0C3
:100F5C00F003F02292FAA2F2B2FA82F2D340084ADB
:100F6C00D35CD840074B18600020FFF70BF900202A
:100F7C0070BD0120FCE700BF003C0240003802407D
:100F8C006C35000800000020014B1868704700BF4A
:100F9C000000002008B5FFF7F7FF074B9B6803F430
:100FAC00E0634FF4E06292FAA2F2B2FA82F2D3401A
:100FBC00024AD35CD84008BD003802407C3500089A
:100FCC0008B5FFF7E1FF074B9B6803F460534FF440
:100FDC00605292FAA2F2B2FA82F2D340024AD35C85
:100FEC00D84008BD003802407C350008036813F077
:100FFC00010F00F0AB80F0B583B0554B5B6A13F07A
:10100C00805F5AD1524B5A6A42F080525A625B6AE4
:10101C0003F080530193019B012504464D4B1B6843
:10102C0013F4807F4BD04A4B1B6803F0C0436268BB
:10103C0002F0C041994204D002F44033B3F5403F72
:10104C0051D0434B5B6B13F4403324D002F4403249
:10105C009A4220D0236813F0010F1CD03C48416BFE
:10106C0021F440364FF4000393FAA3F2B2FA82F261
:10107C00394F3A4492004FF0010CC2F800C093FA79
:10108C00A3F3B3FA83F33B449B0000221A6046633C
:10109C0011F4807F2ED1636803F44032B2F5403FE7
:1010AC0045D02B494B6B626802F4403213434B63BF
:1010BC00002D45D1002003B0F0BD0025ADE7254A39
:1010CC00136843F480731360FFF786F80646214BD0
:1010DC001B6813F4807FA6D1FFF77EF8801B642871
:1010EC00F5D90320E7E71A4B1B6813F4003FA8D08F
:1010FC000120E0E7FFF770F806464FF4007393FA0F
:10110C00A3F2134A516B93FAA3F3B3FA83F303F0EC
:10111C001F03012202FA03F30B42BCD1FFF75CF868
:10112C00801B41F288339842E7D90320C3E7084972
:10113C000A6822F0C04203F0C04313430B60B0E7CF
:10114C004B6A23F080534B620020B4E700207047B9
:10115C000038024000700040A0C1911038B50368FF
:10116C00DA6812F0400F01D0002038BD04464FF071
:10117C00FF32DA60FFF730F805462368DB6813F0BE
:10118C00400F07D1FFF728F8401BB0F57A7FF4D950
:10119C000320EAE70020E8E700284CD038B50446E5
:1011AC00437F002B3CD0022363772368CA225A6208
:1011BC00236853225A622046FFF7D0FF02460028CC
:1011CC0032D121688B6823F4E00323F040038B6059
:1011DC0020688168636825692B4365692B430B4341
:1011EC0083602368E168196121680B69A06843EA90
:1011FC0000430B612168CB6823F08003CB6021682E
:10120C000B6C23F480230B6421680B6CA0690343E3
:10121C000B642368FF21596201236377104638BDA4
:10122C00037700F0C9FEBEE72368FF225A6204234D
:10123C0063770122F2E7012210467047002302E097
:10124C0001330A38C0B20928FAD81B01DBB21843A3
:10125C007047037F012B71D070B50E4604460123F5
:10126C0003770223437752BB03689B6813F0400F4C
:10127C0001D10023CB703078FFF7E0FF05047078C4
:10128C00FFF7DCFF45EA0025B078FFF7D7FF2843CE
:10129C00F57840EA05452368CA225A62236853222E
:1012AC005A622046FFF75AFFD8B12368FF225A62D0
:1012BC0004236377002323770123184670BD03684A
:1012CC009B6813F0400F01D10023CB7035787078F8
:1012DC00000240EA0540B5782843F57840EA054518
:1012EC00D9E7236805F07F3525F0FE451D6022689F
:1012FC00936823F48023936021688B68F2683069CB
:10130C00024313438B602268D36823F08003D360BD
:10131C00204600F0D2F8034638B92268FF2151620A
:10132C000122627700222277C7E72368FF225A62E4
:10133C0004236377002323770123BEE70223184697
:10134C007047037F012B60D070B501230377022314
:10135C0043773AB94B7813F0100F03D003F0EF0337
:10136C000A334B700E4604461ABBC878FFF766FF6B
:10137C0005047078FFF762FF45EA0025B078FFF7A7
:10138C005DFF2843357840EA45352368CA225A6206
:10139C00236853225A622046FFF7E0FEA0B123686F
:1013AC00FF225A6204236377002323770123184614
:1013BC0070BD48788D78CB78000240EA0340284312
:1013CC000D7840EA4535E0E7236825F07F4525F0A8
:1013DC00C0055D602268D36823F08003D36020468B
:1013EC0000F06BF8034638B92268FF2151620122E4
:1013FC00627700222277DAE72368FF225A620423FD
:10140C006377002323770123D1E702231846704723
:10141C00030903EB83035A0000F00F001044C0B221
:10142C00704770B503685B6823F07F4323F0C003FB
:10143C00180CC870C3F304264E7003F03F058D7072
:10144C00C3F342330B705AB90C46FFF7E1FFE0705F
:10145C003046FFF7DDFF60702846FFF7D9FFA0701C
:10146C00002070BD38B503689B6A9BB24B60036863
:10147C001B69C3F30E038B6003681B6803F07F3397
:10148C0023F0FE431C0C04F03F000870C3F3062548
:10149C004D708B7004F04004CC700AB1002038BD44
:1014AC000C46FFF7B5FF20706078FFF7B1FF607056
:1014BC00A078FFF7ADFFA070F0E738B503689A6825
:1014CC0012F0200F01D0002038BD0446DA6822F05B
:1014DC00A002DA60FEF780FE05462368DB6813F095
:1014EC00200F07D1FEF778FE401BB0F57A7FF4D9B8
:1014FC000320E9E70020E7E7027F012A20D010B49F
:10150C0001220277022343770468A36823F4006363
:10151C0023F008030B43CA216162016853244C6217
:10152C0001688B6001688B6843F400638B6003680F
:10153C00FF215962427700230377184610BC70478D
:10154C00022070472DE9F84304460268136923F41E
:10155C004053C1680B4313618368026913434269AA
:10156C001343C2691A430168CB6823F4164323F072
:10157C000C031343CB600268536923F440738169F5
:10158C000B435361C369B3F5004F5CD00268B34B96
:10159C009A4200F00C81FFF7FDFC00EB800000EBA1
:1015AC0080006568AD00B0FBF5F5AD4FA7FB0535C8
:1015BC006D092E01FFF7EEFC00EB800000EB8000C4
:1015CC006568AD00B0FBF5F9FFF7E4FC00EB8000BB
:1015DC0000EB80006568AD00B0FBF5F5A7FB0535A9
:1015EC006D094FF0640808FB15952D013235A7FBEA
:1015FC0005356D0905F0F0053544FFF7CBFC00EB24
:10160C00800000EB80006668B600B0FBF6F6FFF7D2
:10161C00C1FC00EB800000EB800063689B00B0FB1A
:10162C00F3F0A7FB0030400908FB10684FEA0818DC
:10163C0008F13208A7FB0837C7F3431723682F4478
:10164C009F60BDE8F8830268844B9A4257D0FFF73D
:10165C00A1FC00EB800000EB800065686D00B0FB26
:10166C00F5F57F4FA7FB05356D092E01FFF792FCB1
:10167C0000EB800000EB800065686D00B0FBF5F9B5
:10168C00FFF788FC00EB800000EB800065686D00C4
:10169C00B0FBF5F5A7FB05356D094FF0640808FBA9
:1016AC001595ED003235A7FB05356D096D0005F478
:1016BC00F8753544FFF76EFC00EB800000EB800002
:1016CC0066687600B0FBF6F6FFF764FC00EB800072
:1016DC0000EB800063685B00B0FBF3F3A7FB032314
:1016EC005B0908FB13684FEAC80808F13208A7FB2E
:1016FC000837C7F3421723682F449F60A1E7FFF711
:10170C005FFC00EB800000EB800065686D00B0FBB7
:10171C00F5F5534FA7FB05356D092E01FFF750FC6E
:10172C0000EB800000EB800065686D00B0FBF5F904
:10173C00FFF746FC00EB800000EB800065686D0055
:10174C00B0FBF5F5A7FB05356D094FF0640808FBF8
:10175C001595ED003235A7FB05356D096D0005F4C7
:10176C00F8753544FFF72CFC00EB800000EB800093
:10177C0066687600B0FBF6F6FFF722FC00EB800003
:10178C0000EB800063685B00B0FBF3F3A7FB032363
:10179C005B0908FB13684FEAC80808F13208A7FB7D
:1017AC000837C7F3421723682F449F6049E7FFF7B8
:1017BC0007FC00EB800000EB80006568AD00B0FB1F
:1017CC00F5F5274FA7FB05356D092E01FFF7F8FB43
:1017DC0000EB800000EB80006568AD00B0FBF5F914
:1017EC00FFF7EEFB00EB800000EB80006568AD00BE
:1017FC00B0FBF5F5A7FB05356D094FF0640808FB48
:10180C0015952D013235A7FB05356D0905F0F00551
:10181C003544FFF7D5FB00EB800000EB80006668D9
:10182C00B600B0FBF6F6FFF7CBFB00EB800000EB4D
:10183C00800063689B00B0FBF3F3A7FB03235B09F9
:10184C0008FB13684FEA081808F13208A7FB0837A1
:10185C00C7F3431723682F449F60F2E6003801401A
:10186C001F85EB5148B310B5044690F83930FBB1E5
:10187C00022384F839302268D36823F40053D360F0
:10188C002046FFF75FFE2268136923F4904313612F
:10189C002268536923F02A0353612268D36843F406
:1018AC000053D3600020E063012384F8393010BD6D
:1018BC0080F8383000F0A8FBDAE701207047000010
:1018CC00F0B589B01F4BDA6942F00402DA61DA69CB
:1018DC0002F004020092009ADA6942F00102DA6125
:1018EC00DA6902F001020192019ADA6942F002020D
:1018FC00DA61DB6903F002030293029B124F0122AF
:10190C004FF480513846FEF7B7FD104D01221021DF
:10191C002846FEF7B1FD4FF480530393012604963D
:10192C0000240594069403A93846FEF7DBFC10232B
:10193C00039304960594069403A92846FEF7D2FC5B
:10194C0009B0F0BD00380240000002400004024023
:10195C0008B542F21070FEF745FCFAE7FEE700000E
:10196C0000B587B02648274B0360002343607F22D5
:10197C008260FF22C260036143618361FFF70CFC4C
:10198C0048BB0D238DF804302C238DF80530002234
:10199C008DF806200492059201A91948FFF759FC0D
:1019AC00F0B906238DF8003009238DF8013001239E
:1019BC008DF8023012238DF803300022694610484E
:1019CC00FFF7BFFC88B900210D48FFF795FD88B9DA
:1019DC0007B05DF804FB4FF4D0710B48FFF7BEFF66
:1019EC0040F2AF110848FFF7B9FF4FF4DE7106481B
:1019FC00FFF7B4FF4FF4E3710348FFF7AFFF00BFED
:101A0C0044020020002800408435000808B50B482B
:101A1C000B4B03604FF4E133436000238360C360DE
:101A2C0003610C2242618361C361FFF71BFF00B9A4
:101A3C0008BD4FF4EE710348FFF790FF040200203D
:101A4C00003801408435000800B595B02A4A136867
:101A5C0023F4C05343F4006313600623079301235C
:101A6C0009930A9310230B930223109300231193D1
:101A7C004FF4802312934FF48003139307A8FEF7BF
:101A8C004BFD48BB0F2302930323039300230493C2
:101A9C0005930693012102A8FFF752F908BB012315
:101AAC0000934FF4803301936846FFF79FFAE8B92F
:101ABC00FFF76AFA114BA3FB00308009FEF7E6FB37
:101ACC000420FEF7F9FB002211464FF0FF30FEF721
:101ADC00A9FB15B05DF804FB4FF4B1710848FFF792
:101AEC003DFF4FF4B8710648FFF738FF40F277110D
:101AFC000348FFF733FF00BF00700040D34D621066
:101B0C008435000870B59AB001ACB64D0FCD0FC43A
:101B1C0095E8070084E80700FEF74AFBFFF794FFFF
:101B2C00FFF7CEFEFFF71CFFFFF770FFAE4800F08B
:101B3C0015FCAE4800F012FCAD4800F00FFCAD48AF
:101B4C0000F084FB00250FAC112D0BD800F040FBEE
:101B5C00C0B2207000F092FB23780D2B02D0013420
:101B6C000135F1E70A23237000266670A24800F0C5
:101B7C00F5FB2946A14800F069FB0FA9A04800F02D
:101B8C0065FBA04800F062FB0FAD0BE02B7803F077
:101B9C005F031AAA324402F8683C15F8010B00F0F6
:101BAC006DFB0136022EF1DD934800F0D7FB0024CB
:101BBC008DF80340264600E00134062C0BD81AABF6
:101BCC0003EB840353F8641C6846FEF7D1FA002833
:101BDC00F2D10126F0E706B321468B4800F036FB24
:101BEC006C1C2B78202B1DD10A220EA9204600F04C
:101BFC0039FCC1B28DF8671011B90E9BA34215D0F8
:101C0C00824800F023FB0E9B5C1C1B782D2B12D002
:101C1C007F4800F0A3FBFFF79BFE69467D4800F070
:101C2C0015FBDDE77A4800F099FBDDE77A4800F018
:101C3C0095FBFFF78DFE0A220EA9204600F012FC40
:101C4C00C1B28DF8651011B90E9BA34212D0734826
:101C5C0000F0FCFA9DF86530013BDBB20B2B0ED883
:101C6C000E9B5C1C1B782D2B0ED0694800F076FB6C
:101C7C00FFF76EFE6A4800F071FBFFF769FE6948DA
:101C8C0000F06CFBFFF764FE0A220EA9204600F060
:101C9C00E9FBC1B28DF8661011B90E9BA3420DD0B1
:101CAC00614800F0D3FA9DF86630013BDBB21E2B85
:101CBC0009D95E4800F052FBFFF74AFE5C4800F081
:101CCC004DFBFFF745FE5B4800F0C0FA00250FAC5A
:101CDC00112D0BD800F07CFAC0B2207000F0CEFAB7
:101CEC0023780D2B02D001340135F1E70A2626703A
:101CFC0000236370404800F031FB29463F4800F058
:101D0C00A5FA0FA94C4800F0A1FA32460EA90FA86B
:101D1C0000F0A8FBC1B28DF8501019B90E9A0FAB98
:101D2C009A4210D0454800F091FA9DF85030172B8C
:101D3C000ED80E9B5C1C1B783A2B0ED0404800F042
:101D4C000DFBFFF705FE3F4800F008FBFFF700FE18
:101D5C003D4800F003FBFFF7FBFD0A220EA92046CD
:101D6C0000F080FBC1B28DF8511011B90E9BA3424B
:101D7C0010D0364800F06AFA9DF851303B2B0ED843
:101D8C000E9B5C1C1B783A2B0ED02D4800F0E6FA0B
:101D9C00FFF7DEFD2E4800F0E1FAFFF7D9FD2D48E4
:101DAC0000F0DCFAFFF7D4FD0A220EA9204600F061
:101DBC0059FBC1B28DF8521011B90E9BA3420BD036
:101DCC00254800F043FA9DF852303B2B4AD9234862
:101DDC0000F0C4FAFFF7BCFD214800F0BFFAFFF792
:101DEC00B7FD00BF4435000894350008AC35000839
:101DFC00E83500080436000810390008443600089D
:101E0C005C3600086C36000878360008F03600089E
:101E1C00A836000888360008C03600082C370008A1
:101E2C00FC3600083837000878370008843700087B
:101E3C004837000894370008CC3700080C380008E5
:101E4C0038380008DC3700081838000884380008D7
:101E5C005038000890380008E8380008F0380008BE
:101E6C00B4380008002216921892179214A923482D
:101E7C00FFF7EFF920B1224800F070FAFFF768FD88
:101E8C00204800F06BFA002219A91C48FFF759FAF8
:101E9C0020B11B4800F062FAFFF75AFD1A4800F017
:101EAC005DFA002208A91548FFF7BBFAE0B99DF8C6
:101EBC0022309DF821209DF82310144800F0C6F91B
:101ECC00002209A90D48FFF7CDFA90B99DF82630EC
:101EDC009DF825209DF824100D4800F0B7F941F22B
:101EEC008830FEF77FF9DCE70A4800F037FAFFF795
:101EFC002FFD084800F032FAFFF72AFD44020020BB
:101F0C00143900082C3900084439000878390008C5
:101F1C00903900085C39000800B585B0254B5A6A29
:101F2C0042F000425A625A6A02F000420192019A4F
:101F3C001A6A42F001021A621A6A02F00102029253
:101F4C00029A5A6A42F080525A625B6A03F08053DA
:101F5C000393039B0320FEF753F9002211466FF005
:101F6C000B00FEF75FF9002211466FF00A00FEF736
:101F7C0059F9002211466FF00900FEF753F90022BF
:101F8C0011466FF00400FEF74DF9002211466FF078
:101F9C000300FEF747F9002211466FF00100FEF72F
:101FAC0041F9002211464FF0FF30FEF73BF905B026
:101FBC005DF804FB003802400268104B9A4200D0D6
:101FCC00704700B587B04FF4800292FAA2F2B2FAD1
:101FDC0082F20B4B13449B0001221A604FF4005306
:101FEC00019302230293002303930493059301A905
:101FFC000448FEF777F907B05DF804FB00280040B1
:10200C00A0C19110000802400268114B9A4200D006
:10201C00704700B587B003F580331A6A42F48042EA
:10202C001A621B6A03F480430093009B4FF4C06355
:10203C0001930223029301230393032304930723A5
:10204C00059301A90348FEF74DF907B05DF804FBB1
:10205C0000380140000002407047FEE7FEE7FEE753
:10206C00FEE770477047704708B5FEF7ADF8FEF70E
:10207C0034F908BD70B50D461646002404E000F096
:10208C006FF8287001340135B442F8DB304670BD6E
:10209C0070B51646002405E04D1C087800F054F885
:1020AC0001342946B442F7DB304670BD08B503460F
:1020BC000B4A126842B10A4A106803446A469342BA
:1020CC0006D8074A136008BD054A06491160F2E7B5
:1020DC0000F078F80C2303604FF0FF30F3E700BFFB
:1020EC00F0010020680200204FF0FF3070474FF4E1
:1020FC0000534B6000207047012070470020704750
:10210C000E4B1A6842F480721A6099680C4A0A40A5
:10211C009A601A6822F0885222F001121A601A682A
:10212C0022F480221A609A6822F47D029A600022BE
:10213C00DA60044B4FF000629A607047003802403E
:10214C000CC0FF8800ED00E0044B1B6813F0400F3F
:10215C00FAD0C0B2014B58600020704700380140E3
:10216C00044B1B6813F0200FFAD0024B5868C0B216
:10217C00704700BF00380140002103E00B4B5B5857
:10218C00435004310A480B4B42189A42F6D30A4A80
:10219C0002E0002342F8043B084B9A42F9D3FFF7C4
:1021AC00AFFF00F027F8FFF7ADFC7047703B00085D
:1021BC0000000020D4010020D4010020680200207F
:1021CC00FEE70000014B1868704700BF04000020B8
:1021DC00074B10B51C6824B1A36913B9204600F055
:1021EC0019FB61682046BDE8104000F0B9BB00BF88
:1021FC000400002070B500250C4E0D4CA41BA4103F
:10220C00A54209D101F08CF900250A4E0A4CA41BF9
:10221C00A410A54205D170BD56F82530984701355C
:10222C00EEE756F8253098470135F2E7683B000891
:10223C00683B0008683B00086C3B000803460244FE
:10224C00934200D1704703F8011BF9E70FB40A4B16
:10225C0013B51C6824B1A36913B9204600F0DAFA4F
:10226C0005AB049AA1682046019300F0EDFC02B086
:10227C00BDE8104004B070470400002038B5084B8E
:10228C0005461C6824B1A36913B9204600F0C2FAB4
:10229C00A26829462046BDE8384000F071BF00BF57
:1022AC000400002070B50E46054618B183690BB9C1
:1022BC0000F0B0FAAB69AC6813B9284600F0AAFA82
:1022CC00234B9C4217D16C68A3891B071DD523692E
:1022DC00DBB1013EA36816F8011F013BA360E9B90D
:1022EC00002B2EDA22460A21284600F0D1F80130C4
:1022FC0011D00A2011E0174B9C4201D1AC68E3E7E6
:10230C00154B9C4208BFEC68DEE72146284600F0DE
:10231C0011F90028DDD04FF0FF3070BD002B04DA2E
:10232C00A2699A4206DC0A2904D023685A1C22604E
:10233C001970CFE72246284600F0AAF80130C9D11F
:10234C00E9E70A2023685A1C22601870E5E700BFF1
:10235C00E8390008083A0008C8390008024B014661
:10236C001868FFF79FBF00BF040000202DE9F0475D
:10237C008046894692461E460F463D46089815F8FB
:10238C00014B00F019FB2044437813F0080332D1C1
:10239C002D2C32D101227C78BD1C002E5DD0102E4C
:1023AC0009D1302C07D12B7803F0DF03582B4FD1F8
:1023BC0010266C780235002A14BF4FF000416FF0E4
:1023CC0000410027B1FBF6FC384606FB1C1EA4F1AD
:1023DC003003092B17D81C46A64223DD7B1C07D0E3
:1023EC0084451CD301D1A64519DB012700FB06400F
:1023FC0015F8014BEBE72F46BFE72B2C04BFBD1C98
:10240C007C781A46C9E7A4F14103192B01D8373C53
:10241C00E2E7A4F16103192B04D8573CDCE74FF039
:10242C00FF37E5E77B1C08D122230846C8F80030AB
:10243C00BAF1000F07D1BDE8F08702B14042BAF102
:10244C00000FF8D00FB105F1FF39CAF80090F2E790
:10245C003024002EAFD10826ADE7302CA3D00A26AD
:10246C00A9E70000084B37B51C68084D236A002B00
:10247C0008BF2B46009313460A4601462046FFF739
:10248C0075FF03B030BD00BF0400002068000020C1
:10249C00F8B50E461446054618B183690BB900F021
:1024AC00B9F9214B9C422AD16C68A369A360A3891A
:1024BC001A072ED5236963B323692068F6B2C01AB4
:1024CC0063693746834204DC2146284600F026F92E
:1024DC0028BBA3680130013BA36023685A1C22600F
:1024EC001E706369834204D0A389DB0719D50A2EB9
:1024FC0017D12146284600F011F990B10FE00B4B93
:10250C009C4201D1AC68D0E7094B9C4208BFEC68F7
:10251C00CBE72146284600F00DF80028CCD04FF030
:10252C00FF373846F8BD00BFE8390008083A000804
:10253C00C8390008324B70B51D6806460C4625B1EB
:10254C00AB6913B9284600F065F92E4B9C420FD1AC
:10255C006C68B4F90C309AB215072CD4D00611D48F
:10256C000922326043F04003A3814FF0FF303EE07C
:10257C00254B9C4201D1AC68EBE7244B9C4208BF35
:10258C00EC68E6E7510712D5616B41B104F14403E5
:10259C00994202D0304600F089FA00236363A38984
:1025AC0023F02403A3810023636023692360A389A0
:1025BC0043F00803A38123694BB9A38903F4207367
:1025CC00B3F5007F03D02146304600F01DFAA289F6
:1025DC0012F001030CD00023A36063695B42A3617A
:1025EC00236953B9B4F90C3013F08000BAD170BD23
:1025FC00920758BF6369A360F2E70020F7E700BFBA
:10260C0004000020E8390008083A0008C83900081E
:10261C008A892DE9F041054610070C4658D44B68C1
:10262C00002B05DC0B6C002B02DC0020BDE8F081DC
:10263C00E66A002EF9D0002312F480522F68216A2A
:10264C002B6032D0606DA3895A0705D56368C01A18
:10265C00636B0BB1236CC01A00230246E66A216A35
:10266C002846B047431CA38906D129681D2948D8A0
:10267C00294ACA40D60744D5002262602269D9048F
:10268C00226004D5421C01D12B6803B96065616BD3
:10269C002F600029C9D004F14403994202D0284686
:1026AC0000F004FA00206063C0E701232846B0471D
:1026BC00411CC8D12B68002BC5D01D2B01D0162B6B
:1026CC0001D12F60B1E7A38943F04003A381ADE7AB
:1026DC000F69002FA9D0930718BF00230E6808BFFD
:1026EC004B69A6EB07080F608B60B8F1000F9CDDFF
:1026FC0043463A46216A2846A66AB047002806DCBB
:10270C00A38943F04003A3814FF0FF308EE70744C9
:10271C00A8EB0008E9E700BF0100402038B50B69C1
:10272C0005460C46DBB118B183690BB900F072F8A1
:10273C000C4B9C4209D16C68B4F90C307BB121462E
:10274C002846BDE83840FFF763BF074B9C4201D1D8
:10275C00AC68F1E7054B9C4208BFEC68ECE7002045
:10276C0038BD00BFE8390008083A0008C83900082D
:10277C00014620B9044B0549186800F0D3B8044B46
:10278C001868FFF7CBBF00BFC43900082927000821
:10279C0004000020002310B50446C0E90033836018
:1027AC0081814366C281C0E90433836119460822E2
:1027BC005C30FFF743FD054B24626362044BA3625C
:1027CC00044BE362044B236310BD00BF713200085D
:1027DC0093320008CB320008EF320008014900F0B8
:1027EC00A1B800BF2927000870B568254A1E5543BB
:1027FC000E4605F1740100F0A5F9044640B1002124
:10280C00C0E900160C30A06005F16802FFF716FD58
:10281C00204670BD836910B5044633BBC0E9123342
:10282C000365124B124A1B688262984204BF012353
:10283C00836100F01FF86060204600F01BF8A06078
:10284C00204600F017F80022E06004216068FFF7D2
:10285C00A1FF01220921A068FFF79CFF022212218F
:10286C00E068FFF797FF0123A36110BDC43900088E
:10287C00E9270008F8B51B4B07461E68B36913B966
:10288C003046FFF7C7FF4836D6E90134013B03D584
:10289C00336833B13668F7E7B4F90C506DB168346E
:1028AC00F4E704213846FFF79FFF30600028F1D190
:1028BC000C2304463B602046F8BD0B4B6566C4E90F
:1028CC000055A560C4E90335C4E90555082229461D
:1028DC0004F15C00FFF7B2FCC4E90D55C4E91255D4
:1028EC00E9E700BFC43900080100FFFF2DE9F04102
:1028FC008846002600F1480414B93046BDE8F08142
:10290C00D4E90175013F01D52468F5E7AB89012BAA
:10291C0006D9B5F90E30013302D02846C04706431C
:10292C006835EFE72DE9F84380468946002600F12B
:10293C00480414B93046BDE8F883D4E90175013F69
:10294C0001D52468F5E7AB89012B07D9B5F90E3011
:10295C00013303D029464046C84706436835EEE7A5
:10296C0038B50C46054618B183690BB9FFF752FF11
:10297C000E4B9C420BD16C686368013B002B63606F
:10298C000FDA21462846BDE8384000F02FBC084B32
:10299C009C4201D1AC68EFE7064B9C4208BFEC6847
:1029AC00EAE723685A1C2260187838BDE839000819
:1029BC00083A0008C8390008D0F8EC00704770B528
:1029CC000E46B1F90E1096B0002914461D4607DAD2
:1029DC0000232B60B3891A0610D44FF480630EE0E9
:1029EC006A4600F0B1FC0028F2DB019A02F4704256
:1029FC00A2F500535A425A412A60EEE740230020C8
:102A0C00236016B070BD00008B8973B59D07064618
:102A1C000C4607D504F1470323602361012363614E
:102A2C0002B070BD01AB6A46FFF7C9FF00990546BD
:102A3C00304600F087F848B9B4F90C309A05EFD459
:102A4C0023F0030343F00203A381E3E70D4BB362CE
:102A5C00A389206043F08003A381009B2061636104
:102A6C00019B5BB1B4F90E10304600F07FFC28B12D
:102A7C00A38923F0030343F00103A381A3891D431E
:102A8C00A581CDE7E927000882B001B901A942B1BF
:102A9C004BB113780B601278101C18BF012002B0D8
:102AAC0070471046FBE76FF00100F8E738B50546B4
:102ABC00002943D051F8043C0C1F002BB8BFE4187C
:102ACC0000F084FC1E4A1368104633B9636014602E
:102ADC002846BDE8384000F07ABCA3420BD92168E7
:102AEC006218934201BF1A685B68521822606360D7
:102AFC000460EDE713465A680AB1A242FAD9196884
:102B0C005818A0420BD12068014458188242196011
:102B1C00DED110685268014419605A60D8E702D9B6
:102B2C000C232B60D4E7206821188A4201BF11685E
:102B3C0052680918216062605C60C9E738BD00BF4B
:102B4C00F801002070B5CD1C25F0030508350C2DBF
:102B5C0038BF0C25002D064601DBA94203D90C23F6
:102B6C003360002070BD00F031FC214A146821460E
:102B7C0091B9204C23681BB9304600F063FB2060F0
:102B8C002946304600F05EFB431C24D10C23304612
:102B9C00336000F01CFCE4E70B685B1B18D40B2BB8
:102BAC000FD90B60CC18CD50304600F010FC04F15E
:102BBC000B00231D20F00700C31AD3D05A42E25059
:102BCC00D0E74B688C4216BF636013600C46EBE792
:102BDC000C464968CCE7C41C24F00304A04205D081
:102BEC00211A304600F02EFB0130CFD02560DBE7F8
:102BFC00F8010020FC010020936810B4013B002B6D
:102C0C00936007DA9469A34201DB0A2902D110BC54
:102C1C00FFF73EBC1368581C10601970084610BCB6
:102C2C007047F8B506460F461446D518AC4201D18C
:102C3C00002007E03A4614F8011B3046FFF7DCFF92
:102C4C00431CF3D1F8BD00002DE9F04F9DB00C46AC
:102C5C0017460393064618B183690BB9FFF7DAFDE3
:102C6C007B4B9C4257D17468A38918075DD52369A7
:102C7C00002B5AD00023099320238DF829303023C0
:102C8C004FF0010B8DF82A30B846454615F8013B3C
:102C9C000BB1252B54D1B8EB070A0BD053463A464F
:102CAC0021463046FFF7BDFF013000F0C280099B82
:102CBC005344099398F80030002B00F0BA8000239D
:102CCC004FF0FF32CDE90523049307938DF8533071
:102CDC001A93A846052218F8011B5E4800F068FB01
:102CEC00049B78BBD90644BF20228DF853201A07C9
:102CFC0044BF2B228DF853202A782A2A2AD0A846A2
:102D0C0000200A25079A414611F8013B303B092B5C
:102D1C0069D960B324E0504B9C4201D1B468A3E75D
:102D2C004E4B9C4208BFF4689EE721463046FFF7A5
:102D3C0001FC00289ED04FF0FF301DB0BDE8F08F95
:102D4C00A846A2E7434A4546801A0BFA00F01843FE
:102D5C000490BEE7039A111D12680391002A01DB4F
:102D6C00079204E0524243F002030792049398F84E
:102D7C0000302E2B0ED198F801302A2B38D1039B22
:102D8C0008F102081A1D1B680392002BB8BF4FF004
:102D9C00FF330593324D032298F80010284600F0BB
:102DAC0007FB40B14023401B03FA00F0049B08F1E1
:102DBC0001080343049398F800100622294808F1EF
:102DCC0001078DF8281000F0F3FA002837D0264BB5
:102DDC001BBB039B073323F0070308330393099BA7
:102DEC004B44099350E705FB0232012088468AE7E1
:102DFC0000230A25194608F101080593404610F8EE
:102E0C00012B303A092A03D9002BC3D00591C1E715
:102E1C0005FB012101238046F0E703AB009322461A
:102E2C00124B04A93046AFF30080B0F1FF3F81464E
:102E3C00D5D1A3895B063FF57EAF09987DE703AB3F
:102E4C0000932246094B04A9304600F087F8ECE7C2
:102E5C00E8390008323A0008083A0008C839000876
:102E6C00383A00083C3A0008000000002F2C0008FB
:102E7C002DE9F04791461F468A680B690646934236
:102E8C00B8BF1346C9F8003091F843200C46DDF862
:102E9C00208012B10133C9F800302368990642BF73
:102EAC00D9F800300233C9F80030256815F0060552
:102EBC0007D104F1190AE368D9F800209B1AAB4238
:102ECC0029DC94F843302268003318BF01239206A2
:102EDC002ED404F1430239463046C047013021D08C
:102EEC002368E56803F00603042B18BF0025D9F806
:102EFC0000204FF0000908BFAD1AA368226908BF73
:102F0C0025EAE5759342C4BF9B1AED181A344D455A
:102F1C001AD1002008E00123524639463046C047FA
:102F2C00013003D14FF0FF30BDE8F0870135C2E727
:102F3C003020E11881F843005A1C94F845102244C3
:102F4C00023382F84310C4E7012322463946304647
:102F5C00C0470130E6D009F10109D8E72DE9F0436B
:102F6C0001F1430C0C46097E85B06E2917460646C6
:102F7C0098460C9A00F0B38022D8632936D00AD830
:102F8C00002900F0B980582900F0838004F1420533
:102F9C0084F8421032E0642901D06929F6D1206806
:102FAC001368050603F104012AD51B681160002B78
:102FBC0003DA2D225B4284F843206F480A2239E061
:102FCC00732900F09D8008D86F2920D07029DDD19D
:102FDC00236843F02003236003E0752917D0782978
:102FEC00D4D17823654884F8453055E0136804F152
:102FFC004205191D1B68116084F8423001238CE0D6
:10300C001B6810F0400F116018BF1BB2CFE713689C
:10301C002568181D1060280601D51B6802E068069B
:10302C00FBD51B886F2914BF0A22082252480021A5
:10303C0084F843106568002DA560C0F29580216866
:10304C0021F004012160002B3DD1002D40F08E8039
:10305C006546082A0BD12368DB0708D5236962680B
:10306C009A42DEBF302305F8013C05F1FF35ACEB8D
:10307C0005032361CDF800803B4603AA2146304668
:10308C00FFF7F6FE01304DD14FF0FF3005B0BDE833
:10309C00F083394884F84510136821681D1D1B689E
:1030AC0015600A060BD5CA0744BF41F02001216008
:1030BC001BB9226822F0200222601022B7E74D06CD
:1030CC0048BF9BB2EFE76546B3FBF2F102FB11334D
:1030DC00C35C05F8013D0B460029F5D1B9E713682F
:1030EC002568181D6169106028061B6801D51960D8
:1030FC0002E06A06FBD51980002365462361B9E717
:10310C001368191D11601D6862680021284600F0C3
:10311C004FF908B1401B606063682361002384F899
:10312C004330A7E723692A4639463046C047013069
:10313C00AAD023689B0713D4E068039B9842B8BFBE
:10314C001846A3E701234A4639463046C0470130AA
:10315C009AD00135E368039A9B1AAB42F2DCEBE799
:10316C00002504F11909F5E7002BACD1037804F123
:10317C00420584F842306CE7433A0008543A0008A0
:10318C0070B50D461446064618B183690BB9FFF7A6
:10319C0041FB134B9C4212D17468A368013B002B7A
:1031AC00A36016DAA269934202DBEBB20A2B10D1B0
:1031BC00224629463046BDE87040FFF769B9094BF5
:1031CC009C4201D1B468E8E7074B9C4208BFF46805
:1031DC00E3E72368E8B25A1C22601D7070BD00BF83
:1031EC00E8390008083A0008C839000838B50C4618
:1031FC00054618B183690BB9FFF70CFB0E4B9C42CB
:10320C000DD16C682146284600F0FEF888B9636839
:10321C00013B636023685A1C2260187838BD074B49
:10322C009C4201D1AC68EDE7054B9C4208BFEC68B1
:10323C00E8E74FF0FF30F1E7E8390008083A0008FA
:10324C00C839000838B50023054C054608462360EC
:10325C00FEF72CFF431C02D1236803B12B6038BD51
:10326C006402002010B50C46B1F90E1000F0B0F855
:10327C000028ABBF636DA3891B1823F48053ACBF2C
:10328C006365A38110BD2DE9F0411F468B8905466E
:10329C00DB050C46164605D502230022B1F90E10AB
:1032AC0000F074F8A389324623F48053A381B4F957
:1032BC000E103B462846BDE8F04100F023B810B58F
:1032CC000C46B1F90E1000F061F8431CA38915BF30
:1032DC00606523F4805343F48053A38118BFA3810A
:1032EC0010BDB1F90E1000F01FB849B1FF2A8BBF09
:1032FC008A230A700360012088BF4FF0FF307047AB
:10330C000846704738B50546084611460022054C5C
:10331C0022601A46FEF7BCFE431C02D1236803B19F
:10332C002B6038BD6402002038B50023054C0546DF
:10333C0008462360FEF7D8FE431C02D1236803B174
:10334C002B6038BD6402002038B50023064C0546BE
:10335C00084611462360FEF7CAFE431C02D12368BF
:10336C0003B12B6038BD00BF6402002038B50023C8
:10337C00054C054608462360FEF7BEFE431C02D1F1
:10338C00236803B12B6038BD6402002038B50546B4
:10339C00084611460022054C22601A46FEF7AEFE86
:1033AC00431C02D1236803B12B6038BD640200209A
:1033BC0010B5C9B202449042034601D1002303E088
:1033CC001C7801308C42F6D1184610BD70477047FE
:1033DC0038B50546084611460022054C22601A46AF
:1033EC00FEF748FE431C02D1236803B12B6038BDA5
:1033FC0064020020838903F00903092B01D1FFF734
:10340C00B7B9002070470000F8B50C46054618B156
:10341C0083690BB9FFF7FEF93C4B9C420AD16C68EF
:10342C000023B4F90C20636093B29E060CD54FF0C8
:10343C00FF3068E0364B9C4201D1AC68F0E7354B6D
:10344C009C4208BFEC68EBE758074AD4D90605D470
:10345C00092342F040022B60A281E8E71A070BD542
:10346C0021462846FFF75AF90028E0D1A389A0602D
:10347C0023F00803A381A061A38943F00403A38173
:10348C0023691BB921462846FFF7BEFAB4F90C7024
:10349C00BEB2B3070FD00123A3811F4B1F4918687D
:1034AC0006F00906FFF722FA092EA78103D121465F
:1034BC002846FFF7ADF82269666A22606369216AC3
:1034CC002846B047002860601EDC18BF0022B4F903
:1034DC000C3016BF626043F0200343F04003A3811D
:1034EC00A5E7616B0029CBD004F14403994202D0CB
:1034FC002846FFF7DBFA0020236C60636360002B27
:10350C00BED0E36B2360F8BD0020FCE7E83900086F
:10351C00083A0008C8390008C4390008013400080A
:10352C00F8B500BFF8BC08BC9E467047F8B500BFA4
:08353C00F8BC08BC9E46704774
:10354400A8390008AC390008B0390008B4390008BB
:10355400B8390008BC390008C0390008030406085B
:103564000C101820300000000000000000000000D3
:103574000102030406070809000000000102030415
:103584002E2E2F5372632F6D61696E2E630000001F
:103594005265616C2054696D6520436C6F636B20C8
:1035A40044656D6F0D00000041736B732074686592
:1035B400207573657220666F722074686520637568
:1035C4007272656E742074696D6520696E2074680A
:1035D4006520666F726D61743A2068683A6D6D3A61
:1035E40073730D005072696E74732074686520746F
:1035F400696D65206576657279203520730D00004C
:10360400506C6561736520656E74657220646174C5
:103614006520696E2074686520666F726D61743A06
:10362400207765656B64617928652E672E2920549F
:1036340055452079792D6D6D2D64643A2000000084
:103644004E6F206F662063686172732072656164D7
:103654003A2025640D0A0000446174652072656196
:10366400643A2025730D0A007765656B6461793AC5
:103674002000000054686520646179206973202566
:10368400640D0A00546865207765656B6461792070
:103694002573206973206E6F74206B6E6F776E0DC7
:1036A4000A000000496E76616C6964206461746587
:1036B40020666F726D61740D00000000436F756CBD
:1036C40064206E6F7420636F6E7665727420746804
:1036D4006520796561722066726F6D20617363691C
:1036E4006920746F20696E740D0000007965617241
:1036F4003A2025640D0A0000436F756C64206E6FD8
:103704007420636F6E7665727420746865206D6FC3
:103714006E74682066726F6D2061736369692074CA
:103724006F20696E740D00006D6F6E74683A202509
:10373400640D0A00496E76616C6964206D6F6E7465
:10374400680D0000436F756C64206E6F7420636FA6
:103754006E7665727420746865206461792066727F
:103764006F6D20617363696920746F20696E740DD5
:10377400000000006461793A2025640D0A0000000D
:10378400496E76616C6964206461790D0000000003
:10379400506C6561736520656E746572207468652C
:1037A4002063757272656E742074696D6520696E2C
:1037B4002074686520666F726D61743A2068683A97
:1037C4006D6D3A737320000054696D6520726561F4
:1037D400643A2025730D0A00436F756C64206E6F84
:1037E4007420636F6E766572742074686520686FE8
:1037F40075722066726F6D20617363696920746FDE
:1038040020696E740D000000686F75723A2025649B
:103814000D0A0000496E76616C696420686F7572E8
:103824003A2073686F756C6420626520302E2E32E6
:10383400330D0000496E76616C69642074696D65AE
:1038440020666F726D61740D00000000436F756C2B
:1038540064206E6F7420636F6E7665727420746872
:1038640065206D696E757465732066726F6D207363
:103874007363696920746F20696E740D0000000021
:103884006D696E3A2025640D0A000000496E766168
:103894006C6964206D696E757465733A2073686F22
:1038A400756C6420626520302E2E35390D000000C1
:1038B400436F756C64206E6F7420636F6E766572EF
:1038C4007420746865207365636F6E646573206625
:1038D400726F6D20617363696920746F20696E74FF
:1038E4000D000000733A2025640D0A00496E7661CC
:1038F4006C6964207365636F6E64733A2073686FD8
:10390400756C6420626520302E2E35390D00000060
:10391400436F756E74206E6F7420736574207468C1
:10392400652074696D650D0054696D652073756358
:103934006365737366756C6C79207365740D000030
:1039440044617465207375636365737366756C6C29
:1039540079207365740D000043616E6E6F7420727C
:103964006561642074696D652066726F6D205254C0
:10397400430D0000446174653A20253032782D25CA
:103984003032642D253032642020200054696D6566
:103994003A20253032643A253032643A2530326494
:1039A4000D0A00004D4F4E00545545005745440044
:1039B40054485500465249005341540053554E0053
:1039C40008000020000000000000000000000000CB
:1039D40000000000000000000000000000000000E3
:1039E40000000000000000000000000000000000D3
:1039F40000000000000000000000000000000000C3
:103A040000000000000000000000000000000000B2
:103A140000000000000000000000000000000000A2
:103A2400000000004300504F534958002E00232D3E
:103A3400302B2000686C4C006566674546470030B3
:103A44003132333435363738394142434445460000
:103A54003031323334353637383961626364656600
:103A6400000020202020202020202028282828286A
:103A74002020202020202020202020202020202042
:103A8400202088101010101010101010101010109A
:103A9400101004040404040404040404101010109A
:103AA4001010104141414141410101010101010155
:103AB40001010101010101010101010101101010C5
:103AC4001010104242424242420202020202020228
:103AD4000202020202020202020202020210101098
:103AE40010200000000000000000000000000000A2
:103AF40000000000000000000000000000000000C2
:103B040000000000000000000000000000000000B1
:103B140000000000000000000000000000000000A1
:103B24000000000000000000000000000000000091
:103B34000000000000000000000000000000000081
:103B44000000000000000000000000000000000071
:103B54000000000000000000000000000000000061
:043B6400000000005D
:043B680061010008EF
:043B6C003D0100080F
:103B700068FF1F000800002000000000E83900086E
:103B8000083A0008C83900080000000000000000E2
:103B90000000000000000000000000000000000025
:103BA0000000000000000000000000000000000015
:103BB0000000000000000000000000000000000005
:103BC00000000000000000000000000000000000F5
:103BD00000000000000000004300000000000000A2
:103BE00000000000000000000000000000000000D5
:103BF0000000000000000000430000000000000082
:103C000000000000000000000000000000000000B4
:103C10000000000000000000430000000000000061
:103C20000000000000000000000000000000000094
:103C30000000000000000000430000000000000041
:103C40000000000000000000000000000000000074
:103C50000000000000000000430000000000000021
:103C60000000000000000000000000000000000054
:103C70000000000000000000430000000000000001
:103C80000000000000000000000000000000000034
:103C900000000000000000004300000000000000E1
:103CA0000000000000000000000000000000000014
:103CB0000000000000000000F7320008952A00080C
:103CC00000000000653A0008303A0008373A000862
:103CD000373A0008373A0008373A0008373A000800
:103CE000373A0008373A0008373A0008373A0008F0
:103CF000FFFFFFFFFFFFFFFFFFFFFFFFFFFF0000D2
:103D00000100415343494900000000000000000049
:103D100000000000000000000000000000000000A3
:103D2000000041534349490000000000000000002A
:103D30000000000000000000000000000000000083
:043D4000000000007F
:040000050800218549
:00000001FF
