:020000040800F2
:100000000080002011300008BD2E0008BF2E00081F
:10001000C12E0008C32E0008C52E000800000000F5
:10002000000000000000000000000000C72E0008D3
:10003000C92E000800000000CB2E0008CD2E0008BD
:10004000613000086130000861300008613000084C
:100050006130000861300008D92E0008E32E000846
:1000600061300008ED2E00086130000861300008A2
:10007000613000086130000861300008613000081C
:10008000613000086130000861300008613000080C
:1000900061300008613000086130000861300008FC
:1000A0000000000061300008613000086130000885
:1000B00061300008613000086130000861300008DC
:1000C00061300008613000086130000861300008CC
:1000D00061300008613000086130000861300008BC
:1000E000F72E000861300008613000086130000818
:1000F0006130000800000000000000000000000067
:1001000000000000000000000000000000000000EF
:1001100000000000000000000000000000000000DF
:1001200000000000000000000000000000000000CF
:0C01300000000000000000005FF808F173
:1001400010B5054C237833B9044B13B10448AFF311
:1001500000800123237010BDD401002000000000A6
:10016000D857000808B5034B1BB103490348AFF348
:10017000008008BD00000000D8010020D85700080A
:1001800081F0004102E000BF83F0004330B54FEA48
:1001900041044FEA430594EA050F08BF90EA020FB5
:1001A0001FBF54EA000C55EA020C7FEA645C7FEA48
:1001B000655C00F0E2804FEA5454D4EB5555B8BF6B
:1001C0006D420CDD2C4480EA020281EA030382EADC
:1001D000000083EA010180EA020281EA0303362D6E
:1001E00088BF30BD11F0004F4FEA01314FF4801C41
:1001F0004CEA113102D0404261EB410113F0004F53
:100200004FEA03334CEA133302D0524263EB430309
:1002100094EA050F00F0A780A4F10104D5F1200EA7
:100220000DDB02FA0EFC22FA05F2801841F1000102
:1002300003FA0EF2801843FA05F359410EE0A5F1D6
:1002400020050EF1200E012A03FA0EFC28BF4CF007
:10025000020C43FA05F3C01851EBE37101F00045BD
:1002600007D54FF0000EDCF1000C7EEB00006EEBCA
:100270000101B1F5801F1BD3B1F5001F0CD3490854
:100280005FEA30004FEA3C0C04F101044FEA4452AB
:1002900012F5800F80F09A80BCF1004F08BF5FEA32
:1002A000500C50F1000041EB045141EA050130BD12
:1002B0005FEA4C0C404141EB010111F4801FA4F1B5
:1002C0000104E9D191F0000F04BF01460020B1FA0A
:1002D00081F308BF2033A3F10B03B3F120020CDA42
:1002E0000C3208DD02F1140CC2F10C0201FA0CF020
:1002F00021FA02F10CE002F11402D8BFC2F1200C85
:1003000001FA02F120FA0CFCDCBF41EA0C0190403A
:10031000E41AA2BF01EB0451294330BD6FEA040483
:100320001F3C1CDA0C340EDC04F11404C4F120026E
:1003300020FA04F001FA02F340EA030021FA04F380
:1003400045EA030130BDC4F10C04C4F1200220FAD7
:1003500002F001FA04F340EA0300294630BD21FA15
:1003600004F0294630BD94F0000F83F4801306BFDB
:1003700081F480110134013D4EE77FEA645C18BFCF
:100380007FEA655C29D094EA050F08BF90EA020F66
:1003900005D054EA000C04BF1946104630BD91EA5E
:1003A000030F1EBF0021002030BD5FEA545C05D161
:1003B0004000494128BF41F0004130BD14F58004A0
:1003C0003CBF01F5801130BD01F0004545F0FE4114
:1003D00041F470014FF0000030BD7FEA645C1ABF49
:1003E000194610467FEA655C1CBF0B46024650EA80
:1003F000013406BF52EA033591EA030F41F40021AC
:1004000030BD00BF90F0000F04BF0021704730B531
:100410004FF4806404F132044FF000054FF0000106
:1004200050E700BF90F0000F04BF0021704730B5C7
:100430004FF4806404F1320410F0004548BF40429C
:100440004FF000013EE700BF42004FEAE2014FEAF1
:1004500031014FEA02701FBF12F07F4393F07F4FCC
:1004600081F06051704732F07F4208BF704793F0CF
:100470007F4F04BF41F40021704730B54FF46074E2
:1004800001F0004521F000411CE700BF50EA0102E5
:1004900008BF704730B54FF000050AE050EA01028E
:1004A00008BF704730B511F0004502D5404261EBFE
:1004B00041014FF4806404F132045FEA915C3FF43F
:1004C000D8AE4FF003025FEADC0C18BF03325FEADC
:1004D000DC0C18BF033202EBDC02C2F1200300FA8D
:1004E00003FC20FA02F001FA03FE40EA0E0021FAB2
:1004F00002F11444BDE600BF70B54FF0FF0C4CF4A0
:10050000E06C1CEA11541DBF1CEA135594EA0C0F51
:1005100095EA0C0F00F0DEF82C4481EA030621EA8C
:100520004C5123EA4C5350EA013518BF52EA0335C7
:1005300041F4801143F4801338D0A0FB02CE4FF079
:100540000005E1FB02E506F00042E0FB03E54FF0A9
:100550000006E1FB03569CF0000F18BF4EF0010EA1
:10056000A4F1FF04B6F5007F64F5407404D25FEA9D
:100570004E0E6D4146EB060642EAC62141EA555150
:100580004FEAC52040EA5E504FEACE2EB4F1FD0C92
:1005900088BFBCF5E06F1ED8BEF1004F08BF5FEA10
:1005A000500E50F1000041EB045170BD06F00046C2
:1005B00046EA010140EA020081EA0301B4EB5C046F
:1005C000C2BFD4EB0C0541EA045170BD41F4801167
:1005D0004FF0000E013C00F3AB8014F1360FDEBF8C
:1005E000002001F0004170BDC4F10004203C35DA68
:1005F0000C341BDC04F11404C4F1200500FA05F3EB
:1006000020FA04F001FA05F240EA020001F000428B
:1006100021F0004110EBD37021FA04F642EB060101
:100620005EEA430E08BF20EAD37070BDC4F10C042B
:10063000C4F1200500FA04F320FA05F001FA04F2EF
:1006400040EA020001F0004110EBD37041F10001DB
:100650005EEA430E08BF20EAD37070BDC4F12005E6
:1006600000FA05F24EEA020E20FA04F301FA05F24E
:1006700043EA020321FA04F001F0004121FA04F2F6
:1006800020EA020000EBD3705EEA430E08BF20EAC6
:10069000D37070BD94F0000F0FD101F00046400000
:1006A00041EB010111F4801F08BF013CF7D041EA82
:1006B000060195F0000F18BF704703F00046520086
:1006C00043EB030313F4801F08BF013DF7D043EA57
:1006D0000603704794EA0C0F0CEA135518BF95EA0D
:1006E0000C0F0CD050EA410618BF52EA4306D1D194
:1006F00081EA030101F000414FF0000070BD50EAB3
:10070000410606BF1046194652EA430619D094EA3C
:100710000C0F02D150EA013613D195EA0C0F05D126
:1007200052EA03361CBF104619460AD181EA03017A
:1007300001F0004141F0FE4141F470014FF0000032
:1007400070BD41F0FE4141F4780170BD70B54FF0CD
:10075000FF0C4CF4E06C1CEA11541DBF1CEA13554D
:1007600094EA0C0F95EA0C0F00F0A7F8A4EB05042F
:1007700081EA030E52EA03354FEA013100F0888026
:100780004FEA03334FF0805545EA131343EA1263EF
:100790004FEA022245EA111545EA10654FEA0026A4
:1007A0000EF000419D4208BF964244F1FD0404F55D
:1007B000407402D25B084FEA3202B61A65EB0305B9
:1007C0005B084FEA32024FF480104FF4002CB6EB76
:1007D000020E75EB030E22BFB61A754640EA0C00F6
:1007E0005B084FEA3202B6EB020E75EB030E22BF36
:1007F000B61A754640EA5C005B084FEA3202B6EB77
:10080000020E75EB030E22BFB61A754640EA9C0035
:100810005B084FEA3202B6EB020E75EB030E22BF05
:10082000B61A754640EADC0055EA060E18D04FEAC3
:10083000051545EA16754FEA06164FEAC30343EA63
:1008400052734FEAC2025FEA1C1CC0D111F4801F30
:100850000BD141EA00014FF000004FF0004CB6E729
:1008600011F4801F04BF01430020B4F1FD0C88BFC8
:10087000BCF5E06F3FF6AFAEB5EB030C04BFB6EBD3
:10088000020C5FEA500C50F1000041EB045170BDC6
:100890000EF0004E4EEA113114EB5C04C2BFD4EBF3
:1008A0000C0541EA045170BD41F480114FF0000E77
:1008B000013C90E645EA060E8DE60CEA135594EAF3
:1008C0000C0F08BF95EA0C0F3FF43BAF94EA0C0FF6
:1008D0000AD150EA01347FF434AF95EA0C0F7FF46B
:1008E00025AF104619462CE795EA0C0F06D152EABF
:1008F00003353FF4FDAE1046194622E750EA4106A3
:1009000018BF52EA43067FF4C5AE50EA41047FF4B3
:100910000DAF52EA43057FF4EBAE12E74A0011D265
:1009200012F5001211D20DD56FF47873B3EB625249
:100930000ED44FEAC12343F0004343EA505323FA55
:1009400002F070474FF00000704750EA013002D1CA
:100950004FF0FF3070474FF000007047034613F828
:10096000012B002AFBD1181A013870474FF0FF3CC9
:1009700006E000BF4FF0010C02E000BF4FF0010C99
:100980004DF804CD4FEA410C7FEA6C5C4FEA430C12
:1009900018BF7FEA6C5C1BD001B050EA410C0CBF61
:1009A00052EA430C91EA030F02BF90EA020F0020C3
:1009B000704710F1000F91EA030F58BF994208BF2A
:1009C00090422CBFD8176FEAE37040F001007047E7
:1009D0004FEA410C7FEA6C5C02D150EA013C07D13E
:1009E0004FEA430C7FEA6C5CD6D152EA033CD3D089
:1009F0005DF8040B704700BF8446104662468C4683
:100A00001946634600E000BF01B5FFF7B7FF0028B5
:100A100048BF10F1000F01BD4DF808EDFFF7F4FFDE
:100A20000CBF012000205DF808FB00BF4DF808ED69
:100A3000FFF7EAFF34BF012000205DF808FB00BF8C
:100A40004DF808EDFFF7E0FF94BF012000205DF8AE
:100A500008FB00BF4DF808EDFFF7CEFF94BF012063
:100A600000205DF808FB00BF4DF808EDFFF7C4FF5C
:100A700034BF012000205DF808FB00BF4FEA410CA5
:100A80007FEA6C5C02D150EA013C0AD14FEA430C88
:100A90007FEA6C5C02D152EA033C02D14FF00000C5
:100AA00070474FF0010070474FEA410212F5001203
:100AB00015D211D56FF47873B3EB625212D94FEAA5
:100AC000C12343F0004343EA505311F0004F23FA8F
:100AD00002F018BF404270474FF00000704750EAE4
:100AE000013005D111F0004008BF6FF000407047A1
:100AF0004FF00000704700BF10B50446074B186860
:100B0000074BA3FB0030800900F086F80022214645
:100B10004FF0FF3000F040F8002010BD0000002032
:100B2000D34D621008B5032000F024F80020FFF731
:100B3000E3FF02F023F9002008BD0000024A136819
:100B400001331360704700BF04020020014B186896
:100B5000704700BF0402002010B582B00190FFF77B
:100B6000F5FF0446FFF7F2FF001B019B9842F9D303
:100B700002B010BD074AD36823F4E0631B041B0CCA
:100B8000000200F4E060184340F0BF6040F4003021
:100B9000D060704700ED00E030B4174BDB68C3F362
:100BA0000223C3F10704042C28BF04241D1D062DB5
:100BB00018D9033B4FF0FF3505FA04F421EA04018C
:100BC000994005FA03F322EA0303194300280BDBDB
:100BD0000901C9B200F1604000F5614080F80013DE
:100BE00030BC70470023E5E700F00F000901C9B2EF
:100BF000024B1954F4E700BF00ED00E014ED00E0F3
:100C000000F01F02400901239340024A42F82030BD
:100C1000704700BF00E100E00138B0F1807F0AD2E8
:100C2000064B5860064AF02182F823100020986095
:100C300007221A6070470120704700BF10E000E0F3
:100C400000ED00E0042805D0054A136823F00403F2
:100C500013607047024A136843F00403136070473F
:100C600010E000E0704708B5FFF7FCFF08BD00008A
:100C7000F0B482B0002336E0042400E00024B44045
:100C80003C4302355B4E46F825405B4C2568D44317
:100C900004EA05064F6817F4803F01D042EA0506D2
:100CA000554D2E606D6804EA05064F6817F4003F45
:100CB00001D042EA0506504D6E60AD6804EA0506B3
:100CC0004F6817F4801F01D042EA05064A4DAE6016
:100CD000ED682C404E6816F4001F01D042EA05046E
:100CE000454AD46001330A6832FA03F47FD0012404
:100CF0009C402240F6D04D68022D01D0122D10D11B
:100D0000DE08083650F826C003F00705AF000F25AF
:100D1000BD402CEA050C0D69BD4045EA0C0540F8C4
:100D2000265006685F000325BD40ED4305EA060C2A
:100D30004E6806F00306BE4046EA0C0606604E68A2
:100D400006F1FF3CBCF1010F03D9112E01D0122E88
:100D500010D1866805EA060CCE68BE4046EA0C064D
:100D60008660466826EA04044E68C6F300169E4074
:100D700026434660C46825408C68BC402C43C46050
:100D80004C6814F0805FADD01C4C256A45F001051D
:100D90002562246A04F001040194019C9D08AE1CA4
:100DA000144C54F8267003F00304A6000F24B4403A
:100DB00027EA0407124CA0423FF460AF04F58064B8
:100DC000A0420ED004F58064A0420CD004F58064EB
:100DD000A0420AD004F58064A0423FF44DAF052440
:100DE0004DE701244BE7022449E7032447E702B01B
:100DF000F0BC704700000140000401400038024090
:100E00000000024012B90904816170478161704796
:100E10007047000008B5054B5B69034200D108BD6F
:100E2000024B5861FFF7F4FFF9E700BF00040140EF
:100E300082B0214B9B6813F0F00F2CD11E4B5B6AE4
:100E400013F0805F08D01D4B1B6803F4C053B3F54B
:100E5000C05F14D000211FE0174A536A43F080534B
:100E60005362536A03F080530193019B134B1B6839
:100E700003F4C053516A21F080515162E7E7B0F5A5
:100E8000404F01D0002107E00D4A136843F00403EE
:100E90001360012100E00021094A136823F00103D7
:100EA0000B431360136803F001038B4202D001204F
:100EB00002B070470020FBE700380240007000409D
:100EC000003C024070B582B00446036813F0010F85
:100ED00037D0754B9B6803F00C03082B1AD0724B6C
:100EE0009B6803F00C030C2B0FD06368012B66D0BA
:100EF000002B40F088806C4B1A6822F480321A6014
:100F00001A6822F480221A605EE0674B9B6813F433
:100F1000803FEAD04FF4003393FAA3F3624B196891
:100F20004FF4003393FAA3F3B3FA83F303F01F03F0
:100F3000012202FA03F30B4203D06368002B00F096
:100F40007883236813F0020F00F0BF80564B9B6834
:100F500003F00C03042B00F09080534B9B6803F0CC
:100F60000C030C2B00F08380E368002B00F04B8116
:100F7000012292FAA2F3B3FA83F303F1845303F547
:100F80008E139B001A60FFF7E1FD0546022393FADA
:100F9000A3F3454B1968022393FAA3F3B3FA83F33F
:100FA00003F01F03012202FA03F30B4240F01B81FE
:100FB000FFF7CCFD401B0228E8D9032040E33A4A62
:100FC000136843F480331360636893B3FFF7BEFD87
:100FD00005464FF4003393FAA3F3334B19684FF4EB
:100FE000003393FAA3F3B3FA83F303F01F03012250
:100FF00002FA03F30B42A4D1FFF7A8FD401B6428BB
:10100000E7D903201CE3052B09D0274B1A6822F4EB
:1010100080321A601A6822F480221A60D4E7224BC8
:101020001A6842F480221A601A6842F480321A6008
:10103000CAE7FFF78BFD05464FF4003393FAA3F39D
:10104000194B19684FF4003393FAA3F3B3FA83F3FF
:1010500003F01F03012202FA03F30B423FF471AFC6
:10106000FFF774FD401B6428E6D90320E8E20E4B2D
:101070009B6813F4803F7FF477AF022393FAA3F3C6
:10108000094B1968022393FAA3F3B3FA83F303F02D
:101090001F03012202FA03F30B4207D0E3689342D5
:1010A00004D00120CCE200BF00380240C1484368B0
:1010B00023F4F85321694FF4F85292FAA2F2B2FAEB
:1010C00082F201FA02F213434360236813F0100F17
:1010D0005CD0B84B9B6813F00C0F40F0D8804FF4F5
:1010E000007393FAA3F3B34B19684FF4007393FAA8
:1010F000A3F3B3FA83F303F01F03012202FA03F30D
:101100000B4203D0A369002B00F09582206AA94B03
:101110005B6803F46043984240F29D80FFF788FECD
:10112000002840F08A82A3494B6823F46043226A76
:1011300013434B604B6823F07F43E0694FF07F42DD
:1011400092FAA2F2B2FA82F200FA02F213434B6070
:10115000236A4FF4604292FAA2F2B2FA82F2D340CA
:101160005A1C4FF400439340924A926802F0F002F6
:10117000F02191FAA1F1B1FA81F1CA408E498A5C5D
:10118000D3408E4A13600020FFF7B6FC236813F0AB
:10119000080F00F017816369002B00F0E680012141
:1011A00091FAA1F2B2FA82F2854B13449B001960C6
:1011B000FFF7CCFC0546022393FAA3F27D4A516B5C
:1011C00093FAA3F3B3FA83F303F01F03012202FAA5
:1011D00003F30B4240F0F680FFF7B8FC401B0228F7
:1011E000E9D903202CE27348436823F4F8532169BA
:1011F0004FF4F85292FAA2F2B2FA82F201FA02F233
:101200001343436061E7012393FAA3F3B3FA83F333
:1012100003F1845303F58E139B0000221A60FFF73D
:1012200095FC0546022393FAA3F3624B1968022347
:1012300093FAA3F3B3FA83F303F01F03012202FA34
:1012400003F30B423FF441AFFFF780FC401B022841
:10125000E8D90320F4E157494B6823F4604318436D
:1012600048604B6823F07F43E0694FF07F4292FA79
:10127000A2F2B2FA82F200FA02F213434B60206A41
:10128000FFF7D6FD00283FF463AF0120D8E1A36942
:10129000002B3FD04FF4807393FAA3F3B3FA83F398
:1012A00003F1845303F58E139B0001221A60FFF7AC
:1012B0004DFC05464FF4007393FAA3F33D4B1968B8
:1012C0004FF4007393FAA3F3B3FA83F303F01F030D
:1012D000012202FA03F30B4206D1FFF737FC401B51
:1012E0000228E7D90320ABE132494B6823F460437D
:1012F000226A13434B604B6823F07F43E0694FF051
:101300007F4292FAA2F2B2FA82F200FA02F2134398
:101310004B603BE74FF4807393FAA3F3B3FA83F384
:1013200003F1845303F58E139B0000221A60FFF72C
:101330000DFC05464FF4007393FAA3F31D4B196897
:101340004FF4007393FAA3F3B3FA83F303F01F038C
:10135000012202FA03F30B423FF418AFFFF7F6FB4A
:10136000401B0228E6D903206AE1012292FAA2F288
:10137000B2FA82F2124B13449B0000221A60FFF76C
:10138000E5FB0546022393FAA3F20A4A516B93FA4E
:10139000A3F3B3FA83F303F01F03012202FA03F36A
:1013A0000B420FD0FFF7D2FB401B0228EAD90320E3
:1013B00046E100BF00380240DC5800080000002071
:1013C000A0C19110236813F0040F00F092809E4B8F
:1013D0005B6A13F0805F1ED19B4B5A6A42F08052C9
:1013E0005A625B6A03F080530193019B0125974B7E
:1013F0001B6813F4807F10D0A368012B21D0002B31
:1014000043D1914B5A6B22F480725A635A6B22F487
:1014100080625A631AE00025E9E78C4A136843F4B6
:1014200080731360FFF792FB0646884B1B6813F42A
:10143000807FE1D1FFF78AFB801B6428F5D9032068
:10144000FEE0814A536B43F480735363A36893B304
:10145000FFF77CFB06464FF4007393FAA3F27A4A37
:10146000516B93FAA3F3B3FA83F303F01F03012242
:1014700002FA03F30B423BD1FFF768FB801B41F2FA
:1014800088339842E7D90320DAE0052B09D06E4B68
:101490005A6B22F480725A635A6B22F480625A6348
:1014A000D4E7694B5A6B42F480625A635A6B42F438
:1014B00080725A63CAE7FFF749FB06464FF4007390
:1014C00093FAA3F2604A516B93FAA3F3B3FA83F34E
:1014D00003F01F03012202FA03F30B4208D0FFF7C7
:1014E00035FB801B41F288339842E7D90320A7E0FF
:1014F000B5BB636A002B00F0A280534A926802F0E9
:101500000C020C2A00F09E80022B2FD04FF080732B
:1015100093FAA3F3B3FA83F303F1845303F58E1321
:101520009B0000221A60FFF711FB04464FF0007386
:1015300093FAA3F3444B19684FF0007393FAA3F3A3
:10154000B3FA83F303F01F03012202FA03F30B4201
:101550006DD0FFF7FBFA001B0228E7D903206FE0EC
:10156000394A536A23F080535362C2E74FF08073C5
:1015700093FAA3F3B3FA83F303F1845303F58E13C1
:101580009B0000221A60FFF7E1FA05464FF0007356
:1015900093FAA3F32C4B19684FF0007393FAA3F35B
:1015A000B3FA83F303F01F03012202FA03F30B42A1
:1015B00006D0FFF7CBFA401B0228E7D903203FE013
:1015C00021498B6823F47D03A26AE06A0243206B01
:1015D000024313438B604FF0807393FAA3F3B3FA83
:1015E00083F303F1845303F58E139B0001221A60E9
:1015F000FFF7ACFA04464FF0007393FAA3F3124BD3
:1016000019684FF0007393FAA3F3B3FA83F303F06E
:101610001F03012202FA03F30B4206D1FFF796FAE9
:10162000001B0228E7D903200AE0002008E0002080
:1016300006E0012004E0012002E0012000E000209B
:1016400002B070BD0120FBE700380240007000408E
:10165000224B986800F00C02082A3CD00C2A13D0C8
:10166000042A0FD01D4B586800F460404FF46043CB
:1016700093FAA3F3B3FA83F3D840431C4FF400402A
:10168000984070471648704700F470114FF470127C
:1016900092FAA2F2B2FA82F221FA02F211498A5CBB
:1016A00000F440004FF4400393FAA3F3B3FA83F33A
:1016B000D8400130094B9B6813F4803F05D00A4B9A
:1016C00003FB02F3B3FBF0F07047054B03FB02F39F
:1016D000B3FBF0F070470448704700BF0038024089
:1016E0000024F400D058000800366E018D4B1B68B2
:1016F00003F001038B4214D201290CD0894A1368EC
:1017000023F001030B431360136803F001038B42C2
:1017100007D001207047834A136843F00403136025
:10172000ECE770B5036813F0020F06D07E4A9368A9
:1017300023F0F0038468234393600C460546036856
:1017400013F0010F00F0A3804368022B18D0032B85
:1017500048D0012B5BD04FF4007292FAA2F2724A89
:1017600010684FF4007292FAA2F2B2FA82F202F01A
:101770001F02012101FA02F2024215D10120CDE03F
:101780004FF4003292FAA2F2674A10684FF4003226
:1017900092FAA2F2B2FA82F202F01F02012101FAD9
:1017A00002F2024200F0BB805F498A6822F0030225
:1017B00013438B60FFF7CAF906466B68022B39D0DA
:1017C000032B46D0012B53D0574B9B6813F00C0FC3
:1017D0005DD0FFF7BBF9801B41F288339842F3D903
:1017E00003209BE04FF0007292FAA2F24E4A10687A
:1017F0004FF0007292FAA2F2B2FA82F202F01F02E5
:10180000012101FA02F20242CED1012086E0022239
:1018100092FAA2F2444A1068022292FAA2F2B2FAB2
:1018200082F202F01F02012101FA02F20242BBD150
:10183000012073E03C4B9B6803F00C03082B26D07F
:10184000FFF784F9801B41F288339842F2D90320D4
:1018500064E0354B9B6803F00C030C2B17D0FFF7AB
:1018600075F9801B41F288339842F2D9032055E084
:101870002D4B9B6803F00C03042B08D0FFF766F98F
:10188000801B41F288339842F2D9032046E0254B71
:101890001B6803F00103A34214D9012C0CD0214A88
:1018A000136823F0010323431360136803F001035B
:1018B000A34207D0012031E01A4A136843F0040321
:1018C0001360ECE72B6813F0040F06D0164A9368F8
:1018D00023F4E063E9680B4393602B6813F0080F6F
:1018E00007D0114A936823F46053296943EAC1037E
:1018F0009360FFF7ADFE0C4B9B6803F0F003F02202
:1019000092FAA2F2B2FA82F2D340084AD35CD840EB
:10191000074B18600020FFF7EFF8002070BD012092
:10192000FCE700BF003C024000380240DC580008E1
:1019300000000020014B1868704700BF0000002025
:1019400008B5FFF7F7FF074B9B6803F4E0634FF41C
:10195000E06292FAA2F2B2FA82F2D340024AD35C77
:10196000D84008BD00380240EC58000808B5FFF721
:10197000E1FF074B9B6803F460534FF4605292FA07
:10198000A2F2B2FA82F2D340024AD35CD84008BD38
:1019900000380240EC5800082DE9F04105460E469B
:1019A00090461C46FFF7D2F80746B8F1000F2ED03C
:1019B0002B689B6836EA03035BD1B4F1FF3FF7D095
:1019C00024B1FFF7C3F8C01BA042F1D92A685368BD
:1019D00023F0E00353602A68136823F04003136088
:1019E000AB6AB3F5005F39D0012385F8513000238D
:1019F00085F8503003202FE02A68136823F4005341
:101A000013602A68136843F4005313601BE02B68CB
:101A10009B6836EA03031ED0B4F1FF3FF7D024B130
:101A2000FFF794F8C01BA042F1D92A68536823F04D
:101A3000E00353602A68136823F040031360AB6A25
:101A4000B3F5005FD8D0012385F85130002385F825
:101A50005030032000E00020BDE8F0812A681368C0
:101A600023F4005313602A68136843F4005313608F
:101A7000BAE70020F0E730B583B090F85140E4B207
:101A8000012C40F0D080002900F0D180002A00F025
:101A9000D08090F85040012C00F0CD80012480F8D7
:101AA0005040122480F8514000244465016382862E
:101AB000C286C464846484638487C487826AB2F5FE
:101AC000005F38D08268B2F5004F3FD002681168DD
:101AD00011F0400F03D1116841F0400111601D4623
:101AE0000446C368002B61D143681BB1C38E9BB20F
:101AF000012B09D1236B5A1C226322681B78D36007
:101B0000E38E013B9BB2E386E38E9BB223B32B466D
:101B1000002202212046FFF73FFF002840F08D8081
:101B2000236B5A1C226322681B78D360E28E013A31
:101B300092B2E286E8E701680A6822F400520A607D
:101B400001680A6842F400520A60BBE701680A684B
:101B500042F480420A60B9E7A36AB3F5005F1FD080
:101B60002B46002202212046FFF716FF00284ED107
:101B70002B46012280212046FFF70EFF0346002856
:101B80004BD1A2682AB92268D1680191926801926A
:101B9000019A012284F85120002284F8502043E069
:101BA0002268136843F480531360D9E743681BB17C
:101BB000C38E9BB2012B0AD1226B23681288DA6094
:101BC000236B02332363E38E013B9BB2E386E38EF8
:101BD0009BB293B12B46002202212046FFF7DCFE88
:101BE00068BB226B23681288DA60236B023323639D
:101BF000E28E013A92B2E286E9E7A36AB3F5005FAA
:101C0000AED12268136843F480531360A8E7636D74
:101C100043F020036365032306E0636D43F0200374
:101C20006365032300E00223184603B030BD01239F
:101C3000FAE70123F8E70223F6E70323F4E7032397
:101C4000F2E710B582B00024ADF8064090F851409C
:101C5000E4B2012C05D090F85140E4B2222C40F0BF
:101C60009981002900F09A81002A00F09981002BC7
:101C700000F0988190F85040012C00F095810124EB
:101C800080F8504090F85140E4B2012C64D0002418
:101C9000446582638387C38701638386C3868464C4
:101CA000C464836AB3F5005F5AD003681A6812F0FF
:101CB000400F03D11A6842F040021A600446C3681C
:101CC000B3F5006F57D0436833B1B3F5827F0DD1C0
:101CD000C38E9BB2012B09D1236B5A1C226322684D
:101CE0001B78D360E38E013B9BB2E386E38E9BB20D
:101CF000002B40F0E280A36AB3F5005F00F0C480DF
:101D0000049B002201212046FFF746FE002840F0F8
:101D100055812368DA68A36B1A70E38F013B9BB28D
:101D2000E387A36AB3F5005F00F00181049B012201
:101D300080212046FFF730FE0346002840F00C814A
:101D4000012284F85120A26AB2F5005F00F00A81F6
:101D5000002284F850201EE1322480F8514096E79A
:101D60000268136823F4005313600268136843F495
:101D70000053136099E7436833B1B3F5827F0ED106
:101D8000C38E9BB2012B0AD1226B23681288DA60C2
:101D9000236B02332363E38E013B9BB2E386E38E26
:101DA0009BB2002B32D1A36AB3F5005F14D0049B21
:101DB000002201212046FFF7EFFD002840F0F680C9
:101DC0002368DA68A36B1A80A36B0233A363E38FE3
:101DD000013B9BB2E387A4E72268136843F4805376
:101DE0001360E4E7049B002201212046FFF7D4FDA5
:101DF000002840F0DF802368DA68A36B1A80A36BA9
:101E00000233A363E38F013B9BB2E387E38E9BB274
:101E10000BB3049B002202212046FFF7BDFD0028E2
:101E200040F0C680226B23681288DA60236B02338D
:101E30002363E38E013B9BB2E386E38E9BB2002BD0
:101E4000D0D1A36AB3F5005FCCD12268136843F404
:101E500080531360C6E76368002B7FF462AF049B76
:101E6000002201212046FFF797FD002840F0A480C2
:101E70002368DA68A36B1A80A36B0233A363E38F32
:101E8000013B9BB2E3874CE72268136843F480531D
:101E9000136035E7049B002201212046FFF77CFDFB
:101EA000002840F08F802368DA68A36B591CA16377
:101EB0001A70E38F013B9BB2E387E38E9BB2FBB1C9
:101EC000049B002202212046FFF766FD002877D1FF
:101ED000236B5A1C226322681B78D360E38E013B7C
:101EE0009BB2E386E38E9BB2002BD3D1A36AB3F5FA
:101EF000005FCFD12268136843F480531360C9E7B1
:101F00006368002B7FF40DAF049B00220121204663
:101F1000FFF742FD002857D12368DA68A36B591CEC
:101F2000A1631A70E38F013B9BB2E387F9E6049B40
:101F3000002201212046FFF72FFD38B92368DB6816
:101F40009BB2ADF80630BDF80630EFE6636D43F0A6
:101F50000203636503231EE0636D43F020036365A2
:101F6000032318E02268916811F0100F3FF4F0AEDF
:101F7000636D43F002036365136823F40053136039
:101F80002268136843F400531360002384F8503030
:101F9000012300E00223184602B010BD0123FAE736
:101FA0000123F8E70123F6E70223F4E70323F2E72E
:101FB0000323F0E70323EEE70323ECE70323EAE739
:101FC0000323E8E70323E6E70323E4E770B584B0DF
:101FD0000024ADF80E4090F85140E4B2012C40F0DE
:101FE0000081002900F00181002A00F0008190F8B2
:101FF0005040012C00F0FD80012480F85040222444
:1020000080F851400024446581638287C2878464DC
:10201000C46404638486C4868468B4F5004F2ED0FB
:10202000846AB4F5005F30D01D4604464368B3F5BA
:10203000827F35D023681A6812F0400F03D11A68E6
:1020400042F040021A60E368002B35D0E38F9BB268
:10205000012B7BD92B46002201212046FFF79CFC57
:10206000002840F0CA802368DA68A36B1A80A36B4B
:102070000233A363E28F013A92B2E287E6E7056892
:102080002C6824F480442C60CAE705682C6824F48A
:1020900000542C6005682C6844F400542C60C3E79D
:1020A0008368002BC6D180F85030009513460A464D
:1020B000FFF7C7FD064695E0E38F9BB2012B13D9CE
:1020C0002B46002201212046FFF766FC002840F045
:1020D00092802368DA68A36B591CA1631A70E28F9F
:1020E000013A92B2E287E7E7A36AB3F5005F27D02F
:1020F0002B46002201212046FFF74EFC0646002811
:102100007DD1E36863BB2368DA68A36B591CA163C4
:102110001A70E38F013B9BB2E387A36AB3F5005FBC
:1021200026D06368B3F5827F37D0012384F851301D
:10213000A36AB3F5005F3DD0002384F8503051E02E
:102140002268136843F480531360D1E7A36AB3F5A0
:10215000005FCDD12268136843F480531360C7E752
:102160002368DA68A36B1A80A36B0233A363D0E7FA
:102170002B46002201212046FFF70EFC38B92368C8
:10218000DB689BB2ADF80E30BDF80E30C9E7636D69
:1021900043F002036365032624E0A368B3F5004F10
:1021A00002D0B3F5806FC0D12268136823F04003DA
:1021B0001360BAE723689A6812F0100FBCD0626D02
:1021C00042F0020262651A6822F400521A60226824
:1021D000136843F400531360002384F85030012641
:1021E00000E00226304604B070BD0126FAE7012661
:1021F000F8E70226F6E70326F4E70326F2E70326CC
:10220000F0E7002837D010B5044690F85130002B85
:102210002CD0022384F851302268136823F0400345
:1022200013606368A2681343E2681343226913438F
:1022300062691343A26902F400721343E269134313
:10224000226A1343A16A22680B431360638B03F075
:102250000403616A22680B4353602368E26A1A61CF
:1022600000206065012384F8513010BD80F85030A3
:1022700000F0D4FDCDE70120704700002DE9F843C0
:1022800004460268136923F44053C1680B43136189
:1022900083680269134342691343C2691A430168A0
:1022A000CB6823F4164323F00C031343CB6002687E
:1022B000536923F4407381690B435361C369B3F5D8
:1022C000004F5CD00268B34B9A4200F00C81FFF7DC
:1022D00037FB00EB800000EB80006568AD00B0FBD1
:1022E000F5F5AD4FA7FB05356D092E01FFF728FB6E
:1022F00000EB800000EB80006568AD00B0FBF5F9F5
:10230000FFF71EFB00EB800000EB80006568AD006E
:10231000B0FBF5F5A7FB05356D094FF0640808FB28
:1023200015952D013235A7FB05356D0905F0F00532
:102330003544FFF705FB00EB800000EB800066688A
:10234000B600B0FBF6F6FFF7FBFA00EB800000EBFF
:10235000800063689B00B0FBF3F0A7FB00304009EE
:1023600008FB10684FEA081808F13208A7FB083785
:10237000C7F3431723682F449F60BDE8F8830268C2
:10238000844B9A4257D0FFF7DBFA00EB800000EB5A
:10239000800065686D00B0FBF5F57F4FA7FB053544
:1023A0006D092E01FFF7CCFA00EB800000EB8000F6
:1023B00065686D00B0FBF5F9FFF7C2FA00EB80002D
:1023C00000EB800065686D00B0FBF5F5A7FB0535F7
:1023D0006D094FF0640808FB1595ED003235A7FB39
:1023E00005356D096D0005F4F8753544FFF7A8FA59
:1023F00000EB800000EB800066687600B0FBF6F62C
:10240000FFF79EFA00EB800000EB800063685B0042
:10241000B0FBF3F3A7FB03235B0908FB13684FEA48
:10242000C80808F13208A7FB0837C7F3421723682A
:102430002F449F60A1E7FFF799FA00EB800000EBC3
:10244000800065686D00B0FBF5F5534FA7FB0535BF
:102450006D092E01FFF78AFA00EB800000EB800087
:1024600065686D00B0FBF5F9FFF780FA00EB8000BE
:1024700000EB800065686D00B0FBF5F5A7FB053546
:102480006D094FF0640808FB1595ED003235A7FB88
:1024900005356D096D0005F4F8753544FFF766FAEA
:1024A00000EB800000EB800066687600B0FBF6F67B
:1024B000FFF75CFA00EB800000EB800063685B00D4
:1024C000B0FBF3F3A7FB03235B0908FB13684FEA98
:1024D000C80808F13208A7FB0837C7F3421723687A
:1024E0002F449F6049E7FFF741FA00EB800000EBC3
:1024F00080006568AD00B0FBF5F5274FA7FB0535FB
:102500006D092E01FFF732FA00EB800000EB80002E
:102510006568AD00B0FBF5F9FFF728FA00EB800025
:1025200000EB80006568AD00B0FBF5F5A7FB053555
:102530006D094FF0640808FB15952D013235A7FB96
:1025400005356D0905F0F0053544FFF70FFA00EB8E
:10255000800000EB80006668B600B0FBF6F6FFF77F
:1025600005FA00EB800000EB800063689B00B0FB85
:10257000F3F3A7FB03235B0908FB13684FEA081872
:1025800008F13208A7FB0837C7F3431723682F4425
:102590009F60F2E6003801401F85EB5148B310B54B
:1025A000044690F83930FBB1022384F839302268B0
:1025B000D36823F40053D3602046FFF75FFE226800
:1025C000136923F4904313612268536923F02A03AB
:1025D00053612268D36843F40053D3600020E06362
:1025E000012384F8393010BD80F8383000F03EFC0B
:1025F000DAE701207047000000B587B0102301938F
:102600000123029303930323049301A90548FEF7D2
:102610002FFBC023019301A90348FEF729FB07B054
:102620005DF804FB000002400004024000B587B0E2
:10263000102301931123029300230393049301A910
:102640000548FEF715FBC023019301A90348FEF7D7
:102650000FFB07B05DF804FB0000024000040240DD
:1026600008B5064B1B78834204D0044B187010B198
:10267000FFF7DCFF08BDFFF7BFFFFBE7F00100201D
:1026800010B5032813D0002210211348FEF7BAFB1F
:10269000124C012240212046FEF7B4FB012280218A
:1026A0002046FEF7AFFB0E4801F0D2F910BD012223
:1026B00010210948FEF7A6FB084C002240212046C5
:1026C000FEF7A0FB002280212046FEF79BFB054879
:1026D00001F0BEF9EAE700BF00000240000402403A
:1026E000FC580008F458000810B50A4C00224FF4BA
:1026F00000512046FEF786FB0120FEF72DFA01224D
:102700004FF400512046FEF77DFB0620FEF724FA29
:1027100010BD00BF0004024070B582B00D461646E1
:1027200060F07F0002AC04F8010D00220121104886
:10273000FEF768FB0523012221460E48FFF79BF9AF
:1027400020B10D4801F084F902B070BD0523324676
:1027500029460848FFF78FF918B1084801F078F9C1
:10276000F2E7012211460248FEF74CFBECE700BFFE
:1027700000040240040300200459000830590008F6
:1027800000B583B002AB03F8011D01221946FFF723
:10279000C3FF03B05DF804FB70B582B00D4616466A
:1027A00000F07F0002AC04F8010D00220121104866
:1027B000FEF728FB0523012221460E48FFF75BF9AF
:1027C00060B90523324629460A48FFF7FFFB50B996
:1027D000012211460648FEF715FB02E0064801F00B
:1027E00037F902B070BD044801F032F9F9E700BFD3
:1027F00000040240040300205C59000800B583B0C7
:1028000001220DF10701FFF7C7FF9DF8070003B094
:102810005DF804FB0000000038B50446014620487E
:1028200001F0A2F82046FDF7EDFD1BA3D3E900233C
:10283000FDF78CFFFEF772F804460146194801F0D7
:1028400093F8C4F307410620FFF79AFFC4F307216A
:102850000720FFF795FFE1B20820FFF791FF062060
:10286000FFF7CCFF05460720FFF7C8FF0446082006
:10287000FFF7C4FF200240EA05402843FDF7C2FDF0
:1028800005A3D3E90023FDF737FEFEF747F801461D
:10289000054801F069F838BD0000000080844E4012
:1028A00088590008AC590008F059000800000000E1
:1028B00038B50920FFF7A2FF05460620FFF79EFF67
:1028C00004040720FFF79AFF44EA00240820FFF7DA
:1028D00095FF2043FDF796FD1DA3D3E90023FDF7E7
:1028E0000BFEFEF71BF8044601461B4801F03CF8BE
:1028F00000210920FFF744FF3B20FFF77FFF40F056
:102900004001C9B23B20FFF73BFF3B20FFF776FFBA
:1029100010F0200FF9D11148FFF77EFF3B20FFF7A1
:102920006DFF40F04001C9B23B20FFF729FF3B207B
:10293000FFF764FF10F0200FF9D129460920FFF7B7
:102940001FFF2046FFF768FF38BD00BFAFF30080D0
:102950000000000080844E400C5A000800A1BC33E7
:1029600010B5044688B10020FFF77AFE2046FFF735
:1029700087FE0120FFF742FF41B221F0070121430A
:10298000C9B20120FFF7FCFE10BD0120FFF768FE71
:10299000EFE7000008B50020FFF7E2FF024B00223E
:1029A00083F8582008BD00BF0802002010B5044677
:1029B0000120FFF723FF10F0800F24D11F4801F002
:1029C00047F81F4B002283F859201D4B93F85930CC
:1029D000A34217D01A4B83F85940012C1BD1FFF7A3
:1029E000D9FF0120FFF70AFF60F07F01C9B2012083
:1029F000FFF7C6FE00214020FFF7C2FE0021412064
:102A0000FFF7BEFE10BD0F4801F022F80C4B01226B
:102A100083F85920D9E7FFF7BDFF0120FFF7EEFE4D
:102A200000F07F010120FFF7ABFE00214020FFF7FF
:102A3000A7FE30214120FFF7A3FEE3E7605A00081C
:102A4000080200203C5A000838B5FFF74DFEFFF79A
:102A50002FFF0020FFF784FF00240CE00B4A04EB5B
:102A60004403D518D05CFFF7A1FFA9786878FFF779
:102A700087FE0134E4B20F2CF0D90020FFF796FF57
:102A8000034B002283F8582038BD00BFF0570008E0
:102A9000080200202DE9F0438BB05E4BDA6942F06A
:102AA0000402DA61DA6902F004020192019ADA6939
:102AB00042F02002DA61DA6902F020020292029A00
:102AC000DA6942F00102DA61DA6902F00102039286
:102AD000039ADA6942F00202DA61DB6903F0020369
:102AE0000493049B4C4E002214213046FEF78AF9D1
:102AF0004A4F012242F211013846FEF783F90122C2
:102B00004FF480513046FEF77DF90022C02138464F
:102B1000FEF778F94FF400530593DFF80C81CDF8F8
:102B200018800125079505A93D48FEF7A1F80595F0
:102B3000CDF81880079505A93A48FEF799F80423BF
:102B400005931123069300240794089405A93046A1
:102B5000FEF78EF840F608030593CDF81880079528
:102B600005A93046FEF784F81023059306950795CE
:102B70004FF00309CDF8209005A93046FEF778F80C
:102B8000C123059306950795CDF8209005A93846F1
:102B9000FEF76EF802230593CDF81880079505A976
:102BA0003846FEF765F842F2100305930695079440
:102BB000089405A93846FEF75BF84FF48053059357
:102BC00006950794089405A93046FEF751F8224669
:102BD00021460620FDF7E0FF0620FEF711F8224609
:102BE00021460720FDF7D8FF0720FEF709F8224607
:102BF00021460920FDF7D0FF0920FEF701F8224603
:102C000021462820FDF7C8FF2820FDF7F9FF0BB06B
:102C1000BDE8F0830038024000000240000402409A
:102C2000000802400014024000001110FEE70000FE
:102C300008B50E480E4B03604FF4827343600023C7
:102C40008360C360036143614FF400728261C361BA
:102C50000362436283620A23C362FFF7D2FA00B9B8
:102C600008BDC6210348FFF7E1FF00BF04030020B1
:102C700000300140845A000808B50B480B4B036034
:102C80004FF4E133436000238360C36003610C228F
:102C900042618361C361FFF781FC00B908BDD9219E
:102CA0000348FFF7C3FF00BFC40200200038014003
:102CB000845A000800B593B0214A136823F4C05326
:102CC00043F400631360022305930122089210224B
:102CD00009920E9300230F934FF4802310934FF427
:102CE0008003119305A8FEF7EDF800BB0F230093B6
:102CF0000323019300230293039304930121684665
:102D0000FEF7F4FCB8B9FEF715FE0E4BA3FB00303E
:102D10008009FDF781FF0420FDF794FF0022114692
:102D20004FF0FF30FDF738FF13B05DF804FB96213C
:102D30000548FFF77BFFA4210348FFF777FF00BF9B
:102D400000700040D34D6210845A000808B5FDF7AA
:102D5000E9FEFFF7AFFFFFF79DFEFFF769FFFFF703
:102D60008BFF044800F074FE034800F071FEFFF78B
:102D70006BFEFEE7945A0008A45A000800B585B01F
:102D8000254B5A6A42F000425A625A6A02F00042E7
:102D90000192019A1A6A42F001021A621A6A02F05A
:102DA00001020292029A5A6A42F080525A625B6AA7
:102DB00003F080530393039B0320FDF7DBFE002207
:102DC00011466FF00B00FDF7E7FE002211466FF091
:102DD0000A00FDF7E1FE002211466FF00900FDF741
:102DE000DBFE002211466FF00400FDF7D5FE002245
:102DF00011466FF00300FDF7CFFE002211466FF081
:102E00000100FDF7C9FE002211464FF0FF30FDF72B
:102E1000C3FE05B05DF804FB003802400268114BA8
:102E20009A4200D0704700B587B003F584331A6A20
:102E300042F480521A621B6A03F480530093009B91
:102E4000E0230193022302930023039303230493BB
:102E50000523059301A90448FDF70AFF07B05DF8B3
:102E600004FB00BF00300140000002400268114B2B
:102E70009A4200D0704700B587B003F580331A6AD4
:102E800042F480421A621B6A03F480430093009B61
:102E90004FF4C0630193022302930123039303239E
:102EA00004930723059301A90348FDF7E1FE07B04A
:102EB0005DF804FB00380140000002407047FEE767
:102EC000FEE7FEE7FEE770477047704708B5FDF77D
:102ED00035FEFDF7C8FE08BD08B50120FDF79AFFD5
:102EE00008BD08B50220FDF795FF08BD08B508200C
:102EF000FDF790FF08BD08B54FF40060FDF78AFFAD
:102F00004FF40050FDF786FF08BD70B50D4616461C
:102F1000002404E000F070F8287001340135B44258
:102F2000F8DB304670BD70B51646002405E04D1C38
:102F3000087800F055F801342946B442F7DB3046F2
:102F400070BD000008B503460B4A126842B10A4A38
:102F5000106803446A46934206D8074A136008BDC6
:102F6000054A06491160F2E700F07CF80C23036083
:102F70004FF0FF30F3E700BFF401002060030020B2
:102F80004FF0FF3070474FF400534B600020704704
:102F900001207047002070470E4B1A6842F480727F
:102FA0001A6099680C4A0A409A601A6822F088529E
:102FB00022F001121A601A6822F480221A609A68BC
:102FC00022F47D029A600022DA60044B4FF0006226
:102FD0009A607047003802400CC0FF8800ED00E0A6
:102FE000044B1B6813F0400FFAD0C0B2014B58607D
:102FF0000020704700380140044B1B6813F0200F7D
:10300000FAD0024B5868C0B2704700BF0038014088
:103010000D488546002103E00C4B5B5843500431BA
:103020000B480C4B42189A42F6D30B4A02E000239D
:1030300042F8043B094B9A42F9D3FFF7ADFF00F089
:1030400017F8FFF783FE704700800020A05D00089E
:1030500000000020D4010020D401002060030020E3
:10306000FEE70000014B1868704700BF0400002015
:1030700070B500250C4E0D4CA41BA410A54209D11F
:1030800002F0AAFB00250A4E0A4CA41BA410A5427C
:1030900005D170BD56F8253098470135EEE756F852
:1030A000253098470135F2E7985D0008985D0008E3
:1030B000985D00089C5D000803460244934200D1DD
:1030C000704703F8011BF9E7002B2DE9F0471E4676
:1030D000BBBF03F100431E4600232D2388B0149F7D
:1030E000DDE9121A27F02007462F1446109D0B70B9
:1030F00004D0452F00D10135022300E0032307AAA5
:10310000049206AACDE902A2CDE900352246334653
:1031100000F0F6FD472F804602D1119BDB0726D534
:10312000462F08EB050911D198F80030302B0AD151
:103130000022002320463146FDF76EFC18B9C5F188
:103140000105CAF80050DAF8003099440022002343
:1031500020463146FDF760FC38B93022079B4B45CD
:1031600005D2591C07911A70F8E7CDF81C9040461B
:10317000079B159AA3EB0803136008B0BDE8F0871E
:10318000F7B50029B4BF2D232B230446B8BF49420D
:10319000092904F8022B437021DD0DF107031F46B6
:1031A0000A2691FBF6F506FB1511092D01F13001F8
:1031B00003F8011C03F1FF32294609DC3031023BE0
:1031C00002F8011CBB42224604D3101A03B0F0BD22
:1031D0001346E6E713F8012B04F8012BF2E730233E
:1031E00019448370021DC170EFE700002DE9F04F14
:1031F00091B00C461A9F93461E46054601F0AEFC60
:10320000036818460993FDF7A9FB00230E933B685A
:103210000A90073323F0070303F1080294F818809B
:10322000D4F800A03A60D3E90023C4E91223D4E91A
:10323000127929F000430B934FF0FF32A64B38462A
:103240000B99FDF71BFC68BB4FF0FF32A24B3846D1
:103250000B99FDF7F5FB28BB0022002338464946B1
:10326000FDF7E4FB10B12D2384F843309B4F9C4BBA
:10327000B8F1470F98BF1F4603234FF000092361A1
:103280002AF00403236000965B460FAA21462846D5
:1032900000F0E2F9013040F090804FF0FF3011B0C3
:1032A000BDE8F08F3A464B4638464946FDF7E6FB07
:1032B00010B18C4F8C4BDBE763684AF48062591C79
:1032C0000DA80EA940D1062363604FF0000C0DF14C
:1032D0003303CDE9012363682260CDE9030800933D
:1032E0003A464B46CDE9051C2846FFF7EDFE08F0AF
:1032F000DF03472B074609D10D9BD81C02DB626810
:10330000934247DDA8F102085FFA88F8B8F1650F2B
:103310000D9924D80139424604F150000D91FFF770
:103320002FFF0E9A81461318012A236102DC2268BE
:10333000D10701D5013323619DF83330002BA2D092
:103340002D2384F843309EE7B8F1670F00F06E81BB
:10335000B8F1470FB9D1002BB7D10123B4E7B8F1C9
:10336000660F19D1002963680CDD216113B9226849
:10337000D20702D501330B4423610D9B4FF00009A6
:10338000A365D9E713B92268D00701D50233F3E763
:103390000123F1E74FF06708DDE90D32934205DBC9
:1033A00022682361D107E8D50133E5E7002BCCBFC4
:1033B0000123C3F102031344DEE723685A0507D44F
:1033C00023693A4659462846B047013029D164E777
:1033D000B8F1650F40F2D780D4E912010022002332
:1033E000FDF71AFB88B30123404A59462846B047E7
:1033F00001303FF452AFDDE90D239A4202DB23682E
:10340000D8070ED5DDE9092359462846B0470130D3
:103410003FF443AF002704F11A080E9B013BBB4267
:1034200009DC23689F0700F1FD80E0680F9B98424C
:10343000B8BF184633E70123424659462846B047ED
:1034400001303FF42AAF0137E7E70D9B002B2BDC5F
:103450000123264A59462846B04701303FF41DAFA4
:103460000D9B23B90E9B13B92368D907D9D5DDE984
:10347000092359462846B04701303FF40EAF4FF0BC
:10348000000804F11A090D9B5B42434501DC0E9BC9
:1034900097E701234A4659462846B04701303FF492
:1034A000FCAE08F10108EEE70E9AA36D9A42A8BFA0
:1034B0001A46002A904607DD134659463A462846E2
:1034C000B04701303FF4E9AE04F11A034FF0000AAF
:1034D00028EAE8780B9315E0FFFFEF7FDC5A00083D
:1034E000D85A0008E45A0008E05A0008E85A0008D0
:1034F00001230B9A59462846B04701303FF4CDAE20
:103500000AF1010AD4F85890A9EB08035345EFDCFF
:10351000DDE90D239A424F4414DB2368DA0711D406
:103520000E9B0D99A3EB0902A3EB01099145A8BFDE
:103530009146B9F1000F0DDC002729EAE97904F181
:103540001A0818E0DDE9092359462846B04701303A
:10355000E6D1A2E64B463A4659462846B0470130E6
:10356000EAD19AE60123424659462846B04701303F
:103570003FF493AE0137DDE90D239B1AA3EB09035A
:10358000BB42EFDC4DE70E9A012A01DCDB0738D5A0
:1035900001233A4659462846B04701303FF47DAEF4
:1035A000DDE9092359462846B047013007F10107F4
:1035B0003FF473AED4E912010E9B002203F1FF38F1
:1035C0000023FDF729FAC0B943463A465946284632
:1035D000B04701300DD160E60123424659462846E6
:1035E000B04701303FF459AE01370E9B013BBB425F
:1035F000F2DC4B4604F15002E4E6002704F11A081D
:10360000F3E70123E1E70123424659462846B04744
:1036100001303FF442AE0137E3680F9A9B1ABB4278
:10362000F1DC02E7002704F11908F5E7002B3FF46D
:1036300094AE4FF0000CCDE9051C0DF13301226072
:10364000CDE90308CDE9012100933A464B462846CF
:10365000FFF73AFD07464FE62DE9F04791461F4632
:103660008A680B6906469342B8BF1346C9F8003012
:1036700091F843200C46DDF8208012B10133C9F8DF
:1036800000302368990642BFD9F800300233C9F8E8
:103690000030256815F0060507D104F1190AE36822
:1036A000D9F800209B1AAB4229DC94F843302268F9
:1036B000003318BF012392062ED404F14302394689
:1036C0003046C047013021D02368E56803F0060387
:1036D000042B18BF0025D9F800204FF0000908BFBF
:1036E000AD1AA368226908BF25EAE5759342C4BFF5
:1036F0009B1AED181A344D451AD1002008E0012319
:10370000524639463046C047013003D14FF0FF30B2
:10371000BDE8F0870135C2E73020E11881F84300A9
:103720005A1C94F845102244023382F84310C4E72F
:103730000123224639463046C0470130E6D009F120
:103740000109D8E72DE9F04301F1430C0C46097E4D
:1037500085B06E291746064698460C9A00F0B3804D
:1037600022D8632936D00AD8002900F0B980582918
:1037700000F0838004F1420584F8421032E06429AD
:1037800001D06929F6D120681368050603F1040108
:103790002AD51B681160002B03DA2D225B4284F8C6
:1037A00043206F480A2239E0732900F09D8008D831
:1037B0006F2920D07029DDD1236843F020032360D6
:1037C00003E0752917D07829D4D17823654884F887
:1037D000453055E0136804F14205191D1B6811605E
:1037E00084F8423001238CE01B6810F0400F116018
:1037F00018BF1BB2CFE713682568181D1060280694
:1038000001D51B6802E06806FBD51B886F2914BF31
:103810000A2208225248002184F843106568002DCE
:10382000A560C0F29580216821F004012160002B81
:103830003DD1002D40F08E806546082A0BD12368CB
:10384000DB0708D5236962689A42DEBF302305F89A
:10385000013C05F1FF35ACEB05032361CDF8008099
:103860003B4603AA21463046FFF7F6FE01304DD114
:103870004FF0FF3005B0BDE8F083394884F84510BB
:10388000136821681D1D1B6815600A060BD5CA0741
:1038900044BF41F0200121601BB9226822F02002C0
:1038A00022601022B7E74D0648BF9BB2EFE765469E
:1038B000B3FBF2F102FB1133C35C05F8013D0B468B
:1038C0000029F5D1B9E713682568181D61691060F2
:1038D00028061B6801D5196002E06A06FBD519802D
:1038E000002365462361B9E71368191D11601D683F
:1038F00062680021284601F0ABF908B1401B606006
:1039000063682361002384F84330A7E723692A46CC
:1039100039463046C0470130AAD023689B0713D4EC
:10392000E068039B9842B8BF1846A3E701234A46C4
:1039300039463046C04701309AD00135E368039AD2
:103940009B1AAB42F2DCEBE7002504F11909F5E71D
:10395000002BACD1037804F1420584F842306CE7C7
:10396000EA5A0008FB5A00080FB40A4B13B51C684A
:1039700024B1A36913B9204601F066F805AB049A97
:10398000A1682046019301F035FD02B0BDE810406A
:1039900004B070470400002070B50E46054618B10B
:1039A00083690BB901F050F8AB69AC6813B92846CC
:1039B00001F04AF8234B9C4217D16C68A3891B077E
:1039C0001DD52369DBB1013EA36816F8011F013B39
:1039D000A360E9B9002B2EDA22460A21284600F01E
:1039E0003FF8013011D00A2011E0174B9C4201D161
:1039F000AC68E3E7154B9C4208BFEC68DEE7214664
:103A0000284600F07FF80028DDD04FF0FF3070BD71
:103A1000002B04DAA2699A4206DC0A2904D0236842
:103A20005A1C22601970CFE72246284600F018F889
:103A30000130C9D1E9E70A2023685A1C22601870B6
:103A4000E5E700BF3C5B00085C5B00081C5B00080E
:103A5000024B01461868FFF79FBF00BF040000201B
:103A6000F8B50E461446054618B183690BB900F047
:103A7000EBFF214B9C422AD16C68A369A360A38908
:103A80001A072ED5236963B323692068F6B2C01ADA
:103A900063693746834204DC2146284600F06AFF0A
:103AA00028BBA3680130013BA36023685A1C226035
:103AB0001E706369834204D0A389DB0719D50A2EDF
:103AC00017D12146284600F055FF90B10FE00B4B6F
:103AD0009C4201D1AC68D0E7094B9C4208BFEC681E
:103AE000CBE72146284600F00DF80028CCD04FF057
:103AF000FF373846F8BD00BF3C5B00085C5B000840
:103B00001C5B0008324B70B51D6806460C4625B19B
:103B1000AB6913B9284600F097FF2E4B9C420FD19A
:103B20006C68B4F90C309AB215072CD4D00611D4B5
:103B30000922326043F04003A3814FF0FF303EE0A2
:103B4000254B9C4201D1AC68EBE7244B9C4208BF5B
:103B5000EC68E6E7510712D5616B41B104F144030B
:103B6000994202D0304601F077FB00236363A389BA
:103B700023F02403A3810023636023692360A389C6
:103B800043F00803A38123694BB9A38903F420738D
:103B9000B3F5007F03D02146304601F011F8A28929
:103BA00012F001030CD00023A36063695B42A361A0
:103BB000236953B9B4F90C3013F08000BAD170BD49
:103BC000920758BF6369A360F2E70020F7E700BFE0
:103BD000040000203C5B00085C5B00081C5B0008E4
:103BE0002DE9F74F03690C698046A342C0F2848037
:103BF000013C01F1140700F1140657F8245056F85F
:103C000024000135B0FBF5F54FEA840C06EB0C03FC
:103C100007EB0C0901939DB34FF0000A3846B646F6
:103C2000D34650F8042B93B205FB03A3120C4FEAC2
:103C3000134A05FB02A29BB2ABEB0303DEF800B014
:103C40004FEA124A1FFA8BFB5B441FFA82FBDEF835
:103C500000208145CBEB124202EB23429BB243EAA8
:103C600002434FEA224B4EF8043BDAD256F80C30AE
:103C700033B9019B043B9E421A4631D3C8F8104029
:103C8000404601F013FA002826DB30464FF0000CC6
:103C9000013557F8041BD0F800E08BB2ACEB0303FE
:103CA0001FFA8EF213440A0CC2EB1E4202EB2342AF
:103CB0009BB243EA0243B9454FEA224C40F8043B29
:103CC000E7D256F8242006EB84032AB9043B9E422F
:103CD0001A460BD3C8F81040284603B0BDE8F08F51
:103CE0001268043B002AC9D1013CC4E71268043BB6
:103CF000002AEFD1013CEAE70020EEE700000000D7
:103D00002DE9F04F16461F46456A95B00446DDF88A
:103D10008480CDE902673DB9102000F091FF606218
:103D2000C0E901550560C560636A196851B15A68F8
:103D3000012393404A608B60204600F0D6FF0022AA
:103D4000636A1A603B1EAFBF0023012223F00043C9
:103D50000393ACBFC8F80030C8F80020AE4BDDF8C4
:103D60000C8033EA08031BD142F20F73209A1360D0
:103D7000029B23B9C8F31300002800F04585229B5D
:103D800053B9A64B21E0A64B06930833229A136041
:103D9000069815B0BDE8F08FA04B06930333F5E706
:103DA000DDE902670022002330463946FCF734FE85
:103DB000824660B10123209A1360229B002B00F001
:103DC0002085984B229A1360013B0693E0E712ABE3
:103DD000019313AB009332463B46204601F0DEF9D7
:103DE000C8F30A558346002D7DD0B046C7F31303B0
:103DF00043F07F5949F44019A5F2FF35CDF840A0B2
:103E00000022894B40464946FCF7BEF97CA3D3E922
:103E10000023FCF771FB7CA3D3E90023FCF7B6F980
:103E2000064628460F46FCF7FDFA79A3D3E900239E
:103E3000FCF762FB02460B4630463946FCF7A6F912
:103E400006460F46FCF730FE00228246002330462D
:103E50003946FCF7EBFD48B15046FCF7E3FA324631
:103E60003B46FCF7D9FD08B90AF1FF3ABAF1160F43
:103E70005AD8DDE902236D4901EBCA01D1E90001FD
:103E8000FCF7F2FD002851D000230AF1FF3A0D9310
:103E9000129B5D1B6B1E079343BF0023C5F10109F5
:103EA00007934FF00009BAF1000F41DB079BCDF8F3
:103EB00030A053440793002308931E9B092B00F264
:103EC0008F80052BC4BF043B1E931E9BC8BF0025DB
:103ED000A3F10203D8BF0125032B00F28D80DFE898
:103EE00003F07B7D2F6FDDE912531D4405F2324054
:103EF000202813DDC0F14000029B08FA00F805F20B
:103F0000124023FA00F048EA0000FCF77BFA012394
:103F10008046A1F1F879013D109371E7029BC0F151
:103F2000200003FA00F0F0E70123B0E70D90AFE7BF
:103F3000CAF1000308930023A9EB0A090C93BCE71C
:103F4000012309931F9B002B74DD984604930022E4
:103F5000666A7260042202F11400984271686ED998
:103F6000204600F08EFE636A30601B68B8F10E0FC9
:103F7000069300F2ED80002D00F0EA80DDE90223D7
:103F8000BAF1000FCDE90E2377DD284A0AF00F03BE
:103F90004FEA2A1602EBC303F006D3E90023CDE96A
:103FA0000A2368D5DDE90E01214B0325D3E9082357
:103FB000FCF7CCFBCDE9020106F00F061C4F4FE0E9
:103FC000012309931F9B534403F1010804934346C3
:103FD000012BB8BF0123BAE70023B2E70023F0E7C3
:103FE0000125002309951E934FF0FF33002204930F
:103FF000984612231F92AAE701230993F4E700BF12
:1040000061436F63A787D23FB3C8608B288AC63FDE
:10401000FB799F501344D33F0000F07F155B0008ED
:104020000C5B0008E95A00080000F83FA85B000894
:10403000805B00080123049398461A46DAE70131B1
:104040007160520087E7F10708D5DDE90A01D7E979
:104050000023FCF751FACDE90A0101357610083743
:10406000002EF0D1DDE90A23DDE90201FCF76EFB49
:10407000CDE902011BE00225A0E700F0A480DDE904
:104080000E01CAF10006A04B06F00F0203EBC203BB
:10409000D3E90023FCF730FA02250023CDE9020121
:1040A0009A4F3611002E40F08380002BE0D10D9BFB
:1040B000002B00F08A80DDE90223CDE90A23DDE947
:1040C0000A010022924BFCF7B1FC00287DD0B8F128
:1040D000000F7AD0049B002B36DDDDE90A010022B7
:1040E0008C4BFCF709FACDE90201049E0AF1FF3777
:1040F00001352846FCF796F9DDE90223FCF7FCF9C7
:104100000022854BFCF742F8A1F15075CDE90A0178
:104110000B95002E5CD1DDE9020100227F4BFCF7FC
:1041200033F80A9A2B46CDE90201FCF79DFC0028E2
:1041300040F08182DDE902010A9A05F10043FCF7B3
:1041400075FC002840F07582DDE90E23CDE90223DD
:10415000139B002BC0F24B81BAF10E0F00F3478185
:10416000694B03EBCA03D3E90023CDE904231F9B6A
:10417000002B80F2D780B8F1000F00F3D38040F01D
:104180005782DDE904010022644BFCF7B5F9DDE953
:104190000223FCF75FFC46464746002840F02D828C
:1041A000069B069A5D1C31230AF1010A137028E26E
:1041B000F20705D5D7E90023FCF79EF90123013565
:1041C000761008376EE7022571E75746464690E7B6
:1041D0004D4B03EBC60353E90201099B002B48D06A
:1041E00002460B4600204E49FCF7B0FADDE90A23EF
:1041F000FBF7CAFFCDE90A01069DDDE90201FCF7E4
:1042000053FC1190FCF70EF902460B46DDE9020162
:10421000FBF7BAFF119BCDE90201303305F8013BF2
:10422000DDE90A23FCF702FC002863D1DDE9022363
:1042300000203749FBF7A8FFDDE90A23FCF7F6FB6E
:10424000002840F0B580069BEB1A9E427FF77CAFBA
:10425000DDE90A0100222F4BFCF74EF90022CDE9DF
:104260000A01DDE902012B4BFCF746F9CDE9020119
:10427000C3E7DDE90A23FCF73FF9069BCDE90A0114
:104280009D191E46DDE90201FCF70EFC1190FCF7BA
:10429000C9F802460B46DDE90201FBF775FF119BE9
:1042A000CDE90201303306F8013BAE424FF0000287
:1042B00024D1DDE90A011A4BFBF768FF02460B46E1
:1042C000DDE90201FCF7D0FB002871D1DDE90A230A
:1042D00000201349FBF758FF02460B46DDE90201B7
:1042E000FCF7A4FB00283FF42FAF15F8013C6A1E31
:1042F000302B01D0BA464AE01546F6E7054BFCF7ED
:10430000FBF8CDE90201BDE7A85B0008805B00086F
:104310000000F03F0000244000001C40000014405A
:104320000000E03F069DDDE90267DDE90423304639
:104330003946FCF70BFAFCF7B7FB8146FCF772F83D
:10434000DDE90423FCF7D8F802460B46304639462F
:10435000FBF71AFF09F1300605F8016B069E0246CD
:10436000AE1BB0450B4635D1FBF710FFDDE904234A
:1043700006460F46FCF778FBC8B9DDE90423304652
:104380003946FCF749FB10B119F0010F0FD159461E
:10439000204600F0AAFC0023209A2B700AF10103AA
:1043A0001360229B002B3FF4F3AC1D60F0E45746F2
:1043B00015F8012C6B1E392A06D1069A9A4207D1AC
:1043C00030231370134601371A7801321A7091E7BF
:1043D0001D46EDE70022994BFCF78EF800220023E2
:1043E00006460F46FCF718FB00289ED0CFE7099A37
:1043F000002A00F088801E9A012A6DDC109A002A9B
:1044000066D003F233434D46089E079A01211A44B1
:1044100020469944079200F008FD0746002D0BDD69
:10442000079B002B08DDAB42A8BF2B46079AA9EBE0
:104430000309ED1AD31A0793089BEBB1099B002BD4
:1044400065D08EB139463246204600F08DFD5A4681
:1044500001460746204600F0F1FC59460A902046E6
:1044600000F043FC0A9B9B46089B9A1B04D05946CC
:10447000204600F079FD83460121204600F0D5FC5E
:104480000C9B0646002B00F0C6811A4601462046CA
:1044900000F06AFD1E9B0646012B3EDC029B002BB2
:1044A00037D1039BC3F31303002B34D1039B23F0B9
:1044B00000431B0D1B052BB1079B09F101090133BB
:1044C0000793012308930C9B002B28D101202EE099
:1044D000129BC3F1360396E7089B08F1FF36B342FF
:1044E000B7BF089B9E1BF21A0C9BBFBF08969B1878
:1044F0000C930026B8F1000FB9BFA9EB0805002303
:104500004D46434681E7089E4D46099F86E7089A37
:10451000ADE70023D6E7029BD4E700230893336975
:1045200006EB8303186900F032FCC0F12000079B02
:10453000184410F01F0047D0C0F12003042B3BDDCE
:10454000079BC0F11C008144054403440793B9F163
:10455000000F05DD59464A46204600F053FD8346CC
:10456000079B002B05DD31461A46204600F04AFD28
:1045700006460D9B53B33146584600F097FD002880
:1045800024DA002359460A22204600F0C5FB099B85
:104590000AF1FF3A8346002B00F04481002339469C
:1045A0000A22204600F0B8FB049B0746002B4DDC96
:1045B0001E9B022B4ADD11E0C9D0079A1C331A4416
:1045C00099441D441346C1E70346F6E7B8F1000FCE
:1045D00036DC1E9B022B33DDCDF81080049B63B9C3
:1045E00031460522204600F097FB01460646584614
:1045F00000F05CFD00283FF7D3AD1F9B069D6FEADE
:10460000030A4FF000093146204600F06EFB002FF0
:104610003FF4BDAEB9F1000F05D0B94503D049460E
:10462000204600F062FB3946204600F05EFBAEE615
:1046300000263746E1E7BA463746B1E50000244098
:10464000099BCDF81080002B00F0F380002D05DDD4
:1046500039462A46204600F0D5FC0746089B002B29
:104660004CD07968204600F00CFB05463A6907F10A
:104670000C01023292000C3000F0F8FA01222946B7
:10468000204600F0BFFCB9460746069B0793029BF5
:1046900003F00103089331465846FFF7A1FA494653
:1046A000054600F13008584600F000FD3A460290F9
:1046B0003146204600F014FDC368024603BB0146A4
:1046C0000990584600F0F2FC0346099A114620462C
:1046D000099300F00AFB099BA3B91E9A92B9089AA4
:1046E00082B9B8F1390F29D0029B002B01DD05F109
:1046F0003108079B5D1C83F8008084E73846C2E7D9
:104700000123E3E7029A002A04DB23D11E9A0ABBA5
:10471000089AFAB9002BECDD59460122204600F038
:1047200071FC3146834600F0C1FC002803DCE0D177
:1047300018F0010FDDD0B8F1390FD8D1079B079AD7
:104740005D1C3923137015F8013C6A1E392B4DD0BE
:10475000013352E0079A002B02F1010506DDB8F1A2
:10476000390FEBD008F10108079BC4E7069B049AB8
:10477000EB1A934205F8018C21D0594600230A22F6
:10478000204600F0C9FAB94583464FF000034FF0C8
:104790000A024946204605D100F0BEFA8146074686
:1047A000079578E700F0B8FA3946814600230A22D7
:1047B000204600F0B1FA0746F2E74FF000095946EB
:1047C0000122204600F01EFC3146834600F06EFCBC
:1047D0000028B8DC02D118F0010FB4D115F8013C63
:1047E0006A1E302B7FF40FAF1546F7E7069B934206
:1047F00005D13123069A0AF1010A137003E7154621
:10480000A1E7174BFFF7E1BA229B002B7FF4BBAA6D
:10481000144BFFF7DABA1E9B012B7FF73FAE0C9BC0
:10482000089353E6049B002B03DC1E9B022B3FF7EF
:10483000D5AE069D31465846FFF7D2F9069B00F1EA
:10484000300805F8018B049AEB1A9A42B5DD5946F7
:1048500000230A22204600F05FFA8346EAE700BF01
:10486000E85A00080C5B00088A892DE9F0410546EA
:1048700010070C4658D44B68002B05DC0B6C002B42
:1048800002DC0020BDE8F081E66A002EF9D00023AA
:1048900012F480522F68216A2B6032D0606DA38998
:1048A0005A0705D56368C01A636B0BB1236CC01A35
:1048B00000230246E66A216A2846B047431CA389C2
:1048C00006D129681D2948D8294ACA40D60744D5A7
:1048D000002262602269D904226004D5421C01D101
:1048E0002B6803B96065616B2F600029C9D004F1A2
:1048F0004403994202D0284600F0AEFC00206063D9
:10490000C0E701232846B047411CC8D12B68002BC3
:10491000C5D01D2B01D0162B01D12F60B1E7A38983
:1049200043F04003A381ADE70F69002FA9D093079F
:1049300018BF00230E6808BF4B69A6EB07080F607D
:104940008B60B8F1000F9CDD43463A46216A284649
:10495000A66AB047002806DCA38943F04003A38180
:104960004FF0FF308EE70744A8EB0008E9E700BFEF
:104970000100402038B50B6905460C46DBB118B183
:1049800083690BB900F060F80C4B9C4209D16C684C
:10499000B4F90C307BB121462846BDE83840FFF71A
:1049A00063BF074B9C4201D1AC68F1E7054B9C42C9
:1049B00008BFEC68ECE7002038BD00BF3C5B000896
:1049C0005C5B00081C5B0008002310B50446C0E9CE
:1049D0000033836081814366C281C0E9043383610F
:1049E000194608225C30FEF767FB054B24626362C0
:1049F000044BA362044BE362044B236310BD00BF6E
:104A00003D5600085F56000897560008BB56000840
:104A1000014900F085B800BF7549000870B56825E8
:104A20004A1E55430E4605F1740100F061FC044630
:104A300040B10021C0E900160C30A06005F1680209
:104A4000FEF73AFB204670BD836910B5044633BBC0
:104A5000C0E912330365124B124A1B688262984206
:104A600004BF0123836100F01FF86060204600F05E
:104A70001BF8A060204600F017F80022E060042137
:104A80006068FFF7A1FF01220921A068FFF79CFFE2
:104A900002221221E068FFF797FF0123A36110BDF6
:104AA000D45A0008114A0008F8B51B4B07461E6887
:104AB000B36913B93046FFF7C7FF4836D6E901346A
:104AC000013B03D5336833B13668F7E7B4F90C50CE
:104AD0006DB16834F4E704213846FFF79FFF30607A
:104AE0000028F1D10C2304463B602046F8BD0B4B57
:104AF0006566C4E90055A560C4E90335C4E90555F8
:104B00000822294604F15C00FEF7D6FAC4E90D55E7
:104B1000C4E91255E9E700BFD45A00080100FFFFBD
:104B20002DE9F84380468946002600F1480414B96F
:104B30003046BDE8F883D4E90175013F01D524680A
:104B4000F5E7AB89012B07D9B5F90E30013303D056
:104B500029464046C84706436835EEE7044B1B68C4
:104B6000186A044B002808BF1846F030704700BF91
:104B7000040000206800002070B50E46B1F90E1048
:104B800096B0002914461D4607DA00232B60B3892E
:104B90001A0610D44FF480630EE06A4600F0B4FDAC
:104BA0000028F2DB019A02F47042A2F500535A4247
:104BB0005A412A60EEE740230020236016B070BD02
:104BC0008B8973B59D0706460C4607D504F147034C
:104BD000236023610123636102B070BD01AB6A46AB
:104BE000FFF7CAFF00990546304600F081FB48B93F
:104BF000B4F90C309A05EFD423F0030343F0020319
:104C0000A381E3E70D4BB362A389206043F08003E7
:104C1000A381009B20616361019B5BB1B4F90E101D
:104C2000304600F083FD28B1A38923F0030343F04D
:104C30000103A381A3891D43A581CDE7114A000883
:104C4000024B0146186800F053BB00BF040000206F
:104C500010B5C9B202449042034601D1002303E0DB
:104C60001C7801308C42F6D1184610BD10B5431E99
:104C70000A44914200D110BD11F8014B03F8014FD5
:104C8000F7E770B5456A04460E463DB91020FFF7B8
:104C9000D7FF6062C0E901550560C560656AEB68D1
:104CA00083B1636ADB6853F82600B8B9012101FAC1
:104CB00006F56A1D9200204600F0BFFA60B1C0E917
:104CC00001650EE021220421204600F0B6FA636A55
:104CD000E860DB68002BE4D1002070BD026843F877
:104CE00026200023C0E90333F7E770B5446A06467F
:104CF0000D463CB91020FFF7A3FF7062C0E90144E4
:104D00000460C4603DB1736A6A68DB6853F82210BE
:104D1000296043F8225070BD2DE9F0411F46064638
:104D20000C4600230D6901F1140CDCF8000001337E
:104D300081B202FB0171000C0F0C02FB007089B202
:104D400001EB00419D424FEA10474CF8041BECDC9C
:104D5000D7B1A368AB4212DC616830460131FFF77E
:104D600090FF8046226904F10C01023292000C305F
:104D7000FFF77CFF21463046FFF7B7FF444604EBC0
:104D8000850301355F6125612046BDE8F081020C95
:104D900012040346B2B90304102013F07F4F04BF7E
:104DA0001B02083013F0704F04BF1B01043013F0D6
:104DB000404F04BF9B000230002B06DB5B0003D595
:104DC000013070470020E8E7202070470368014663
:104DD00013F007020BD0DA0723D4980749BF5B080A
:104DE0009B0801200B605CBF0B600220704798B2EB
:104DF000A8B910201B0C13F0FF0F04BF1B0A0830CA
:104E00001A0704BF1B0904309A0704BF9B0802302D
:104E1000DA0702D45B0806D001300B6070471046F9
:104E2000E9E7002070472020704710B50C460121AB
:104E3000FFF727FF01224461026110BD2DE9F74F02
:104E400014460A69236988469A42BEBF0B46A046AB
:104E50001C46D8F81070D4F81090D8F80830D8F85C
:104E6000041007EB0906B342B8BF0131FFF709FF91
:104E700000F114052B46002205EB860E734516D370
:104E800004F1140208F1140102EB890301EB870716
:104E90000093009B019293420CD8002E03DD5EF834
:104EA000043D002B5DD0066103B0BDE8F08F43F8F0
:104EB000042BE3E7B2F800B0BBF1000F23D0894622
:104EC000AC464FF0000859F8044BDCF800A0A3B240
:104ED0001FFA8AFA0BFB03A34FEA144ADCF80040DE
:104EE00043444FEA14480BFB0A84E24604EB1344A4
:104EF0009BB243EA04434F454FEA14484AF8043B47
:104F00002BD8CCF80480019B0432B3F802A0BAF18C
:104F1000000F20D08946A8464FF0000B2B68B9F847
:104F200000C0B8F802409BB20AFB0C44C4465C4483
:104F300043EA04434CF8043B59F8043BB8F804B086
:104F40001B0C0AFB03B34F4503EB14434FEA134B0F
:104F500005D8C8F8043004359BE7D446B3E7E046EB
:104F6000DDE7013E99E700002DE9F843154612F010
:104F7000030206460F4607D0214C013A002354F89D
:104F80002220FFF7C9FE0746AD1035D0746A3CB940
:104F90001020FFF755FE7062C0E901440460C46050
:104FA000D6F82480D8F808404CB940F27121304638
:104FB000FFF73BFF00230446C8F8080003604FF0EA
:104FC0000008EB070AD5394622463046FFF736FF80
:104FD000814639463046FFF788FE4F466D100BD0AC
:104FE000206838B9224621463046FFF727FF206067
:104FF000C0F800800446E4E73846BDE8F88300BF07
:10500000705C00082DE9F0470C46074616462369F8
:105010004FEA621A0AEB03094968A36809F101051E
:10502000AB4232DB3846FFF72CFE002380461A469F
:1050300000F1140153452BDB20692AEAEA7A04F1D6
:10504000140316F01F0201EB8A0103EB800C25D03C
:105050000020C2F1200E8A461E68964030434AF86E
:10506000040B53F8040B9C4520FA0EF014D848604A
:1050700008B109F10205013D3846C8F81050214633
:10508000FFF733FE4046BDE8F08701315B00C7E71C
:1050900041F823200133CDE75146DCE7043953F8CA
:1050A000042B9C4541F8042FF9D8E4E703690A6909
:1050B00030B59B1A0CD1920014301431841811446D
:1050C00054F8045D51F8042D954203D005D3012313
:1050D000184630BDA042F3D3FAE74FF0FF33F7E7AD
:1050E0002DE9F0470D460746114628461446FFF7BE
:1050F000DDFF061E08D131463846FFF7C2FD012309
:10510000C0E90436BDE8F087A4BF23462C463846E4
:105110006168A6BF1D4600260126FFF7B2FD4FF0CD
:10512000000EC6602B69266904F1140205F114090A
:1051300002EB860709EB830800F1140152F804AB77
:1051400059F8045B1FFA8AF37344ACB21B1B2C0C96
:10515000C4EB1A4404EB23449BB24FEA244EC845E7
:1051600043EA0444944641F8044BE7D8BC4504D3D1
:1051700051F8043D83B10661C4E75CF8044BA2B268
:105180007244131403EB144392B242EA03424FEA0F
:10519000234E41F8042BE9E7013EE9E72DE9F3410D
:1051A0001C46DDE9086501219046FFF76AFDC4F35E
:1051B0001302C4F30A54074634BB0192B8F100024B
:1051C00027D002A840F8082DFFF700FE0099F0B1A3
:1051D000019AC0F1200302FA03F30B43C2407B6142
:1051E0000192019B002B14BF02210121BB61396197
:1051F000C4B1A4F2334404443460C0F135002860E3
:10520000384602B0BDE8F08142F48012D5E77961FA
:10521000E7E701A8FFF7DAFD0121019B39617B6116
:105220002030E5E7A0F2324007EB810330601869D7
:10523000FFF7ADFDC0EB4110E1E738B502FB01F42B
:10524000214600F055F8054618B122460021FDF729
:1052500033FF284638BD000038B50546002943D045
:1052600051F8043C0C1F002BB8BFE41800F092FA70
:105270001E4A1368104633B9636014602846BDE8BF
:10528000384000F088BAA3420BD9216862189342D3
:1052900001BF1A685B685218226063600460EDE722
:1052A00013465A680AB1A242FAD919685818A0429E
:1052B0000BD120680144581882421960DED1106871
:1052C0005268014419605A60D8E702D90C232B6058
:1052D000D4E7206821188A4201BF11685268091872
:1052E000216062605C60C9E738BD00BFFC0100203E
:1052F00070B5CD1C25F0030508350C2D38BF0C25E5
:10530000002D064601DBA94203D90C23336000209F
:1053100070BD00F03FFA214A1468214691B9204C33
:1053200023681BB9304600F079F9206029463046E1
:1053300000F074F9431C24D10C233046336000F094
:105340002AFAE4E70B685B1B18D40B2B0FD90B6010
:10535000CC18CD50304600F01EFA04F10B00231D8E
:1053600020F00700C31AD3D05A42E250D0E74B686E
:105370008C4216BF636013600C46EBE70C4649682D
:10538000CCE7C41C24F00304A04205D0211A304607
:1053900000F044F90130CFD02560DBE7FC010020AC
:1053A00000020020936810B4013B002B936007DAE1
:1053B0009469A34201DB0A2902D110BCFEF750BB5D
:1053C0001368581C10601970084610BC7047F8B577
:1053D00006460F461446D518AC4201D1002007E01E
:1053E0003A4614F8011B3046FFF7DCFF431CF3D1AB
:1053F000F8BD00002DE9F04F9DB00C461746039311
:10540000064618B183690BB9FFF71EFB7B4B9C4224
:1054100057D17468A38918075DD52369002B5AD02A
:105420000023099320238DF8293030234FF0010BFE
:105430008DF82A30B846454615F8013B0BB1252BAF
:1054400054D1B8EB070A0BD053463A4621463046B2
:10545000FFF7BDFF013000F0C280099B5344099360
:1054600098F80030002B00F0BA8000234FF0FF3294
:10547000CDE90523049307938DF853301A93A8467A
:10548000052218F8011B5E48FFF7E2FB049B78BB7E
:10549000D90644BF20228DF853201A0744BF2B227F
:1054A0008DF853202A782A2A2AD0A84600200A25D7
:1054B000079A414611F8013B303B092B69D960B38B
:1054C00024E0504B9C4201D1B468A3E74E4B9C4270
:1054D00008BFF4689EE721463046FEF713FB00281C
:1054E0009ED04FF0FF301DB0BDE8F08FA846A2E778
:1054F000434A4546801A0BFA00F018430490BEE771
:10550000039A111D12680391002A01DB079204E03F
:10551000524243F002030792049398F800302E2B76
:105520000ED198F801302A2B38D1039B08F10208DC
:105530001A1D1B680392002BB8BF4FF0FF33059371
:10554000324D032298F800102846FFF781FB40B146
:105550004023401B03FA00F0049B08F101080343B9
:10556000049398F800100622294808F101078DF8E5
:105570002810FFF76DFB002837D0264B1BBB039B81
:10558000073323F0070308330393099B4B44099324
:1055900050E705FB0232012088468AE700230A25EE
:1055A000194608F101080593404610F8012B303ADE
:1055B000092A03D9002BC3D00591C1E705FB0121BE
:1055C00001238046F0E703AB00932246124B04A967
:1055D0003046FDF70BFEB0F1FF3F8146D5D1A389E0
:1055E0005B063FF57EAF09987DE703AB009322464B
:1055F000094B04A93046FEF7A5F8ECE73C5B000830
:105600007C5C00085C5B00081C5B0008825C000896
:10561000865C0008ED310008CF53000838B5002340
:10562000054C054608462360FDF78CFC431C02D15F
:10563000236803B12B6038BD5C03002010B50C4615
:10564000B1F90E1000F0A8F80028ABBF636DA38974
:105650001B1823F48053ACBF6365A38110BD2DE9F3
:10566000F0411F468B890546DB050C46164605D5DD
:1056700002230022B1F90E1000F068F8A389324627
:1056800023F48053A381B4F90E103B462846BDE8AD
:10569000F04100F017B810B50C46B1F90E1000F04B
:1056A00055F8431CA38915BF606523F4805343F468
:1056B0008053A38118BFA38110BDB1F90E1000F073
:1056C00013B8000038B50546084611460022054CBF
:1056D00022601A46FDF727FC431C02D1236803B160
:1056E0002B6038BD5C03002038B50023054C05460F
:1056F00008462360FDF744FC431C02D1236803B134
:105700002B6038BD5C03002038B50023064C0546ED
:10571000084611462360FDF736FC431C02D123687E
:1057200003B12B6038BD00BF5C03002038B50023F7
:10573000054C054608462360FDF72AFC431C02D1B0
:10574000236803B12B6038BD5C03002038B50546E3
:10575000084611460022054C22601A46FDF71AFC45
:10576000431C02D1236803B12B6038BD5C030020C9
:1057700082B001B901A942B14BB113780B60127824
:10578000101C18BF012002B070471046FBE76FF0F5
:105790000100F8E77047704738B5054608461146DE
:1057A0000022054C22601A46FDF7AFFB431C02D1D4
:1057B000236803B12B6038BD5C03002049B1FF2A88
:1057C0008BBF8A230A700360012088BF4FF0FF302F
:1057D0007047084670470000F8B500BFF8BC08BC29
:1057E0009E467047F8B500BFF8BC08BC9E4670479F
:1057F000000C23000D1E000ED2001A01001FAA008B
:1058000024070027120028C1002994002AC1003073
:10581000D800358F003B020040000041300123409A
:10582000280A0000170000001C0C00000F000000F8
:105830003C0F00000700000050140000160000009C
:105840009C1800000E000000781E000006000000FA
:10585000A028000015000000D43000000D0000005A
:10586000F03C000005000000405100001400000062
:10587000A86100000C000000447A00000400000051
:10588000E4A200001300000050C300000B00000061
:1058900024F4000003000000854501001200000010
:1058A000A08601000A00000048E801000200000094
:1058B0002C8B020011000000400D030009000000C5
:1058C00090D0030001000000E093040000000000FD
:1058D000030406080C10182030000000000000002F
:1058E0000000000001020304060708090000000090
:1058F000010203042D54782D0D0000002D52782D47
:105900000D000000535831323736577269746542C2
:1059100075666665723A20436F756C64206E6F74AD
:105920002073656E6420616464726573730D00009A
:1059300053583132373657726974654275666665F9
:10594000723A20436F756C64206E6F742073656EBD
:1059500064206275666665720D000000535831322E
:105960003736526561644275666665723A20436FE8
:10597000756C64206E6F742073656E64206164645E
:10598000726573730D00000053583132373653651A
:10599000744368616E6E656C3A20667265717565F8
:1059A0006E63793A20256C640D0A00005358313239
:1059B00037365365744368616E6E656C3A20667263
:1059C000657175656E6379206166746572206469BE
:1059D000766973696F6E20627920465245515F5334
:1059E0005445503A20307825366C780D0A00000076
:1059F0004672657175656E637920726561642062B7
:105A000061636B3A20256C640D0A0000527843688C
:105A100061696E43616C6962726174696F6E203A8C
:105A200020696E697469616C206672657175656E56
:105A300063793A20256C640D0A0000005358313216
:105A400037365365744D6F64656D3A205365742025
:105A50006D6F64656D20746F204C6F52610D000096
:105A60005358313237365365744D6F64656D3A2043
:105A7000536574206D6F64656D20746F2046534BC1
:105A80000D0000002E2E2F5372632F6D61696E2E54
:105A9000630000005358313237362044656D6F0D76
:105AA0000000000053656E64732064756D6D79208D
:105AB000696E666F726D6174696F6E20746F2054C9
:105AC0006865205468696E6773204E6574776F72DD
:105AD0006B0D000008000020494E4600696E66000C
