:020000040800F2
:1000000000800020791C0008591B00085B1B0008B9
:100010005D1B00085F1B0008611B0008000000005A
:10002000000000000000000000000000631B00084A
:10003000651B000800000000671B0008691B000822
:10004000C91C0008C91C0008C91C0008C91C0008FC
:10005000C91C0008C91C0008C91C0008C91C0008EC
:10006000C91C0008C91C0008C91C0008C91C0008DC
:10007000C91C0008C91C0008C91C0008C91C0008CC
:10008000C91C0008C91C0008C91C0008C91C0008BC
:10009000C91C0008C91C0008C91C0008C91C0008AC
:1000A00000000000C91C0008C91C0008C91C000889
:1000B000C91C0008C91C0008C91C0008C91C00088C
:1000C000C91C0008C91C0008C91C0008C91C00087C
:1000D000C91C0008C91C0008C91C0008C91C00086C
:1000E000C91C0008C91C0008C91C0008C91C00085C
:1000F000C91C000800000000000000000000000013
:1001000000000000000000000000000000000000EF
:1001100000000000000000000000000000000000DF
:1001200000000000000000000000000000000000CF
:0C01300000000000000000005FF808F173
:10013C0010B5054C237833B9044B13B10448AFF315
:10014C0000800123237010BD680000200000000017
:10015C00E82B000808B5034B1BB103490348AFF368
:10016C00008008BD000000006C000020E82B000897
:10017C0010B50446074B1868074BA3FB00308009E9
:10018C0000F07AF8002221464FF0FF3000F040F8E2
:10019C00002010BD00000020D34D621008B50320D4
:1001AC0000F024F80020FFF7E3FF01F057FC0020DB
:1001BC0008BD0000024A136801331360704700BF8A
:1001CC0094000020014B1868704700BF9400002079
:1001DC0010B582B00190FFF7F5FF0446FFF7F2FF70
:1001EC00001B019B9842F9D302B010BD074AD3689B
:1001FC0023F4E0631B041B0C000200F4E0601843C2
:10020C0040F0BF6040F40030D060704700ED00E07B
:10021C0030B4174BDB68C3F30223C3F10704042C7F
:10022C0028BF04241D1D062D18D9033B4FF0FF35A4
:10023C0005FA04F421EA0401994005FA03F322EAD1
:10024C000303194300280BDB0901C9B200F160401C
:10025C0000F5614080F8001330BC70470023E5E7DF
:10026C0000F00F000901C9B2024B1954F4E700BFAA
:10027C0000ED00E014ED00E00138B0F1807F0AD20F
:10028C00064B5860064AF02182F823100020986033
:10029C0007221A6070470120704700BF10E000E091
:1002AC0000ED00E0042805D0054A136823F0040390
:1002BC0013607047024A136843F0040313607047DD
:1002CC0010E000E0704708B5FFF7FCFF08BD000028
:1002DC0010B51C4CA1691C4801F030FDA36913F446
:1002EC00807F2DD0194A536943F0020353614FF4B8
:1002FC008073144A926912F4007F06D013494A693C
:10030C0042F001024A6143F400730E4A926912F4FE
:10031C00006F06D00D494A6942F004024A6143F469
:10032C000063084A926912F4005F06D007494A69D3
:10033C0042F010024A6143F40053024A936110BD2B
:10034C000023D6E7003C0240242C00089800002033
:10035C000E4B5B6813F0020F15D00C4B5B6813F05F
:10036C00010F04D0094B0A4ADA600A4ADA60074BDB
:10037C00094A1A61A2F1F342A2F51922A2F6A912B6
:10038C001A61002070470120704700BF003C0240FA
:10039C00EFCDAB8905040302BFAE9D8C034A5368B5
:1003AC0043F0020353600020704700BF003C024042
:1003BC00014B5869704700BF9800002038B50446BF
:1003CC00FFF700FF05461A4B9B6913F0010F0AD08B
:1003DC00B4F1FF3FF7D034B3FFF7F4FE401BA0425B
:1003EC00F1D903201EE0124B9B6913F0020F02D0CF
:1003FC000F4B02229A610E4B9B6913F4807F0ED136
:10040C000B4B9B6913F4006F09D1094B9B6913F4D7
:10041C00005F04D1064B9B6913F4007F05D0FFF7F6
:10042C0057FF012038BD0320FCE70020FAE700BF8E
:10043C00003C024038B5104B1B7C012B19D01546E3
:10044C000C460D4B01221A744CF25030FFF7B6FFDC
:10045C00034620B1084A00211174184638BD064BDA
:10046C0000225A6125604CF25030FFF7A7FF03467B
:10047C00F0E70223F1E700BF98000020024BD86997
:10048C00000C00F070007047003C0240024BD86931
:10049C00C0F30340704700BF003C024010B5044C51
:1004AC00E169044801F04AFCE069C0B210BD00BF2C
:1004BC00003C0240482C000810B504460F23036092
:1004CC00064B1B6A8360FFF7E9FF2073FFF7D6FF2B
:1004DC00A073FFF7DBFF607310BD00BF003C024050
:1004EC000021074B5961074B5A6842F400725A605D
:1004FC005A6842F008025A6020F0FF000160704711
:10050C0098000020003C0240F8B5204B1B7C012BCE
:10051C0039D00E4605461D4B01221A744CF2503050
:10052C00FFF74CFF07460146194801F007FCFFB9DD
:10053C0027BB4FF0FF3333606C68AA686B6803EB22
:10054C000223A3421AD92046FFF7CAFF4CF25030BF
:10055C00FFF734FF0F4B5A6822F008025A605A68B2
:10056C0022F400725A60074638B904F58074E4E747
:10057C003946094801F0E2FBDAE73460034B00220C
:10058C001A743846F8BD0227FBE700BF980000201C
:10059C00682C0008003C0240982C0008F0B482B093
:1005AC00002336E0042400E00024B4403C43023530
:1005BC005B4E46F825405B4C2568D44304EA05069F
:1005CC004F6817F4803F01D042EA0506554D2E6066
:1005DC006D6804EA05064F6817F4003F01D042EA43
:1005EC000506504D6E60AD6804EA05064F6817F4B9
:1005FC00801F01D042EA05064A4DAE60ED682C40E2
:10060C004E6816F4001F01D042EA0504454AD46036
:10061C0001330A6832FA03F47FD001249C40224053
:10062C00F6D04D68022D01D0122D10D1DE080836FF
:10063C0050F826C003F00705AF000F25BD402CEA8B
:10064C00050C0D69BD4045EA0C0540F826500668BE
:10065C005F000325BD40ED4305EA060C4E6806F02D
:10066C000306BE4046EA0C0606604E6806F1FF3CE7
:10067C00BCF1010F03D9112E01D0122E10D18668B6
:10068C0005EA060CCE68BE4046EA0C068660466853
:10069C0026EA04044E68C6F300169E4026434660C4
:1006AC00C46825408C68BC402C43C4604C6814F072
:1006BC00805FADD01C4C256A45F001052562246A8B
:1006CC0004F001040194019C9D08AE1C144C54F8D8
:1006DC00267003F00304A6000F24B44027EA040795
:1006EC00124CA0423FF460AF04F58064A0420ED0DF
:1006FC0004F58064A0420CD004F58064A0420AD0BA
:10070C0004F58064A0423FF44DAF05244DE701246D
:10071C004BE7022449E7032447E702B0F0BC7047DB
:10072C00000001400004014000380240000002407B
:10073C0012B90904816170478161704782B0214B05
:10074C009B6813F0F00F2CD11E4B5B6A13F0805F8B
:10075C0008D01D4B1B6803F4C053B3F5C05F14D015
:10076C0000211FE0174A536A43F080535362536AC7
:10077C0003F080530193019B134B1B6803F4C0538C
:10078C00516A21F080515162E7E7B0F5404F01D03A
:10079C00002107E00D4A136843F0040313600121A4
:1007AC0000E00021094A136823F001030B43136096
:1007BC00136803F001038B4202D0012002B0704792
:1007CC000020FBE70038024000700040003C024073
:1007DC0070B582B00446036813F0010F37D0754B27
:1007EC009B6803F00C03082B1AD0724B9B6803F028
:1007FC000C030C2B0FD06368012B66D0002B40F040
:10080C0088806C4B1A6822F480321A601A6822F4C1
:10081C0080221A605EE0674B9B6813F4803FEAD03D
:10082C004FF4003393FAA3F3624B19684FF400337F
:10083C0093FAA3F3B3FA83F303F01F03012202FA32
:10084C0003F30B4203D06368002B00F0788323681A
:10085C0013F0020F00F0BF80564B9B6803F00C03A3
:10086C00042B00F09080534B9B6803F00C030C2B73
:10087C0000F08380E368002B00F04B81012292FA98
:10088C00A2F3B3FA83F303F1845303F58E139B00A5
:10089C001A60FFF797FC0546022393FAA3F3454B26
:1008AC001968022393FAA3F3B3FA83F303F01F033B
:1008BC00012202FA03F30B4240F01B81FFF782FC8A
:1008CC00401B0228E8D9032040E33A4A136843F45A
:1008DC0080331360636893B3FFF774FC05464FF4E1
:1008EC00003393FAA3F3334B19684FF4003393FAA4
:1008FC00A3F3B3FA83F303F01F03012202FA03F309
:10090C000B42A4D1FFF75EFC401B6428E7D90320FF
:10091C001CE3052B09D0274B1A6822F480321A608D
:10092C001A6822F480221A60D4E7224B1A6842F427
:10093C0080221A601A6842F480321A60CAE7FFF704
:10094C0041FC05464FF4003393FAA3F3194B196895
:10095C004FF4003393FAA3F3B3FA83F303F01F03BA
:10096C00012202FA03F30B423FF471AFFFF72AFCAA
:10097C00401B6428E6D90320E8E20E4B9B6813F475
:10098C00803F7FF477AF022393FAA3F3094B1968E6
:10099C00022393FAA3F3B3FA83F303F01F030122A8
:1009AC0002FA03F30B4207D0E368934204D0012010
:1009BC00CCE200BF00380240C148436823F4F8532E
:1009CC0021694FF4F85292FAA2F2B2FA82F201FAC9
:1009DC0002F213434360236813F0100F5CD0B84B42
:1009EC009B6813F00C0F40F0D8804FF4007393FA0F
:1009FC00A3F3B34B19684FF4007393FAA3F3B3FA50
:100A0C0083F303F01F03012202FA03F30B4203D01A
:100A1C00A369002B00F09582206AA94B5B6803F454
:100A2C006043984240F29D80FFF788FE002840F01A
:100A3C008A82A3494B6823F46043226A13434B60B8
:100A4C004B6823F07F43E0694FF07F4292FAA2F2A9
:100A5C00B2FA82F200FA02F213434B60236A4FF4AB
:100A6C00604292FAA2F2B2FA82F2D3405A1C4FF4CC
:100A7C0000439340924A926802F0F002F02191FAFE
:100A8C00A1F1B1FA81F1CA408E498A5CD3408E4AF9
:100A9C0013600020FFF76CFB236813F0080F00F0C5
:100AAC0017816369002B00F0E680012191FAA1F215
:100ABC00B2FA82F2854B13449B001960FFF782FB5C
:100ACC000546022393FAA3F27D4A516B93FAA3F3E2
:100ADC00B3FA83F303F01F03012202FA03F30B4270
:100AEC0040F0F680FFF76EFB401B0228E9D903208B
:100AFC002CE27348436823F4F85321694FF4F852FD
:100B0C0092FAA2F2B2FA82F201FA02F213434360B1
:100B1C0061E7012393FAA3F3B3FA83F303F184534C
:100B2C0003F58E139B0000221A60FFF74BFB054662
:100B3C00022393FAA3F3624B1968022393FAA3F3EB
:100B4C00B3FA83F303F01F03012202FA03F30B42FF
:100B5C003FF441AFFFF736FB401B0228E8D90320D6
:100B6C00F4E157494B6823F46043184348604B68E1
:100B7C0023F07F43E0694FF07F4292FAA2F2B2FA7F
:100B8C0082F200FA02F213434B60206AFFF7D6FDA3
:100B9C0000283FF463AF0120D8E1A369002B3FD0BC
:100BAC004FF4807393FAA3F3B3FA83F303F18453F2
:100BBC0003F58E139B0001221A60FFF703FB054619
:100BCC004FF4007393FAA3F33D4B19684FF4007381
:100BDC0093FAA3F3B3FA83F303F01F03012202FA8F
:100BEC0003F30B4206D1FFF7EDFA401B0228E7D9BD
:100BFC000320ABE132494B6823F46043226A134370
:100C0C004B604B6823F07F43E0694FF07F4292FAD0
:100C1C00A2F2B2FA82F200FA02F213434B603BE703
:100C2C004FF4807393FAA3F3B3FA83F303F1845371
:100C3C0003F58E139B0000221A60FFF7C3FA0546DA
:100C4C004FF4007393FAA3F31D4B19684FF4007320
:100C5C0093FAA3F3B3FA83F303F01F03012202FA0E
:100C6C0003F30B423FF418AFFFF7ACFA401B02281A
:100C7C00E6D903206AE1012292FAA2F2B2FA82F2D8
:100C8C00124B13449B0000221A60FFF79BFA054697
:100C9C00022393FAA3F20A4A516B93FAA3F3B3FA21
:100CAC0083F303F01F03012202FA03F30B420FD06C
:100CBC00FFF788FA401B0228EAD9032046E100BF5F
:100CCC00003802400C2C000800000020A0C191103C
:100CDC00236813F0040F00F092809E4B5B6A13F0B4
:100CEC00805F1ED19B4B5A6A42F080525A625B6AFB
:100CFC0003F080530193019B0125974B1B6813F460
:100D0C00807F10D0A368012B21D0002B43D1914BB5
:100D1C005A6B22F480725A635A6B22F480625A63C3
:100D2C001AE00025E9E78C4A136843F480731360DA
:100D3C00FFF748FA0646884B1B6813F4807FE1D115
:100D4C00FFF740FA801B6428F5D90320FEE0814AA6
:100D5C00536B43F480735363A36893B3FFF732FA76
:100D6C0006464FF4007393FAA3F27A4A516B93FA46
:100D7C00A3F3B3FA83F303F01F03012202FA03F384
:100D8C000B423BD1FFF71EFA801B41F2883398428D
:100D9C00E7D90320DAE0052B09D06E4B5A6B22F40D
:100DAC0080725A635A6B22F480625A63D4E7694B9F
:100DBC005A6B42F480625A635A6B42F480725A63E3
:100DCC00CAE7FFF7FFF906464FF4007393FAA3F254
:100DDC00604A516B93FAA3F3B3FA83F303F01F0346
:100DEC00012202FA03F30B4208D0FFF7EBF9801B48
:100DFC0041F288339842E7D90320A7E0B5BB636A78
:100E0C00002B00F0A280534A926802F00C020C2ACC
:100E1C0000F09E80022B2FD04FF0807393FAA3F337
:100E2C00B3FA83F303F1845303F58E139B00002272
:100E3C001A60FFF7C7F904464FF0007393FAA3F357
:100E4C00444B19684FF0007393FAA3F3B3FA83F38E
:100E5C0003F01F03012202FA03F30B426DD0FFF7DC
:100E6C00B1F9001B0228E7D903206FE0394A536A15
:100E7C0023F080535362C2E74FF0807393FAA3F3CD
:100E8C00B3FA83F303F1845303F58E139B00002212
:100E9C001A60FFF797F905464FF0007393FAA3F326
:100EAC002C4B19684FF0007393FAA3F3B3FA83F346
:100EBC0003F01F03012202FA03F30B4206D0FFF7E3
:100ECC0081F9401B0228E7D903203FE021498B68B8
:100EDC0023F47D03A26AE06A0243206B02431343AE
:100EEC008B604FF0807393FAA3F3B3FA83F303F19F
:100EFC00845303F58E139B0001221A60FFF762F9ED
:100F0C0004464FF0007393FAA3F3124B19684FF099
:100F1C00007393FAA3F3B3FA83F303F01F030122D4
:100F2C0002FA03F30B4206D1FFF74CF9001B02281F
:100F3C00E7D903200AE0002008E0002006E00120A9
:100F4C0004E0012002E0012000E0002002B070BDAE
:100F5C000120FBE70038024000700040224B9868EB
:100F6C0000F00C02082A3CD00C2A13D0042A0FD013
:100F7C001D4B586800F460404FF4604393FAA3F3A0
:100F8C00B3FA83F3D840431C4FF4004098407047A9
:100F9C001648704700F470114FF4701292FAA2F2D6
:100FAC00B2FA82F221FA02F211498A5C00F4400092
:100FBC004FF4400393FAA3F3B3FA83F3D840013010
:100FCC00094B9B6813F4803F05D00A4B03FB02F3DB
:100FDC00B3FBF0F07047054B03FB02F3B3FBF0F0EF
:100FEC0070470448704700BF003802400024F400EA
:100FFC00002C000800366E018D4B1B6803F00103BA
:10100C008B4214D201290CD0894A136823F00103B6
:10101C000B431360136803F001038B4207D00120CC
:10102C007047834A136843F004031360ECE770B510
:10103C00036813F0020F06D07E4A936823F0F00386
:10104C008468234393600C460546036813F0010F34
:10105C0000F0A3804368022B18D0032B48D0012B3F
:10106C005BD04FF4007292FAA2F2724A10684FF4FD
:10107C00007292FAA2F2B2FA82F202F01F0201217D
:10108C0001FA02F2024215D10120CDE04FF40032F8
:10109C0092FAA2F2674A10684FF4003292FAA2F266
:1010AC00B2FA82F202F01F02012101FA02F20242AC
:1010BC0000F0BB805F498A6822F0030213438B6007
:1010CC00FFF780F806466B68022B39D0032B46D00D
:1010DC00012B53D0574B9B6813F00C0F5DD0FFF7CF
:1010EC0071F8801B41F288339842F3D903209BE0BE
:1010FC004FF0007292FAA2F24E4A10684FF0007252
:10110C0092FAA2F2B2FA82F202F01F02012101FA63
:10111C0002F20242CED1012086E0022292FAA2F221
:10112C00444A1068022292FAA2F2B2FA82F202F057
:10113C001F02012101FA02F20242BBD1012073E02D
:10114C003C4B9B6803F00C03082B26D0FFF73AF8B6
:10115C00801B41F288339842F2D9032064E0354B6E
:10116C009B6803F00C030C2B17D0FFF72BF8801B9C
:10117C0041F288339842F2D9032055E02D4B9B68FD
:10118C0003F00C03042B08D0FFF71CF8801B41F272
:10119C0088339842F2D9032046E0254B1B6803F0B4
:1011AC000103A34214D9012C0CD0214A136823F05B
:1011BC00010323431360136803F00103A34207D018
:1011CC00012031E01A4A136843F004031360ECE782
:1011DC002B6813F0040F06D0164A936823F4E063CF
:1011EC00E9680B4393602B6813F0080F07D0114A82
:1011FC00936823F46053296943EAC1039360FFF7B2
:10120C00ADFE0C4B9B6803F0F003F02292FAA2F2B5
:10121C00B2FA82F2D340084AD35CD840074B18602C
:10122C000020FEF7A5FF002070BD0120FCE700BFE9
:10123C00003C0240003802400C2C0008000000204A
:10124C00014B1868704700BF0000002008B5FFF77D
:10125C00F7FF074B9B6803F4E0634FF4E06292FAEC
:10126C00A2F2B2FA82F2D340024AD35CD84008BD53
:10127C00003802401C2C000808B5FFF7E1FF074BB3
:10128C009B6803F460534FF4605292FAA2F2B2FAE4
:10129C0082F2D340024AD35CD84008BD00380240E9
:1012AC001C2C00082DE9F84304460268136923F44A
:1012BC004053C1680B43136183680269134342694D
:1012CC001343C2691A430168CB6823F4164323F015
:1012DC000C031343CB600268536923F44073816998
:1012EC000B435361C369B3F5004F5CD00268B34B39
:1012FC009A4200F00C81FFF7A9FF00EB800000EB95
:10130C0080006568AD00B0FBF5F5AD4FA7FB05356A
:10131C006D092E01FFF79AFF00EB800000EB8000B7
:10132C006568AD00B0FBF5F9FFF790FF00EB8000AE
:10133C0000EB80006568AD00B0FBF5F5A7FB05354B
:10134C006D094FF0640808FB15952D013235A7FB8C
:10135C0005356D0905F0F0053544FFF777FF00EB17
:10136C00800000EB80006668B600B0FBF6F6FFF775
:10137C006DFF00EB800000EB800063689B00B0FB0E
:10138C00F3F0A7FB0030400908FB10684FEA08187F
:10139C0008F13208A7FB0837C7F3431723682F441B
:1013AC009F60BDE8F8830268844B9A4257D0FFF7E0
:1013BC004DFF00EB800000EB800065686D00B0FB1A
:1013CC00F5F57F4FA7FB05356D092E01FFF73EFFA5
:1013DC0000EB800000EB800065686D00B0FBF5F958
:1013EC00FFF734FF00EB800000EB800065686D00B8
:1013FC00B0FBF5F5A7FB05356D094FF0640808FB4C
:10140C001595ED003235A7FB05356D096D0005F41A
:10141C00F8753544FFF71AFF00EB800000EB8000F5
:10142C0066687600B0FBF6F6FFF710FF00EB800065
:10143C0000EB800063685B00B0FBF3F3A7FB0323B6
:10144C005B0908FB13684FEAC80808F13208A7FBD0
:10145C000837C7F3421723682F449F60A1E7FFF7B3
:10146C000BFF00EB800000EB800065686D00B0FBAB
:10147C00F5F5534FA7FB05356D092E01FFF7FCFE63
:10148C0000EB800000EB800065686D00B0FBF5F9A7
:10149C00FFF7F2FE00EB800000EB800065686D004A
:1014AC00B0FBF5F5A7FB05356D094FF0640808FB9B
:1014BC001595ED003235A7FB05356D096D0005F46A
:1014CC00F8753544FFF7D8FE00EB800000EB800088
:1014DC0066687600B0FBF6F6FFF7CEFE00EB8000F8
:1014EC0000EB800063685B00B0FBF3F3A7FB032306
:1014FC005B0908FB13684FEAC80808F13208A7FB20
:10150C000837C7F3421723682F449F6049E7FFF75A
:10151C00B3FE00EB800000EB80006568AD00B0FB13
:10152C00F5F5274FA7FB05356D092E01FFF7A4FE36
:10153C0000EB800000EB80006568AD00B0FBF5F9B6
:10154C00FFF79AFE00EB800000EB80006568AD00B1
:10155C00B0FBF5F5A7FB05356D094FF0640808FBEA
:10156C0015952D013235A7FB05356D0905F0F005F4
:10157C003544FFF781FE00EB800000EB80006668CD
:10158C00B600B0FBF6F6FFF777FE00EB800000EB41
:10159C00800063689B00B0FBF3F3A7FB03235B099C
:1015AC0008FB13684FEA081808F13208A7FB083744
:1015BC00C7F3431723682F449F60F2E600380140BD
:1015CC001F85EB5148B310B5044690F83930FBB188
:1015DC00022384F839302268D36823F40053D36093
:1015EC002046FFF75FFE2268136923F490431361D2
:1015FC002268536923F02A0353612268D36843F4A9
:10160C000053D3600020E063012384F8393010BD0F
:10161C0080F8383000F072FADAE7012070470000E9
:10162C00F0B589B01B4BDA6942F00102DA61DA6974
:10163C0002F001020192019ADA6942F00202DA61C7
:10164C00DB6903F002030293029B134F01224FF458
:10165C0080513846FFF76CF8104D012210212846B6
:10166C00FFF766F84FF48053039301260496002489
:10167C000594069403A93846FEF790FF10230393B4
:10168C0004960594069403A92846FEF787FF09B033
:10169C00F0BD00BF003802400000024000040240D0
:1016AC0008B50B460146184600F034FB08BD000097
:1016BC0030B585B0044600250095FEF749FE21465D
:1016CC00104800F03BFB01950294012303936946FB
:1016DC0001A8FEF719FF30B9FEF760FE0A4800F0CA
:1016EC00A1FB05B030BD0146084800F027FB00996E
:1016FC00074800F023FBFEF75BFEC1B2054800F083
:10170C001DFBEEE7B82C0008282D0008DC2C000887
:10171C00F82C00080C2D0008F8B504460E461746A8
:10172C0001460D4800F00AFBFEF712FE0025B5EB52
:10173C00970F0EDA326821460220FEF77BFE18B9AD
:10174C00043604340135F2E72146044800F0F6FA79
:10175C0001E0FEF723FEF8BD442D0008782D0008AB
:10176C0070B506460D46104800F0E8FA002404E077
:10177C00315D0E4800F0E2FA0134A5420FDD002C79
:10178C00F6D014F00F0FF3D1094800F04BFB631C9B
:10179C00AB42EDDA2146074800F0D0FAE8E70648FC
:1017AC0000F040FB70BD00BFA42D0008B82D000850
:1017BC0010300008AC2D0008C82F000810B50446E6
:1017CC000D4800F02FFB21680C4800F0B7FA616857
:1017DC000B4800F0B3FAA1680A4800F0AFFA217B7D
:1017EC00094800F0ABFA617B084800F0A7FAA17B2E
:1017FC00074800F0A3FA10BDC02D0008D02D00083A
:10180C00EC2D0008082E0008242E0008402E00089D
:10181C005C2E0008FEE7000008B50B480B4B03607C
:10182C004FF4E133436000238360C36003610C22F7
:10183C0042618361C361FFF7C5FE00B908BD40F288
:10184C0039110348FFF7E6FFB000002000380140D3
:10185C00782E000800B593B0224A136823F4C053C5
:10186C0043F40063136002230593012208921022B3
:10187C0009920E9300230F934FF4802310934FF48F
:10188C008003119305A8FEF7A3FF00BB0F23009361
:10189C0003230193002302930393049301216846CD
:1018AC00FFF7AAFBC0B9FFF7CBFC0F4BA3FB003033
:1018BC008009FEF7E1FC0420FEF7F4FC002211463F
:1018CC004FF0FF30FEF7A4FC13B05DF804FB4FF4AF
:1018DC0087710648FFF79EFF4FF48E710348FFF7A0
:1018EC0099FF00BF00700040D34D6210782E0008A5
:1018FC00F0B5ADF5057D464CA769FEF74FFCFFF73B
:10190C00A9FFFFF78DFEFFF787FF424800F08AFA28
:10191C00414800F087FA414D2946414800F00EFA43
:10192C006846FEF7C9FD6846FFF748FF3D4800F0E2
:10193C0079FA3D4E31683D4800F000FA71683C4838
:10194C0000F0FCF9B1683B4800F0F8F9F1683A484E
:10195C0000F0F4F93946394800F0F0F94FF400631F
:10196C00A3610A20FEF734FCA169354800F0E6F9C2
:10197C00E169344800F0E2F9F22200210DF58F7094
:10198C0000F0D3F9304B44AC0FCB07C424F8023B26
:10199C001B0C23704FF4807204A92846FFF780FEBD
:1019AC002A4800F03FFA4FF4807144A8FFF7D8FEA4
:1019BC0004A9274800F0C2F94FF4807104A8FFF77E
:1019CC00CFFE2846FFF774FE224800F02BFA4FF4A6
:1019DC00807204A92846FFF763FE4FF4807104A8B7
:1019EC00FFF7BEFE4FF4807244A92846FFF794FE21
:1019FC004FF4807204A92846FFF752FE164800F0F7
:101A0C0011FA4FF4807104A8FFF7AAFEFEE700BF9D
:101A1C00003C0240882E0008A42E000800FF01089C
:101A2C00E02E0008FC2E00080000F81F102F000804
:101A3C00242F0008382F00084C2F0008602F0008B6
:101A4C00842F0008A82F0008BC2F0008CC2F0008FA
:101A5C00DC2F0008FC2F00081430000800B585B0FE
:101A6C00254B5A6A42F000425A625A6A02F000420E
:101A7C000192019A1A6A42F001021A621A6A02F081
:101A8C0001020292029A5A6A42F080525A625B6ACE
:101A9C0003F080530393039B0320FEF7A7FB002264
:101AAC0011466FF00B00FEF7B3FB002211466FF0EE
:101ABC000A00FEF7ADFB002211466FF00900FEF79D
:101ACC00A7FB002211466FF00400FEF7A1FB0022D9
:101ADC0011466FF00300FEF79BFB002211466FF0DE
:101AEC000100FEF795FB002211464FF0FF30FEF788
:101AFC008FFB05B05DF804FB003802400268114B07
:101B0C009A4200D0704700B587B003F580331A6A4B
:101B1C0042F480421A621B6A03F480430093009BD8
:101B2C004FF4C06301930223029301230393032315
:101B3C0004930723059301A90348FEF72FFD07B073
:101B4C005DF804FB00380140000002407047FEE7DE
:101B5C00FEE7FEE7FEE770477047704708B5FEF7F3
:101B6C0029FBFEF7B0FB08BD70B50D4616460024E8
:101B7C0004E000F06FF8287001340135B442F8DB52
:101B8C00304670BD70B51646002405E04D1C087833
:101B9C0000F054F801342946B442F7DB304670BDEE
:101BAC0008B503460B4A126842B10A4A106803444E
:101BBC006A46934206D8074A136008BD054A06498F
:101BCC001160F2E700F07CF80C2303604FF0FF305B
:101BDC00F3E700BF84000020F80000204FF0FF3036
:101BEC0070474FF400534B60002070470120704742
:101BFC00002070470E4B1A6842F480721A60996884
:101C0C000C4A0A409A601A6822F0885222F001129B
:101C1C001A601A6822F480221A609A6822F47D02F3
:101C2C009A600022DA60044B4FF000629A607047B1
:101C3C00003802400CC0FF8800ED00E0044B1B682C
:101C4C0013F0400FFAD0C0B2014B5860002070471F
:101C5C0000380140044B1B6813F0200FFAD0024BE4
:101C6C005868C0B2704700BF003801400D48854627
:101C7C00002103E00C4B5B58435004310B480C4BD8
:101C8C0042189A42F6D30B4A02E0002342F8043B76
:101C9C00094B9A42F9D3FFF7ADFF00F017F8FFF7A5
:101CAC0027FE704700800020CC3000080000002088
:101CBC006800002068000020F4000020FEE700000F
:101CCC00014B1868704700BF0400002070B5002558
:101CDC000C4E0D4CA41BA410A54209D100F07EFFA4
:101CEC0000250A4E0A4CA41BA410A54205D170BDB8
:101CFC0056F8253098470135EEE756F825309847C9
:101D0C000135F2E7C4300008C4300008C4300008C4
:101D1C00C830000810B5431E0A44914200D110BDD2
:101D2C0011F8014B03F8014FF7E7034602449342C5
:101D3C0000D1704703F8011BF9E700000FB40A4B00
:101D4C0013B51C6824B1A36913B9204600F022FA1C
:101D5C0005AB049AA1682046019300F0D7FB02B0B2
:101D6C00BDE8104004B070470400002070B50E466A
:101D7C00054618B183690BB900F00CFAAB69AC6875
:101D8C0013B9284600F006FA234B9C4217D16C6815
:101D9C00A3891B071DD52369DBB1013EA36816F887
:101DAC00011F013BA360E9B9002B2EDA22460A2160
:101DBC00284600F03FF8013011D00A2011E0174BF3
:101DCC009C4201D1AC68E3E7154B9C4208BFEC6820
:101DDC00DEE72146284600F07FF80028DDD04FF0E2
:101DEC00FF3070BD002B04DAA2699A4206DC0A2986
:101DFC0004D023685A1C22601970CFE7224628466B
:101E0C0000F018F80130C9D1E9E70A2023685A1C00
:101E1C0022601870E5E700BF5030000870300008F1
:101E2C0030300008024B01461868FFF79FBF00BF17
:101E3C0004000020F8B50E461446054618B1836917
:101E4C000BB900F0A7F9214B9C422AD16C68A3690D
:101E5C00A360A3891A072ED5236963B3236920686D
:101E6C00F6B2C01A63693746834204DC2146284621
:101E7C0000F026F928BBA3680130013BA36023685E
:101E8C005A1C22601E706369834204D0A389DB074D
:101E9C0019D50A2E17D12146284600F011F990B118
:101EAC000FE00B4B9C4201D1AC68D0E7094B9C4234
:101EBC0008BFEC68CBE72146284600F00DF8002857
:101ECC00CCD04FF0FF373846F8BD00BF503000087B
:101EDC007030000830300008324B70B51D68064673
:101EEC000C4625B1AB6913B9284600F053F92E4BBB
:101EFC009C420FD16C68B4F90C309AB215072CD4F3
:101F0C00D00611D40922326043F04003A3814FF074
:101F1C00FF303EE0254B9C4201D1AC68EBE7244BF3
:101F2C009C4208BFEC68E6E7510712D5616B41B1E2
:101F3C0004F14403994202D0304600F019FA002310
:101F4C006363A38923F02403A381002363602369C3
:101F5C002360A38943F00803A38123694BB9A389A8
:101F6C0003F42073B3F5007F03D02146304600F014
:101F7C00BFF9A28912F001030CD00023A36063699E
:101F8C005B42A361236953B9B4F90C3013F08000A0
:101F9C00BAD170BD920758BF6369A360F2E7002005
:101FAC00F7E700BF04000020503000087030000834
:101FBC00303000088A892DE9F041054610070C469F
:101FCC0058D44B68002B05DC0B6C002B02DC00207A
:101FDC00BDE8F081E66A002EF9D0002312F480529D
:101FEC002F68216A2B6032D0606DA3895A0705D502
:101FFC006368C01A636B0BB1236CC01A00230246D2
:10200C00E66A216A2846B047431CA38906D1296891
:10201C001D2948D8294ACA40D60744D500226260F7
:10202C002269D904226004D5421C01D12B6803B962
:10203C006065616B2F600029C9D004F1440399429B
:10204C0002D0284600F094F900206063C0E7012319
:10205C002846B047411CC8D12B68002BC5D01D2B7E
:10206C0001D0162B01D12F60B1E7A38943F04003B7
:10207C00A381ADE70F69002FA9D0930718BF0023E8
:10208C000E6808BF4B69A6EB07080F608B60B8F1B0
:10209C00000F9CDD43463A46216A2846A66AB047A3
:1020AC00002806DCA38943F04003A3814FF0FF30E6
:1020BC008EE70744A8EB0008E9E700BF01004020C9
:1020CC0038B50B6905460C46DBB118B183690BB901
:1020DC0000F060F80C4B9C4209D16C68B4F90C30E0
:1020EC007BB121462846BDE83840FFF763BF074B5C
:1020FC009C4201D1AC68F1E7054B9C4208BFEC68EF
:10210C00ECE7002038BD00BF5030000870300008EC
:10211C0030300008002310B50446C0E9003383605A
:10212C0081814366C281C0E9043383611946082268
:10213C005C30FFF7FAFD054B24626362044BA3622B
:10214C00044BE362044B236310BD00BF712A0008EB
:10215C00932A0008CB2A0008EF2A0008014900F056
:10216C0085B800BFCD20000870B568254A1E5543C0
:10217C000E4605F1740100F047F9044640B1002108
:10218C00C0E900160C30A06005F16802FFF7CDFD28
:10219C00204670BD836910B5044633BBC0E91233C9
:1021AC000365124B124A1B688262984204BF0123DA
:1021BC00836100F01FF86060204600F01BF8A060FF
:1021CC00204600F017F80022E06004216068FFF759
:1021DC00A1FF01220921A068FFF79CFF0222122116
:1021EC00E068FFF797FF0123A36110BD2C300008B6
:1021FC0069210008F8B51B4B07461E68B36913B973
:10220C003046FFF7C7FF4836D6E90134013B03D50A
:10221C00336833B13668F7E7B4F90C506DB16834F4
:10222C00F4E704213846FFF79FFF30600028F1D116
:10223C000C2304463B602046F8BD0B4B6566C4E995
:10224C000055A560C4E90335C4E9055508222946A3
:10225C0004F15C00FFF769FDC4E90D55C4E91255A2
:10226C00E9E700BF2C3000080100FFFF2DE9F8431F
:10227C0080468946002600F1480414B93046BDE872
:10228C00F883D4E90175013F01D52468F5E7AB89E2
:10229C00012B07D9B5F90E30013303D0294640463E
:1022AC00C84706436835EEE770B50E46B1F90E1017
:1022BC0096B0002914461D4607DA00232B60B3891B
:1022CC001A0610D44FF480630EE06A4600F030FC1E
:1022DC000028F2DB019A02F47042A2F500535A4234
:1022EC005A412A60EEE740230020236016B070BDEF
:1022FC008B8973B59D0706460C4607D504F1470339
:10230C00236023610123636102B070BD01AB6A4697
:10231C00FFF7CAFF00990546304600F075F848B93A
:10232C00B4F90C309A05EFD423F0030343F0020305
:10233C00A381E3E70D4BB362A389206043F08003D4
:10234C00A381009B20616361019B5BB1B4F90E100A
:10235C00304600F0FFFB28B1A38923F0030343F0C0
:10236C000103A381A3891D43A581CDE76921000841
:10237C0038B50546002943D051F8043C0C1F002BFE
:10238C00B8BFE41800F016FC1E4A1368104633B9A7
:10239C00636014602846BDE8384000F00CBCA342D2
:1023AC000BD921686218934201BF1A685B685218F6
:1023BC00226063600460EDE713465A680AB1A242DA
:1023CC00FAD919685818A0420BD120680144581842
:1023DC0082421960DED110685268014419605A605B
:1023EC00D8E702D90C232B60D4E7206821188A4245
:1023FC0001BF116852680918216062605C60C9E70E
:10240C0038BD00BF8C00002070B5CD1C25F0030535
:10241C0008350C2D38BF0C25002D064601DBA942D2
:10242C0003D90C233360002070BD00F0C3FB214A9C
:10243C001468214691B9204C23681BB9304600F032
:10244C0001FB20602946304600F0FCFA431C24D1E5
:10245C000C233046336000F0AEFBE4E70B685B1BEB
:10246C0018D40B2B0FD90B60CC18CD50304600F084
:10247C00A2FB04F10B00231D20F00700C31AD3D0DC
:10248C005A42E250D0E74B688C4216BF636013602F
:10249C000C46EBE70C464968CCE7C41C24F003045B
:1024AC00A04205D0211A304600F0CCFA0130CFD032
:1024BC002560DBE78C00002090000020936810B4AE
:1024CC00013B002B936007DA9469A34201DB0A29D4
:1024DC0002D110BCFFF7AEBC1368581C1060197009
:1024EC00084610BC7047F8B506460F461446D5187A
:1024FC00AC4201D1002007E03A4614F8011B3046EB
:10250C00FFF7DCFF431CF3D1F8BD00002DE9F04FC1
:10251C009DB00C4617460393064618B183690BB958
:10252C00FFF738FE7B4B9C4257D17468A389180780
:10253C005DD52369002B5AD00023099320238DF8F5
:10254C00293030234FF0010B8DF82A30B846454620
:10255C0015F8013B0BB1252B54D1B8EB070A0BD066
:10256C0053463A4621463046FFF7BDFF013000F096
:10257C00C280099B5344099398F80030002B00F05B
:10258C00BA8000234FF0FF32CDE905230493079363
:10259C008DF853301A93A846052218F8011B5E4893
:1025AC0000F0FAFA049B78BBD90644BF20228DF8C0
:1025BC0053201A0744BF2B228DF853202A782A2A3D
:1025CC002AD0A84600200A25079A414611F8013B5B
:1025DC00303B092B69D960B324E0504B9C4201D1AC
:1025EC00B468A3E74E4B9C4208BFF4689EE72146B3
:1025FC003046FFF771FC00289ED04FF0FF301DB025
:10260C00BDE8F08FA846A2E7434A4546801A0BFA6C
:10261C0000F018430490BEE7039A111D1268039151
:10262C00002A01DB079204E0524243F002030792B6
:10263C00049398F800302E2B0ED198F801302A2BE9
:10264C0038D1039B08F102081A1D1B680392002B5A
:10265C00B8BF4FF0FF330593324D032298F80010AA
:10266C00284600F099FA40B14023401B03FA00F0D1
:10267C00049B08F101080343049398F80010062208
:10268C00294808F101078DF8281000F085FA002878
:10269C0037D0264B1BBB039B073323F007030833B0
:1026AC000393099B4B44099350E705FB023201202D
:1026BC0088468AE700230A25194608F10108059384
:1026CC00404610F8012B303A092A03D9002BC3D00D
:1026DC000591C1E705FB012101238046F0E703AB1F
:1026EC0000932246124B04A93046AFF30080B0F1A0
:1026FC00FF3F8146D5D1A3895B063FF57EAF099894
:10270C007DE703AB00932246094B04A9304600F049
:10271C0087F8ECE750300008903000087030000863
:10272C0030300008963000089A3000080000000095
:10273C00F32400082DE9F04791461F468A680B697F
:10274C0006469342B8BF1346C9F8003091F84320AF
:10275C000C46DDF8208012B10133C9F80030236833
:10276C00990642BFD9F800300233C9F80030256809
:10277C0015F0060507D104F1190AE368D9F8002011
:10278C009B1AAB4229DC94F843302268003318BF03
:10279C00012392062ED404F1430239463046C04739
:1027AC00013021D02368E56803F00603042B18BF21
:1027BC000025D9F800204FF0000908BFAD1AA36816
:1027CC00226908BF25EAE5759342C4BF9B1AED1830
:1027DC001A344D451AD1002008E0012352463946DF
:1027EC003046C047013003D14FF0FF30BDE8F087D1
:1027FC000135C2E73020E11881F843005A1C94F8E7
:10280C0045102244023382F84310C4E701232246C8
:10281C0039463046C0470130E6D009F10109D8E706
:10282C002DE9F04301F1430C0C46097E85B06E296D
:10283C001746064698460C9A00F0B38022D86329B6
:10284C0036D00AD8002900F0B980582900F08380CE
:10285C0004F1420584F8421032E0642901D0692960
:10286C00F6D120681368050603F104012AD51B680C
:10287C001160002B03DA2D225B4284F843206F4851
:10288C000A2239E0732900F09D8008D86F2920D0E6
:10289C007029DDD1236843F02003236003E0752900
:1028AC0017D07829D4D17823654884F8453055E081
:1028BC00136804F14205191D1B68116084F842303D
:1028CC0001238CE01B6810F0400F116018BF1BB285
:1028DC00CFE713682568181D1060280601D51B6802
:1028EC0002E06806FBD51B886F2914BF0A22082258
:1028FC005248002184F843106568002DA560C0F291
:10290C009580216821F004012160002B3DD1002D20
:10291C0040F08E806546082A0BD12368DB0708D56A
:10292C00236962689A42DEBF302305F8013C05F149
:10293C00FF35ACEB05032361CDF800803B4603AAC1
:10294C0021463046FFF7F6FE01304DD14FF0FF30F7
:10295C0005B0BDE8F083394884F845101368216848
:10296C001D1D1B6815600A060BD5CA0744BF41F034
:10297C00200121601BB9226822F020022260102263
:10298C00B7E74D0648BF9BB2EFE76546B3FBF2F1E4
:10299C0002FB1133C35C05F8013D0B460029F5D150
:1029AC00B9E713682568181D6169106028061B6853
:1029BC0001D5196002E06A06FBD519800023654633
:1029CC002361B9E71368191D11601D686268002145
:1029DC00284600F0E1F808B1401B60606368236191
:1029EC00002384F84330A7E723692A46394630464A
:1029FC00C0470130AAD023689B0713D4E068039B1F
:102A0C009842B8BF1846A3E701234A4639463046D8
:102A1C00C04701309AD00135E368039A9B1AAB4248
:102A2C00F2DCEBE7002504F11909F5E7002BACD13A
:102A3C00037804F1420584F842306CE7A1300008B9
:102A4C00B230000838B50023054C05460846236013
:102A5C00FFF7A6F8431C02D1236803B12B6038BDE5
:102A6C00F000002010B50C46B1F90E1000F0A4F8DF
:102A7C000028ABBF636DA3891B1823F48053ACBF34
:102A8C006365A38110BD2DE9F0411F468B89054676
:102A9C00DB050C46164605D502230022B1F90E10B3
:102AAC0000F068F8A389324623F48053A381B4F96B
:102ABC000E103B462846BDE8F04100F017B810B5A3
:102ACC000C46B1F90E1000F055F8431CA38915BF44
:102ADC00606523F4805343F48053A38118BFA38112
:102AEC0010BDB1F90E1000F013B8000038B5054652
:102AFC00084611460022054C22601A46FFF742F8A0
:102B0C00431C02D1236803B12B6038BDF0000020B8
:102B1C0038B50023054C054608462360FFF75EF8E0
:102B2C00431C02D1236803B12B6038BDF000002098
:102B3C0038B50023064C0546084611462360FFF7BE
:102B4C0050F8431C02D1236803B12B6038BD00BF81
:102B5C00F000002038B50023054C054608462360DC
:102B6C00FFF744F8431C02D1236803B12B6038BD36
:102B7C00F000002038B50546084611460022054CE9
:102B8C0022601A46FFF734F8431C02D1236803B1C4
:102B9C002B6038BDF000002010B5C9B20244904241
:102BAC00034601D1002303E01C7801308C42F6D19E
:102BBC00184610BD7047704738B505460846114693
:102BCC000022054C22601A46FEF7CEFF431C02D1B0
:102BDC00236803B12B6038BDF0000020F8B500BFAE
:102BEC00F8BC08BC9E467047F8B500BFF8BC08BCE2
:042BFC009E4670473A
:102C0000030406080C10182030000000000000002B
:102C1000000000000102030406070809000000008C
:102C200001020304537461747573207265676973DC
:102C300074657220636F6E74656E743A2030782507
:102C40006C780D0A00000000464C4153485F4F422B
:102C50005F4765745244503B206F62723A2030786F
:102C6000256C780D0A00000073746174757320611F
:102C70006674657220464C4153485F5761697446DB
:102C80006F724C6173744F7065726174696F6E3AE4
:102C900020307825780D0A0048414C5F464C41535E
:102CA0004845785F4572617365204572726F723A6C
:102CB0002025640D0A00000045726173696E67206B
:102CC000666C6173682061742061646472657373FB
:102CD0003A203078256C780D0A000000466C61734C
:102CE00068206572617365206572726F723A203078
:102CF00078253032780D0A00504147454572726F91
:102D0000723A20256C640D0A00000000466C617365
:102D100068206572726F7220636F6465206973202A
:102D2000307825780D0A000050616765207375635F
:102D30006365737366756C6C792065726173656425
:102D40000D00000077726974655F666C6173685F7F
:102D5000646174613A20616464726573733A20300F
:102D600078256C782C206C656E6774683A20307812
:102D7000253034780D0A0000466C6173682070724B
:102D80006F6772616D6D696E67206572726F722018
:102D9000617420616464726573733A203078256CC5
:102DA000780D0A0030783030303A20003078253005
:102DB00033783A2000000000307825303278200047
:102DC0004F7074696F6E2062797465733A0D0000FC
:102DD0004F7074696F6E547970653A2020202020FE
:102DE00020203078256C780D0A000000575250538F
:102DF0007461746520203A20202020202020307823
:102E0000256C780D0A000000575250536563746FAB
:102E10007230546F3331203A20203078256C780D91
:102E20000A0000005244504C6576656C3A20202020
:102E30002020202020203078253032780D0A000014
:102E4000424F524C6576656C3A202020202020208D
:102E500020203078253032780D0A00005553455235
:102E6000436F6E6669673A2020202020202030784A
:102E7000253032780D0A00002E2E2F5372632F6DED
:102E800061696E2E6300000057726974696E672075
:102E9000616E642052656164696E6720466C61737F
:102EA000680D00005468652070726F6772616D2054
:102EB0007772697465732048656C6C6F20576F7208
:102EC0006C642120746F20666C61736820616E648D
:102ED000207265616473206974206261636B0D0008
:102EE000466C617368206973206174206164647248
:102EF000657373203078256C780D0A00546865205E
:102F00006F7074696F6E2062797465730D000000D4
:102F10005244503A20202030782530386C780D0A01
:102F200000000000555345523A20203078253038B3
:102F30006C780D0A0000000057525030313A2030B2
:102F4000782530386C780D0A000000005752503256
:102F5000333A2030782530386C780D0A00000000B4
:102F6000466C617368207374617475732061667454
:102F700065722072657365743A2030782530386C3C
:102F8000780D0A00466C6173682073746174757300
:102F90002061667465722077726974653A203078B2
:102FA0002530386C780D0A00466C617368204F42FA
:102FB000522030782530386C780D0A0048656C6CEA
:102FC0006F20576F726C64210D0A00006F757420BA
:102FD0006275666665723A200D0000004265676999
:102FE0006E6E696E67206F6620666C617368206222
:102FF00075666665723A2025730D0A00427566662D
:1030000065722061667465722065726173653A202D
:103010000D000000466C6173682061667465722063
:1030200077726974653A200D0000000008000020E6
:103030000000000000000000000000000000000090
:103040000000000000000000000000000000000080
:103050000000000000000000000000000000000070
:103060000000000000000000000000000000000060
:103070000000000000000000000000000000000050
:103080000000000000000000000000000000000040
:10309000232D302B2000686C4C0065666745464741
:1030A00000303132333435363738394142434445C4
:1030B0004600303132333435363738396162636433
:0430C0006566000041
:0430C400610100089E
:0430C8003D010008BE
:1030CC0068FF1F00080000200000000050300008BE
:1030DC0070300008303000080000000000000000D4
:1030EC0000000000000000000000000000000000D4
:1030FC0000000000000000000000000000000000C4
:10310C0000000000000000000000000000000000B3
:10311C0000000000000000000000000000000000A3
:08312C0000000000000000009B
:0400000508001C795A
:00000001FF
