:020000040800F2
:10000000004000201D2A00082D2200082F22000891
:1000100031220008332200083522000800000000C9
:10002000000000000000000000000000372200086F
:1000300039220008000000003B2200083D22000891
:10004000652A0008652A0008652A0008652A000854
:10005000652A0008652A0008652A0008652A000844
:10006000652A0008652A0008652A0008652A000834
:10007000652A0008652A0008652A0008652A000824
:10008000652A0008652A0008652A0008652A000814
:10009000652A0008652A0008652A0008652A000804
:1000A00000000000652A0008652A0008652A00088B
:1000B000652A0008652A0008652A0008652A0008E4
:1000C000652A0008652A0008652A0008652A0008D4
:1000D000652A0008652A0008652A0008652A0008C4
:1000E00049220008652A0008652A0008652A0008D8
:1000F000652A000800000000000000000000000069
:1001000000000000000000000000000000000000EF
:1001100000000000000000000000000000000000DF
:1001200000000000000000000000000000000000CF
:0C01300000000000000000005FF808F173
:10013C0010B5054C237833B9044B13B10448AFF315
:10014C0000800123237010BD680000200000000017
:10015C006C39000808B5034B1BB103490348AFF3D6
:10016C00008008BD000000006C0000206C39000805
:10017C0010B50446074B1868074BA3FB00308009E9
:10018C0000F086F8002221464FF0FF3000F040F8D6
:10019C00002010BD00000020D34D621008B50320D4
:1001AC0000F024F80020FFF7E3FF01F097FF002098
:1001BC0008BD0000024A136801331360704700BF8A
:1001CC0098000020014B1868704700BF9800002071
:1001DC0010B582B00190FFF7F5FF0446FFF7F2FF70
:1001EC00001B019B9842F9D302B010BD074AD3689B
:1001FC0023F4E0631B041B0C000200F4E0601843C2
:10020C0040F0BF6040F40030D060704700ED00E07B
:10021C0030B4174BDB68C3F30223C3F10704042C7F
:10022C0028BF04241D1D062D18D9033B4FF0FF35A4
:10023C0005FA04F421EA0401994005FA03F322EAD1
:10024C000303194300280BDB0901C9B200F160401C
:10025C0000F5614080F8001330BC70470023E5E7DF
:10026C0000F00F000901C9B2024B1954F4E700BFAA
:10027C0000ED00E014ED00E000F01F024009012346
:10028C009340024A42F82030704700BF00E100E082
:10029C000138B0F1807F0AD2064B5860064AF02133
:1002AC0082F823100020986007221A607047012002
:1002BC00704700BF10E000E000ED00E0042805D01E
:1002CC00054A136823F0040313607047024A13684D
:1002DC0043F004031360704710E000E0704708B56A
:1002EC00FFF7FCFF08BD0000F0B482B0002336E03D
:1002FC00042400E00024B4403C4302355B4E46F835
:10030C0025405B4C2568D44304EA05064F6817F476
:10031C00803F01D042EA0506554D2E606D6804EA17
:10032C0005064F6817F4003F01D042EA0506504D10
:10033C006E60AD6804EA05064F6817F4801F01D0A3
:10034C0042EA05064A4DAE60ED682C404E6816F444
:10035C00001F01D042EA0504454AD46001330A6803
:10036C0032FA03F47FD001249C402240F6D04D6831
:10037C00022D01D0122D10D1DE08083650F826C0FF
:10038C0003F00705AF000F25BD402CEA050C0D69E5
:10039C00BD4045EA0C0540F8265006685F00032571
:1003AC00BD40ED4305EA060C4E6806F00306BE4060
:1003BC0046EA0C0606604E6806F1FF3CBCF1010FE4
:1003CC0003D9112E01D0122E10D1866805EA060C25
:1003DC00CE68BE4046EA0C068660466826EA0404EF
:1003EC004E68C6F300169E4026434660C4682540FE
:1003FC008C68BC402C43C4604C6814F0805FADD05A
:10040C001C4C256A45F001052562246A04F00104A0
:10041C000194019C9D08AE1C144C54F8267003F0FA
:10042C000304A6000F24B44027EA0407124CA04290
:10043C003FF460AF04F58064A0420ED004F58064F4
:10044C00A0420CD004F58064A0420AD004F580646C
:10045C00A0423FF44DAF05244DE701244BE70224A5
:10046C0049E7032447E702B0F0BC704700000140A5
:10047C0000040140003802400000024012B9090497
:10048C00816170478161704708B5054B5B69034218
:10049C0000D108BD024B586101F07CFCF9E700BFAC
:1004AC000004014003685A6912F4806F0DD06FF498
:1004BC0080625A610423036400230363202280F8C2
:1004CC003D2080F83C300120704700207047F8B583
:1004DC0006460C4617461D461EE02DB1FFF772FE70
:1004EC00069BC01AA84217D900233363202286F832
:1004FC003D2086F83E3086F83C3003201AE0336805
:10050C005B6924EA03039BB2B3FA83F35B099F4252
:10051C000FD1B5F1FF3FE0D1C4F30743012BEED06F
:10052C0033689B6924EA03039BB2B3FA83F35B0938
:10053C00EDE70020F8BDF8B504460D4616461F46FB
:10054C0032E01A6842F400721A6023686FF4806219
:10055C005A610423236400232363202284F83D2062
:10056C0084F83C3001202DE026B1FFF72BFEC01B98
:10057C00B04219D900232363202284F83D2084F84B
:10058C003C3003201EE023685B6925EA03039BB221
:10059C00003318BF0123A3B123685A6912F4806F8A
:1005AC00CFD1B6F1FF3FDFD1C5F30743012BEAD022
:1005BC0023689B6925EA03039BB2003318BF012310
:1005CC00E9E70020F8BD70B504460D4616462368D1
:1005DC005B6913F0800F19D12046FFF763FFB8B9A0
:1005EC00B5F1FF3FF3D025B1FFF7ECFD801BA8421E
:1005FC00EDD9236C43F020032364002323632022D2
:10060C0084F83D2084F83C30032000E0002070BDCD
:10061C000120FCE72DE9F04184B004460E46174654
:10062C0098460B9D0268136843F480731360009521
:10063C000A9B00224FF00111FFF749FF002847D118
:10064C00236806F0FE061E612B460A9A26492046B0
:10065C00FFF771FF20B1236C042B3ED1012338E04E
:10066C000023039323685A6903929B690393039BAA
:10067C002A460A992046FFF7A6FF034648B1236C89
:10068C00042B2CD12268136843F4007313600123EC
:10069C001FE0B8F1010F13D023683A0A1A612A46F9
:1006AC000A992046FFF78FFF034668B1236C042B91
:1006BC0017D12268136843F400731360012308E018
:1006CC002268FFB2176104E02268FFB2176100E0F4
:1006DC000323184604B0BDE8F0810323F9E7032394
:1006EC00F7E70323F5E700BF020001002DE9F04115
:1006FC0084B004460E46174698460B9D0268136854
:10070C0043F4806313600268136843F480731360CE
:10071C0000950A9B00224FF00111FFF7D8FE00282C
:10072C0074D1F6B2236806F0FE021A612B460A9ABF
:10073C003F492046FFF7FFFE20B1236C042B6AD102
:10074C00012364E00023039323685A6903929B6995
:10075C000393039B2A460A992046FFF734FF48B1BE
:10076C00236C042B59D12268136843F40073136073
:10077C0001234CE0B8F1010F12D12368FFB21F61C5
:10078C002A460A992046FFF71EFF00B3236C042B60
:10079C0047D12268136843F400731360012336E0D9
:1007AC0023683A0A1A612A460A992046FFF70BFF7A
:1007BC0048B1236C042B32D12268136843F40073C4
:1007CC001360012323E02368FFB21F61D8E722687E
:1007DC00136843F48073136000950A9B00224FF05A
:1007EC0001112046FFF773FEE8B9236846F00106B5
:1007FC001E612B460A9A0E492046FFF79CFE0346C3
:10080C0028B1236C042B10D1012300E003231846DC
:10081C0004B0BDE8F0810323F9E70323F7E70323D2
:10082C00F5E70323F3E70323F1E70323EFE700BF27
:10083C000200010070B504460D46164623685B693C
:10084C0013F0040F19D12046FFF72CFEB8B9B5F1FF
:10085C00FF3FF3D025B1FFF7B5FC801BA842EDD9C3
:10086C00236C43F02003236400232363202284F8A9
:10087C003D2084F83C30032000E0002070BD0120B6
:10088C00FCE770B505460C4616462B685A6912F003
:10089C00400F22D15A6912F0100F11D124B1FFF779
:1008AC0091FC801BA042F0D92B6C43F020032B64ED
:1008BC00202385F83D30002385F83C30032070BDA3
:1008CC006FF010025A6100232B642B63202285F8F1
:1008DC003D2085F83C300120F1E70020EFE70000D7
:1008EC00002800F0A28070B5044690F83D30002B33
:1008FC0061D001F065F84F4B984240F29880242368
:10090C0084F83D302268136823F0010313604A4BCE
:10091C00A3FB00239B0C21684A6822F03F021A4378
:10092C004A6025682A6A22F03F02666843498E4273
:10093C0046D8013313432B622568EB6923F44F43EC
:10094C0023F0FF0362683D498A4243D85200B0FB52
:10095C00F2F0C0F30B02032A00D804201843E8611C
:10096C0021680B6823F0C003E269206A0243134339
:10097C000B6021688B6823F4034323F0FF03226987
:10098C00E068024313438B602168CB6823F0FF03BC
:10099C006269A06902431343CB602268136843F079
:1009AC000103136000202064202384F83D30206371
:1009BC0084F83E0070BD80F83C3001F0DFFB98E716
:1009CC004FF4967101FB03F31D49A1FB03139B0923
:1009DC000133AFE7A6688EB902EB4201B0FBF1F12F
:1009EC00C1F30B01B1FA81F14909E1B996B902EBF6
:1009FC004202B0FBF2F040F40040AFE702EB8201A0
:100A0C0001EB8101B0FBF1F1C1F30B01B1FA81F102
:100A1C004909EAE702EB820202EB8202B0FBF2F038
:100A2C0040F440409AE7012098E7012070470120EC
:100A3C00C0E700BF7F841E0083DE1B43A08601003D
:100A4C00D34D62102DE9F04383B004460F46904617
:100A5C009946BDF82C60FFF7B5FB94F83D30DBB23E
:100A6C00202B40F0A48005460A9B002B00F0A480AC
:100A7C000EB901239CE00090192301224FF00211C2
:100A8C002046FFF724FD002840F0988094F83C3075
:100A9C00012B00F09580012384F83C3023681A6800
:100AAC0012F0010F03D11A6842F001021A60226899
:100ABC00136823F400631360212384F83D30402332
:100ACC0084F83E30002323640A9B636266853F4BA7
:100ADC00E362638D238501950C9B00934B46424644
:100AEC0039462046FFF796FDB0B1236C042B04D198
:100AFC00002384F83C3001235AE0002384F83C3076
:100B0C00032355E0236C042B5CD12268136843F457
:100B1C000073136001234BE0238D002B28D02A4651
:100B2C000C992046FFF74FFD0028EBD1636A5A1C45
:100B3C00626222681B781361238D013B9BB2238573
:100B4C00628D013A92B262852268516911F0040FEC
:100B5C00E2D0002BE0D0636A591C61621B781361F0
:100B6C00238D013B2385638D013B9BB26385D3E7CA
:100B7C002A460C992046FFF75DFE034648B1236CCC
:100B8C00042B21D12268136843F4007313600123F2
:100B9C000EE021680A6842F400720A60202284F890
:100BAC003D20002284F83E2084F83C2000E0022303
:100BBC00184603B0BDE8F0830123F9E70223F7E7F9
:100BCC000223F5E70323F3E70323F1E70000FFFF1C
:100BDC002DE9F04387B004460E4690469946BDF881
:100BEC003C70FFF7EFFA94F83D30DBB2202B40F06D
:100BFC00498105460E9B002B00F049810FB9012657
:100C0C0041E10090192301224FF002112046FFF719
:100C1C005EFC002840F03D8194F83C30012B00F044
:100C2C003A81012384F83C3023681A6812F0010FD2
:100C3C0003D11A6842F001021A602268136823F487
:100C4C0000631360222384F83D30402384F83E3047
:100C5C00002323640E9B63626785934BE362638D71
:100C6C0023850195109B00934B4642463146204606
:100C7C00FFF73CFD064660B1236C042B04D1002326
:100C8C0084F83C300126FEE0002384F83C30032637
:100C9C00F9E0238D012B0AD0022B1AD000230593E7
:100CAC0023685A6905929B690593059B68E0226845
:100CBC00136823F4806313600023039323685A6939
:100CCC0003929A690392039A1A6842F400721A60AA
:100CDC0056E02268136823F480631360226813685B
:100CEC0043F4006313600023049323685A6904924D
:100CFC009B690493049B43E02A4610992046FFF716
:100D0C00C0FD68B923681A69636A591C61621A705C
:100D1C00238D013B2385638D013B9BB263852FE0C3
:100D2C00236C202B01D00126ADE00326ABE000950F
:100D3C00109B00225D492046FFF7C9FB002840F0BC
:100D4C00AC802268136843F40073136023681A693B
:100D5C00636A591C61621A70238D013B2385638D74
:100D6C00013B9BB2638523681A69636A591C6162F3
:100D7C001A70238D013B2385638D013B9BB26385E8
:100D8C00238D002B75D0032B47D8012BB4D0022F09
:100D9C00CDD00095109B002244492046FFF797FBCD
:100DAC0000287CD12268136823F4806313602368C5
:100DBC001A69636A591C61621A70238D013B238581
:100DCC00638D013B9BB263850095109B00223749D4
:100DDC002046FFF77CFB002863D12268136843F49C
:100DEC000073136023681A69636A591C61621A7074
:100DFC00238D013B2385638D013B9BB26385236867
:100E0C001A69636A591C61621A70238D013B238530
:100E1C00638D013B9BB26385B2E72A46109920464D
:100E2C00FFF72FFDF0B923681A69636A591C6162D8
:100E3C001A70238D013B2385638D013B9BB2638527
:100E4C0023685A6912F0040F9AD01A69636A591C04
:100E5C0061621A70238D013B2385638D013B9BB22C
:100E6C0063858DE7236C202B01D001260BE0032634
:100E7C0009E0202384F83D30002384F83E3084F8C8
:100E8C003C3000E00226304607B0BDE8F083012676
:100E9C00F9E70226F7E70226F5E70326F3E7032630
:100EAC00F1E70326EFE700BF0000FFFF040001009D
:100EBC0082B0214B9B6813F0F00F2CD11E4B5B6A58
:100ECC0013F0805F08D01D4B1B6803F4C053B3F5BF
:100EDC00C05F14D000211FE0174A536A43F08053BF
:100EEC005362536A03F080530193019B134B1B68AD
:100EFC0003F4C053516A21F080515162E7E7B0F519
:100F0C00404F01D0002107E00D4A136843F0040361
:100F1C001360012100E00021094A136823F001034A
:100F2C000B431360136803F001038B4202D00120C2
:100F3C0002B070470020FBE7003802400070004010
:100F4C00003C024070B582B00446036813F0010FF8
:100F5C0037D0754B9B6803F00C03082B1AD0724BDF
:100F6C009B6803F00C030C2B0FD06368012B66D02D
:100F7C00002B40F088806C4B1A6822F480321A6087
:100F8C001A6822F480221A605EE0674B9B6813F4A7
:100F9C00803FEAD04FF4003393FAA3F3624B196805
:100FAC004FF4003393FAA3F3B3FA83F303F01F0364
:100FBC00012202FA03F30B4203D06368002B00F00A
:100FCC007883236813F0020F00F0BF80564B9B68A8
:100FDC0003F00C03042B00F09080534B9B6803F040
:100FEC000C030C2B00F08380E368002B00F04B818A
:100FFC00012292FAA2F3B3FA83F303F1845303F5BB
:10100C008E139B001A60FFF7DDF80546022393FA56
:10101C00A3F3454B1968022393FAA3F3B3FA83F3B2
:10102C0003F01F03012202FA03F30B4240F01B8171
:10103C00FFF7C8F8401B0228E8D9032040E33A4ADE
:10104C00136843F480331360636893B3FFF7BAF803
:10105C0005464FF4003393FAA3F3334B19684FF45E
:10106C00003393FAA3F3B3FA83F303F01F030122C3
:10107C0002FA03F30B42A4D1FFF7A4F8401B642837
:10108C00E7D903201CE3052B09D0274B1A6822F45F
:10109C0080321A601A6822F480221A60D4E7224B3C
:1010AC001A6842F480221A601A6842F480321A607C
:1010BC00CAE7FFF787F805464FF4003393FAA3F31A
:1010CC00194B19684FF4003393FAA3F3B3FA83F373
:1010DC0003F01F03012202FA03F30B423FF471AF3A
:1010EC00FFF770F8401B6428E6D90320E8E20E4BAA
:1010FC009B6813F4803F7FF477AF022393FAA3F33A
:10110C00094B1968022393FAA3F3B3FA83F303F0A0
:10111C001F03012202FA03F30B4207D0E368934248
:10112C0004D00120CCE200BF00380240C148436823
:10113C0023F4F85321694FF4F85292FAA2F2B2FA5E
:10114C0082F201FA02F213434360236813F0100F8A
:10115C005CD0B84B9B6813F00C0F40F0D8804FF468
:10116C00007393FAA3F3B34B19684FF4007393FA1B
:10117C00A3F3B3FA83F303F01F03012202FA03F380
:10118C000B4203D0A369002B00F09582206AA94B77
:10119C005B6803F46043984240F29D80FFF788FE41
:1011AC00002840F08A82A3494B6823F46043226AEA
:1011BC0013434B604B6823F07F43E0694FF07F4251
:1011CC0092FAA2F2B2FA82F200FA02F213434B60E4
:1011DC00236A4FF4604292FAA2F2B2FA82F2D3403E
:1011EC005A1C4FF400439340924A926802F0F0026A
:1011FC00F02191FAA1F1B1FA81F1CA408E498A5CD1
:10120C00D3408E4A13600020FEF7B2FF236813F020
:10121C00080F00F017816369002B00F0E6800121B4
:10122C0091FAA1F2B2FA82F2854B13449B00196039
:10123C00FEF7C8FF0546022393FAA3F27D4A516BD1
:10124C0093FAA3F3B3FA83F303F01F03012202FA18
:10125C0003F30B4240F0F680FEF7B4FF401B02286C
:10126C00E9D903202CE27348436823F4F85321692D
:10127C004FF4F85292FAA2F2B2FA82F201FA02F2A6
:10128C001343436061E7012393FAA3F3B3FA83F3A7
:10129C0003F1845303F58E139B0000221A60FEF7B2
:1012AC0091FF0546022393FAA3F3624B19680223BC
:1012BC0093FAA3F3B3FA83F303F01F03012202FAA8
:1012CC0003F30B423FF441AFFEF77CFF401B0228B7
:1012DC00E8D90320F4E157494B6823F460431843E1
:1012EC0048604B6823F07F43E0694FF07F4292FAED
:1012FC00A2F2B2FA82F200FA02F213434B60206AB5
:10130C00FFF7D6FD00283FF463AF0120D8E1A369B5
:10131C00002B3FD04FF4807393FAA3F3B3FA83F30B
:10132C0003F1845303F58E139B0001221A60FEF720
:10133C0049FF05464FF4007393FAA3F33D4B19682C
:10134C004FF4007393FAA3F3B3FA83F303F01F0380
:10135C00012202FA03F30B4206D1FEF733FF401BC6
:10136C000228E7D90320ABE132494B6823F46043F0
:10137C00226A13434B604B6823F07F43E0694FF0C4
:10138C007F4292FAA2F2B2FA82F200FA02F213430C
:10139C004B603BE74FF4807393FAA3F3B3FA83F3F8
:1013AC0003F1845303F58E139B0000221A60FEF7A1
:1013BC0009FF05464FF4007393FAA3F31D4B19680C
:1013CC004FF4007393FAA3F3B3FA83F303F01F0300
:1013DC00012202FA03F30B423FF418AFFEF7F2FEC0
:1013EC00401B0228E6D903206AE1012292FAA2F2FC
:1013FC00B2FA82F2124B13449B0000221A60FEF7E1
:10140C00E1FE0546022393FAA3F20A4A516B93FAC2
:10141C00A3F3B3FA83F303F01F03012202FA03F3DD
:10142C000B420FD0FEF7CEFE401B0228EAD9032058
:10143C0046E100BF0038024090390008000000204F
:10144C00A0C19110236813F0040F00F092809E4B02
:10145C005B6A13F0805F1ED19B4B5A6A42F080523C
:10146C005A625B6A03F080530193019B0125974BF1
:10147C001B6813F4807F10D0A368012B21D0002BA4
:10148C0043D1914B5A6B22F480725A635A6B22F4FB
:10149C0080625A631AE00025E9E78C4A136843F42A
:1014AC0080731360FEF78EFE0646884B1B6813F4A0
:1014BC00807FE1D1FEF786FE801B6428F5D90320DE
:1014CC00FEE0814A536B43F480735363A36893B378
:1014DC00FEF778FE06464FF4007393FAA3F27A4AAD
:1014EC00516B93FAA3F3B3FA83F303F01F030122B6
:1014FC0002FA03F30B423BD1FEF764FE801B41F270
:10150C0088339842E7D90320DAE0052B09D06E4BDB
:10151C005A6B22F480725A635A6B22F480625A63BB
:10152C00D4E7694B5A6B42F480625A635A6B42F4AB
:10153C0080725A63CAE7FEF745FE06464FF4007305
:10154C0093FAA3F2604A516B93FAA3F3B3FA83F3C1
:10155C0003F01F03012202FA03F30B4208D0FEF73B
:10156C0031FE801B41F288339842E7D90320A7E073
:10157C00B5BB636A002B00F0A280534A926802F05C
:10158C000C020C2A00F09E80022B2FD04FF080739F
:10159C0093FAA3F3B3FA83F303F1845303F58E1395
:1015AC009B0000221A60FEF70DFE04464FF00073FC
:1015BC0093FAA3F3444B19684FF0007393FAA3F317
:1015CC00B3FA83F303F01F03012202FA03F30B4275
:1015DC006DD0FEF7F7FD001B0228E7D903206FE062
:1015EC00394A536A23F080535362C2E74FF0807339
:1015FC0093FAA3F3B3FA83F303F1845303F58E1335
:10160C009B0000221A60FEF7DDFD05464FF00073CB
:10161C0093FAA3F32C4B19684FF0007393FAA3F3CE
:10162C00B3FA83F303F01F03012202FA03F30B4214
:10163C0006D0FEF7C7FD401B0228E7D903203FE088
:10164C0021498B6823F47D03A26AE06A0243206B74
:10165C00024313438B604FF0807393FAA3F3B3FAF6
:10166C0083F303F1845303F58E139B0001221A605C
:10167C00FEF7A8FD04464FF0007393FAA3F3124B48
:10168C0019684FF0007393FAA3F3B3FA83F303F0E2
:10169C001F03012202FA03F30B4206D1FEF792FD5F
:1016AC00001B0228E7D903200AE0002008E00020F4
:1016BC0006E0012004E0012002E0012000E000200F
:1016CC0002B070BD0120FBE7003802400070004002
:1016DC00224B986800F00C02082A3CD00C2A13D03C
:1016EC00042A0FD01D4B586800F460404FF460433F
:1016FC0093FAA3F3B3FA83F3D840431C4FF400409E
:10170C00984070471648704700F470114FF47012EF
:10171C0092FAA2F2B2FA82F221FA02F211498A5C2E
:10172C0000F440004FF4400393FAA3F3B3FA83F3AD
:10173C00D8400130094B9B6813F4803F05D00A4B0D
:10174C0003FB02F3B3FBF0F07047054B03FB02F312
:10175C00B3FBF0F070470448704700BF00380240FC
:10176C000024F4008439000800366E018D4B1B6890
:10177C0003F001038B4214D201290CD0894A13685F
:10178C0023F001030B431360136803F001038B4236
:10179C0007D001207047834A136843F00403136099
:1017AC00ECE770B5036813F0020F06D07E4A93681D
:1017BC0023F0F0038468234393600C4605460368CA
:1017CC0013F0010F00F0A3804368022B18D0032BF9
:1017DC0048D0012B5BD04FF4007292FAA2F2724AFD
:1017EC0010684FF4007292FAA2F2B2FA82F202F08E
:1017FC001F02012101FA02F2024215D10120CDE0B3
:10180C004FF4003292FAA2F2674A10684FF4003299
:10181C0092FAA2F2B2FA82F202F01F02012101FA4C
:10182C0002F2024200F0BB805F498A6822F0030298
:10183C0013438B60FEF7C6FC06466B68022B39D04F
:10184C00032B46D0012B53D0574B9B6813F00C0F36
:10185C005DD0FEF7B7FC801B41F288339842F3D978
:10186C0003209BE04FF0007292FAA2F24E4A1068ED
:10187C004FF0007292FAA2F2B2FA82F202F01F0258
:10188C00012101FA02F20242CED1012086E00222AD
:10189C0092FAA2F2444A1068022292FAA2F2B2FA26
:1018AC0082F202F01F02012101FA02F20242BBD1C4
:1018BC00012073E03C4B9B6803F00C03082B26D0F3
:1018CC00FEF780FC801B41F288339842F2D903204A
:1018DC0064E0354B9B6803F00C030C2B17D0FEF720
:1018EC0071FC801B41F288339842F2D9032055E0F9
:1018FC002D4B9B6803F00C03042B08D0FEF762FC05
:10190C00801B41F288339842F2D9032046E0254BE4
:10191C001B6803F00103A34214D9012C0CD0214AFB
:10192C00136823F0010323431360136803F00103CE
:10193C00A34207D0012031E01A4A136843F0040394
:10194C001360ECE72B6813F0040F06D0164A93686B
:10195C0023F4E063E9680B4393602B6813F0080FE2
:10196C0007D0114A936823F46053296943EAC103F1
:10197C009360FFF7ADFE0C4B9B6803F0F003F02275
:10198C0092FAA2F2B2FA82F2D340084AD35CD8405F
:10199C00074B18600020FEF7EBFB002070BD012008
:1019AC00FCE700BF003C02400038024090390008C0
:1019BC0000000020014B1868704700BF0000002099
:1019CC0008B5FFF7F7FF074B9B6803F4E0634FF490
:1019DC00E06292FAA2F2B2FA82F2D340024AD35CEB
:1019EC00D84008BD00380240A039000808B5FFF700
:1019FC00E1FF074B9B6803F460534FF4605292FA7B
:101A0C00A2F2B2FA82F2D340024AD35CD84008BDAB
:101A1C0000380240A03900082DE9F843044602685A
:101A2C00136923F44053C1680B4313618368026943
:101A3C00134342691343C2691A430168CB6823F408
:101A4C00164323F00C031343CB600268536923F451
:101A5C00407381690B435361C369B3F5004F5CD08C
:101A6C000268B34B9A4200F00C81FFF7A9FF00EB20
:101A7C00800000EB80006568AD00B0FBF5F5AD4F64
:101A8C00A7FB05356D092E01FFF79AFF00EB8000CF
:101A9C0000EB80006568AD00B0FBF5F9FFF790FF37
:101AAC0000EB800000EB80006568AD00B0FBF5F545
:101ABC00A7FB05356D094FF0640808FB15952D0142
:101ACC003235A7FB05356D0905F0F0053544FFF7F8
:101ADC0077FF00EB800000EB80006668B600B0FB7F
:101AEC00F6F6FFF76DFF00EB800000EB80006368FB
:101AFC009B00B0FBF3F0A7FB0030400908FB10681B
:101B0C004FEA081808F13208A7FB0837C7F3431748
:101B1C0023682F449F60BDE8F8830268844B9A4287
:101B2C0057D0FFF74DFF00EB800000EB800065689D
:101B3C006D00B0FBF5F57F4FA7FB05356D092E0148
:101B4C00FFF73EFF00EB800000EB800065686D0046
:101B5C00B0FBF5F9FFF734FF00EB800000EB8000E1
:101B6C0065686D00B0FBF5F5A7FB05356D094FF009
:101B7C00640808FB1595ED003235A7FB05356D099A
:101B8C006D0005F4F8753544FFF71AFF00EB800083
:101B9C0000EB800066687600B0FBF6F6FFF710FFEE
:101BAC0000EB800000EB800063685B00B0FBF3F39C
:101BBC00A7FB03235B0908FB13684FEAC80808F16D
:101BCC003208A7FB0837C7F3421723682F449F60DE
:101BDC00A1E7FFF70BFF00EB800000EB80006568CE
:101BEC006D00B0FBF5F5534FA7FB05356D092E01C4
:101BFC00FFF7FCFE00EB800000EB800065686D00D9
:101C0C00B0FBF5F9FFF7F2FE00EB800000EB800073
:101C1C0065686D00B0FBF5F5A7FB05356D094FF058
:101C2C00640808FB1595ED003235A7FB05356D09E9
:101C3C006D0005F4F8753544FFF7D8FE00EB800015
:101C4C0000EB800066687600B0FBF6F6FFF7CEFE80
:101C5C0000EB800000EB800063685B00B0FBF3F3EB
:101C6C00A7FB03235B0908FB13684FEAC80808F1BC
:101C7C003208A7FB0837C7F3421723682F449F602D
:101C8C0049E7FFF7B3FE00EB800000EB80006568CE
:101C9C00AD00B0FBF5F5274FA7FB05356D092E01FF
:101CAC00FFF7A4FE00EB800000EB80006568AD0040
:101CBC00B0FBF5F9FFF79AFE00EB800000EB80001B
:101CCC006568AD00B0FBF5F5A7FB05356D094FF068
:101CDC00640808FB15952D013235A7FB05356D09F8
:101CEC0005F0F0053544FFF781FE00EB800000EBBA
:101CFC0080006668B600B0FBF6F6FFF777FE00EBE7
:101D0C00800000EB800063689B00B0FBF3F3A7FB43
:101D1C0003235B0908FB13684FEA081808F1320823
:101D2C00A7FB0837C7F3431723682F449F60F2E6DD
:101D3C00003801401F85EB5148B310B5044690F8AC
:101D4C003930FBB1022384F839302268D36823F48C
:101D5C000053D3602046FFF75FFE2268136923F41B
:101D6C00904313612268536923F02A03536122685C
:101D7C00D36843F40053D3600020E063012384F85C
:101D8C00393010BD80F8383000F022FADAE7012043
:101D9C007047000008B50146014800F091FE08BDEF
:101DAC00A839000830B589B0204BDA6942F004023A
:101DBC00DA61DA6902F004020092009ADA6942F000
:101DCC000202DA61DA6902F002020192019ADA691E
:101DDC0042F00102DA61DB6903F001030293029B1A
:101DEC00134D012210212846FEF748FB4FF44043C7
:101DFC000393104B04930124059403A92846FEF782
:101E0C0073FA10230393049400240594022306937D
:101E1C0003A92846FEF768FA224621462820FEF739
:101E2C00F7F92820FEF728FA09B030BD0038024037
:101E3C000004024000001110FEE7000008B50B483A
:101E4C000B4B03604FF4E133436000238360C360AA
:101E5C0003610C2242618361C361FFF76DFF00B91E
:101E6C0008BD40F231110348FFF7E6FFF0000020F7
:101E7C0000380140E839000808B50C480C4B0360E9
:101E8C000C4B436000238360C3604FF480420261BB
:101E9C0043618361C3610362FEF722FD00B908BD93
:101EAC004FF48F710448FFF7C7FF00BF9C00002060
:101EBC0000540040A0860100E839000800B593B03A
:101ECC00214A136823F4C05343F4006313600223C4
:101EDC00059301220892102209920E9300230F936E
:101EEC004FF4802310934FF48003119305A8FFF750
:101EFC0029F800BB0F2300930323019300230293C3
:101F0C000393049301216846FFF730FCB8B9FFF73F
:101F1C0051FD0E4BA3FB00308009FEF7B9F90420EC
:101F2C00FEF7CCF9002211464FF0FF30FEF770F9A6
:101F3C0013B05DF804FBF2210548FFF77DFF4FF469
:101F4C0080710348FFF778FF00700040D34D62109A
:101F5C00E839000800B583B0FEF720F9FFF7AEFFB3
:101F6C00FFF720FFFFF76AFFFFF786FF484800F0F6
:101F7C001BFE00F077FC40B9012000F021FA01288B
:101F8C0007D0444800F010FE31E0434800F00CFE4E
:101F9C00F2E7424800F008FE29E09DF806104048A0
:101FAC0000F08EFD9DF8063013F0030F29D10DF1D2
:101FBC000601232000F0CEF9B0BB3A4800F0F4FD46
:101FCC000DF106011F2000F0C5F900283DD1354860
:101FDC0000F0EAFD0DF1070000F032FA012851D0B3
:101FEC00314800F0E1FD42F21070FEF7F1F80DF10E
:101FFC00060000F081FC0128CFD02C4800F0D4FD65
:10200C00F5E7684600F0BDFC012803D0284800F035
:10201C00CBFDCCE7BDF90430BDF90220BDF90010B1
:10202C00244800F04DFDC2E79DF80610224800F050
:10203C0047FD9DF90630002B03DB204800F0B4FD72
:10204C00BEE71F4800F0B0FDBAE79DF806101D482A
:10205C0000F036FD9DF90630002B0BDB1A4800F022
:10206C00A3FD9DF8063013F0400F07D0174800F081
:10207C009BFDAFE7164800F097FDF2E7154800F01E
:10208C0093FDA7E79DF80710134800F019FDAAE788
:10209C00F83900085C3A0008243A0008883A00082D
:1020AC00E83A0008783B0008543D0008B83A0008AC
:1020BC00203B0008503B0008A83B0008003C0008EF
:1020CC00CC3B0008303C0008983C0008D03C000891
:1020DC005C3C0008143D0008803D000800B585B04C
:1020EC00254B5A6A42F000425A625A6A02F0004288
:1020FC000192019A1A6A42F001021A621A6A02F0FB
:10210C0001020292029A5A6A42F080525A625B6A47
:10211C0003F080530393039B0320FEF767F8002220
:10212C0011466FF00B00FEF773F8002211466FF0AA
:10213C000A00FEF76DF8002211466FF00900FEF759
:10214C0067F8002211466FF00400FEF761F80022D8
:10215C0011466FF00300FEF75BF8002211466FF09A
:10216C000100FEF755F8002211464FF0FF30FEF744
:10217C004FF805B05DF804FB003802400268114BC3
:10218C009A4200D0704700B587B04FF4407301936A
:10219C001223029301230393032304930423059333
:1021AC000DEB03010848FEF79FF8084B5A6A42F4FE
:1021BC0000125A625B6A03F400130093009B07B091
:1021CC005DF804FB0054004000040240003802405B
:1021DC000268114B9A4200D0704700B587B003F5E6
:1021EC0080331A6A42F480421A621B6A03F48043F9
:1021FC000093009B4FF4C0630193022302930123CD
:10220C000393032304930723059301A90348FEF7C3
:10221C006BF807B05DF804FB003801400000024089
:10222C007047FEE7FEE7FEE7FEE770477047704732
:10223C0008B5FDF7BFFFFEF752F808BD08B54FF41F
:10224C008040FEF721F94FF40040FEF71DF908BD60
:10225C0070B50D461646002404E000F06FF82870A7
:10226C0001340135B442F8DB304670BD70B516460A
:10227C00002405E04D1C087800F054F80134294680
:10228C00B442F7DB304670BD08B503460B4A126802
:10229C0042B10A4A106803446A46934206D8074A78
:1022AC00136008BD054A06491160F2E700F0D6FB41
:1022BC000C2303604FF0FF30F3E700BF84000020D5
:1022CC00380100204FF0FF3070474FF400534B6043
:1022DC000020704701207047002070470E4B1A6891
:1022EC0042F480721A6099680C4A0A409A601A6823
:1022FC0022F0885222F001121A601A6822F480220D
:10230C001A609A6822F47D029A600022DA60044B0B
:10231C004FF000629A607047003802400CC0FF8892
:10232C0000ED00E0044B1B6813F0400FFAD0C0B274
:10233C00014B58600020704700380140044B1B686B
:10234C0013F0200FFAD0024B5868C0B2704700BF90
:10235C000038014000B585B064230293012301933A
:10236C000091024633210648FEF732FC18B90120D1
:10237C0005B05DF804FB034800F016FCF7E700BF5E
:10238C009C000020A43D000800B587B006AA02F806
:10239C00011D642302930123019300920246322112
:1023AC000548FEF74FFB18B9012007B05DF804FB98
:1023BC00024800F0F9FBF7E79C000020A43D000860
:1023CC0010B582B004460DF107012020FFF7C2FFC3
:1023DC0010B9002002B010BD9DF8071001F00F01DC
:1023EC0041EA0411C9B28DF807102020FFF7CCFF89
:1023FC000028EFD00120EDE710B582B004460DF1B6
:10240C0007011F20FFF7A6FF88B19DF8071001F008
:10241C003F0141EA841149B241EAC411C9B28DF8B5
:10242C0007101F20FFF7B0FF28B1012003E003487D
:10243C0000F0BAFB002002B010BD00BFB43D000894
:10244C0010B582B004460DF107010C20FFF782FF96
:10245C00C8B10DF106010D20FFF77CFFC8B19DF846
:10246C0007209DF806100D4800F02AFB9DF9072067
:10247C009DF906100A4800F023FB9DF806300F3337
:10248C002370012003E0074800F08EFB002002B00F
:10249C0010BD054800F088FB0020F8E75C3E000802
:1024AC00903E0008F43D0008283E000810B582B0AC
:1024BC0004460DF107012020FFF74CFF10B9002056
:1024CC0002B010BD0DF106012320FFF743FF0028D9
:1024DC004AD09DF8072012F0F00F07D1234B5B7800
:1024EC0023F00F035BB213438DF80730012C23D07C
:1024FC001CB1022C11D00020E2E79DF807301B4ADA
:10250C00537003F00F038DF807309DF8071020204F
:10251C00FFF73AFFF8B90020D2E79DF8073023F017
:10252C0008038DF807309DF8063003F0F70343F0ED
:10253C0008038DF80630E8E79DF8073003F0F70341
:10254C0043F008038DF807309DF8063023F008039C
:10255C008DF80630D9E79DF806102320FFF714FFFD
:10256C000028ADD00120ABE70020A9E78C000020AB
:10257C0010B582B004460DF107012020FFF7EAFEEA
:10258C0010B9002002B010BD9DF8071001F0F80141
:10259C0004F0070421438DF807102020FFF7F4FE08
:1025AC000028EFD00120EDE710B582B004460DF104
:1025BC0007012320FFF7CEFE10B9002002B010BD9A
:1025CC009DF8071001F0CF0141EA0411C9B28DF852
:1025DC0007102320FFF7D8FE0028EFD00120EDE7ED
:1025EC0010B582B004460DF107012320FFF7B2FEAF
:1025FC0010B9002002B010BD9DF8071001F07F014A
:10260C0041EAC411C9B28DF807102320FFF7BCFEB4
:10261C000028EFD00120EDE710B582B004460DF193
:10262C0007012120FFF796FE10B9002002B010BD63
:10263C009DF8071001F0FE0121438DF807102120B1
:10264C00FFF7A2FE0028F1D00120EFE710B582B011
:10265C0004460DF107012120FFF77CFE10B9002084
:10266C0002B010BD9DF8071001F0F70141EAC4015A
:10267C00C9B28DF807102120FFF786FE0028EFD095
:10268C000120EDE710B582B004460DF107012220C0
:10269C00FFF760FE10B9002002B010BD8DF80740A6
:1026AC0021462220FFF770FE0028F5D00120F3E729
:1026BC0010B582B004460DF107012520FFF74AFE44
:1026CC0010B9002002B010BD8DF80740214625201E
:1026DC00FFF75AFE0028F5D00120F3E710B582B0C1
:1026EC0004460DF107012420FFF734FE10B9002039
:1026FC0002B010BD9DF8071001F0F70141EAC401CA
:10270C00C9B28DF807102420FFF73EFE0028EFD049
:10271C000120EDE710B582B004460DF10701302021
:10272C00FFF718FE10B9002002B010BD9DF807107D
:10273C0001F0400121438DF807103020FFF724FEF3
:10274C000028F1D00120EFE710B582B004460DF15E
:10275C0007013020FFF7FEFD10B9002002B010BDBC
:10276C009DF8071001F03F0141EA8411C9B28DF8C0
:10277C0007103020FFF708FE0028EFD00120EDE70E
:10278C0010B582B004460DF107013020FFF7E2FDD1
:10279C0010B9002002B010BD0DF106012420FFF786
:1027AC00D9FD002841D0012C16D0022C23D05CB9C5
:1027BC009DF8073023F040038DF807309DF8063064
:1027CC0023F004038DF806309DF807103020FFF736
:1027DC00DBFD08BB0020DDE79DF8073003F0BF03ED
:1027EC0043F040038DF807309DF8063023F00403C6
:1027FC008DF80630D9E79DF8073003F0BF0343F09E
:10280C0040038DF807309DF8063003F0FB0343F0CE
:10281C0004038DF80630CAE79DF806102420FFF754
:10282C00B3FD0028B6D00120B4E70020B2E710F0C9
:10283C00800F07D108B501463220FFF7A5FD00B186
:10284C00012008BD0020704710F0800F07D108B59B
:10285C0001463320FFF798FD00B1012008BD002090
:10286C007047000000B583B00A20FDF7B1FC0DF1F4
:10287C0007010F20FFF76EFD9DF80730332B06D0B4
:10288C001C4800F091F9002003B05DF804FB012016
:10289C00FFF7B2FD0220FFF793FD0720FFF768FE5C
:1028AC000220FFF703FE0120FFF7D0FE0120FFF707
:1028BC00B3FE4020FFF7E6FE0120FFF791FE00205B
:1028CC00FFF772FE0120FFF709FF0220FFF7F0FE71
:1028DC000820FFF7ACFF0020FFF7B6FF0120FFF741
:1028EC0033FF0120FFF74CFF3F20FFF713FF0120C0
:1028FC00CAE700BFBC3E000808B501462720FFF719
:10290C0029FD00B1012008BD10B582B004460DF1BF
:10291C0006012820FFF71EFD10B9002002B010BDE3
:10292C000DF107012920FFF715FD08B90020F5E787
:10293C0002A931F9023D23802A20FFF70BFD08B9CB
:10294C000020EBE70DF107012B20FFF703FD08B981
:10295C000020E3E702A931F8023D63802C20FFF749
:10296C00F9FC08B90020D9E70DF107012D20FFF77C
:10297C00F1FC20B1BDF80630A3800120CEE7002089
:10298C00CCE710B584B0044602A8FFF7BDFF0128C0
:10299C0001D004B010BD0DF107012020FFF7DAFCC7
:1029AC000028F6D09DF8073013F0030F09D09DF9DD
:1029BC00093023809DF90B3063809DF90D30A38085
:1029CC00E7E70DF107012320FFF7C4FC0028E0D056
:1029DC009DF8073013F0030F0CD1BDF908309B1193
:1029EC002380BDF90A309B116380BDF90C309B111B
:1029FC00A380CEE7BDF908301B112380BDF90A3046
:102A0C001B116380BDF90C301B11A380C1E70000C2
:102A1C00002103E00B4B5B58435004310A480B4B2D
:102A2C0042189A42F6D30A4A02E0002342F8043BC9
:102A3C00084B9A42F9D3FFF751FC00F015F8FFF759
:102A4C0089FA7047943F00080000002068000020BD
:102A5C006800002034010020FEE70000014B1868DC
:102A6C00704700BF0400002070B500250C4E0D4CC3
:102A7C00A41BA410A54209D100F072FF00250A4E38
:102A8C000A4CA41BA410A54205D170BD56F82530E4
:102A9C0098470135EEE756F8253098470135F2E7AF
:102AAC008C3F00088C3F00088C3F0008903F0008CA
:102ABC0003460244934200D1704703F8011BF9E727
:102ACC000FB40A4B13B51C6824B1A36913B9204683
:102ADC0000F022FA05AB049AA1682046019300F09D
:102AEC00D7FB02B0BDE8104004B0704704000020D2
:102AFC0070B50E46054618B183690BB900F00CFA97
:102B0C00AB69AC6813B9284600F006FA234B9C421B
:102B1C0017D16C68A3891B071DD52369DBB1013E56
:102B2C00A36816F8011F013BA360E9B9002B2EDA4C
:102B3C0022460A21284600F03FF8013011D00A2025
:102B4C0011E0174B9C4201D1AC68E3E7154B9C425A
:102B5C0008BFEC68DEE72146284600F07FF8002825
:102B6C00DDD04FF0FF3070BD002B04DAA2699A4221
:102B7C0006DC0A2904D023685A1C22601970CFE79E
:102B8C002246284600F018F80130C9D1E9E70A209E
:102B9C0023685A1C22601870E5E700BF183F000834
:102BAC00383F0008F83E0008024B01461868FFF752
:102BBC009FBF00BF04000020F8B50E461446054622
:102BCC0018B183690BB900F0A7F9214B9C422AD1AB
:102BDC006C68A369A360A3891A072ED5236963B314
:102BEC0023692068F6B2C01A63693746834204DC55
:102BFC002146284600F026F928BBA3680130013B8A
:102C0C00A36023685A1C22601E706369834204D03F
:102C1C00A389DB0719D50A2E17D12146284600F0C7
:102C2C0011F990B10FE00B4B9C4201D1AC68D0E78D
:102C3C00094B9C4208BFEC68CBE72146284600F0C4
:102C4C000DF80028CCD04FF0FF373846F8BD00BF48
:102C5C00183F0008383F0008F83E0008324B70B5AA
:102C6C001D6806460C4625B1AB6913B9284600F021
:102C7C0053F92E4B9C420FD16C68B4F90C309AB2BC
:102C8C0015072CD4D00611D40922326043F040032E
:102C9C00A3814FF0FF303EE0254B9C4201D1AC6844
:102CAC00EBE7244B9C4208BFEC68E6E7510712D5D2
:102CBC00616B41B104F14403994202D0304600F0FB
:102CCC0019FA00236363A38923F02403A38100234F
:102CDC00636023692360A38943F00803A3812369FC
:102CEC004BB9A38903F42073B3F5007F03D02146BD
:102CFC00304600F0BFF9A28912F001030CD000237A
:102D0C00A36063695B42A361236953B9B4F90C30C6
:102D1C0013F08000BAD170BD920758BF6369A360ED
:102D2C00F2E70020F7E700BF04000020183F00087E
:102D3C00383F0008F83E00088A892DE9F041054625
:102D4C0010070C4658D44B68002B05DC0B6C002B81
:102D5C0002DC0020BDE8F081E66A002EF9D00023E9
:102D6C0012F480522F68216A2B6032D0606DA389D7
:102D7C005A0705D56368C01A636B0BB1236CC01A74
:102D8C0000230246E66A216A2846B047431CA38901
:102D9C0006D129681D2948D8294ACA40D60744D5E6
:102DAC00002262602269D904226004D5421C01D140
:102DBC002B6803B96065616B2F600029C9D004F1E1
:102DCC004403994202D0284600F094F90020606335
:102DDC00C0E701232846B047411CC8D12B68002B03
:102DEC00C5D01D2B01D0162B01D12F60B1E7A389C3
:102DFC0043F04003A381ADE70F69002FA9D09307DF
:102E0C0018BF00230E6808BF4B69A6EB07080F60BC
:102E1C008B60B8F1000F9CDD43463A46216A284688
:102E2C00A66AB047002806DCA38943F04003A381BF
:102E3C004FF0FF308EE70744A8EB0008E9E700BF2E
:102E4C000100402038B50B6905460C46DBB118B1C2
:102E5C0083690BB900F060F80C4B9C4209D16C688B
:102E6C00B4F90C307BB121462846BDE83840FFF759
:102E7C0063BF074B9C4201D1AC68F1E7054B9C4208
:102E8C0008BFEC68ECE7002038BD00BF183F000815
:102E9C00383F0008F83E0008002310B50446C0E98E
:102EAC000033836081814366C281C0E9043383614E
:102EBC00194608225C30FFF7FBFD054B2462636268
:102ECC00044BA362044BE362044B236310BD00BFAD
:102EDC00F5370008173800084F3800087338000819
:102EEC00014900F085B800BF512E000870B5682567
:102EFC004A1E55430E4605F1740100F047F904468D
:102F0C0040B10021C0E900160C30A06005F1680248
:102F1C00FFF7CEFD204670BD836910B5044633BB68
:102F2C00C0E912330365124B124A1B688262984245
:102F3C0004BF0123836100F01FF86060204600F09D
:102F4C001BF8A060204600F017F80022E060042176
:102F5C006068FFF7A1FF01220921A068FFF79CFF21
:102F6C0002221221E068FFF797FF0123A36110BD35
:102F7C00F43E0008ED2E0008F8B51B4B07461E6802
:102F8C00B36913B93046FFF7C7FF4836D6E90134A9
:102F9C00013B03D5336833B13668F7E7B4F90C500D
:102FAC006DB16834F4E704213846FFF79FFF3060B9
:102FBC000028F1D10C2304463B602046F8BD0B4B96
:102FCC006566C4E90055A560C4E90335C4E9055537
:102FDC000822294604F15C00FFF76AFDC4E90D558F
:102FEC00C4E91255E9E700BFF43E00080100FFFFF9
:102FFC002DE9F84380468946002600F1480414B9AF
:10300C003046BDE8F883D4E90175013F01D5246849
:10301C00F5E7AB89012B07D9B5F90E30013303D095
:10302C0029464046C84706436835EEE770B50E465C
:10303C00B1F90E1096B0002914461D4607DA00238C
:10304C002B60B3891A0610D44FF480630EE06A46E5
:10305C0000F030FC0028F2DB019A02F47042A2F579
:10306C0000535A425A412A60EEE740230020236065
:10307C0016B070BD8B8973B59D0706460C4607D5F7
:10308C0004F14703236023610123636102B070BD27
:10309C0001AB6A46FFF7CAFF00990546304600F0BF
:1030AC0075F848B9B4F90C309A05EFD423F0030342
:1030BC0043F00203A381E3E70D4BB362A3892060C5
:1030CC0043F08003A381009B20616361019B5BB192
:1030DC00B4F90E10304600F0FFFB28B1A38923F0A1
:1030EC00030343F00103A381A3891D43A581CDE70D
:1030FC00ED2E000838B50546002943D051F8043CA4
:10310C000C1F002BB8BFE41800F016FC1E4A136805
:10311C00104633B9636014602846BDE8384000F0AF
:10312C000CBCA3420BD921686218934201BF1A68E8
:10313C005B685218226063600460EDE713465A68BE
:10314C000AB1A242FAD919685818A0420BD12068CA
:10315C000144581882421960DED11068526801444B
:10316C0019605A60D8E702D90C232B60D4E7206889
:10317C0021188A4201BF11685268091821606260E7
:10318C005C60C9E738BD00BF9000002070B5CD1C55
:10319C0025F0030508350C2D38BF0C25002D0646EF
:1031AC0001DBA94203D90C233360002070BD00F071
:1031BC00C3FB214A1468214691B9204C23681BB9E2
:1031CC00304600F001FB20602946304600F0FCFA46
:1031DC00431C24D10C233046336000F0AEFBE4E7F3
:1031EC000B685B1B18D40B2B0FD90B60CC18CD5074
:1031FC00304600F0A2FB04F10B00231D20F0070069
:10320C00C31AD3D05A42E250D0E74B688C4216BF57
:10321C00636013600C46EBE70C464968CCE7C41CB2
:10322C0024F00304A04205D0211A304600F0CCFA59
:10323C000130CFD02560DBE7900000209400002007
:10324C00936810B4013B002B936007DA9469A34296
:10325C0001DB0A2902D110BCFFF7AEBC1368581C65
:10326C0010601970084610BC7047F8B506460F463A
:10327C001446D518AC4201D1002007E03A4614F8A8
:10328C00011B3046FFF7DCFF431CF3D1F8BD0000F7
:10329C002DE9F04F9DB00C4617460393064618B126
:1032AC0083690BB9FFF738FE7B4B9C4257D174688E
:1032BC00A38918075DD52369002B5AD000230993E5
:1032CC0020238DF8293030234FF0010B8DF82A3054
:1032DC00B846454615F8013B0BB1252B54D1B8EB3C
:1032EC00070A0BD053463A4621463046FFF7BDFF3E
:1032FC00013000F0C280099B5344099398F80030C8
:10330C00002B00F0BA8000234FF0FF32CDE90523EB
:10331C00049307938DF853301A93A846052218F896
:10332C00011B5E4800F0FAFA049B78BBD90644BF37
:10333C0020228DF853201A0744BF2B228DF85320DE
:10334C002A782A2A2AD0A84600200A25079A41461C
:10335C0011F8013B303B092B69D960B324E0504B89
:10336C009C4201D1B468A3E74E4B9C4208BFF46861
:10337C009EE721463046FFF771FC00289ED04FF0A7
:10338C00FF301DB0BDE8F08FA846A2E7434A454682
:10339C00801A0BFA00F018430490BEE7039A111D33
:1033AC0012680391002A01DB079204E0524243F0B9
:1033BC0002030792049398F800302E2B0ED198F844
:1033CC0001302A2B38D1039B08F102081A1D1B6807
:1033DC000392002BB8BF4FF0FF330593324D0322FD
:1033EC0098F80010284600F099FA40B14023401B91
:1033FC0003FA00F0049B08F101080343049398F8C6
:10340C0000100622294808F101078DF8281000F059
:10341C0085FA002837D0264B1BBB039B073323F0C0
:10342C00070308330393099B4B44099350E705FBAF
:10343C000232012088468AE700230A25194608F142
:10344C0001080593404610F8012B303A092A03D99C
:10345C00002BC3D00591C1E705FB01210123804658
:10346C00F0E703AB00932246124B04A93046AFF3AE
:10347C000080B0F1FF3F8146D5D1A3895B063FF5B3
:10348C007EAF09987DE703AB00932246094B04A954
:10349C00304600F087F8ECE7183F0008583F00086A
:1034AC00383F0008F83E00085E3F0008623F000805
:1034BC0000000000773200082DE9F04791461F46C6
:1034CC008A680B6906469342B8BF1346C9F80030A8
:1034DC0091F843200C46DDF8208012B10133C9F875
:1034EC0000302368990642BFD9F800300233C9F87E
:1034FC000030256815F0060507D104F1190AE368B8
:10350C00D9F800209B1AAB4229DC94F8433022688E
:10351C00003318BF012392062ED404F1430239461E
:10352C003046C047013021D02368E56803F006031C
:10353C00042B18BF0025D9F800204FF0000908BF54
:10354C00AD1AA368226908BF25EAE5759342C4BF8A
:10355C009B1AED181A344D451AD1002008E00123AE
:10356C00524639463046C047013003D14FF0FF3048
:10357C00BDE8F0870135C2E73020E11881F843003F
:10358C005A1C94F845102244023382F84310C4E7C5
:10359C000123224639463046C0470130E6D009F1B6
:1035AC000109D8E72DE9F04301F1430C0C46097EE3
:1035BC0085B06E291746064698460C9A00F0B380E3
:1035CC0022D8632936D00AD8002900F0B9805829AE
:1035DC0000F0838004F1420584F8421032E0642943
:1035EC0001D06929F6D120681368050603F104019E
:1035FC002AD51B681160002B03DA2D225B4284F85C
:10360C0043206F480A2239E0732900F09D8008D8C6
:10361C006F2920D07029DDD1236843F0200323606B
:10362C0003E0752917D07829D4D17823654884F81C
:10363C00453055E0136804F14205191D1B681160F3
:10364C0084F8423001238CE01B6810F0400F1160AD
:10365C0018BF1BB2CFE713682568181D1060280629
:10366C0001D51B6802E06806FBD51B886F2914BFC7
:10367C000A2208225248002184F843106568002D64
:10368C00A560C0F29580216821F004012160002B17
:10369C003DD1002D40F08E806546082A0BD1236861
:1036AC00DB0708D5236962689A42DEBF302305F830
:1036BC00013C05F1FF35ACEB05032361CDF800802F
:1036CC003B4603AA21463046FFF7F6FE01304DD1AA
:1036DC004FF0FF3005B0BDE8F083394884F8451051
:1036EC00136821681D1D1B6815600A060BD5CA07D7
:1036FC0044BF41F0200121601BB9226822F0200256
:10370C0022601022B7E74D0648BF9BB2EFE7654633
:10371C00B3FBF2F102FB1133C35C05F8013D0B4620
:10372C000029F5D1B9E713682568181D6169106087
:10373C0028061B6801D5196002E06A06FBD51980C2
:10374C00002365462361B9E71368191D11601D68D4
:10375C0062680021284600F0E1F808B1401B606067
:10376C0063682361002384F84330A7E723692A4662
:10377C0039463046C0470130AAD023689B0713D482
:10378C00E068039B9842B8BF1846A3E701234A465A
:10379C0039463046C04701309AD00135E368039A68
:1037AC009B1AAB42F2DCEBE7002504F11909F5E7B3
:1037BC00002BACD1037804F1420584F842306CE75D
:1037CC00693F00087A3F000838B50023054C0546D0
:1037DC0008462360FEF758FD431C02D1236803B151
:1037EC002B6038BD3001002010B50C46B1F90E101D
:1037FC0000F0A4F80028ABBF636DA3891B1823F459
:10380C008053ACBF6365A38110BD2DE9F0411F4609
:10381C008B890546DB050C46164605D5022300228E
:10382C00B1F90E1000F068F8A389324623F48053E6
:10383C00A381B4F90E103B462846BDE8F04100F0D8
:10384C0017B810B50C46B1F90E1000F055F8431C22
:10385C00A38915BF606523F4805343F48053A3817F
:10386C0018BFA38110BDB1F90E1000F013B8000001
:10387C0038B50546084611460022054C22601A460A
:10388C00FEF7F4FC431C02D1236803B12B6038BD56
:10389C003001002038B50023054C0546084623604E
:1038AC00FEF710FD431C02D1236803B12B6038BD19
:1038BC003001002038B50023064C05460846114659
:1038CC002360FEF702FD431C02D1236803B12B6079
:1038DC0038BD00BF3001002038B50023054C05462B
:1038EC0008462360FEF7F6FC431C02D1236803B1A3
:1038FC002B6038BD3001002038B50546084611460E
:10390C000022054C22601A46FEF7E6FC431C02D14D
:10391C00236803B12B6038BD3001002010B5C9B24B
:10392C0002449042034601D1002303E01C7801308D
:10393C008C42F6D1184610BD7047704738B5054615
:10394C00084611460022054C22601A46FEF780FC00
:10395C00431C02D1236803B12B6038BD3001002019
:10396C00F8B500BFF8BC08BC9E467047F8B500BF60
:08397C00F8BC08BC9E46704730
:10398400030406080C10182030000000000000009A
:1039940000000000010203040607080900000000FB
:1039A400010203044558544931355F31305F4952AF
:1039B4005148616E646C65723A2053776974636828
:1039C400207472616E736974696F6E207365656EBD
:1039D400206F6E2070696E203078253034780D0A9F
:1039E400000000002E2E2F5372632F6D61696E2E1E
:1039F4006300000052616B383131204C4953334429
:103A04004820616363656C65726F6D6574657220CF
:103A140064656D6F2070726F6772616D0D000000D8
:103A24006D61696E3A206C69733364682061636305
:103A3400656C65726F6D657465722073756363651B
:103A4400737366756C6C7920696E697469616C69ED
:103A54007A65640D000000006D61696E3A20436F61
:103A6400756C64206E6F74207365742073616D705F
:103A74006C696E67207261746520746F2031204810
:103A84007A0D00006D61696E3A2053616D706C6946
:103A94006E67207261746520737563636573736602
:103AA400756C6C792073657420746F203120487AAA
:103AB4000D0000006D61696E3A204572726F7220CC
:103AC4007768656E2072656164696E6720746865E5
:103AD4002073746174757320726567697374657299
:103AE4000D0000006D61696E3A2053746174757342
:103AF40020526567206265666F7265206163636545
:103B04006C65726174696F6E20726561646F75743F
:103B14003A203078253032780D0A00006D61696EE4
:103B24003A204572726F72207768656E2072656103
:103B340064696E6720616363656C65726174696F43
:103B44006E2076616C7565730D0000006D61696EA1
:103B54003A2041636358203A2025642C2041636352
:103B6400593A2025642C204163635A3A2025640D78
:103B74000A0000006D61696E3A204572726F72200E
:103B84007768656E2072656164696E6720636F6E25
:103B940074726F6C20726567697374657220340D7A
:103BA400000000006D61696E3A2072656769737484
:103BB4006572203420636F6E74656E743A203078B9
:103BC400253032780D0A00006D61696E3A20424456
:103BD400552062697420636F72726563746C792016
:103BE40073657420696E20636F6E74726F6C2072DB
:103BF4006567697374657220340D00006D61696EC8
:103C04003A2042445520626974206973204E4F540F
:103C14002073657420696E20636F6E74726F6C20FC
:103C2400726567697374657220340D006D61696E25
:103C34003A2074656D7020636667207265676973E6
:103C440074657220636F6E74656E743A20307825E3
:103C54003032780D0A0000006D61696E3A204144EB
:103C64004320656E61626C652062697420636F72C3
:103C7400726563746C792073657420696E20746551
:103C84006D70206366672072656769737465720D71
:103C9400000000006D61696E3A2041444320656E66
:103CA40061626C6520626974206973204E4F5420F0
:103CB40073657420696E2074656D70206366672077
:103CC40072656769737465720D0000006D61696ED9
:103CD4003A2074656D706572617475726520656EE5
:103CE40061626C652062697420636F7272656374CB
:103CF4006C792073657420696E2074656D7020631F
:103D040066672072656769737465720D0000000050
:103D14006D61696E3A2074656D7065726174757257
:103D24006520656E61626C65206269742069732028
:103D34004E4F542073657420696E2074656D702035
:103D44006366672072656769737465720D000000AD
:103D54006D61696E3A204572726F72207768656E84
:103D64002072656164696E67207261772074656D85
:103D740070657261747572650D0000006D61696E25
:103D84003A2074656D70657261747572653A2025A8
:103D9400303264206465677265657320430D0A00E0
:103DA4004C4953334448206E6F2061636B0D00000F
:103DB4004C49533344485F53657454656D70657260
:103DC40061747572653A204572726F722072656112
:103DD40064696E67204C49533344485F54454D50E1
:103DE4005F4346472072656769737465720D00000E
:103DF4004C49533344485F47657454656D70526150
:103E0400773A204572726F722072656164696E67D9
:103E1400204C49533344485F4F55545F335F4C0D36
:103E2400000000004C49533344485F4765745465AF
:103E34006D705261773A204572726F7220726561BB
:103E440064696E67204C49533344485F4F55545F4F
:103E5400335F480D000000004C49533344485F472A
:103E6400657454656D705261773A2076616C75653E
:103E7400483A3078253032782C2076616C75654C60
:103E84003A203078253032780D0A00004C495333FB
:103E940044485F47657454656D705261773A207683
:103EA400616C7565483A25642C2076616C75654CA7
:103EB4003A2025640D0A00004C49533344482069D4
:103EC40073206E6F7420666F756E64210D000000A0
:103ED4004D6F766520446574656374656420494E4E
:103EE4005431207372633A3078253032780D0A00E9
:103EF4000800002000000000000000000000000096
:103F040000000000000000000000000000000000AD
:103F1400000000000000000000000000000000009D
:103F2400000000000000000000000000000000008D
:103F3400000000000000000000000000000000007D
:103F4400000000000000000000000000000000006D
:103F540000000000232D302B2000686C4C006566A7
:103F640067454647003031323334353637383941C6
:103F740042434445460030313233343536373839DC
:083F84006162636465660000E0
:043F8C0061010008C7
:043F90003D010008E7
:103F940068FF1F000800002000000000183F000810
:103FA400383F0008F83E0008000000000000000050
:103FB40000000000000000000000000000000000FD
:103FC40000000000000000000000000000000000ED
:103FD40000000000000000000000000000000000DD
:103FE40000000000000000000000000000000000CD
:083FF4000000000000000000C5
:0400000508002A1DA8
:00000001FF
