:020000040800F2
:1000000000400020ED200008B91F0008BD1F0008B7
:10001000C11F0008C51F0008C91F0008000000001C
:10002000000000000000000000000000CD1F0008DC
:10003000D11F000800000000D51F0008D91F0008CC
:100040003521000835210008352100083521000838
:100050003521000835210008352100083521000828
:100060003521000835210008352100083521000818
:100070003521000835210008352100083521000808
:1000800035210008352100083521000835210008F8
:1000900035210008352100083521000835210008E8
:1000A0000000000035210008352100083521000836
:1000B00035210008352100083521000835210008C8
:1000C00035210008352100083521000835210008B8
:1000D00035210008352100083521000835210008A8
:1000E0003521000835210008352100083521000898
:1000F00035210008000000000000000000000000A2
:1001000000000000000000000000000000000000EF
:1001100000000000000000000000000000000000DF
:1001200000000000000000000000000000000000CF
:0C01300000000000000000005FF808F173
:10013C0010B5054C237833B9044B13B10448AFF315
:10014C0000800123237010BD680000200000000017
:10015C003C30000808B5034B1BB103490348AFF30F
:10016C00008008BD000000006C0000203C3000083E
:10017C0010B50446074A084B1068A3FB00308009F1
:10018C0000F0FCF9214600224FF0FF3000F0C0F9DE
:10019C00002010BD00000020D34D621008B50320D4
:1001AC0000F0A4F90020FFF7E3FF01F019FE002096
:1001BC0008BD00BF024A136801331360704700BFCB
:1001CC0094000020014B1868704700BF9400002079
:1001DC0010B582B00190FFF7F5FF0446FFF7F2FF70
:1001EC00019B001B9842F9D302B010BD002800F00F
:1001FC00A480F0B5C36C83B00446002B6BD0E36CC9
:10020C00D80665D4E36C5B4A23F4885323F00203CD
:10021C0043F00203E3645368616823F440330B43F7
:10022C0053604FF4007090FAA0F00222B0FA80F004
:10023C00666A92FAA2F2B2FA82F26369E168E56B3D
:10024C001943236A05FA00F00B43616B06FA02F2BC
:10025C000343102943EA020302D0A26B11430B4360
:10026C00226820691168490613D4A769A568E16959
:10027C00B0F5807F43EA070345EA01055FD001280A
:10028C005DD0E16A01295DD056683B493140294374
:10029C00516095683949B0F5807F01EA050141EA62
:1002AC00030191602AD0012828D0116B21F0F8713C
:1002BC0011639168324A0A409A4232D1002020657B
:1002CC00E36C23F0030343F00103E36403B0F0BDDC
:1002DC00012003B0F0BD2B4A0365116A80F8483049
:1002EC0041F001011162136A03F001030193019BB8
:1002FC0001F0D0FDE36CD806EAD483E7156B4FF020
:10030C00F87191FAA1F1B1FA81F0A16A25F0F875B2
:10031C0001398140294311639168194A0A409A4274
:10032C00CCD00120E36C23F0120343F01003E36400
:10033C00236D0343236503B0F0BD0120704745F4E2
:10034C0080759EE76EB94FF4604696FAA6F6B6FA3B
:10035C0086F7266B45F40061013EBE4046EA010576
:10036C0092E7E16C41F02001E164216D41F0010163
:10037C00216589E700270140FF16FCFC8DF1FFC0C9
:10038C00FEFF80BF00380240002270B490F8483065
:10039C0083B0012B019200F0948001234D68046816
:1003AC00062D80F848300A6805EB85034FF01F06D0
:1003BC0022D90C2D5BD8233BE56B9E4025EA060524
:1003CC0002FA03F32B43E363092A20D80725896833
:1003DC0002EB42066369B540B14023EA05030B43C7
:1003EC006361A2F11003012B23D9002380F848305C
:1003FC00184603B070BC7047053B256C9E4025EA3F
:10040C00060502FA03F32B43092A2364DED9132AC7
:10041C003BD8072602EB42038D681E3B21699E40A8
:10042C009D4021EA06032B432361A2F11003012B0B
:10043C00DBD82B4B59680902D7D45968102A41F4E0
:10044C0000015960D1D1274B274A1B68A2FB03231B
:10045C009B0C03EB83035B000193019B002BC4D02B
:10046C00019B013B0193019B002BF9D1BDE7122DA0
:10047C001DD9182D29D85F3B656B9E4025EA0605D2
:10048C0002FA03F32B4363639EE71A2A0CD8072660
:10049C0002EB42038D683C3BE1689E409D4021EAA3
:1004AC0006032B43E3609CE700BF0A6899E7413BD6
:1004BC00A56B9E4025EA060502FA03F32B43A363C2
:1004CC0082E7022003B070BC70477D3B256B9E40D9
:1004DC0025EA060502FA03F32B43236374E700BFF6
:1004EC00002701400000002083DE1B434FF6FF0174
:1004FC00064A0002D36800F4E0600B4043F0BF638F
:10050C0043F400330343D360704700BF00ED00E0B9
:10051C00184B30B4DB68C3F30223C3F10705042D79
:10052C0003F1040428BF0425062C19D94FF0FF341D
:10053C00033B9C4022EA04044FF0FF32AA4021EA1C
:10054C00020101FA03F2224312010028D2B20ADBA3
:10055C0000F1604000F5614080F8002330BC70472A
:10056C0000242346E8E7044B00F00F0003441A76FE
:10057C0030BC704700ED00E0FCEC00E00138B0F15D
:10058C00807F0DD230B4F02500220721054B064C9C
:10059C00586084F82350104630BC9A60196070473C
:1005AC000120704710E000E000ED00E0044A042850
:1005BC0013680CBF43F0040323F00403136070476B
:1005CC0010E000E0704700BF08B5FFF7FBFF08BD67
:1005DC002DE9F04FD1F800E083B0BEF1000F00F030
:1005EC00828088460025DFF8A091012303FA05F2EA
:1005FC0012EA0E0673D00323D8F804106F0021F012
:10060C00100CBB40BCF1020F6FEA03036ED0D0F8A4
:10061C0000A001F0030403EA0A0ABC400CF1FF3C01
:10062C0044EA0A04BCF1010F046040F28180C46802
:10063C00D8F808202340BA401A43CF00C2604ED5E8
:10064C000F274C4C25F00303226A03F1804342F040
:10065C0001022262226A03F5803302F00102019248
:10066C0005F00302019C92009C68974024EA070461
:10067C00414FB84211D007F58067B84270D03F4F58
:10068C00B84268D03E4FB8426FD03E4FB8420CBF14
:10069C000427052707FA02F21443F2439C60D9F8A9
:1006AC000030CC0354BF13403343C9F80030D9F8A1
:1006BC0004308F0354BF13403343C9F80430D9F8C6
:1006CC000830CC0254BF13403343C9F80830D9F872
:1006DC000C30890254BF13403343C9F80C30013538
:1006EC003EFA05F381D103B0BDE8F08F4FF00F0B4C
:1006FC004FEAD50A00EB8A0A05F0070CDAF820401D
:10070C004FEA8C0C0BFA0CFB24EA0B0BD8F81040BC
:10071C0004FA0CF444EA0B04CAF82040D0F800C0E8
:10072C0001F0030403EA0C0CBC4044EA0C04046022
:10073C00846804EA030CD8F80C40BC4044EA0C046E
:10074C008460D0F804C0C1F300142CEA0202AC405F
:10075C00144344606BE7022707FA02F214439CE748
:10076C00012707FA02F2144397E7032707FA02F26C
:10077C00144392E700380240000002400008024097
:10078C00000C0240001002400004014002B90904B0
:10079C00816170471B4910B40A68046822F0E002BA
:1007AC00194B22430A605A6822F480325A601A6844
:1007BC0022F480321A609A6822F480329A60DA68E5
:1007CC0022F48032DA604268D40303D5196841F40C
:1007DC0080311960900304D50B494B6843F4803386
:1007EC004B60D10704D508498B6843F480338B6088
:1007FC00930704D5044AD36843F48033D36010BC08
:10080C00704700BF0070004000040140102393FAB1
:10081C00A3F3B3FA83F301229B0003F1844303F5A2
:10082C0060231A60704700BF2DE9F043036885B060
:10083C00DE0704463BD5C3498A6802F00C02082A3D
:10084C0000F01C818A6802F00C020C2A00F0128164
:10085C006368012B00F01482002B00F09682052BAC
:10086C00B84B1A6800F0AC8322F480321A601A6814
:10087C0022F480221A60FFF7A5FC4FF400380746DB
:10088C00B04E012505E0FFF79DFCC01B642800F26B
:10089C00788298FAA8F3326898FAA8F3B3FA83F33B
:1008AC0003F01F0305FA03F31342ECD023689807F7
:1008BC0043D5A4498A6802F00C02042A00F0EA81AC
:1008CC008A6802F00C020C2A00F0E081E268012533
:1008DC00002A00F0AF8195FAA5F3B3FA83F303F184
:1008EC00845303F58E139B001D60FFF76BFC4FF0D8
:1008FC0002080746934E05E0FFF764FCC01B022874
:10090C0000F23F8298FAA8F3326898FAA8F3B3FA87
:10091C0083F303F01F0305FA03F31342ECD0716861
:10092C004FF4F85393FAA3F3B3FA83F2236921F447
:10093C00F85193400B4373602368DA0655D41D07B6
:10094C0028D56269002A00F05181012292FAA2F1A5
:10095C00B1FA81F17C4B16460B449B001A60FFF7F1
:10096C0031FC4FF002080746764D05E0FFF72AFCF4
:10097C00C01B022800F2058298FAA8F36A6B98FA59
:10098C00A8F3B3FA83F303F01F0306FA03F313423D
:10099C00ECD02368580740F1B5806A4B5A6AD100F5
:1009AC0000F117824FF001085A6A42F080525A62E5
:1009BC005B6A03F080530193019B644B1A68D20568
:1009CC0040F1CE81A368012B72D0002B00F029825C
:1009DC00052B5C4B5A6B00F0948222F480725A63A4
:1009EC005A6B22F480625A6367E0564DAB6813F081
:1009FC000C0F00F0C480A2694FF48073002A00F041
:100A0C00EB8193FAA3F3B3FA83F3012603F1845336
:100A1C0003F58E139B001E60FFF7D4FB4FF4007898
:100A2C00074605E0FFF7CEFBC01B022800F2A981A8
:100A3C0098FAA8F32A6898FAA8F3B3FA83F303F0A8
:100A4C001F0306FA03F31342ECD06B68226A23F4FB
:100A5C00604313436B6069684FF07F4393FAA3F3D1
:100A6C00B3FA83F2E36921F07F4193400B436B604F
:100A7C00236864E78A68D5037FF5EAAE4FF4003249
:100A8C0092FAA2F12F49086892FAA2F2B2FA82F213
:100A9C00012102F01F0201FA02F202423FF407AFF9
:100AAC006268002A7FF403AF012005B0BDE8F08333
:100ABC00244A536B43F480735363FFF783FB4FF467
:100ACC00007907461F4E012507E0FFF77BFB41F23B
:100ADC008833C01B984200F2548199FAA9F3726BC7
:100AEC0099FAA9F3B3FA83F303F01F0305FA03F39E
:100AFC001342EAD0B8F1000F04D0124A536A23F023
:100B0C0080535362636AB3B30E4DAA6802F00C02B1
:100B1C000C2AC9D0022B4FF0807300F0FA8193FAA3
:100B2C00A3F3B3FA83F3002203F1845303F58E137A
:100B3C009B001A60FFF746FB2C4607464FF00075EA
:100B4C0001260BE000380240A0C19110007000405B
:100B5C00FFF738FBC01B022800F2138195FAA5F3AE
:100B6C00226895FAA5F3B3FA83F303F01F0306FA90
:100B7C0003F31342ECD1002005B0BDE8F0834FF431
:100B8C00007393FAA3F2296893FAA3F3B3FA83F3ED
:100B9C00012203F01F0302FA03F30B4202D0A369F4
:100BAC00002B81D0B44B226A596801F460418A420F
:100BBC0040F26E81996811F0F00F40F09180596A03
:100BCC00CF0040F11782AD4B196801F4C051B1F55B
:100BDC00C05F40F08580B2F5404F40F08180A8495D
:100BEC0001200B6843F004030B607AE0012595FAB1
:100BFC00A5F1B1FA81F1A34B4FF002080B449B0015
:100C0C001A60FFF7DFFA9C4E074605E0FFF7DAFAA9
:100C1C00C01B022800F2B58098FAA8F3726B98FA00
:100C2C00A8F3B3FA83F303F01F0305FA03F313429B
:100C3C00ECD1AEE695FAA5F3B3FA83F303F1845342
:100C4C0003F58E139B001A60FFF7BCFA4FF00208F5
:100C5C000746894E05E0FFF7B5FAC01B022800F2E3
:100C6C00908098FAA8F3326898FAA8F3B3FA83F351
:100C7C0003F01F0305FA03F31342ECD123685CE67F
:100C8C007D4A136843F480331360F4E58A68D1031A
:100C9C003FF51CAE022292FAA2F17749086892FA4B
:100CAC00A2F2B2FA82F2012102F01F0201FA02F260
:100CBC00024203D0E2688A427FF4F6AE6E4D4FF4E6
:100CCC00F852686892FAA2F2B2FA82F1226920F420
:100CDC00F8508A4002436A60DA067FF530AE84E64B
:100CEC00002067490B6823F0010303430B600B687A
:100CFC0003F0010398427FF4D7AE5F484FF07F4377
:100D0C00416821F4604111434160456893FAA3F3B3
:100D1C00B3FA83F1E36925F07F458B402B434360A5
:100D2C004FF4604090FAA0F0534BB0FA80F0996801
:100D3C00F02595FAA5F5B5FA85F54FF4004301F0C9
:100D4C00F001E940504DC240695C013203FA02F2F5
:100D5C004E4BCA4000201A60FFF70AFA2368EEE5F2
:100D6C001A681D4642F480721A60FFF72BFA064689
:100D7C002B68DB053FF526AEFFF724FA801B6428B1
:100D8C00F6D9032005B0BDE8F0833B4B4FF4003897
:100D9C001A681E4622F480321A601A68012522F461
:100DAC0080221A60FFF70EFA074604E0FFF70AFAF2
:100DBC00C01B6428E5D898FAA8F3326898FAA8F30F
:100DCC00B3FA83F303F01F0305FA03F31342EDD1D7
:100DDC006CE54FF00008F0E593FAA3F3B3FA83F354
:100DEC0003F1845303F58E139B001A60FFF7EAF9A5
:100DFC004FF400780746012604E0FFF7E3F9C01B27
:100E0C000228BED898FAA8F32A6898FAA8F3B3FA7D
:100E1C0083F303F01F0306FA03F31342EDD12368A7
:100E2C008DE5154B4FF400795A6B1E4622F48072F7
:100E3C005A635A6B012522F480625A63FFF7C2F998
:100E4C00074606E0FFF7BEF941F28833C01B984213
:100E5C0097D899FAA9F3726B99FAA9F3B3FA83F3B9
:100E6C0003F01F0305FA03F31342EBD1B8F1000FA3
:100E7C003FF448AE41E600BF00380240007000402D
:100E8C00003C0240A0C1911060300008000000201E
:100E9C0058684FF07F4120F46040104358605D6803
:100EAC0091FAA1F1B1FA81F0E16925F07F45814019
:100EBC0029435960996811F0F00F14D1596ACE008A
:100ECC0040F18680544B196801F4C051B1F5C05FF4
:100EDC0009D1B2F5404F06D1504901200B6843F0BF
:100EEC0004030B6000E000204C490B6823F0010365
:100EFC0003430B600B6803F0010398427FF4D4ADFD
:100F0C000EE742F480625A635A6B42F480725A6361
:100F1C00D3E593FAA3F3B3FA83F3002203F18453DA
:100F2C0003F58E139B001A60FFF74CF94FF0007815
:100F3C000746012605E0FFF745F9C01B02283FF6DE
:100F4C0020AF98FAA8F32A6898FAA8F3B3FA83F3B7
:100F5C0003F01F0306FA03F31342ECD1AA68D4E999
:100F6C000A3122F47D020B43216B13430B43AB601C
:100F7C004FF0807393FAA3F3B3FA83F303F1845322
:100F8C0003F58E139B001E60FFF71CF94FF00074E5
:100F9C000746234E012505E0FFF714F9C01B022874
:100FAC003FF6EFAE94FAA4F3326894FAA4F3B3FAD2
:100FBC0083F303F01F0305FA03F31342ECD0DAE5D5
:100FCC0042F480221A601A6842F480321A6052E4A9
:100FDC00596A114841F080515962596A01F08051A7
:100FEC00039103990168586A01F4C05120F08050B4
:100FFC0058626BE7596A084841F080515962596A46
:10100C0001F08051029102990168586A01F4C051B3
:10101C0020F080505862DAE500700040003C02403D
:10102C0000380240894A136803F001038B420FD247
:10103C00012900F0AF80854A136823F001030B43AC
:10104C001360136803F001038B4201D00120704739
:10105C0003682DE9F0419A0706D57D4C8568A26896
:10106C0022F0F0022A43A260DF0705460E4637D570
:10107C004368022B00F0E080032B00F0DA80012B98
:10108C0076D04FF4007292FAA2F17149086892FA84
:10109C00A2F2B2FA82F2012102F01F0201FA02F26C
:1010AC00024274D06A4C41F28838A26822F00302E2
:1010BC001343A360FFF786F86B680746022B7CD0BE
:1010CC00032B00F08580012B06D18CE0FFF77AF81A
:1010DC00C01B404500F2B380A36813F00C0FF5D190
:1010EC005A4A136803F00103B34206D9136823F07C
:1010FC00010313601368D80749D42B685C0706D525
:10110C005349E8688A6822F4E06202438A6019074E
:10111C0045D44F498B6803F00C02082A00F09380E9
:10112C000C2A66D0042A00F08C804A684FF4604187
:10113C0091FAA1F1B1FA81F14FF4004302F460424B
:10114C00CA4001329340424AF021926891FAA1F1CF
:10115C00B1FA81F13F4802F0F002CA40815C3E4A8C
:10116C00CB4000201360FFF703F80020BDE8F081AE
:10117C00022292FAA2F13649096892FAA2F2B2FA64
:10118C0082F202F01F0203FA02F20A428AD1012013
:10119C00BDE8F081136843F0040313604BE72C4A5D
:1011AC002969936823F4605343EAC1039360B0E761
:1011BC00FFF708F8C01B404541D8A36803F00C03A7
:1011CC00082BF5D18CE7FEF7FDFFC01B404536D848
:1011DC00A36803F00C030C2BF5D181E7FEF7F2FFAB
:1011EC00C01B40452BD8A36803F00C03042BF5D18E
:1011FC0076E74FF4701292FAA2F2B2FA82F203F48A
:10120C007010164C20FA02F2A05C4FF4400292FAD5
:10121C00A2F2B2FA82F2896803F44003D340CA0303
:10122C004CBF0F4A0F4A013302FB00F2B2FBF3F33F
:10123C0089E74FF0007226E74FF4003223E70320D2
:10124C00A6E7084B7FE7064B7DE700BF003C02405A
:10125C0000380240603000080000002054300008C4
:10126C0000366E010024F400014B1868704700BF73
:10127C0000000020084B4FF4E0629B6892FAA2F247
:10128C00B2FA82F20548064903F4E063D340C35C2A
:10129C000868D840704700BF003802407030000822
:1012AC0000000020084B4FF460529B6892FAA2F2A7
:1012BC00B2FA82F20548064903F46053D340C35C8A
:1012CC000868D840704700BF0038024070300008F2
:1012DC00000000200368DB0749D52DE9F043594B8A
:1012EC0083B05A6AD10021D5574B00251A680446A1
:1012FC00D2052AD553486168036801F0C04603F053
:10130C00C0439E4201F4403246D0B2F5403F30D04B
:10131C00436B13F4403374D14A494B6B1A434A6301
:10132C00002D66D1002003B0BDE8F0835A6A012578
:10133C0042F080525A625B6A044603F08053019378
:10134C00019B414B1A68D205D4D41A681E4642F44C
:10135C0080721A60FEF736FF07463368DB05C9D486
:10136C00FEF730FFC01B6428F7D90320DBE7002011
:10137C00704703689F0363D4436B13F4403302D06C
:10138C00B3F5403F0ED12F494FF440320B6823F098
:10139C00C0431E430E60BFE7436B13F4403322D0AF
:1013AC00934220D02368D8071DD5264E4FF4000356
:1013BC00716B21F4403093FAA3F2B2FA82F2012756
:1013CC00DFF888C062449200176093FAA3F3B3FA73
:1013DC0083F3002263449B001A60CB05706313D423
:1013EC00616801F44032B2F5403F95D101F0C0463E
:1013FC00C9E700204B6A23F080534B6203B0BDE871
:10140C00F083934288D0CDE7FEF7DCFE4FF40079F1
:10141C00804607E0FEF7D6FE41F28833A0EB0800C9
:10142C009842A2D899FAA9F3726B99FAA9F3B3FA74
:10143C0083F303F01F0307FA03F31342EAD0CFE759
:10144C00012070E70038024000700040A0C19110EC
:10145C00002854D0437F70B503F0FF020446002BE4
:10146C0042D0CA21532202202368607759625A6203
:10147C00DA68510626D5FF2601259968206962682D
:10148C0021F4E00121F04001996002436069996800
:10149C0002430A43E1689A6019611A69A168A0695C
:1014AC0042EA01421A61D96821F08001D960196CB5
:1014BC0021F4802119641A6C02431A6400205E62C4
:1014CC00657770BD4FF0FF32DA60FEF77BFE0546A4
:1014DC0005E0FEF777FE401BB0F57A7F08D823684D
:1014EC00DA685206F5D5C6E7027700F0E9FCB8E7F2
:1014FC00FF210423226801205162637770BD012013
:10150C00704700BF037F012B00F0A4802DE9F04150
:10151C0002230E4601210546017743770168002A14
:10152C003AD08B68707813F04003347818BFF37896
:10153C004FEA0020B27840EA044018BF1B0440EA8E
:10154C00020008BFF37040EA03045323CA224A6224
:10155C004B62CB685B0658D504F07F3424F0FE4414
:10156C000C608A68736822F480228A60B0688A688A
:10157C00034313438B60CB68284623F08003CB6076
:10158C0000F0FCF800285BD1FF2101232A6851628E
:10159C0028776B77BDE8F0818F68307817F04007BB
:1015AC0016BFF778F7703F0409284FF0000407D9ED
:1015BC000A38C0B2092804F10104F9D82401E4B2B4
:1015CC0073782043092B4FEA004447D900200A3B8B
:1015DC00DBB2092B00F10100F9D800015FFA80FCA5
:1015EC00B07843EA0C0309284FEA032334D90A38AC
:1015FC00C0B2092802F10102F9D81201D2B23C435F
:10160C002343104343EA00049FE74FF0FF33CB60C2
:10161C00FEF7D8FD07462968CB6813F040089BD12C
:10162C00FEF7D0FDC01BB0F57A7FF4D9FF2104235F
:10163C002A680120516285F81C806B77BDE8F08127
:10164C00FF2404220023296801204C626A772B773F
:10165C00BDE8F081022070470022D0E74FF0000C6B
:10166C00BEE700BFF8B5037F012B00F08380054671
:10167C00022301206B7728770E78487876038C78D4
:10168C00CB78A2BBC70604D520F010000A30C0B23C
:10169C004870092B4FF0000107D90A3BDBB2092B2C
:1016AC0001F10101F9D80901C9B20B4309284FEA2C
:1016BC0003434FF0000107D90A38C0B2092801F1E1
:1016CC000101F9D80901C9B20843092C4FEA0021DC
:1016DC0052D90A3CE4B2092C02F10102F9D81201E8
:1016EC00D2B243EA060008431443044304E046EA3A
:1016FC0003431C4344EA00245322CA212B68596239
:10170C005A62DA68520613D524F07F4424F0C004E0
:10171C005C60DA68284622F08002DA6000F02EF86D
:10172C00F8B9FF2101232A68516228776B77F8BD3D
:10173C004FF0FF32DA60FEF745FD06462B68DF6896
:10174C0017F04007E0D1FEF73DFD801BB0F57A7F26
:10175C00F4D9FF2104232A68012051622F776B777B
:10176C00F8BDFF2404220023296801204C626A770B
:10177C002B77F8BD0220F8BD0022B2E7026838B51D
:10178C00D368044623F0A003D360FEF71BFD054687
:10179C0005E0FEF717FD401BB0F57A7F05D82368EE
:1017AC00DB689B06F5D5002038BD032038BD00BF93
:1017BC00037F012B1DD00222F0B44FF0CA0C53272B
:1017CC000024FF260125036842779A68C3F824C0D9
:1017DC0022F4006222F008020A435F629A609A685F
:1017EC0042F400629A605E62457704772046F0BC52
:1017FC007047022318467047002836D0F8B590F889
:10180C005130044603F0FF0253B3D4E901320220F5
:10181C0000210125E66813432269334366691343AB
:10182C00E2693343266A13433343A269A66A84F8F8
:10183C0051002068334302F4007633430668676A2C
:10184C0026F04006120C066002F004020360E36A04
:10185C003A43426003616165084684F85150F8BD13
:10186C0080F8502000F054FBCFE70120704700BFF8
:10187C00002800F0F7802DE9F84390F83930044641
:10188C0003F0FF02002B00F0E8800222236884F8AA
:10189C003920DA68E06822F40052DA601969A2682B
:1018AC0021F44051014319612069D96865690243EB
:1018BC00E06921F416412A4321F00C0102430A434A
:1018CC00DA605A69A16922F440720A43B0F5004FFC
:1018DC005A61A34A6AD0934200F00481FFF7CAFC14
:1018EC00636800EB800000EB80009B00B0FBF3F31F
:1018FC009C4F4FF06408A7FB03235B091D01FFF706
:10190C00B9FC666800EB800000EB8000B600B0FB11
:10191C00F6F6FFF7AFFC626800EB8000930000EB7B
:10192C008000B0FBF3F3A7FB03235B0908FB1363F5
:10193C001B013233A7FB03235B0903F0F006FFF70F
:10194C0099FC626800EB800000EB80009300B0FB18
:10195C00F3F9FFF78FFC626800EB8000930000EB5B
:10196C008000B0FBF3F3A7FB03235B0908FB139385
:10197C001B013233A7FB0323C3F343133343226806
:10198C002B449360002101251369084623F49043EE
:10199C001361536923F02A035361D36843F4005352
:1019AC00D360E16384F83950BDE8F88393425BD08F
:1019BC00FFF760FC636800EB800000EB80005B00CD
:1019CC00B0FBF3F3674F4FF06408A7FB03235B09ED
:1019DC001E01FFF74FFC656800EB800000EB8000F8
:1019EC006D00B0FBF5F5FFF745FC626800EB80007D
:1019FC00530000EB8000B0FBF3F3A7FB03235B0960
:101A0C0008FB1353DB003233A7FB03231B0903F43E
:101A1C00F875FFF72FFC626800EB800000EB80008C
:101A2C005300B0FBF3F9FFF725FC626800EB800074
:101A3C00530000EB8000B0FBF3F3A7FB03235B091F
:101A4C0008FB1393DB003233A7FB0323C3F34213CE
:101A5C00334422682B44936094E780F8382000F0DC
:101A6C007DFA12E701207047FFF71CFC636800EB5E
:101A7C00800000EB80005B00B0FBF3F3394F4FF0BC
:101A8C006408A7FB03235B091E01FFF70BFC6568C9
:101A9C0000EB800000EB80006D00B0FBF5F5FFF76C
:101AAC0001FC626800EB8000530000EB8000B0FB8F
:101ABC00F3F3A7FB03235B0908FB1353DB0032335F
:101ACC00A7FB03231B0903F4F875FFF7EBFB626814
:101ADC0000EB8000530000EB8000B0FBF3F9FFF744
:101AEC00E1FBA2E7FFF7DEFB636800EB800000EB95
:101AFC0080009B00B0FBF3F31A4F4FF06408A7FB78
:101B0C0003235B091D01FFF7CDFB666800EB80002A
:101B1C0000EB8000B600B0FBF6F6FFF7C3FB626883
:101B2C0000EB8000930000EB8000B0FBF3F3A7FB0D
:101B3C0003235B0908FB13631B013233A7FB03234D
:101B4C005B0903F0F006FFF7ADFB626800EB800069
:101B5C00930000EB8000B0FBF3F9FFF7A3FBFAE670
:101B6C00003801401F85EB51F0B5102001244FF0D7
:101B7C000A0C022700264FF400254FF40001204ADE
:101B8C0095B0136823F4C05343F400631360CDE99C
:101B9C000B0407A8CDF81CC00A94CDE91076CDE94A
:101BAC001251FEF741FE00B1FEE703460F2503225A
:101BBC00214602A8CDE904330693CDE90252FFF782
:101BCC0031FA00B1FEE74FF400336846CDE900432B
:101BDC00FFF780FB044600B1FEE7FFF745FB4FF42F
:101BEC007A73B0FBF3F0FEF7C9FC0420FEF7DEFCC1
:101BFC00224621464FF0FF30FEF78AFC15B0F0BDAF
:101C0C000070004080B58AB0FEF7C8FAFFF7ACFF51
:101C1C0001221021644B0025D869164640F00400BF
:101C2C00D861DC69614804F004040294029CDC690C
:101C3C000F461443DC61DC6914400394039CDC699B
:101C4C0044F00204DC61DB69594C03F00203049399
:101C5C00049BFEF79BFD022305A95448CDE90753CD
:101C6C00CDE90576FEF7B4FC032380224F4805A985
:101C7C00069307950592FEF7ABFC4E4B2046C4E944
:101C8C000155C4E90355C4E90555C4E90755C4E930
:101C9C000956E562C4E90D75E5632360FEF7A6FA03
:101CAC0000B1FEE7034605A92046CDE9057607936A
:101CBC00FEF76AFB00B1FEE74FF482754FF400713A
:101CCC000A223D4B3D4CC3E90150C3E90300586166
:101CDC00C3E90700C3E9090018461C609961DA6280
:101CEC00FFF78AFD00B1FEE77F21FF23344C354A14
:101CFC00C4E90101C4E90400A0612046E36022604C
:101D0C00FFF7A6FB034600B1FEE705A932462046C5
:101D1C00ADF814308DF81630CDE90633FFF7F2FB31
:101D2C0000B1FEE7284B0AA941F8243D3246204673
:101D3C00FFF798FC014600B1FEE72046FFF738FD9F
:101D4C00024600B1FEE74FF4E1350C211F4B204C4D
:101D5C001846C3E90152C3E90322C3E906221C60F9
:101D6C005961FFF785FD00B1FEE76946194800F09F
:101D7C000FFA0E4C4FF47A70FEF72AFA012210215A
:101D8C002046FEF703FD144800F076FA4FF47A7003
:101D9C00FEF71EFA204600221021FEF7F7FC0F4832
:101DAC0000F06AFAE6E700BF003802400004024087
:101DBC005001002000240140F800002000300140B8
:101DCC00D8000020002800400101010098000020EC
:101DDC00003801407830000890300008B03000081E
:101DEC002B4B00B55A6A87B042F000425A625A6ACD
:101DFC00032002F000420192019A1A6A42F0010299
:101E0C001A621A6A02F001020292029A5A6A42F0AB
:101E1C0080525A625B6A03F080530393039BFEF774
:101E2C0065FB00226FF00B001146FEF771FB0022E0
:101E3C006FF00A001146FEF76BFB00226FF00900F1
:101E4C001146FEF765FB00226FF004001146FEF709
:101E5C005FFB00226FF003001146FEF759FB0022D6
:101E6C006FF001001146FEF753FB00224FF0FF30DC
:101E7C001146FEF74DFBE022002304A8CDE9042314
:101E8C00FEF788FCFEF7C2FC07B05DF804FB00BF50
:101E9C00003802400268094B9A4200D0704703F5A3
:101EAC008A331A6A82B042F400721A621B6A03F413
:101EBC0000730193019B02B0704700BF00240140E6
:101ECC000268104B9A4200D0704770B54FF48002F4
:101EDC0086B092FAA2F2B2FA82F202250121002413
:101EEC004FF40056084B09481344AB40196001A944
:101EFC00CDE90165CDE903440594FEF769FB06B015
:101F0C0070BD00BF00280040A0C191100008024025
:101F1C000268104B9A4200D07047E021F0B50227BE
:101F2C0000260325052403F584331A6A87B042F48E
:101F3C0080521A621B6A084803F480530191009383
:101F4C0001A9009BCDE90276CDE90454FEF740FBD4
:101F5C0007B0F0BD00300140000002400268114B98
:101F6C009A4200D070474FF4C061F0B502270126A9
:101F7C000325072403F580331A6A87B042F48042A4
:101F8C001A621B6A084803F480430191009301A96B
:101F9C00009BCDE90276CDE90454FEF719FB07B09E
:101FAC00F0BD00BF0038014000000240704700BF88
:101FBC00FEE700BFFEE700BFFEE700BFFEE700BF85
:101FCC00704700BF704700BF704700BF08B5FEF7F1
:101FDC00F1F8BDE80840FEF7F7BA00BF70B5161E61
:101FEC0007DD0C468D1900F071F804F8010BA542C1
:101FFC00F9D1304670BD00BF70B5161E07DD0C461A
:10200C008D1914F8010B00F057F8AC42F9D1304699
:10201C0070BD00BF0C4A08B5136833B1694618444B
:10202C00884209D81060184608BD08490B46116053
:10203C00694618448842F5D900F078F80C224FF024
:10204C00FF330260184608BD84000020A801002060
:10205C004FF0FF30704700BF4FF4005300204B602F
:10206C00704700BF012070470020704730B4002536
:10207C004FF000640D4B0E4A19680E4841F4807104
:10208C00196099680A409A601A6822F0885222F006
:10209C0001121A601A6822F480221A609A6822F4DB
:1020AC007D029A60DD60846030BC7047003802406D
:1020BC000CC0FF8800ED00E0034A13685B06FCD5FA
:1020CC00C0B250600020704700380140034A1368CA
:1020DC009B06FCD55068C0B2704700BF0038014069
:1020EC00002103E00B4B5B58435004310A480B4B67
:1020FC0042189A42F6D30A4A02E0002342F8043B03
:10210C00084B9A42F9D3FFF7B1FF00F015F8FFF72F
:10211C0079FD70476C310008000000206800002039
:10212C0068000020A8010020FEE70000014B1868A1
:10213C00704700BF0400002070B500250C4E0D4CFC
:10214C00A41BA410A54209D100F072FF00250A4E71
:10215C000A4CA41BA410A54205D170BD56F825301D
:10216C0098470135EEE756F8253098470135F2E7E8
:10217C0064310008643100086431000868310008DB
:10218C0003460244934200D1704703F8011BF9E760
:10219C000FB40A4B13B51C6824B1A36913B92046BC
:1021AC0000F022FA05AB049AA1682046019300F0D6
:1021BC00D7FB02B0BDE8104004B07047040000200B
:1021CC0070B50E46054618B183690BB900F00CFAD0
:1021DC00AB69AC6813B9284600F006FA234B9C4255
:1021EC0017D16C68A3891B071DD52369DBB1013E90
:1021FC00A36816F8011F013BA360E9B9002B2EDA86
:10220C0022460A21284600F03FF8013011D00A205E
:10221C0011E0174B9C4201D1AC68E3E7154B9C4293
:10222C0008BFEC68DEE72146284600F07FF800285E
:10223C00DDD04FF0FF3070BD002B04DAA2699A425A
:10224C0006DC0A2904D023685A1C22601970CFE7D7
:10225C002246284600F018F80130C9D1E9E70A20D7
:10226C0023685A1C22601870E5E700BFF0300008A4
:10227C0010310008D0300008024B01461868FFF7F7
:10228C009FBF00BF04000020F8B50E46144605465B
:10229C0018B183690BB900F0A7F9214B9C422AD1E4
:1022AC006C68A369A360A3891A072ED5236963B34D
:1022BC0023692068F6B2C01A63693746834204DC8E
:1022CC002146284600F026F928BBA3680130013BC3
:1022DC00A36023685A1C22601E706369834204D079
:1022EC00A389DB0719D50A2E17D12146284600F001
:1022FC0011F990B10FE00B4B9C4201D1AC68D0E7C7
:10230C00094B9C4208BFEC68CBE72146284600F0FD
:10231C000DF80028CCD04FF0FF373846F8BD00BF81
:10232C00F030000810310008D0300008324B70B586
:10233C001D6806460C4625B1AB6913B9284600F05A
:10234C0053F92E4B9C420FD16C68B4F90C309AB2F5
:10235C0015072CD4D00611D40922326043F0400367
:10236C00A3814FF0FF303EE0254B9C4201D1AC687D
:10237C00EBE7244B9C4208BFEC68E6E7510712D50B
:10238C00616B41B104F14403994202D0304600F034
:10239C0019FA00236363A38923F02403A381002388
:1023AC00636023692360A38943F00803A381236935
:1023BC004BB9A38903F42073B3F5007F03D02146F6
:1023CC00304600F0BFF9A28912F001030CD00023B3
:1023DC00A36063695B42A361236953B9B4F90C3000
:1023EC0013F08000BAD170BD920758BF6369A36027
:1023FC00F2E70020F7E700BF04000020F0300008EF
:10240C0010310008D03000088A892DE9F0410546CA
:10241C0010070C4658D44B68002B05DC0B6C002BBA
:10242C0002DC0020BDE8F081E66A002EF9D0002322
:10243C0012F480522F68216A2B6032D0606DA38910
:10244C005A0705D56368C01A636B0BB1236CC01AAD
:10245C0000230246E66A216A2846B047431CA3893A
:10246C0006D129681D2948D8294ACA40D60744D51F
:10247C00002262602269D904226004D5421C01D179
:10248C002B6803B96065616B2F600029C9D004F11A
:10249C004403994202D0284600F094F9002060636E
:1024AC00C0E701232846B047411CC8D12B68002B3C
:1024BC00C5D01D2B01D0162B01D12F60B1E7A389FC
:1024CC0043F04003A381ADE70F69002FA9D0930718
:1024DC0018BF00230E6808BF4B69A6EB07080F60F6
:1024EC008B60B8F1000F9CDD43463A46216A2846C2
:1024FC00A66AB047002806DCA38943F04003A381F9
:10250C004FF0FF308EE70744A8EB0008E9E700BF67
:10251C000100402038B50B6905460C46DBB118B1FB
:10252C0083690BB900F060F80C4B9C4209D16C68C4
:10253C00B4F90C307BB121462846BDE83840FFF792
:10254C0063BF074B9C4201D1AC68F1E7054B9C4241
:10255C0008BFEC68ECE7002038BD00BFF030000885
:10256C0010310008D0300008002310B50446C0E933
:10257C000033836081814366C281C0E90433836187
:10258C00194608225C30FFF7FBFD054B24626362A1
:10259C00044BA362044BE362044B236310BD00BFE6
:1025AC00C52E0008E72E00081F2F0008432F000837
:1025BC00014900F085B800BF2125000870B56825D9
:1025CC004A1E55430E4605F1740100F047F90446C6
:1025DC0040B10021C0E900160C30A06005F1680282
:1025EC00FFF7CEFD204670BD836910B5044633BBA2
:1025FC00C0E912330365124B124A1B68826298427F
:10260C0004BF0123836100F01FF86060204600F0D6
:10261C001BF8A060204600F017F80022E0600421AF
:10262C006068FFF7A1FF01220921A068FFF79CFF5A
:10263C0002221221E068FFF797FF0123A36110BD6E
:10264C00CC300008BD250008F8B51B4B07461E68AA
:10265C00B36913B93046FFF7C7FF4836D6E90134E2
:10266C00013B03D5336833B13668F7E7B4F90C5046
:10267C006DB16834F4E704213846FFF79FFF3060F2
:10268C000028F1D10C2304463B602046F8BD0B4BCF
:10269C006566C4E90055A560C4E90335C4E9055570
:1026AC000822294604F15C00FFF76AFDC4E90D55C8
:1026BC00C4E91255E9E700BFCC3000080100FFFF68
:1026CC002DE9F84380468946002600F1480414B9E8
:1026DC003046BDE8F883D4E90175013F01D5246883
:1026EC00F5E7AB89012B07D9B5F90E30013303D0CF
:1026FC0029464046C84706436835EEE770B50E4696
:10270C00B1F90E1096B0002914461D4607DA0023C5
:10271C002B60B3891A0610D44FF480630EE06A461E
:10272C0000F030FC0028F2DB019A02F47042A2F5B2
:10273C0000535A425A412A60EEE74023002023609E
:10274C0016B070BD8B8973B59D0706460C4607D530
:10275C0004F14703236023610123636102B070BD60
:10276C0001AB6A46FFF7CAFF00990546304600F0F8
:10277C0075F848B9B4F90C309A05EFD423F003037B
:10278C0043F00203A381E3E70D4BB362A3892060FE
:10279C0043F08003A381009B20616361019B5BB1CB
:1027AC00B4F90E10304600F0FFFB28B1A38923F0DA
:1027BC00030343F00103A381A3891D43A581CDE746
:1027CC00BD25000838B50546002943D051F8043C16
:1027DC000C1F002BB8BFE41800F016FC1E4A13683F
:1027EC00104633B9636014602846BDE8384000F0E9
:1027FC000CBCA3420BD921686218934201BF1A6822
:10280C005B685218226063600460EDE713465A68F7
:10281C000AB1A242FAD919685818A0420BD1206803
:10282C000144581882421960DED110685268014484
:10283C0019605A60D8E702D90C232B60D4E72068C2
:10284C0021188A4201BF1168526809182160626020
:10285C005C60C9E738BD00BF8C00002070B5CD1C92
:10286C0025F0030508350C2D38BF0C25002D064628
:10287C0001DBA94203D90C233360002070BD00F0AA
:10288C00C3FB214A1468214691B9204C23681BB91B
:10289C00304600F001FB20602946304600F0FCFA7F
:1028AC00431C24D10C233046336000F0AEFBE4E72C
:1028BC000B685B1B18D40B2B0FD90B60CC18CD50AD
:1028CC00304600F0A2FB04F10B00231D20F00700A2
:1028DC00C31AD3D05A42E250D0E74B688C4216BF91
:1028EC00636013600C46EBE70C464968CCE7C41CEC
:1028FC0024F00304A04205D0211A304600F0CCFA93
:10290C000130CFD02560DBE78C0000209000002048
:10291C00936810B4013B002B936007DA9469A342CF
:10292C0001DB0A2902D110BCFFF7AEBC1368581C9E
:10293C0010601970084610BC7047F8B506460F4673
:10294C001446D518AC4201D1002007E03A4614F8E1
:10295C00011B3046FFF7DCFF431CF3D1F8BD000030
:10296C002DE9F04F9DB00C4617460393064618B15F
:10297C0083690BB9FFF738FE7B4B9C4257D17468C7
:10298C00A38918075DD52369002B5AD0002309931E
:10299C0020238DF8293030234FF0010B8DF82A308D
:1029AC00B846454615F8013B0BB1252B54D1B8EB75
:1029BC00070A0BD053463A4621463046FFF7BDFF77
:1029CC00013000F0C280099B5344099398F8003001
:1029DC00002B00F0BA8000234FF0FF32CDE9052325
:1029EC00049307938DF853301A93A846052218F8D0
:1029FC00011B5E4800F0FAFA049B78BBD90644BF71
:102A0C0020228DF853201A0744BF2B228DF8532017
:102A1C002A782A2A2AD0A84600200A25079A414655
:102A2C0011F8013B303B092B69D960B324E0504BC2
:102A3C009C4201D1B468A3E74E4B9C4208BFF4689A
:102A4C009EE721463046FFF771FC00289ED04FF0E0
:102A5C00FF301DB0BDE8F08FA846A2E7434A4546BB
:102A6C00801A0BFA00F018430490BEE7039A111D6C
:102A7C0012680391002A01DB079204E0524243F0F2
:102A8C0002030792049398F800302E2B0ED198F87D
:102A9C0001302A2B38D1039B08F102081A1D1B6840
:102AAC000392002BB8BF4FF0FF330593324D032236
:102ABC0098F80010284600F099FA40B14023401BCA
:102ACC0003FA00F0049B08F101080343049398F8FF
:102ADC0000100622294808F101078DF8281000F093
:102AEC0085FA002837D0264B1BBB039B073323F0FA
:102AFC00070308330393099B4B44099350E705FBE9
:102B0C000232012088468AE700230A25194608F17B
:102B1C0001080593404610F8012B303A092A03D9D5
:102B2C00002BC3D00591C1E705FB01210123804691
:102B3C00F0E703AB00932246124B04A93046AFF3E7
:102B4C000080B0F1FF3F8146D5D1A3895B063FF5EC
:102B5C007EAF09987DE703AB00932246094B04A98D
:102B6C00304600F087F8ECE7F03000083031000810
:102B7C0010310008D0300008363100083A31000816
:102B8C0000000000472900082DE9F04791461F4638
:102B9C008A680B6906469342B8BF1346C9F80030E1
:102BAC0091F843200C46DDF8208012B10133C9F8AE
:102BBC0000302368990642BFD9F800300233C9F8B7
:102BCC000030256815F0060507D104F1190AE368F1
:102BDC00D9F800209B1AAB4229DC94F843302268C8
:102BEC00003318BF012392062ED404F14302394658
:102BFC003046C047013021D02368E56803F0060356
:102C0C00042B18BF0025D9F800204FF0000908BF8D
:102C1C00AD1AA368226908BF25EAE5759342C4BFC3
:102C2C009B1AED181A344D451AD1002008E00123E7
:102C3C00524639463046C047013003D14FF0FF3081
:102C4C00BDE8F0870135C2E73020E11881F8430078
:102C5C005A1C94F845102244023382F84310C4E7FE
:102C6C000123224639463046C0470130E6D009F1EF
:102C7C000109D8E72DE9F04301F1430C0C46097E1C
:102C8C0085B06E291746064698460C9A00F0B3801C
:102C9C0022D8632936D00AD8002900F0B9805829E7
:102CAC0000F0838004F1420584F8421032E064297C
:102CBC0001D06929F6D120681368050603F10401D7
:102CCC002AD51B681160002B03DA2D225B4284F895
:102CDC0043206F480A2239E0732900F09D8008D800
:102CEC006F2920D07029DDD1236843F020032360A5
:102CFC0003E0752917D07829D4D17823654884F856
:102D0C00453055E0136804F14205191D1B6811602C
:102D1C0084F8423001238CE01B6810F0400F1160E6
:102D2C0018BF1BB2CFE713682568181D1060280662
:102D3C0001D51B6802E06806FBD51B886F2914BF00
:102D4C000A2208225248002184F843106568002D9D
:102D5C00A560C0F29580216821F004012160002B50
:102D6C003DD1002D40F08E806546082A0BD123689A
:102D7C00DB0708D5236962689A42DEBF302305F869
:102D8C00013C05F1FF35ACEB05032361CDF8008068
:102D9C003B4603AA21463046FFF7F6FE01304DD1E3
:102DAC004FF0FF3005B0BDE8F083394884F845108A
:102DBC00136821681D1D1B6815600A060BD5CA0710
:102DCC0044BF41F0200121601BB9226822F020028F
:102DDC0022601022B7E74D0648BF9BB2EFE765466D
:102DEC00B3FBF2F102FB1133C35C05F8013D0B465A
:102DFC000029F5D1B9E713682568181D61691060C1
:102E0C0028061B6801D5196002E06A06FBD51980FB
:102E1C00002365462361B9E71368191D11601D680D
:102E2C0062680021284600F0E1F808B1401B6060A0
:102E3C0063682361002384F84330A7E723692A469B
:102E4C0039463046C0470130AAD023689B0713D4BB
:102E5C00E068039B9842B8BF1846A3E701234A4693
:102E6C0039463046C04701309AD00135E368039AA1
:102E7C009B1AAB42F2DCEBE7002504F11909F5E7EC
:102E8C00002BACD1037804F1420584F842306CE796
:102E9C00413100085231000838B50023054C054675
:102EAC0008462360FFF7B6F8431C02D1236803B130
:102EBC002B6038BDA401002010B50C46B1F90E10E2
:102ECC0000F0A4F80028ABBF636DA3891B1823F492
:102EDC008053ACBF6365A38110BD2DE9F0411F4643
:102EEC008B890546DB050C46164605D502230022C8
:102EFC00B1F90E1000F068F8A389324623F4805320
:102F0C00A381B4F90E103B462846BDE8F04100F011
:102F1C0017B810B50C46B1F90E1000F055F8431C5B
:102F2C00A38915BF606523F4805343F48053A381B8
:102F3C0018BFA38110BDB1F90E1000F013B800003A
:102F4C0038B50546084611460022054C22601A4643
:102F5C00FFF752F8431C02D1236803B12B6038BD34
:102F6C00A401002038B50023054C05460846236013
:102F7C00FFF76EF8431C02D1236803B12B6038BDF8
:102F8C00A401002038B50023064C0546084611461E
:102F9C002360FFF761F8431C02D1236803B12B6057
:102FAC0038BD00BFA401002038B50023054C0546F0
:102FBC0008462360FFF756F8431C02D1236803B17F
:102FCC002B6038BDA401002038B5054608461146D3
:102FDC000022054C22601A46FFF746F8431C02D12A
:102FEC00236803B12B6038BDA401002010B5C9B211
:102FFC0002449042034601D1002303E01C780130C7
:10300C008C42F6D1184610BD7047704738B505464E
:10301C00084611460022054C22601A46FEF7DEFFD8
:10302C00431C02D1236803B12B6038BDA4010020DE
:10303C00F8B500BFF8BC08BC9E467047F8B500BF99
:08304C00F8BC08BC9E46704769
:10305400030406080C1018203000000000000000D3
:103064000000000001020304060708090000000034
:10307400010203040D0A737461636B20706F696E3F
:103084007465722025780D0A0000000048656C6C98
:103094006F20576F726C642120546865204C45443E
:1030A400206973206F66660D0000000048656C6C33
:1030B4006F20576F726C642120546865204C45441E
:1030C400206973206F6E0D000800002000000000CE
:1030D40000000000000000000000000000000000EC
:1030E40000000000000000000000000000000000DC
:1030F40000000000000000000000000000000000CC
:1031040000000000000000000000000000000000BB
:1031140000000000000000000000000000000000AB
:10312400000000000000000000000000232D302BF0
:103134002000686C4C0065666745464700303132B4
:10314400333435363738394142434445460030310B
:10315400323334353637383961626364656600006A
:0431640061010008FD
:043168003D0100081D
:10316C0068FF1F000800002000000000F03000087D
:10317C0010310008D03000080000000000000000F2
:10318C000000000000000000000000000000000033
:10319C000000000000000000000000000000000023
:1031AC000000000000000000000000000000000013
:1031BC000000000000000000000000000000000003
:0831CC000000000000000000FB
:04000005080020EDE2
:00000001FF
