:020000040800F2
:10000000008000203D35000811340008133400083A
:1000100015340008173400081934000800000000E7
:100020000000000000000000000000001B34000879
:100030001D340008000000001F34000821340008AF
:100040008D3500088D3500088D3500088D35000888
:100050008D3500088D3500082D3400088D350008D9
:100060008D3500088D3500088D3500088D35000868
:100070008D3500088D3500088D3500088D35000858
:100080008D3500088D3500088D3500088D35000848
:100090008D3500088D3500088D3500088D35000838
:1000A000000000008D3500088D3500088D350008F2
:1000B0008D3500088D3500088D3500088D35000818
:1000C0008D3500088D3500088D3500088D35000808
:1000D0008D3500088D3500088D3500088D350008F8
:1000E0008D3500088D3500088D3500088D350008E8
:1000F0008D35000800000000000000000000000036
:1001000000000000000000000000000000000000EF
:1001100000000000000000000000000000000000DF
:1001200000000000000000000000000000000000CF
:0C01300000000000000000005FF808F173
:1001400010B5054C237833B9044B13B10448AFF311
:1001500000800123237010BDD401002000000000A6
:100160008C80000808B5034B1BB103490348AFF36B
:10017000008008BD00000000D80100208C8000082D
:100180004FF0FF3C06E000BF4FF0010C02E000BF63
:100190004FF0010C4DF804CD4FEA410C7FEA6C5C46
:1001A0004FEA430C18BF7FEA6C5C1BD001B050EAE9
:1001B000410C0CBF52EA430C91EA030F02BF90EAD4
:1001C000020F0020704710F1000F91EA030F58BF93
:1001D000994208BF90422CBFD8176FEAE37040F0F5
:1001E000010070474FEA410C7FEA6C5C02D150EA93
:1001F000013C07D14FEA430C7FEA6C5CD6D152EA4E
:10020000033CD3D05DF8040B704700BF8446104612
:1002100062468C461946634600E000BF01B5FFF711
:10022000B7FF002848BF10F1000F01BD4DF808EDE1
:10023000FFF7F4FF0CBF012000205DF808FB00BFB2
:100240004DF808EDFFF7EAFF34BF012000205DF80C
:1002500008FB00BF4DF808EDFFF7E0FF94BF012059
:1002600000205DF808FB00BF4DF808EDFFF7CEFF5A
:1002700094BF012000205DF808FB00BF4DF808ED99
:10028000FFF7C4FF34BF012000205DF808FB00BF6A
:10029000034613F8012B002AFBD1181A01387047C6
:1002A00081F0004102E000BF83F0004330B54FEA27
:1002B00041044FEA430594EA050F08BF90EA020F94
:1002C0001FBF54EA000C55EA020C7FEA645C7FEA27
:1002D000655C00F0E2804FEA5454D4EB5555B8BF4A
:1002E0006D420CDD2C4480EA020281EA030382EABB
:1002F000000083EA010180EA020281EA0303362D4D
:1003000088BF30BD11F0004F4FEA01314FF4801C1F
:100310004CEA113102D0404261EB410113F0004F31
:100320004FEA03334CEA133302D0524263EB4303E8
:1003300094EA050F00F0A780A4F10104D5F1200E86
:100340000DDB02FA0EFC22FA05F2801841F10001E1
:1003500003FA0EF2801843FA05F359410EE0A5F1B5
:1003600020050EF1200E012A03FA0EFC28BF4CF0E6
:10037000020C43FA05F3C01851EBE37101F000459C
:1003800007D54FF0000EDCF1000C7EEB00006EEBA9
:100390000101B1F5801F1BD3B1F5001F0CD3490833
:1003A0005FEA30004FEA3C0C04F101044FEA44528A
:1003B00012F5800F80F09A80BCF1004F08BF5FEA11
:1003C000500C50F1000041EB045141EA050130BDF1
:1003D0005FEA4C0C404141EB010111F4801FA4F194
:1003E0000104E9D191F0000F04BF01460020B1FAE9
:1003F00081F308BF2033A3F10B03B3F120020CDA21
:100400000C3208DD02F1140CC2F10C0201FA0CF0FE
:1004100021FA02F10CE002F11402D8BFC2F1200C63
:1004200001FA02F120FA0CFCDCBF41EA0C01904019
:10043000E41AA2BF01EB0451294330BD6FEA040462
:100440001F3C1CDA0C340EDC04F11404C4F120024D
:1004500020FA04F001FA02F340EA030021FA04F35F
:1004600045EA030130BDC4F10C04C4F1200220FAB6
:1004700002F001FA04F340EA0300294630BD21FAF4
:1004800004F0294630BD94F0000F83F4801306BFBA
:1004900081F480110134013D4EE77FEA645C18BFAE
:1004A0007FEA655C29D094EA050F08BF90EA020F45
:1004B00005D054EA000C04BF1946104630BD91EA3D
:1004C000030F1EBF0021002030BD5FEA545C05D140
:1004D0004000494128BF41F0004130BD14F580047F
:1004E0003CBF01F5801130BD01F0004545F0FE41F3
:1004F00041F470014FF0000030BD7FEA645C1ABF28
:10050000194610467FEA655C1CBF0B46024650EA5E
:10051000013406BF52EA033591EA030F41F400218A
:1005200030BD00BF90F0000F04BF0021704730B510
:100530004FF4806404F132044FF000054FF00001E5
:1005400050E700BF90F0000F04BF0021704730B5A6
:100550004FF4806404F1320410F0004548BF40427B
:100560004FF000013EE700BF42004FEAE2014FEAD0
:1005700031014FEA02701FBF12F07F4393F07F4FAB
:1005800081F06051704732F07F4208BF704793F0AE
:100590007F4F04BF41F40021704730B54FF46074C1
:1005A00001F0004521F000411CE700BF50EA0102C4
:1005B00008BF704730B54FF000050AE050EA01026D
:1005C00008BF704730B511F0004502D5404261EBDD
:1005D00041014FF4806404F132045FEA915C3FF41E
:1005E000D8AE4FF003025FEADC0C18BF03325FEABB
:1005F000DC0C18BF033202EBDC02C2F1200300FA6C
:1006000003FC20FA02F001FA03FE40EA0E0021FA90
:1006100002F11444BDE600BF70B54FF0FF0C4CF47E
:10062000E06C1CEA11541DBF1CEA135594EA0C0F30
:1006300095EA0C0F00F0DEF82C4481EA030621EA6B
:100640004C5123EA4C5350EA013518BF52EA0335A6
:1006500041F4801143F4801338D0A0FB02CE4FF058
:100660000005E1FB02E506F00042E0FB03E54FF088
:100670000006E1FB03569CF0000F18BF4EF0010E80
:10068000A4F1FF04B6F5007F64F5407404D25FEA7C
:100690004E0E6D4146EB060642EAC62141EA55512F
:1006A0004FEAC52040EA5E504FEACE2EB4F1FD0C71
:1006B00088BFBCF5E06F1ED8BEF1004F08BF5FEAEF
:1006C000500E50F1000041EB045170BD06F00046A1
:1006D00046EA010140EA020081EA0301B4EB5C044E
:1006E000C2BFD4EB0C0541EA045170BD41F4801146
:1006F0004FF0000E013C00F3AB8014F1360FDEBF6B
:10070000002001F0004170BDC4F10004203C35DA46
:100710000C341BDC04F11404C4F1200500FA05F3C9
:1007200020FA04F001FA05F240EA020001F000426A
:1007300021F0004110EBD37021FA04F642EB0601E0
:100740005EEA430E08BF20EAD37070BDC4F10C040A
:10075000C4F1200500FA04F320FA05F001FA04F2CE
:1007600040EA020001F0004110EBD37041F10001BA
:100770005EEA430E08BF20EAD37070BDC4F12005C5
:1007800000FA05F24EEA020E20FA04F301FA05F22D
:1007900043EA020321FA04F001F0004121FA04F2D5
:1007A00020EA020000EBD3705EEA430E08BF20EAA5
:1007B000D37070BD94F0000F0FD101F000464000DF
:1007C00041EB010111F4801F08BF013CF7D041EA61
:1007D000060195F0000F18BF704703F00046520065
:1007E00043EB030313F4801F08BF013DF7D043EA36
:1007F0000603704794EA0C0F0CEA135518BF95EAEC
:100800000C0F0CD050EA410618BF52EA4306D1D172
:1008100081EA030101F000414FF0000070BD50EA91
:10082000410606BF1046194652EA430619D094EA1B
:100830000C0F02D150EA013613D195EA0C0F05D105
:1008400052EA03361CBF104619460AD181EA030159
:1008500001F0004141F0FE4141F470014FF0000011
:1008600070BD41F0FE4141F4780170BD70B54FF0AC
:10087000FF0C4CF4E06C1CEA11541DBF1CEA13552C
:1008800094EA0C0F95EA0C0F00F0A7F8A4EB05040E
:1008900081EA030E52EA03354FEA013100F0888005
:1008A0004FEA03334FF0805545EA131343EA1263CE
:1008B0004FEA022245EA111545EA10654FEA002683
:1008C0000EF000419D4208BF964244F1FD0404F53C
:1008D000407402D25B084FEA3202B61A65EB030598
:1008E0005B084FEA32024FF480104FF4002CB6EB55
:1008F000020E75EB030E22BFB61A754640EA0C00D5
:100900005B084FEA3202B6EB020E75EB030E22BF14
:10091000B61A754640EA5C005B084FEA3202B6EB55
:10092000020E75EB030E22BFB61A754640EA9C0014
:100930005B084FEA3202B6EB020E75EB030E22BFE4
:10094000B61A754640EADC0055EA060E18D04FEAA2
:10095000051545EA16754FEA06164FEAC30343EA42
:1009600052734FEAC2025FEA1C1CC0D111F4801F0F
:100970000BD141EA00014FF000004FF0004CB6E708
:1009800011F4801F04BF01430020B4F1FD0C88BFA7
:10099000BCF5E06F3FF6AFAEB5EB030C04BFB6EBB2
:1009A000020C5FEA500C50F1000041EB045170BDA5
:1009B0000EF0004E4EEA113114EB5C04C2BFD4EBD2
:1009C0000C0541EA045170BD41F480114FF0000E56
:1009D000013C90E645EA060E8DE60CEA135594EAD2
:1009E0000C0F08BF95EA0C0F3FF43BAF94EA0C0FD5
:1009F0000AD150EA01347FF434AF95EA0C0F7FF44A
:100A000025AF104619462CE795EA0C0F06D152EA9D
:100A100003353FF4FDAE1046194622E750EA410681
:100A200018BF52EA43067FF4C5AE50EA41047FF492
:100A30000DAF52EA43057FF4EBAE12E74FEA410CEB
:100A40007FEA6C5C02D150EA013C0AD14FEA430CC8
:100A50007FEA6C5C02D152EA033C02D14FF0000005
:100A600070474FF0010070474FEA410212F5001243
:100A700015D211D56FF47873B3EB625212D94FEAE5
:100A8000C12343F0004343EA505311F0004F23FACF
:100A900002F018BF404270474FF00000704750EA24
:100AA000013005D111F0004008BF6FF000407047E1
:100AB0004FF00000704700BF4A0011D212F500123B
:100AC00011D20DD56FF47873B3EB62520ED44FEAA6
:100AD000C12343F0004343EA505323FA02F0704726
:100AE0004FF00000704750EA013002D14FF0FF3064
:100AF00070474FF0000070474FEA4102B2F1E04307
:100B000024BFB3F5001CDCF1FE5C0DD901F0004CF4
:100B10004FEAC0024CEA5070B2F1004F40EB830044
:100B200008BF20F00100704711F0804F21D113F170
:100B30003872BCBF01F00040704741F480114FEAA9
:100B40005252C2F11802C2F1200C10FA0CF320FA32
:100B500002F018BF40F001004FEAC1234FEAD3234F
:100B600003FA0CFC40EA0C0023FA02F34FEA4303B9
:100B7000CCE77FEA625307D150EA01331EBF4FF042
:100B8000FE4040F44000704701F0004040F0FE405D
:100B900040F40000704700BF10B50446074B1868CA
:100BA000074BA3FB0030800900F086F800222146A5
:100BB0004FF0FF3000F040F8002010BD0000002092
:100BC000D34D621008B5032000F024F80020FFF791
:100BD000E3FF02F083FB002008BD0000024A136817
:100BE00001331360704700BF04020020014B1868F6
:100BF000704700BF0402002010B582B00190FFF7DB
:100C0000F5FF0446FFF7F2FF001B019B9842F9D362
:100C100002B010BD074AD36823F4E0631B041B0C29
:100C2000000200F4E060184340F0BF6040F4003080
:100C3000D060704700ED00E030B4174BDB68C3F3C1
:100C40000223C3F10704042C28BF04241D1D062D14
:100C500018D9033B4FF0FF3505FA04F421EA0401EB
:100C6000994005FA03F322EA0303194300280BDB3A
:100C70000901C9B200F1604000F5614080F800133D
:100C800030BC70470023E5E700F00F000901C9B24E
:100C9000024B1954F4E700BF00ED00E014ED00E052
:100CA00000F01F02400901239340024A42F820301D
:100CB000704700BF00E100E00138B0F1807F0AD248
:100CC000064B5860064AF02182F8231000209860F5
:100CD00007221A6070470120704700BF10E000E053
:100CE00000ED00E0042805D0054A136823F0040352
:100CF00013607047024A136843F00403136070479F
:100D000010E000E0704708B5FFF7FCFF08BD0000E9
:100D1000F0B482B0002336E0042400E00024B440A4
:100D20003C4302355B4E46F825405B4C2568D44376
:100D300004EA05064F6817F4803F01D042EA050631
:100D4000554D2E606D6804EA05064F6817F4003FA4
:100D500001D042EA0506504D6E60AD6804EA050612
:100D60004F6817F4801F01D042EA05064A4DAE6075
:100D7000ED682C404E6816F4001F01D042EA0504CD
:100D8000454AD46001330A6832FA03F47FD0012463
:100D90009C402240F6D04D68022D01D0122D10D17A
:100DA000DE08083650F826C003F00705AF000F250F
:100DB000BD402CEA050C0D69BD4045EA0C0540F824
:100DC000265006685F000325BD40ED4305EA060C8A
:100DD0004E6806F00306BE4046EA0C0606604E6802
:100DE00006F1FF3CBCF1010F03D9112E01D0122EE8
:100DF00010D1866805EA060CCE68BE4046EA0C06AD
:100E00008660466826EA04044E68C6F300169E40D3
:100E100026434660C46825408C68BC402C43C460AF
:100E20004C6814F0805FADD01C4C256A45F001057C
:100E30002562246A04F001040194019C9D08AE1C03
:100E4000144C54F8267003F00304A6000F24B44099
:100E500027EA0407124CA0423FF460AF04F5806417
:100E6000A0420ED004F58064A0420CD004F580644A
:100E7000A0420AD004F58064A0423FF44DAF05249F
:100E80004DE701244BE7022449E7032447E702B07A
:100E9000F0BC7047000001400004014000380240EF
:100EA0000000024012B909048161704781617047F6
:100EB000436959404161704708B5054B5B6903427E
:100EC00000D108BD024B586101F052F8F9E700BFAC
:100ED0000004014082B0214B9B6813F0F00F2CD12D
:100EE0001E4B5B6A13F0805F08D01D4B1B6803F438
:100EF000C053B3F5C05F14D000211FE0174A536AF6
:100F000043F080535362536A03F080530193019B73
:100F1000134B1B6803F4C053516A21F08051516296
:100F2000E7E7B0F5404F01D0002107E00D4A136814
:100F300043F004031360012100E00021094A136813
:100F400023F001030B431360136803F001038B428A
:100F500002D0012002B070470020FBE700380240B9
:100F600000700040003C024070B582B00446036847
:100F700013F0010F37D0754B9B6803F00C03082B5F
:100F80001AD0724B9B6803F00C030C2B0FD06368D4
:100F9000012B66D0002B40F088806C4B1A6822F43D
:100FA00080321A601A6822F480221A605EE0674B71
:100FB0009B6813F4803FEAD04FF4003393FAA3F315
:100FC000624B19684FF4003393FAA3F3B3FA83F337
:100FD00003F01F03012202FA03F30B4203D06368FC
:100FE000002B00F07883236813F0020F00F0BF801D
:100FF000564B9B6803F00C03042B00F09080534B7E
:101000009B6803F00C030C2B00F08380E368002B3B
:1010100000F04B81012292FAA2F3B3FA83F303F1B9
:10102000845303F58E139B001A60FFF7DFFD05461E
:10103000022393FAA3F3454B1968022393FAA3F30F
:10104000B3FA83F303F01F03012202FA03F30B4206
:1010500040F01B81FFF7CAFD401B0228E8D903209E
:1010600040E33A4A136843F480331360636893B3F0
:10107000FFF7BCFD05464FF4003393FAA3F3334B5F
:1010800019684FF4003393FAA3F3B3FA83F303F030
:101090001F03012202FA03F30B42A4D1FFF7A6FDBE
:1010A000401B6428E7D903201CE3052B09D0274BFC
:1010B0001A6822F480321A601A6822F480221A60B8
:1010C000D4E7224B1A6842F480221A601A6842F46C
:1010D00080321A60CAE7FFF789FD05464FF40033F6
:1010E00093FAA3F3194B19684FF4003393FAA3F35F
:1010F000B3FA83F303F01F03012202FA03F30B4256
:101100003FF471AFFFF772FD401B6428E6D903205E
:10111000E8E20E4B9B6813F4803F7FF477AF022325
:1011200093FAA3F3094B1968022393FAA3F3B3FAD2
:1011300083F303F01F03012202FA03F30B4207D0EB
:10114000E368934204D00120CCE200BF00380240A3
:10115000C148436823F4F85321694FF4F85292FAD6
:10116000A2F2B2FA82F201FA02F213434360236858
:1011700013F0100F5CD0B84B9B6813F00C0F40F0CD
:10118000D8804FF4007393FAA3F3B34B19684FF46C
:10119000007393FAA3F3B3FA83F303F01F0301225E
:1011A00002FA03F30B4203D0A369002B00F09582EF
:1011B000206AA94B5B6803F46043984240F29D802B
:1011C000FFF788FE002840F08A82A3494B6823F489
:1011D0006043226A13434B604B6823F07F43E0690E
:1011E0004FF07F4292FAA2F2B2FA82F200FA02F2D1
:1011F00013434B60236A4FF4604292FAA2F2B2FAB0
:1012000082F2D3405A1C4FF400439340924A9268B2
:1012100002F0F002F02191FAA1F1B1FA81F1CA4095
:101220008E498A5CD3408E4A13600020FFF7B4FCDD
:10123000236813F0080F00F017816369002B00F09A
:10124000E680012191FAA1F2B2FA82F2854B1344B1
:101250009B001960FFF7CAFC0546022393FAA3F22C
:101260007D4A516B93FAA3F3B3FA83F303F01F03A0
:10127000012202FA03F30B4240F0F680FFF7B6FCBE
:10128000401B0228E9D903202CE27348436823F469
:10129000F85321694FF4F85292FAA2F2B2FA82F2AC
:1012A00001FA02F21343436061E7012393FAA3F3C7
:1012B000B3FA83F303F1845303F58E139B000022EA
:1012C0001A60FFF793FC0546022393FAA3F3624BDF
:1012D0001968022393FAA3F3B3FA83F303F01F030D
:1012E000012202FA03F30B423FF441AFFFF77EFC09
:1012F000401B0228E8D90320F4E157494B6823F446
:101300006043184348604B6823F07F43E0694FF027
:101310007F4292FAA2F2B2FA82F200FA02F2134388
:101320004B60206AFFF7D6FD00283FF463AF012031
:10133000D8E1A369002B3FD04FF4807393FAA3F355
:10134000B3FA83F303F1845303F58E139B00012258
:101350001A60FFF74BFC05464FF4007393FAA3F3B2
:101360003D4B19684FF4007393FAA3F3B3FA83F378
:1013700003F01F03012202FA03F30B4206D1FFF729
:1013800035FC401B0228E7D90320ABE132494B680A
:1013900023F46043226A13434B604B6823F07F437E
:1013A000E0694FF07F4292FAA2F2B2FA82F200FABA
:1013B00002F213434B603BE74FF4807393FAA3F3BD
:1013C000B3FA83F303F1845303F58E139B000022D9
:1013D0001A60FFF70BFC05464FF4007393FAA3F372
:1013E0001D4B19684FF4007393FAA3F3B3FA83F318
:1013F00003F01F03012202FA03F30B423FF418AF7C
:10140000FFF7F4FB401B0228E6D903206AE1012222
:1014100092FAA2F2B2FA82F2124B13449B0000221B
:101420001A60FFF7E3FB0546022393FAA3F20A4A88
:10143000516B93FAA3F3B3FA83F303F01F03012272
:1014400002FA03F30B420FD0FFF7D0FB401B022838
:10145000EAD9032046E100BF00380240D0800008EE
:1014600000000020A0C19110236813F0040F00F0C9
:1014700092809E4B5B6A13F0805F1ED19B4B5A6A31
:1014800042F080525A625B6A03F080530193019BE1
:101490000125974B1B6813F4807F10D0A368012BA4
:1014A00021D0002B43D1914B5A6B22F480725A63A6
:1014B0005A6B22F480625A631AE00025E9E78C4AED
:1014C000136843F480731360FFF790FB0646884B64
:1014D0001B6813F4807FE1D1FFF788FB801B642831
:1014E000F5D90320FEE0814A536B43F480735363C4
:1014F000A36893B3FFF77AFB06464FF4007393FAA1
:10150000A3F27A4A516B93FAA3F3B3FA83F303F08D
:101510001F03012202FA03F30B423BD1FFF766FBE4
:10152000801B41F288339842E7D90320DAE0052B8B
:1015300009D06E4B5A6B22F480725A635A6B22F4B4
:1015400080625A63D4E7694B5A6B42F480625A63F3
:101550005A6B42F480725A63CAE7FFF747FB0646AC
:101560004FF4007393FAA3F2604A516B93FAA3F31A
:10157000B3FA83F303F01F03012202FA03F30B42D1
:1015800008D0FFF733FB801B41F288339842E7D93C
:101590000320A7E0B5BB636A002B00F0A280534A8A
:1015A000926802F00C020C2A00F09E80022B2FD0D1
:1015B0004FF0807393FAA3F3B3FA83F303F18453E8
:1015C00003F58E139B0000221A60FFF70FFB044601
:1015D0004FF0007393FAA3F3444B19684FF0007374
:1015E00093FAA3F3B3FA83F303F01F03012202FA81
:1015F00003F30B426DD0FFF7F9FA001B0228E7D97D
:1016000003206FE0394A536A23F080535362C2E7E4
:101610004FF0807393FAA3F3B3FA83F303F1845387
:1016200003F58E139B0000221A60FFF7DFFA0546D0
:101630004FF0007393FAA3F32C4B19684FF000732B
:1016400093FAA3F3B3FA83F303F01F03012202FA20
:1016500003F30B4206D0FFF7C9FA401B0228E7D973
:1016600003203FE021498B6823F47D03A26AE06AEE
:101670000243206B024313438B604FF0807393FA55
:10168000A3F3B3FA83F303F1845303F58E139B00A2
:1016900001221A60FFF7AAFA04464FF0007393FA8A
:1016A000A3F3124B19684FF0007393FAA3F3B3FA44
:1016B00083F303F01F03012202FA03F30B4206D166
:1016C000FFF794FA001B0228E7D903200AE0002064
:1016D00008E0002006E0012004E0012002E00120F3
:1016E00000E0002002B070BD0120FBE7003802409E
:1016F00000700040224B986800F00C02082A3CD091
:101700000C2A13D0042A0FD01D4B586800F46040F7
:101710004FF4604393FAA3F3B3FA83F3D840431C26
:101720004FF40040984070471648704700F470111D
:101730004FF4701292FAA2F2B2FA82F221FA02F295
:1017400011498A5C00F440004FF4400393FAA3F37C
:10175000B3FA83F3D8400130094B9B6813F4803F00
:1017600005D00A4B03FB02F3B3FBF0F07047054BC7
:1017700003FB02F3B3FBF0F070470448704700BF6F
:10178000003802400024F400C480000800366E01D6
:101790008D4B1B6803F001038B4214D201290CD03E
:1017A000894A136823F001030B431360136803F0A5
:1017B00001038B4207D001207047834A136843F02E
:1017C00004031360ECE770B5036813F0020F06D052
:1017D0007E4A936823F0F0038468234393600C46A9
:1017E0000546036813F0010F00F0A3804368022B45
:1017F00018D0032B48D0012B5BD04FF4007292FA23
:10180000A2F2724A10684FF4007292FAA2F2B2FA8F
:1018100082F202F01F02012101FA02F2024215D106
:101820000120CDE04FF4003292FAA2F2674A10682C
:101830004FF4003292FAA2F2B2FA82F202F01F02E0
:10184000012101FA02F2024200F0BB805F498A687E
:1018500022F0030213438B60FFF7C8F906466B685A
:10186000022B39D0032B46D0012B53D0574B9B680A
:1018700013F00C0F5DD0FFF7B9F9801B41F28833EC
:101880009842F3D903209BE04FF0007292FAA2F243
:101890004E4A10684FF0007292FAA2F2B2FA82F247
:1018A00002F01F02012101FA02F20242CED1012010
:1018B00086E0022292FAA2F2444A1068022292FAC8
:1018C000A2F2B2FA82F202F01F02012101FA02F240
:1018D0000242BBD1012073E03C4B9B6803F00C0338
:1018E000082B26D0FFF782F9801B41F288339842FB
:1018F000F2D9032064E0354B9B6803F00C030C2BFA
:1019000017D0FFF773F9801B41F288339842F2D960
:10191000032055E02D4B9B6803F00C03042B08D0EB
:10192000FFF764F9801B41F288339842F2D9032013
:1019300046E0254B1B6803F00103A34214D9012C98
:101940000CD0214A136823F001032343136013686A
:1019500003F00103A34207D0012031E01A4A1368C3
:1019600043F004031360ECE72B6813F0040F06D078
:10197000164A936823F4E063E9680B4393602B688D
:1019800013F0080F07D0114A936823F460532969B4
:1019900043EAC1039360FFF7ADFE0C4B9B6803F075
:1019A000F003F02292FAA2F2B2FA82F2D340084A8D
:1019B000D35CD840074B18600020FFF7EDF80020FB
:1019C00070BD0120FCE700BF003C0240003802402F
:1019D000D080000800000020014B1868704700BF4D
:1019E0000000002008B5FFF7F7FF074B9B6803F4E2
:1019F000E0634FF4E06292FAA2F2B2FA82F2D340CC
:101A0000024AD35CD84008BD00380240E08000089C
:101A100008B5FFF7E1FF074B9B6803F460534FF4F1
:101A2000605292FAA2F2B2FA82F2D340024AD35C36
:101A3000D84008BD00380240E08000082DE9F84396
:101A400004460268136923F44053C1680B431361D1
:101A500083680269134342691343C2691A430168E8
:101A6000CB6823F4164323F00C031343CB600268C6
:101A7000536923F4407381690B435361C369B3F520
:101A8000004F5CD00268B34B9A4200F00C81FFF724
:101A9000A9FF00EB800000EB80006568AD00B0FBA3
:101AA000F5F5AD4FA7FB05356D092E01FFF79AFF40
:101AB00000EB800000EB80006568AD00B0FBF5F93D
:101AC000FFF790FF00EB800000EB80006568AD0041
:101AD000B0FBF5F5A7FB05356D094FF0640808FB71
:101AE00015952D013235A7FB05356D0905F0F0057B
:101AF0003544FFF777FF00EB800000EB800066685D
:101B0000B600B0FBF6F6FFF76DFF00EB800000EBD0
:101B1000800063689B00B0FBF3F0A7FB0030400936
:101B200008FB10684FEA081808F13208A7FB0837CD
:101B3000C7F3431723682F449F60BDE8F88302680A
:101B4000844B9A4257D0FFF74DFF00EB800000EB2B
:101B5000800065686D00B0FBF5F57F4FA7FB05358C
:101B60006D092E01FFF73EFF00EB800000EB8000C7
:101B700065686D00B0FBF5F9FFF734FF00EB8000FE
:101B800000EB800065686D00B0FBF5F5A7FB05353F
:101B90006D094FF0640808FB1595ED003235A7FB81
:101BA00005356D096D0005F4F8753544FFF71AFF2A
:101BB00000EB800000EB800066687600B0FBF6F674
:101BC000FFF710FF00EB800000EB800063685B0014
:101BD000B0FBF3F3A7FB03235B0908FB13684FEA91
:101BE000C80808F13208A7FB0837C7F34217236873
:101BF0002F449F60A1E7FFF70BFF00EB800000EB95
:101C0000800065686D00B0FBF5F5534FA7FB053507
:101C10006D092E01FFF7FCFE00EB800000EB800059
:101C200065686D00B0FBF5F9FFF7F2FE00EB800090
:101C300000EB800065686D00B0FBF5F5A7FB05358E
:101C40006D094FF0640808FB1595ED003235A7FBD0
:101C500005356D096D0005F4F8753544FFF7D8FEBC
:101C600000EB800000EB800066687600B0FBF6F6C3
:101C7000FFF7CEFE00EB800000EB800063685B00A6
:101C8000B0FBF3F3A7FB03235B0908FB13684FEAE0
:101C9000C80808F13208A7FB0837C7F342172368C2
:101CA0002F449F6049E7FFF7B3FE00EB800000EB95
:101CB00080006568AD00B0FBF5F5274FA7FB053543
:101CC0006D092E01FFF7A4FE00EB800000EB800001
:101CD0006568AD00B0FBF5F9FFF79AFE00EB8000F8
:101CE00000EB80006568AD00B0FBF5F5A7FB05359E
:101CF0006D094FF0640808FB15952D013235A7FBDF
:101D000005356D0905F0F0053544FFF781FE00EB60
:101D1000800000EB80006668B600B0FBF6F6FFF7C7
:101D200077FE00EB800000EB800063689B00B0FB57
:101D3000F3F3A7FB03235B0908FB13684FEA0818BA
:101D400008F13208A7FB0837C7F3431723682F446D
:101D50009F60F2E6003801401F85EB512DE9F0410C
:101D600005460E4690461C46FEF740FF0746B8F172
:101D7000000F29D02B681B6836EA030351D1B4F158
:101D8000FF3FF7D024B1FEF731FFC01BA042F1D9CD
:101D90002A68D36823F08003D3602A68D36823F0CD
:101DA0002003D3602A68D36823F48073D3602A6841
:101DB000536923F001035361012385F8393000236F
:101DC00085F8383003202AE02B681B6836EA0303C5
:101DD00024D0B4F1FF3FF7D024B1FEF707FFC01BBA
:101DE000A042F1D92A68D36823F08003D3602A681F
:101DF000D36823F02003D3602A68D36823F4807368
:101E0000D3602A68536923F001035361012385F8E5
:101E10003930002385F83830032000E00020BDE889
:101E2000F0810020FBE748B310B5044690F8393044
:101E3000FBB1022384F839302268D36823F40053BD
:101E4000D3602046FFF7FAFD2268136923F490431C
:101E500013612268536923F02A0353612268D3680F
:101E600043F40053D3600020E063012384F8393049
:101E700010BD80F8383001F081FADAE701207047B0
:101E800070B504460D461E4690F83930DBB2012B82
:101E900001D0122B5FD1002D5FD0002A5FD094F8C3
:101EA0003830012B5DD0012384F838300023E36300
:101EB00094F83930DBB2122B05D0222384F8393064
:101EC000A285E28520E0322384F83930F8E73346F2
:101ED000002220212046FFF741FF002843D123693B
:101EE00033B923685B68C3F3080325F8023B0BE0B2
:101EF00023685B68DBB225F8013B05E023685B687B
:101F000003F07F032B700135E38DA3B1013BE38523
:101F1000A368B3F5805FDAD0334600222021204643
:101F2000FFF71CFF08BB2369002BE7D123685B6820
:101F30002B700135E8E794F83930DBB2322B06D04C
:101F4000012384F83930002084F8380004E012239B
:101F500084F83930F7E7022070BD0120FCE701204A
:101F6000FAE70220F8E70320F6E70320F4E7000091
:101F7000012800D0704708B54FF480510148FEF7A2
:101F800097FF08BD00000240F0B589B02B4BDA691D
:101F900042F00402DA61DA6902F004020092009A67
:101FA000DA6942F00102DA61DA6902F001020192B3
:101FB000019ADA6942F00202DA61DB6903F0020396
:101FC0000293029B1E4F00224FF400413846FEF759
:101FD00069FF1C4D01224FF480512846FEF762FF35
:101FE000012210213846FEF75DFF01260396164BAD
:101FF00004930024059403A92846FEF789FE48F2BD
:102000001003039304960594069403A93846FEF73B
:102010007FFE4FF48053039304960594069403A91E
:102020002846FEF775FE224621460620FEF704FEEE
:102030000620FEF735FE09B0F0BD00BF00380240B3
:10204000000402400000024000001110FEE7000002
:1020500008B50B480B4B03604FF416534360002345
:102060008360C36003610C2242618361C361FFF737
:10207000DAFE00B908BDFF210348FFF7E7FF00BF04
:102080000802002000480040E880000808B50B481E
:102090000B4B03604FF4E133436000238360C36064
:1020A00003610C2242618361C361FFF7BCFE00B98A
:1020B00008BDEC210348FFF7C9FF00BF480200201C
:1020C00000380140E880000800B593B0214A136849
:1020D00023F4C05343F400631360022305930122E9
:1020E0000892102209920E9300230F934FF480233D
:1020F00010934FF48003119305A8FEF735FF00BB42
:102100000F2300930323019300230293039304936B
:1021100001216846FFF73CFBB8B9FFF75DFC0E4BA9
:10212000A3FB00308009FEF7C7FD0420FEF7DAFDAF
:10213000002211464FF0FF30FEF77EFD13B05DF830
:1021400004FBC1210548FFF781FFCF210348FFF7BA
:102150007DFF00BF00700040D34D6210E880000892
:10216000F0B583B0FEF72EFDFFF7AEFFFFF70CFFD3
:10217000FFF76EFFFFF78AFF304802F0E5F93048BD
:1021800002F0E2F92F4802F0DFF92F4802F0DCF903
:1021900069462E4802F050F901224FF400412C48C4
:1021A000FEF780FE4FF4167001F024FA50B929486A
:1021B00002F0CAF9284802F037F942F21070FEF72F
:1021C0001BFDFAE707460146244802F035F9394677
:1021D000234802F031F905E04FF41671214802F06E
:1021E0002BF9A4B93D460024052301220DF1070176
:1021F0001D48FFF745FE0028F3D16A1C9DF8073003
:102200002B700134B4F5167FE6DA1546ECE721466B
:10221000164802F011F93B46002505E05E1C1878CF
:1022200002F022F901353346AC42F7DC104802F0E7
:102230008BF92146384601F02BF8D3E7F8800008E7
:1022400014810008548100088C810008A4810008D2
:1022500000040240C0810008EC81000804820008EC
:102260002082000844820008080200206C820008D6
:10227000888100080378242B13D110B4421C00235A
:102280001C4610782A2808D0013244400133DBB2C2
:10229000502BF6D96FF0010001E00C70002010BC4B
:1022A00070474FF0FF30704710B4136801E0013BF6
:1022B00001300478242C01D0002BF8DC242C08D029
:1022C00000231360002010BC704701300C70013BEC
:1022D000013104780A2C01D0002BF6DC0A200870AA
:1022E0001360EFE708B503681A780A7059782C294B
:1022F00001D02A2903D102330360002008BD03481E
:1023000002F09AF86FF00100F8E700BF8882000839
:1023100070B582B005460C4606680A2201A930460F
:1023200003F01AFA208054B1019B1A782C2A01D0AC
:102330002A2A0DD101332B60002002B070BD019B11
:10234000B342F1D1074802F0FFF86FF00100F4E763
:102350005A1C01921978044802F06EF86FF00100DF
:10236000EBE700BFAC820008C882000870B582B0FD
:1023700005460C4606680A2201A9304603F0ECF92E
:10238000207054B1019B1A782C2A01D02A2A0DD131
:1023900001332B60002002B070BD019BB342F1D12C
:1023A000074802F0D1F86FF00100F4E75A1C0192DF
:1023B0001978044802F040F86FF00100EBE700BF25
:1023C000FC820008C882000870B582B004460DF196
:1023D0000701FFF74FFF064608B9002306E015483E
:1023E00002F0B2F819E00133DBB22C46651C22780A
:1023F0002A2A01D04F2BF6D94F2B15D81022694627
:10240000284603F0A9F9044610B9009BAB4207D057
:10241000E4B29DF80730A34209D1304602B070BD46
:10242000054802F091F8F3E76FF00106F5E76FF069
:102430000206F2E7188300084C83000870B582B0EA
:1024400004460E46056801A9284603F0E5F8C6E9EA
:10245000000100220023FDF7E9FE10B1019BAB4211
:102460000AD0019B1A782C2A01D02A2A0AD10133DA
:102470002360002002B070BD074802F065F86FF0DD
:102480000100F7E75A1C01921978044801F0D4FFC3
:102490006FF00100EEE700BF94830008C8820008D7
:1024A0002DE9F041DAB0064601ACB34D0FCD0FC4B3
:1024B00095E8070084E80700771C59973378242BA8
:1024C00040F09B860024062C00F2928601AB53F864
:1024D000245005223946284602F058FA064610B123
:1024E0000134E4B2EFE72946A44801F0A5FF599B67
:1024F0009A1D59925B792C2B40F08286052C00F2B4
:102500007186DFE814F006008E010903BF0367043B
:1025100091059B4C204602F017F89A4802F014F8F7
:10252000204602F011F8FE238DF8583100238DF873
:102530002630599A531C599311788DF82410931C06
:10254000599353788DF825300A2208A909A803F079
:1025500003F9C0B28DF8100120B9089A09AB9A426C
:1025600000F0EE80599A531C599311788DF824107D
:10257000931C599353788DF825300A2208A909A88D
:1025800003F0EAF8C0B28DF8110120B9089A09AB3E
:102590009A4200F0DC80599A531C599311788DF8B7
:1025A0002410931C599353788DF825300A2208A9DA
:1025B00009A803F0D1F8C3B28DF8123123B90899F4
:1025C00009AA914200F0CA809DF811219DF81011CE
:1025D0006D4801F031FF599A531C599312782E2AF5
:1025E00040F0C380DA1C59929B782C2B40F0DC80A1
:1025F0000DF2131159A8FFF775FE002840F003866D
:102600009DF81311614801F017FF46A959A8FFF77B
:1026100015FF002840F0CF8046ABD3E900235C488B
:1026200001F00AFF48A959A8FFF75CFE002840F016
:10263000ED859DF82011574801F0FEFE4AA959A8E2
:10264000FFF7FCFE002840F0BD804AABD3E9002331
:10265000514801F0F1FE4CA959A8FFF743FE0028AC
:1026600040F0D7859DF830114C4801F0E5FE4EA9A9
:1026700059A8FFF7E3FE0446002840F0AA804EABBD
:10268000D3E90023464801F0D7FE599B1A782C2A3B
:1026900040F0A68001335993599A531C59931178ED
:1026A0008DF82410931C599353788DF825300A2205
:1026B00008A909A803F050F8C0B28DF8480120B964
:1026C000089A09AB9A4200F09E80599A531C59937C
:1026D00011788DF82410931C599353788DF8253078
:1026E0000A2208A909A803F037F8C0B28DF84901F9
:1026F00020B9089A09AB9A4200F08C80599A531C71
:10270000599311788DF82410931C599353788DF8B0
:1027100025300A2208A909A803F01EF8C0B28DF8D6
:102720004A01002840F06585089A09AB9A4240F0BA
:1027300060851C4801F008FF6FF0010400F059BDEE
:10274000184801F001FF6FF0010400F052BD154878
:1027500001F0FAFE6FF0010400F04BBD114801F0EA
:10276000F3FE6FF0010400F044BD0E4801F0ECFEF2
:102770006FF0010400F03DBDA8800008B48300089C
:10278000D88300080484000858840008A484000842
:1027900004850008248500084C8500086C85000825
:1027A0009085000830840008B34801F0CDFE6FF03A
:1027B000010400F01EBDB14801F0C6FE6FF0010437
:1027C00000F017BDAD4801F0BFFE6FF0010400F04E
:1027D00010BDAA4801F0B8FE6FF0010400F009BD79
:1027E00050A959A8FFF72AFE30B950ABD3E900230E
:1027F000A34801F021FE4FE7A04801F0A5FE6FF0CD
:10280000010400F0F6BC9F4801F09EFE6FF0010449
:1028100000F0EFBC9B4801F097FE6FF0010400F060
:10282000E8BC994C204601F08FFE984801F08CFEE0
:10283000204601F089FE00238DF82630599A531C5A
:10284000599311788DF82410931C599353788DF86F
:1028500025300A2208A909A802F07EFFC0B28DF82F
:10286000800020B9089A09AB9A4200F0E780599A93
:10287000531C599311788DF82410931C5993537855
:102880008DF825300A2208A909A802F065FFC0B218
:102890008DF8810020B9089A09AB9A4200F0D480E3
:1028A000599A531C599311788DF82410931C5993FD
:1028B00053788DF825300A2208A909A802F04CFFA8
:1028C000C3B28DF8823023B9089909AA914200F069
:1028D000C1809DF881209DF880106D4801F0ACFD0D
:1028E000599A531C599312782E2A40F0B980DA1C59
:1028F00059929B782C2B40F0B98022A959A8FFF758
:102900009DFD002840F0D880DDE92223614801F0D8
:1029100093FD24A959A8FFF7E5FC002840F07C842A
:102920009DF890105C4801F087FD26A959A8FFF793
:1029300085FD002840F0C680DDE92623574801F0D8
:102940007BFD28A959A8FFF7CDFC002840F067843B
:102950009DF8A010524801F06FFD599B5A1C5992E6
:1029600019783039C9B28DF8A1104E4801F064FDD4
:1029700059994A1C59920B782C2B40F0A980531C72
:10298000599349788DF82410931C599353788DF8F6
:1029900025300A2208A909A802F0DEFEC1B28DF88E
:1029A000A21021B9089A09AB9A4200F097803E48DC
:1029B00001F042FD599B5A1C59921B782C2B40F078
:1029C00093802AA959A8FFF739FD002840F092808A
:1029D000DDE92A23354801F02FFD2CA959A8FFF77E
:1029E0002DFD002840F08C80DDE92C23304801F0DB
:1029F00023FD2EA959A8FFF775FC002840F012848A
:102A00009DF8B810264801F017FD30A959A8FFF726
:102A100015FD00287AD1DDE93023264801F00CFDB0
:102A200032A959A8FFF75EFC0446002840F0FD8358
:102A30009DF8C8101A4801F0FFFCDAE3114801F0D4
:102A400083FD6FF00104D4E30E4801F07DFD6FF0CB
:102A50000104CEE30B4801F077FD6FF00104C8E3F9
:102A6000084801F071FD6FF00104C2E3054801F070
:102A70006BFD6FF00104BCE384840008DC84000873
:102A8000B8850008308400084C880008DC85000800
:102A90005884000804850008248500084C85000837
:102AA0006C850008088600085486000880860008A7
:102AB000AC860008CC860008A94801F045FD6FF0FF
:102AC000010496E3A64801F03FFD6FF0010490E396
:102AD000A44801F039FD6FF001048AE3A24801F037
:102AE00033FD6FF0010484E39E4801F02DFD6FF08B
:102AF00001047EE39A4801F027FD6FF0010478E3BA
:102B0000974801F021FD6FF0010472E3944801F051
:102B10001BFD6FF001046CE3944C204601F014FDA2
:102B2000934801F011FD204601F00EFDFE238DF8C3
:102B30000931599B1A782C2A38D101335993599B62
:102B40001A782C2A43D101335993599B1A782C2A8D
:102B50004AD101335993599B1A782C2A55D1013304
:102B60005993599B1A782C2A5CD101335993599B5C
:102B70001A782C2A67D101335993599B1A782C2A39
:102B80006ED101335993599B1B782C2B00F059833C
:102B900042A959A8FFF7A6FB0446002840F053833A
:102BA0009DF80811734801F047FC22E334A959A8A5
:102BB000FFF744FC28B9DDE934236F4801F03CFC01
:102BC000BDE7674801F0C0FC6FF0010411E336A9CE
:102BD00059A8FFF787FB002840F02A839DF8D810FA
:102BE000664801F029FCB0E734A959A8FFF726FC94
:102BF00028B9DDE93423604801F01EFCABE75848F2
:102C000001F0A2FC6FF00104F3E23AA959A8FFF722
:102C100069FB002840F00F839DF8E810584801F048
:102C20000BFC9EE73CA959A8FFF708FC28B9DDE991
:102C30003C23544801F000FC99E7494801F084FC2A
:102C40006FF00104D5E23EA959A8FFF74BFB00281D
:102C500040F0F4829DF8F8104B4801F0EDFB8CE752
:102C600040A959A8FFF7EAFB30B940ABD3E90023EC
:102C7000464801F0E1FB86E7394801F065FC6FF05A
:102C80000104B6E2424C204601F05EFC414801F0EE
:102C90005BFC204601F058FC599A531C599311785B
:102CA0008DF85010931C599353782C2B14D13A481B
:102CB00001F0C2FB599A531C5993117830398DF8A1
:102CC0005110931C599353782C2B0ED0334801F09C
:102CD0003BFC6FF001048CE2304801F035FC6FF0F2
:102CE000010486E20133599301360B2E14DC599B03
:102CF0001A782C2AF6D014AB9919023159A8FFF78B
:102D000035FB002840F0A28214AB33449A78314658
:102D1000234801F091FBE7E718A959A8FFF78EFBBC
:102D2000002845D1DDE918231E4801F085FB1AA9CA
:102D300059A8FFF783FB002840D1DDE91A231A4880
:102D400001F07AFB1CA959A8FFF778FB044600287C
:102D50003AD1DDE91C23154801F06EFB49E200BFC2
:102D6000DC8400082C860008308400084C880008A9
:102D7000F4860008188800082087000840870008AB
:102D80006C8700089C870008C4870008F487000847
:102D90004888000878880008A8880008848400080B
:102DA000CC880008EC8800088086000808890008A4
:102DB000864801F0C9FB6FF001041AE2834801F074
:102DC000C3FB6FF0010414E2804801F0BDFB6FF01B
:102DD00001040EE27E4C204601F0B6FB7D4801F076
:102DE000B3FB204601F0B0FB0DF5B17159A8FFF718
:102DF000BDFA002846D1784B1B788BB99DF862113B
:102E0000754C2170754801F017FB21781E2000F0E9
:102E1000BFFB734B186000283AD0724801F094FB56
:102E20000DF2631159A8FFF7A1FA002836D19DF8D9
:102E300063116D4801F000FB694BD3F800809DF8E9
:102E400063314FF4617707FB03F708EB0705624B2B
:102E50001B7808F807309DF863316B70A91C59A8DE
:102E6000FFF784FA0446F8B918F807105F4801F034
:102E7000E3FA69785E4801F0DFFAA9785D4801F06D
:102E8000DBFA76E05C4801F05FFB6FF00104B0E133
:102E90005A4801F059FB6FF00304AAE1584801F0C9
:102EA00053FB6FF00104A4E1564801F04DFB6FF0B5
:102EB00001049EE106EB460253002B44191D59A85C
:102EC000FFF754FA48B906EB460253002B441A792F
:102ED00031464D4801F0B0FA55E04C4801F034FB62
:102EE0006FF0010485E106EB460253002B44591DA7
:102EF00059A8FFF73BFA48B906EB460253002B44AA
:102F00005A793146424801F097FA44E0414801F0CD
:102F10001BFB6FF001046CE106EB460253002B44EF
:102F2000991D59A8FFF7F4F948B906EB460253007A
:102F30002B44DA883146384801F07EFA33E03748CE
:102F400001F002FB6FF0010453E106EB460253006F
:102F50002B4403F1080159A8FFF708FA60BB06EB00
:102F6000460253002B441A7A31462D4801F064FA88
:102F70000136032E26DC599B1A782A2A22D02C2AC5
:102F800098D101335993599B1A782A2A1AD02C2A9E
:102F9000A9D101335993599B1A782A2A12D02C2A85
:102FA000BAD101335993599B1A782A2A0AD02C2A6C
:102FB000CBD101335993DBE71A4801F0C5FA6FF022
:102FC000010416E100232B7713E100BFDC84000825
:102FD0004C88000830890008880200208889000891
:102FE000F0010020E0890008388A0008808A000883
:102FF000988A0008B08A00085C890008A88900083F
:10300000148A0008548A0008F48A0008D08A00084C
:10301000408B0008148B00088C8B0008648B000820
:10302000D08B0008B08B00088E4C204601F08CFA43
:103030008D4801F089FA204601F086FA0CA959A8BA
:10304000FFF7FCF9002840F09D80DDE90C2387485C
:1030500001F0F2F90EA959A8FFF744F9002840F051
:10306000F8809DF83810824801F0E6F910A959A8B7
:10307000FFF7E4F9002840F08B80DDE910237D485C
:1030800001F0DAF912A959A8FFF72CF9002840F04D
:10309000E3809DF84810784801F0CEF900238DF8C0
:1030A0002630599A531C599311788DF82410931C8B
:1030B000599353788DF825300A2208A909A802F0FF
:1030C0004BFBC0B28DF8490018B9089A09AB9A4277
:1030D00064D0599A531C599311788DF82410931C7D
:1030E000599353788DF825300A2208A909A802F0CF
:1030F00033FBC0B28DF84A0018B9089A09AB9A425E
:1031000052D0599A531C599311788DF82410931C5E
:10311000599353788DF825300A2208A909A802F09E
:103120001BFBC3B28DF84B301BB9089909AA914219
:1031300040D09DF84A209DF84910504801F07CF994
:10314000599B5A1C59921B782E2B39D1D11C59915D
:1031500093782C2B3AD14B1C5993D2788DF84C2074
:103160008B1C59934B782C2B36D113A959A8FFF7F8
:10317000B9F80446002872D19DF84C10404801F07F
:103180005BF936E03F4801F0DFF96FF0010430E011
:103190003C4801F0D9F96FF001042AE03A4801F007
:1031A000D3F96FF0010424E0374801F0CDF96FF056
:1031B00001041EE0344801F0C7F96FF0010418E083
:1031C000314801F0C1F96FF0010412E02E4801F01E
:1031D000BBF96FF001040CE02B4801F0B5F96FF07A
:1031E000010406E0294801F0AFF94FF0FF3400E098
:1031F000002420465AB0BDE8F0814FF0FF34F8E7D4
:103200006FF00104F5E76FF00104F2E76FF00104DD
:10321000EFE76FF00104ECE76FF00104E9E76FF00E
:103220000104E6E76FF00104E3E76FF00104E0E773
:103230006FF00104DDE76FF00104DAE76FF00104DD
:10324000D7E70024D5E76FF00104D2E76FF001045F
:10325000CFE76FF00104CCE76FF00104C9E76FF02E
:103260000104C6E7F08B00082C8C000804850008D8
:10327000688C00084C850008908C00085884000871
:10328000B88C0008DC84000830840008EC8C00084E
:1032900030B597B005460C4615910E4B00221A70BA
:1032A00005E001A8FFF7FCF801A8FFF78DF81598D5
:1032B00000280CDD201A15AA01A92844FEF7F4FF06
:1032C00001460028EDD0044801F0B6F8E9E717B050
:1032D00030BD00BF88020020008D000800B585B019
:1032E000254B5A6A42F000425A625A6A02F0004282
:1032F0000192019A1A6A42F001021A621A6A02F0F5
:1033000001020292029A5A6A42F080525A625B6A41
:1033100003F080530393039B0320FDF77BFC002203
:1033200011466FF00B00FDF787FC002211466FF08D
:103330000A00FDF781FC002211466FF00900FDF73D
:103340007BFC002211466FF00400FDF775FC0022A3
:1033500011466FF00300FDF76FFC002211466FF07D
:103360000100FDF769FC002211464FF0FF30FDF728
:1033700063FC05B05DF804FB0038024000B589B07D
:1033800003681E4A934205D01D4A93421CD009B0DF
:103390005DF804FB1B4B1A6A42F480421A621B6AF6
:1033A00003F480430193019B4FF4C0630393022312
:1033B000049301230593032306930723079303A98B
:1033C0001148FDF7A5FCE2E70E4B5A6A42F4802251
:1033D0005A625B6A03F480230293029B4FF44063BA
:1033E00003930223049301230593032306930723E6
:1033F000079303A90548FDF78BFCC8E70038014097
:103400000048004000380240000002400004024032
:103410007047FEE7FEE7FEE7FEE77047704770473C
:1034200008B5FDF7DBFBFDF76EFC08BD08B5012014
:10343000FDF742FD08BD70B50D461646002404E0B8
:1034400000F070F8287001340135B442F8DB3046E2
:1034500070BD70B51646002405E04D1C087800F0DC
:1034600055F801342946B442F7DB304670BD000000
:1034700008B503460B4A126842B10A4A1068034471
:103480006A46934206D8074A136008BD054A0649B2
:103490001160F2E700F084F80C2303604FF0FF3076
:1034A000F3E700BFF4010020900200204FF0FF304E
:1034B00070474FF400534B60002070470120704765
:1034C000002070470E4B1A6842F480721A609968A7
:1034D0000C4A0A409A601A6822F0885222F00112BF
:1034E0001A601A6822F480221A609A6822F47D0217
:1034F0009A600022DA60044B4FF000629A607047D5
:10350000003802400CC0FF8800ED00E0044B1B684F
:1035100013F0400FFAD0C0B2014B58600020704742
:1035200000380140044B1B6813F0200FFAD0024B07
:103530005868C0B2704700BF003801400D4885464A
:10354000002103E00C4B5B58435004310B480C4BFB
:1035500042189A42F6D30B4A02E0002342F8043B99
:10356000094B9A42F9D3FFF7ADFF00F01FF8FEF7C1
:10357000F7FD704700800020209700080000002021
:10358000D4010020D401002090020020FEE70000BA
:10359000024B0A460146186800F03CB804000020BF
:1035A000014B1868704700BF0400002070B500256B
:1035B0000C4E0D4CA41BA410A54209D104F066FDCD
:1035C00000250A4E0A4CA41BA410A54205D170BDCB
:1035D00056F8253098470135EEE756F825309847DC
:1035E0000135F2E7189700081897000818970008A7
:1035F0001C970008024B0146186800F065B800BF30
:103600000400002003460244934200D1704703F8AF
:10361000011BF9E738B502FB01F4214600F054F82C
:10362000054618B122460021FFF7ECFF284638BDB9
:1036300038B50546002943D051F8043C0C1F002B37
:10364000B8BFE41803F065FD1E4A1368104633B98D
:10365000636014602846BDE8384003F05BBDA342B8
:103660000BD921686218934201BF1A685B6852182F
:10367000226063600460EDE713465A680AB1A24213
:10368000FAD919685818A0420BD12068014458187B
:1036900082421960DED110685268014419605A6094
:1036A000D8E702D90C232B60D4E7206821188A427E
:1036B00001BF116852680918216062605C60C9E747
:1036C00038BD00BFFC01002070B5CD1C25F00305FE
:1036D00008350C2D38BF0C25002D064601DBA9420C
:1036E00003D90C233360002070BD03F012FD214A82
:1036F0001468214691B9204C23681BB9304600F06C
:103700002BFF20602946304600F026FF431C24D1C1
:103710000C233046336003F0FDFCE4E70B685B1BD1
:1037200018D40B2B0FD90B60CC18CD50304603F0BA
:10373000F1FC04F10B00231D20F00700C31AD3D0C5
:103740005A42E250D0E74B688C4216BF6360136068
:103750000C46EBE70C464968CCE7C41C24F0030494
:10376000A04205D0211A304600F0F6FE0130CFD03D
:103770002560DBE7FC01002000020020002B2DE982
:10378000F0471E46BBBF03F100431E4600232D2316
:1037900088B0149FDDE9121A27F02007462F14463F
:1037A000109D0B7004D0452F00D10135022300E09D
:1037B000032307AA049206AACDE902A2CDE90035A7
:1037C0002246334602F030F9472F804602D1119B42
:1037D000DB0726D5462F08EB050911D198F80030F4
:1037E000302B0AD10022002320463146FCF71EFD73
:1037F00018B9C5F10105CAF80050DAF8003099444B
:103800000022002320463146FCF710FD38B9302253
:10381000079B4B4505D2591C07911A70F8E7CDF864
:103820001C904046079B159AA3EB0803136008B051
:10383000BDE8F087F7B50029B4BF2D232B2304463C
:10384000B8BF4942092904F8022B437021DD0DF16C
:1038500007031F460A2691FBF6F506FB1511092DF5
:1038600001F1300103F8011C03F1FF32294609DCA4
:103870003031023B02F8011CBB42224604D3101A2D
:1038800003B0F0BD1346E6E713F8012B04F8012B53
:10389000F2E7302319448370021DC170EFE7000086
:1038A0002DE9F04F91B00C461A9F93461E460546EF
:1038B00003F092FB036818460993FCF7E9FC002328
:1038C0000E933B680A90073323F0070303F10802C5
:1038D00094F81880D4F800A03A60D3E90023C4E932
:1038E0001223D4E9127929F000430B934FF0FF32F1
:1038F000A64B38460B99FDF7A1F868BB4FF0FF3295
:10390000A24B38460B99FCF7A5FC28BB00220023EC
:1039100038464946FCF794FC10B12D2384F8433017
:103920009B4F9C4BB8F1470F98BF1F4603234FF0A6
:10393000000923612AF00403236000965B460FAA66
:103940002146284600F0E2F9013040F090804FF027
:10395000FF3011B0BDE8F08F3A464B463846494635
:10396000FDF76CF810B18C4F8C4BDBE763684AF4C1
:103970008062591C0DA80EA940D1062363604FF048
:10398000000C0DF13303CDE9012363682260CDE91A
:10399000030800933A464B46CDE9051C2846FFF73D
:1039A000EDFE08F0DF03472B074609D10D9BD81C1D
:1039B00002DB6268934247DDA8F102085FFA88F8EB
:1039C000B8F1650F0D9924D80139424604F1500031
:1039D0000D91FFF72FFF0E9A81461318012A2361DC
:1039E00002DC2268D10701D5013323619DF8333011
:1039F000002BA2D02D2384F843309EE7B8F1670F47
:103A000000F06E81B8F1470FB9D1002BB7D1012377
:103A1000B4E7B8F1660F19D1002963680CDD2161A4
:103A200013B92268D20702D501330B4423610D9BE1
:103A30004FF00009A365D9E713B92268D00701D573
:103A40000233F3E70123F1E74FF06708DDE90D32B8
:103A5000934205DB22682361D107E8D50133E5E70E
:103A6000002BCCBF0123C3F102031344DEE723681C
:103A70005A0507D423693A4659462846B0470130CB
:103A800029D164E7B8F1650F40F2D780D4E912017B
:103A900000220023FCF7CAFB88B30123404A5946A1
:103AA0002846B04701303FF452AFDDE90D239A427A
:103AB00002DB2368D8070ED5DDE9092359462846DD
:103AC000B04701303FF443AF002704F11A080E9BC2
:103AD000013BBB4209DC23689F0700F1FD80E068E1
:103AE0000F9B9842B8BF184633E701234246594618
:103AF0002846B04701303FF42AAF0137E7E70D9B76
:103B0000002B2BDC0123264A59462846B0470130BA
:103B10003FF41DAF0D9B23B90E9B13B92368D90742
:103B2000D9D5DDE9092359462846B04701303FF48D
:103B30000EAF4FF0000804F11A090D9B5B4243459C
:103B400001DC0E9B97E701234A4659462846B047B9
:103B500001303FF4FCAE08F10108EEE70E9AA36DC8
:103B60009A42A8BF1A46002A904607DD13465946D6
:103B70003A462846B04701303FF4E9AE04F11A0353
:103B80004FF0000A28EAE8780B9315E0FFFFEF7F7B
:103B9000648D0008608D00086C8D0008688D000839
:103BA000708D000801230B9A59462846B047013012
:103BB0003FF4CDAE0AF1010AD4F85890A9EB0803FE
:103BC0005345EFDCDDE90D239A424F4414DB2368B3
:103BD000DA0711D40E9B0D99A3EB0902A3EB01099F
:103BE0009145A8BF9146B9F1000F0DDC002729EAE5
:103BF000E97904F11A0818E0DDE909235946284655
:103C0000B0470130E6D1A2E64B463A46594628462F
:103C1000B0470130EAD19AE6012342465946284688
:103C2000B04701303FF493AE0137DDE90D239B1A15
:103C3000A3EB0903BB42EFDC4DE70E9A012A01DC3E
:103C4000DB0738D501233A4659462846B0470130AC
:103C50003FF47DAEDDE9092359462846B0470130DF
:103C600007F101073FF473AED4E912010E9B002265
:103C700003F1FF380023FCF7D9FAC0B943463A46AE
:103C800059462846B04701300DD160E6012342462F
:103C900059462846B04701303FF459AE01370E9BD4
:103CA000013BBB42F2DC4B4604F15002E4E6002744
:103CB00004F11A08F3E70123E1E7012342465946DC
:103CC0002846B04701303FF442AE0137E3680F9A0F
:103CD0009B1ABB42F1DC02E7002704F11908F5E763
:103CE000002B3FF494AE4FF0000CCDE9051C0DF114
:103CF00033012260CDE90308CDE9012100933A4662
:103D00004B462846FFF73AFD07464FE62DE9F047B8
:103D100091461F468A680B6906469342B8BF134610
:103D2000C9F8003091F843200C46DDF8208012B12C
:103D30000133C9F800302368990642BFD9F8003032
:103D40000233C9F80030256815F0060507D104F1E3
:103D5000190AE368D9F800209B1AAB4229DC94F8D1
:103D600043302268003318BF012392062ED404F199
:103D7000430239463046C047013021D02368E56808
:103D800003F00603042B18BF0025D9F800204FF0DC
:103D9000000908BFAD1AA368226908BF25EAE575C6
:103DA0009342C4BF9B1AED181A344D451AD1002016
:103DB00008E00123524639463046C047013003D15E
:103DC0004FF0FF30BDE8F0870135C2E73020E11841
:103DD00081F843005A1C94F845102244023382F8BB
:103DE0004310C4E70123224639463046C04701301C
:103DF000E6D009F10109D8E72DE9F04301F1430CC0
:103E00000C46097E85B06E291746064698460C9AE0
:103E100000F0B38022D8632936D00AD8002900F0F8
:103E2000B980582900F0838004F1420584F84210DB
:103E300032E0642901D06929F6D1206813680506AB
:103E400003F104012AD51B681160002B03DA2D222F
:103E50005B4284F843206F480A2239E0732900F05E
:103E60009D8008D86F2920D07029DDD1236843F0C8
:103E70002003236003E0752917D07829D4D1782353
:103E8000654884F8453055E0136804F14205191D72
:103E90001B68116084F8423001238CE01B6810F02D
:103EA000400F116018BF1BB2CFE713682568181DBB
:103EB0001060280601D51B6802E06806FBD51B8848
:103EC0006F2914BF0A2208225248002184F84310A7
:103ED0006568002DA560C0F29580216821F004017D
:103EE0002160002B3DD1002D40F08E806546082AD0
:103EF0000BD12368DB0708D5236962689A42DEBFCD
:103F0000302305F8013C05F1FF35ACEB05032361D7
:103F1000CDF800803B4603AA21463046FFF7F6FE67
:103F200001304DD14FF0FF3005B0BDE8F083394886
:103F300084F84510136821681D1D1B6815600A066A
:103F40000BD5CA0744BF41F0200121601BB922688C
:103F500022F0200222601022B7E74D0648BF9BB234
:103F6000EFE76546B3FBF2F102FB1133C35C05F8E2
:103F7000013D0B460029F5D1B9E713682568181DE6
:103F80006169106028061B6801D5196002E06A06A5
:103F9000FBD51980002365462361B9E71368191D15
:103FA00011601D6862680021284603F099F808B185
:103FB000401B606063682361002384F84330A7E7F7
:103FC00023692A4639463046C0470130AAD02368C3
:103FD0009B0713D4E068039B9842B8BF1846A3E739
:103FE00001234A4639463046C04701309AD0013550
:103FF000E368039A9B1AAB42F2DCEBE7002504F17D
:104000001909F5E7002BACD1037804F1420584F8D7
:1040100042306CE7728D0008838D00082DE9F04F67
:104020009A468B6816465A1EB2F5AE7F88BF6FF46B
:10403000AE7287B085BF9B180193002340F25D13D9
:1040400088464FF0000B8CBF8B6001930B680746CE
:1040500043F4F06348F81C3B0C4645465A46D946A3
:10406000CDE903BBCDF808B0A16881B133681B78F6
:10407000492B71D04DD8392B40D8312B80F0888016
:104080002D2B00F0908015D82B2B00F08C80B9F1EF
:10409000000F03D0236823F480732360013A012AC0
:1040A00000F2EA80454500F2DC800126304607B088
:1040B000BDE8F08F2E2B00F09F80302BE7D12068D9
:1040C00010F4807F64D0019B20F08000206009F113
:1040D00001091BB1013B01310193A160A368013BC0
:1040E000A3602369013323617368013B002B736074
:1040F00040F3AC80336801333360B5E7452B00F003
:104100008580462B6AD0412BC1D1012ABFD1022222
:1041100046E0652B7AD018D8542B66D011D84E2B98
:10412000B5D1002A46D1B9F1000F45D1216801F47B
:10413000E060B0F5E06F3FD121F4F0612160012231
:104140002EE0592B1ED0612BDEE76E2BE9D015D85F
:10415000662B43D0692B9AD1BBF1000F38D1B9F14E
:10416000000F97D1216801F4E060B0F5E06F95D1C0
:1041700021F4F06121604FF0010B11E0742B34D079
:10418000792B84D1BBF1070F81D14FF0080B07E0E9
:1041900012EB0B0F7FF47BAF216821F4C07121601B
:1041A0002B7001359AE7216808067FF570AF21F082
:1041B0008001F4E7022A47D0BBF1010F03D0BBF125
:1041C000040F7FF464AF0BF1010B5FFA8BFBE7E7A1
:1041D000BBF1030FF7D0BBF1050FF2E7BBF1020F04
:1041E0007FF455AF4FF0030BDAE7BBF1060F7FF416
:1041F0004EAF4FF0070BD3E7216888057FF547AF37
:1042000021F420712160CDF80890C9E7216801F4FC
:10421000A060B0F5806F06D048057FF538AFB9F1E2
:10422000000F3FF43BAF880558BF029821F4F061BE
:1042300058BFA9EB000041F4C07158BFCDE9030598
:1042400021604FF00009ABE70322A9E7D4F88031E1
:104250003146384605929847059A00283FF404AF46
:1042600015E7D4F87C31324615F8011D38469847D9
:104270002369013B236115E70BF1FF33062B0AD8B5
:10428000BBF1020F67D9ABF1030B5FFA8BFBA5EB18
:104290000B0B5D454AD12368DA051FD55B0567D452
:1042A00015F8011C2369652903F1FF3305F1FF3B74
:1042B00023610DD045290BD0D4F87C3132463846E5
:1042C0009847236915F8021C013BA5F1020B2361F5
:1042D000D4F87C313246384698475D46266816F059
:1042E000100676D12E70236803F4C063B3F5806F97
:1042F00041D1029BA9EB03035A42002B48D141460E
:104300000022384601F078F92568804615F0020F42
:104310008946DAF8003046D01A1DCAF800201B681A
:10432000C3E90089E3680133E360BFE6D4F87C3178
:10433000324615F8011D384698472369013B236131
:10434000A7E7D4F87C31324615F8011D3846984766
:104350002369013B23614545F3D8A6E6D4F87C31B7
:10436000324615F8011D384698472369013B236101
:104370004545F3D899E6039B002BC0D004990A2346
:1043800032460131384601F0D5F9039B049DC21A2B
:1043900004F26F139D4228BF04F5B7750E492846F5
:1043A00000F0EEF8ABE71F1D15F00405CAF8007029
:1043B000B5D11F6802460B46FCF740FB20B12846EA
:1043C00000F0DAF83860ADE740464946FCF794FB68
:1043D000F8E700266AE600BF948D000837B50D4661
:1043E000044618B183690BB902F0C2F94DB12B78BC
:1043F0003BB1E168284602F09BFAE168094802F007
:1044000097FA01AB01222168204600F0D9F810B1DB
:10441000E16802F08DFAE1680A2002F039FA03B08F
:1044200030BD00BF998D0008024B01461868FFF7A8
:10443000D5BF00BF040000200FB40A4B13B51C68A1
:1044400024B1A36913B9204602F092F905AB049A8E
:10445000A1682046019303F0CFFB02B0BDE81040F5
:1044600004B070470400002038B5084B05461C68AE
:1044700024B1A36913B9204602F07AF9A26829464B
:104480002046BDE8384003F0CBBC00BF040000204C
:1044900070B50E46054618B183690BB902F068F98C
:1044A000AB69AC6813B9284602F062F9234B9C4211
:1044B00017D16C68A3891B071DD52369DBB1013EA9
:1044C000A36816F8011F013BA360E9B9002B2EDA9F
:1044D00022460A21284601F057F9013011D00A205E
:1044E00011E0174B9C4201D1AC68E3E7154B9C42AD
:1044F00008BFEC68DEE72146284601F097F900285E
:10450000DDD04FF0FF3070BD002B04DAA2699A4273
:1045100006DC0A2904D023685A1C22601970CFE7F0
:104520002246284601F030F90130C9D1E9E70A20D6
:1045300023685A1C22601870E5E700BFB894000891
:10454000D894000898940008024B01461868FFF7B9
:104550009FBF00BF0400002038B50023054C05466E
:1045600008462360FEF784FF431C02D1236803B191
:104570002B6038BD8C020020004870470000C07FCF
:104580000EB46FF0004100B59CB01DAB02900690D8
:10459000079104910848094953F8042B05910068D4
:1045A00002A9019303F00AFA0022029B1A701CB0C0
:1045B0005DF804EB03B07047040000200802FFFF21
:1045C00010B50446084611468E2800F22F81DFE818
:1045D00010F038018F00910093009500970099002A
:1045E0009B009D00A100A300A700A900AB00AD00A7
:1045F0002D01AF00B100B300B500B700BD00BF0092
:10460000C500C700C900CB00CD00D100D500D70040
:10461000D900DB00DD00DF00E100E3002D012D010A
:104620002D012D012D012D012D012D01E700EB00A4
:104630002D012D012D012D012D012D012D012D010A
:104640002D012D012D012D012D01ED000701EF00A0
:10465000F1002D012D012D01F3002D012D012D0162
:10466000F5002D012D01F9002D012D01FB002D017B
:104670002D012D012D012D012D012D012D012D01CA
:104680002D01FD002D01FF00010103012D012D0170
:1046900025012D012D012D012D012D012D012D01B2
:1046A0002D011301050109010B010D010F012D0160
:1046B000110115011901E900C1002B01B900CF005A
:1046C000BB009F00A5002901F7002D011701C300C1
:1046D0001D011B012D012D012D012D012D01D300E7
:1046E0002D012D012D01E50027011F0121012301CD
:1046F000554810BD5548FCE75548FAE75548F8E7D6
:104700005548F6E75548F4E75548F2E75548F0E7CD
:104710005548EEE75548ECE75548EAE75548E8E7DD
:104720005548E6E75548E4E75548E2E75548E0E7ED
:104730005548DEE75548DCE75548DAE75548D8E7FD
:104740005548D6E75548D4E75548D2E75548D0E70D
:104750005548CEE75548CCE75548CAE75548C8E71D
:104760005548C6E75548C4E75548C2E75548C0E72D
:104770005548BEE75548BCE75548BAE75548B8E73D
:104780005548B6E75548B4E75548B2E75548B0E74D
:104790005548AEE75548ACE75548AAE75548A8E75D
:1047A0005548A6E75548A4E75548A2E75548A0E76D
:1047B00055489EE755489CE755489AE7554898E77D
:1047C000554896E7554894E7554892E7554890E78D
:1047D00055488EE755488CE755488AE7554888E79D
:1047E000554886E7554884E7554882E7554880E7AD
:1047F00055487EE755487CE755487AE7554878E7BD
:10480000554876E7554874E7554872E7554870E7CC
:1048100055486EE755486CE755486AE7554868E7DC
:10482000554866E7554864E7554862E7002B14BFD2
:104830001A46224600F0A6FF524B002808BF184631
:1048400057E7514855E700BFA48D0008AE8D00081A
:10485000C88D0008D88D0008F08D0008FA8D00087A
:10486000148E0008268E0008388E0008518E00082D
:10487000618E00086D8E00088A8E00089C8E0008EC
:10488000AD8E0008BF8E0008CB8E0008E38E0008B6
:10489000EF8E0008018F0008108F0008208F00089D
:1048A0002D8F00084C8F00085B8F00086C8F00086C
:1048B000908F0008AE8F0008CC8F0008EC8F0008A6
:1048C000039000081290000821900008359000081D
:1048D0004D9000085B900008689000087E900008EA
:1048E0008D90000899900008C8900008D9900008A1
:1048F000F4900008079100081D9100082691000817
:104900003D91000845910008529100086791000808
:104910007B91000893910008A2910008B3910008D0
:10492000C6910008D2910008EB910008FF910008A1
:104930001A920008329200084C9200085492000823
:1049400084920008A3920008C2920008D99200083D
:10495000EC920008059300081C93000832930008AD
:10496000539300086B930008879300089A930008FC
:10497000B0930008C4930008E69300080C94000864
:104980001D940008099600089C8D000810B56AB1B6
:104990000139841810F8013B11F8012F934203D11B
:1049A000A04201D0002BF5D1981A10BD1046FCE7AB
:1049B0002DE9F0410F46904602F078FE04460D4680
:1049C000B8F1000F11D0C7F30A53C3F16B03002BEA
:1049D0000BDD00241B0503F17F5505F5401522462C
:1049E0002B46FBF719FE04460D4620462946BDE836
:1049F000F0810000000000002DE9F04F1F46002369
:104A0000A1B0834638460E4617921C9302F0E1FA95
:104A100080460068FBF73CFC4FF0000904464FF06D
:104A2000000A1B961B9B1A780D2A32D8092A36D207
:104A3000002A3ED000230D931B9D2B78302B40F095
:104A4000AC806B78582B01D0782B67D10D9B0297E7
:104A500001931CAB0093894A1DAB1BA9584601F07A
:104A6000DDFF10F00704064605D0062C2BD10023ED
:104A700001351B950D93179B002B40F0A6850D9BD0
:104A8000E3B14A460AF100431046194621B0BDE899
:104A9000F08F2B2A15D02D2A04D0202ACAD1013319
:104AA0001B93BFE701220D925A1C1B925B78002BCF
:104AB000C2D1179B1B96002B40F085854A46534672
:104AC000E2E70022EFE71C9A3AB135211EA802F076
:104AD000E0FE1C99584602F052FB013C042C06D81B
:104AE000DFE804F00A0314170A00DDE91E9A310713
:104AF000C1D54AF0004ABEE71D9ADDE91E9302F2D5
:104B0000334223F4801343EA025AF0E7DFF870A13E
:104B1000EDE76FF0004A4FF0FF39E8E71B9B5A1CA6
:104B20001B925B78302BF9D0002BA4D001230025F9
:104B30000A2207931B9B0695089304951B980778F8
:104B4000A7F13003D9B2092929D92246D8F8001093
:104B5000FFF71CFF002831D000203B460246049C92
:104B60000590652B01D0452B14D124B910B9079BB2
:104B7000002B9ED000241B9E731C1B9373782B2B41
:104B800078D02D2B70D04FF0000CA3F13007092FF7
:104B90007CD91B964FF0000E9AE00023C7E70499DA
:104BA00001300829D7BF069902FB053502FB013306
:104BB0000693049B1B9001330493BFE71B9B1A19B8
:104BC0001B92049A1B5D002A37D00246049CA3F175
:104BD0003001092913D901210591C2E71B9B01303E
:104BE0005A1C1B925B78302BF8D0A3F13102082AB3
:104BF00000F2F0841B9A0892024600200446B3F1AA
:104C0000300E00F1010112D00A440A27214600EBC0
:104C1000040C8C4513D12118082904F10104044423
:104C200019DC0A21069B01FB03E3069300211B9B71
:104C3000581C1B905B780846C9E70498D3E70829FD
:104C400001F1010103DC069B7B430693E1E7102998
:104C5000D8BF7D43DDE7102CDCBF0A2101FB05E551
:104C6000E4E70123059381E74FF0010CB31C1B938C
:104C7000B3788AE74FF0000CF8E700BF34940008DF
:104C80000000F07F1B9B5F1C1B975B78302BF9D0DB
:104C9000A3F13107082F3FF67DAFA3F1300E1B9B28
:104CA00009931B9B5F1C1B975B78A3F13008B8F13D
:104CB000090F37D909997F1A082F44F61F6737DC87
:104CC000BE45A8BFBE46BCF1000F01D0CEF1000E1C
:104CD000002C51D100287FF4CEAE079A002A7FF431
:104CE000CAAE059A002A7FF4E4AE4E2B27D021DC11
:104CF000492B7FF4DEAEA4491BA802F0C3F80028BC
:104D00003FF4D7AE1B9BA149013B1BA81B9302F0AC
:104D1000B9F810B91B9B01331B93DFF884A24FF045
:104D20000009A8E60A2101FB0E3EAEF1300EB8E7FD
:104D3000BE46C8E7692BDED06E2B7FF4BAAE94492D
:104D40001BA802F09FF800283FF4B3AE1B9B1B7812
:104D5000282B0ED11EAA8F491BA802F0A7F8052800
:104D600007D11F9BDDF8789043F0FF4A4AF4E00A30
:104D700081E6DFF834A2D2E7AEEB02030793049B8F
:104D80000698002B08BF2346102C0493A046A8BF0A
:104D90004FF01008FBF7C6FB092C81468A4613DC4E
:104DA000079B002B3FF467AE079B7EDD162B65DC6F
:104DB000794A02EBC30E4A46DEE900015346FBF78F
:104DC0002BFC81468A4656E6734B03EBC80353E936
:104DD0001223FBF721FC064628460F46FBF7A2FBF1
:104DE00002460B4630463946FBF760FA0F2C8146E7
:104DF0008A46D5DD079BA4EB08089844B8F1000F5C
:104E000040F39A8018F00F030AD063494A4601EB39
:104E1000C301D1E900015346FBF7FEFB81468A46F8
:104E200038F00F0877D0B8F59A7F4BDD4FF00008C7
:104E3000CDF81080CDF82080CDF8188022234FF0D7
:104E40000009DFF85CA1CBF80030089B002B3FF491
:104E500012AE1C99584602F092F90699584602F093
:104E60008EF90499584602F08AF90899584602F0DA
:104E700086F94146584602F082F9FCE5079AC4F1EA
:104E800025039342B6DB444DC4F10F0405EBC40186
:104E90004A46D1E900015346FBF7BEFB079B1C1BAA
:104EA00005EBC405D5E9002389E713F1160FA1DB53
:104EB000394A4846A2EBC302D2E900235146FBF728
:104EC000D5FC7EE70023484651461D46334E4FEA47
:104ED0002818B8F1010F21DC0BB181468A462F4B0F
:104EE000AAF1547A03EBC5054A46D5E900015346B9
:104EF000FBF792FB2A4B0A460B402A4981468B421C
:104F000094D8A1F580118B4286BF4FF0FF39DFF8AE
:104F10009CA002F1547A002305937BE018F0010F66
:104F200006D006EBC503D3E90023FBF775FB01238D
:104F300001354FEA6808CCE7EDD0C8F1000818F059
:104F40000F020AD0144B484603EBC2035146D3E983
:104F50000023FBF78BFC81468A465FEA2818DAD0EB
:104F6000B8F11F0F24DD4FF00008CDF81080CDF808
:104F70002080CDF8188022234FF000094FF0000A5E
:104F8000CBF8003061E700BF658D00088B94000806
:104F90006D8D0008489400083095000808950008B9
:104FA0000000F07F0000A07C0000F8FFFFFFEF7F13
:104FB00018F0100318BF6A23484605935146002392
:104FC000A14DB8F1000F00F313810BB181468A4661
:104FD000059BBBB1CAF30A53C3F16B03002B5146C7
:104FE00010DD1F2B40F31081342BD8BF4FF0FF3260
:104FF0004FF00009CFBF4FF05C7A203B02FA03F379
:1050000003EA010A0022002348465146FBF70EF945
:105010000028A8D1069B049A009308992346584675
:1050200002F0FFF8089000283FF400AF079A079BB2
:10503000002AC3F10003A8BF00234FF000080E931D
:1050400022EAE2731693CDF81080089B58465968FF
:1050500002F061F8069000283FF4F0AE089B0C3097
:105060001A6903F10C010232920002F047F81EABFC
:1050700001931DAB00934A4653465846CDE90A9A20
:1050800002F08AFB1C9000283FF4D8AE012158465C
:1050900002F053F90490034600283FF4CFAE1D9D63
:1050A0001E9A002DABBF0E9B169BEE185C1B059B3A
:1050B000A8BF169CA5EB03051544644B05F1FF350D
:1050C000B8BF0E9E9D42C2F1360280F2AF805B1BDC
:1050D0001F2BA2EB03024FF0010700F39C80002579
:1050E00007FA03F30F93B718059BBE4214441C4400
:1050F0003346A8BF3B46A342A8BF2346002BC2BFEE
:10510000FF1AE41AF61A0E9BBBB11A4604995846C8
:1051100002F0B2F9049000283FF490AE01461C9AC8
:10512000584602F013F9099000283FF487AE1C9905
:10513000584602F024F8099B1C93002F7ADC079B49
:10514000002B08DD169A0699584602F095F906904C
:1051500000283FF473AE002C08DD2246069958461D
:1051600002F0D8F9069000283FF468AE002E08DD62
:1051700032460499584602F0CDF9049000283FF4D5
:105180005DAE069A1C99584602F032FA8046002815
:105190003FF454AE0024C3680499C4600C9302F039
:1051A0000DFAA04254DA0C9BF3B9B9F1000F1BD1F0
:1051B000CAF31303C3B92AF000431B0D1B05B3F157
:1051C000D66F11D9D8F814301BB9D8F81030012B8C
:1051D0000ADD41460122584602F09CF904998046B6
:1051E00002F0ECF9002868DC059B002B72D130E658
:1051F00018F0010F04D0D5E90023FBF70DFA0123C5
:105200004FEA68080835DCE64FF0FF3202FA03F394
:1052100003EA0909F6E6C5F17F4505F57F0505F5C1
:105220007B45E23507FA05F50F975CE7012300257A
:105230000F9358E73A461C99584602F06BF91C90B8
:1052400000287FF47CAFF9E56094000802FCFFFFC2
:10525000CDF824A040F089800C9ACAF3130342B31E
:10526000AF4A934256D1059B4846EBB15346AD4AEF
:105270004FF0FF311A40B2F1D46F18D8120DC2F1BD
:105280006B0301FA03F3984244D1A74B099A9A425F
:1052900002D101303FF4D2ADA24B099A4FF0000980
:1052A0001A4002F5801A9FE74FF0FF33EBE70B46F9
:1052B000E9E77BBBB9F1000F2CD105995346994A18
:1052C000F1B102EA0A01B1F1D66F19DCB1F15C7FEC
:1052D0007FF751AE0023954A4846CDE91432514636
:1052E000DDE91423FBF798F981468A4600297FF40B
:1052F000B0AD00287FF4ADAD2223CBF80030A8E597
:105300001340A3F580136FEA135A4FF0FF396FEA89
:105310000A5A69E79DB1099B1D423FF465AF0C9B9A
:10532000059A4846514673B1FFF742FB02460B46C9
:10533000DDE90A01FAF7BAFF81468A4654E70F9B76
:1053400013EA090FE9E7FFF733FB02460B46DDE9F5
:105350000A01FAF7A9FF0022002381468A46FAF7DC
:1053600065FF00287FF407AE3EE70499404602F04F
:1053700062FA00224FF0804306460F46FAF76AFFB2
:10538000002875D00C9B002B47D00026684F684D35
:10539000099B23F000431B0D1B050F930F9A654BD0
:1053A0009A4240F0CF80DDE90A23CDE91423099B1E
:1053B0004846A3F1547A514602F078F902460B466A
:1053C00030463946FBF728F94A465346FAF76EFF4E
:1053D0000B465449584A1940914281465ED90B9B6D
:1053E00002F15472934203D10A9B01333FF426AD7C
:1053F0004FF0FF39DFF830A11C99584601F0BFFE8D
:105400000699584601F0BBFE0499584601F0B7FED4
:105410004146584601F0B3FE17E6B9F1000F19D125
:10542000099BC3F31303E3B90022414B30463946CD
:10543000FAF706FFC8B90022404B30463946FBF761
:10544000EBF804460D4605F1004318941993DDE985
:1054500018679DE7B9F1010F03D1099B002B3FF4B9
:105460008AAD0026364F002491E70C9C334DEAE7C5
:10547000324B002230463946FBF7CEF80C9B0446EF
:105480000D4633B901F1004310901193DDE9106727
:105490007EE702460B46CDE91023F7E703F1547A85
:1054A000059B002BA8D12AF000431B0D0F9A1B056A
:1054B0009A425646A0D129462046FBF7D5FAFBF77B
:1054C00041F80B46024629462046FAF7EDFE0C9BB2
:1054D00004460D4633B9B9F1000F03D1CAF31306E0
:1054E000002E6AD00AA3D3E9002320462946FAF702
:1054F000A7FE00287FF4ADAC07A3D3E90023204624
:105500002946FAF7BBFE00283FF476AFA1E400BFBE
:105510009535A094FFFFDF3F35E5AF350000E03F54
:10552000FFFF0F000000F07FFFFFEF7F000050390A
:105530000000F03F0000E07FFFFF9F7C0000E03FA5
:105540000000F0BF059B13B30F9BB3F1D46F1ED8BF
:1055500025A3D3E9002320462946FAF77BFE90B124
:1055600029462046FBF7A8FA002808BF0120FAF7D1
:10557000D9FF0C9B04460D46D3B901F100431290AC
:105580001393DDE912670F9A07F1D6639F1ADDE9DD
:105590000A0102F08BF802460B4630463946FBF70B
:1055A0003BF8DDE90A23FAF781FE81468A4677E770
:1055B00002460B46CDE91223E3E70DA3D3E900230E
:1055C000FAF73EFE9FE700230D931B9B179A13608B
:1055D000FFF755BA652B4FF000023FF442AB0121B3
:1055E00014460591FFF7BFBA0000C0FFFFFFDF417F
:1055F0009535A094FFFFCF3F054B10B41B68054CB9
:105600001B6A002B08BF234610BCFFF7F5B900BF8B
:105610000400002068000020064B10B41C68064AF5
:10562000236A002B08BF13460A460146204610BCD9
:10563000FFF7E2B904000020680000202DE9F047E0
:105640008046894692461E460F463D46089815F804
:10565000014B01F0BBFC2044437813F0080332D126
:105660002D2C32D101227C78BD1C002E5DD0102E55
:1056700009D1302C07D12B7803F0DF03582B4FD101
:1056800010266C780235002A14BF4FF000416FF0ED
:1056900000410027B1FBF6FC384606FB1C1EA4F1B6
:1056A0003003092B17D81C46A64223DD7B1C07D0EC
:1056B00084451CD301D1A64519DB012700FB064018
:1056C00015F8014BEBE72F46BFE72B2C04BFBD1CA1
:1056D0007C781A46C9E7A4F14103192B01D8373C5D
:1056E000E2E7A4F16103192B04D8573CDCE74FF043
:1056F000FF37E5E77B1C08D122230846C8F80030B5
:10570000BAF1000F07D1BDE8F08702B14042BAF10B
:10571000000FF8D00FB105F1FF39CAF80090F2E799
:105720003024002EAFD10826ADE7302CA3D00A26B6
:10573000A9E7000037B5064C064D2468246A002C02
:1057400008BF2C460094FFF779FF03B030BD00BFBF
:105750000400002068000020084B37B51C68084D85
:10576000236A002B08BF2B46009313460A460146C6
:105770002046FFF763FF03B030BD00BF04000020E8
:105780006800002000207047F8B50E461446054614
:1057900018B183690BB900F0EBFF214B9C422AD171
:1057A0006C68A369A360A3891A072ED5236963B324
:1057B00023692068F6B2C01A63693746834204DC65
:1057C0002146284600F06AFF28BBA3680130013B50
:1057D000A36023685A1C22601E706369834204D050
:1057E000A389DB0719D50A2E17D12146284600F0D8
:1057F00055FF90B10FE00B4B9C4201D1AC68D0E754
:10580000094B9C4208BFEC68CBE72146284600F0D4
:105810000DF80028CCD04FF0FF373846F8BD00BF58
:10582000B8940008D894000898940008324B70B5DA
:105830001D6806460C4625B1AB6913B9284600F031
:1058400097FF2E4B9C420FD16C68B4F90C309AB282
:1058500015072CD4D00611D40922326043F040033E
:10586000A3814FF0FF303EE0254B9C4201D1AC6854
:10587000EBE7244B9C4208BFEC68E6E7510712D5E2
:10588000616B41B104F14403994202D03046FDF707
:10589000CFFE00236363A38923F02403A3810023A5
:1058A000636023692360A38943F00803A38123690C
:1058B0004BB9A38903F42073B3F5007F03D02146CD
:1058C000304601F0BBFBA28912F001030CD000238B
:1058D000A36063695B42A361236953B9B4F90C30D7
:1058E00013F08000BAD170BD920758BF6369A360FE
:1058F000F2E70020F7E700BF04000020B89400089A
:10590000D8940008989400082DE9F74F03690C69B2
:105910008046A342C0F28480013C01F1140700F1EB
:10592000140657F8245056F824000135B0FBF5F55D
:105930004FEA840C06EB0C0307EB0C0901939DB3B3
:105940004FF0000A3846B646D34650F8042B93B2BF
:1059500005FB03A3120C4FEA134A05FB02A29BB2FC
:10596000ABEB0303DEF800B04FEA124A1FFA8BFBE1
:105970005B441FFA82FBDEF800208145CBEB12422C
:1059800002EB23429BB243EA02434FEA224B4EF81A
:10599000043BDAD256F80C3033B9019B043B9E42EB
:1059A0001A4631D3C8F81040404601F007FE0028DF
:1059B00026DB30464FF0000C013557F8041BD0F8B9
:1059C00000E08BB2ACEB03031FFA8EF213440A0C17
:1059D000C2EB1E4202EB23429BB243EA0243B945AB
:1059E0004FEA224C40F8043BE7D256F8242006EB5D
:1059F00084032AB9043B9E421A460BD3C8F81040D0
:105A0000284603B0BDE8F08F1268043B002AC9D1D4
:105A1000013CC4E71268043B002AEFD1013CEAE7ED
:105A20000020EEE7000000002DE9F04F16461F466B
:105A3000456A95B00446DDF88480CDE902673DB93A
:105A40001020FDF7D7FD6062C0E901550560C56013
:105A5000636A196851B15A68012393404A608B60A8
:105A6000204601F08CFB0022636A1A603B1EAFBF28
:105A70000023012223F000430393ACBFC8F8003099
:105A8000C8F80020AE4BDDF80C8033EA08031BD1C8
:105A900042F20F73209A1360029B23B9C8F31300DC
:105AA000002800F04585229B53B9A64B21E0A64B68
:105AB00006930833229A1360069815B0BDE8F08F5C
:105AC000A04B06930333F5E7DDE9026700220023CC
:105AD00030463946FAF7AAFB824660B10123209A84
